00PESC0129CBLC  012920181172018117
0120180117ABCB2       0000550C00402320000000000000100216001290000402320 VIS000000005010000001             BRABCBD12PR6000BCO ABC BRASDP   12,46  1
0120180117ABCB2       0000560C00402320000000000000028216001290000402320 VIS000000005010000001             BRABCBD12PR6000BCO ABC BRASDP   12,46  1
0120180117ABCB2       0000560C00404772000000000000072216018290000013456 VIS000000005010000001             BRABCBD12PR6000BCO ABC BRASDP   12,46C 1
0120180117ABCB2       0001180C00402320000000000000200216001290000402320 VIS000000005000000001             BRABCBD12PR6000BCO ABC BRASDP   12,46  1
0120180117ABCB2       0001190C00402320000000000001000216001290000402320 VIS000000005000000001             BRABCBD12PR6000BCO ABC BRASDP   12,46  1
0120180117ABCB2       0001200C00402320000000000000072216001290000402320 VIS000000005000000001             BRABCBD12PR6000BCO ABC BRASDP   12,46  1
0120180117ABCB2       0001200C00404772000000000000728216018290000013456 VIS000000005000000001             BRABCBD12PR6000BCO ABC BRASDP   12,46C 1
0120180117BBDC4       0079330C00402320000000000000144216001290000402320 VIS000000036280000001             BRBBDCACNPR8000BCO BRADESCOPN      N1  1
0120180117BBDC4       0079330C00404772000000000001656216018290000013456 VIS000000036280000001             BRBBDCACNPR8000BCO BRADESCOPN      N1C 1
0120180117BBDC4       0079340C00402320000000000000100216001290000402320 VIS000000036280000001             BRBBDCACNPR8000BCO BRADESCOPN      N1  1
0120180117BBDC4       0079350C00402320000000000000100216001290000402320 VIS000000036280000001             BRBBDCACNPR8000BCO BRADESCOPN      N1  1
0120180117BBDC4       0079360C00402320000000000000300216001290000402320 VIS000000036280000001             BRBBDCACNPR8000BCO BRADESCOPN      N1  1
0120180117BBDC4       0079370C00402320000000000001000216001290000402320 VIS000000036280000001             BRBBDCACNPR8000BCO BRADESCOPN      N1  1
0120180117BBDC4       0079380C00402320000000000000300216001290000402320 VIS000000036280000001             BRBBDCACNPR8000BCO BRADESCOPN      N1  1
0120180117BBDC4       0079390C00402320000000000000100216001290000402320 VIS000000036280000001             BRBBDCACNPR8000BCO BRADESCOPN      N1  1
0120180117BBDC4       0079570C00402320000000000000500216001290000402320 VIS000000036280000001             BRBBDCACNPR8000BCO BRADESCOPN      N1  1
0120180117BBDC4       0079590C00402320000000000000200216001290000402320 VIS000000036280000001             BRBBDCACNPR8000BCO BRADESCOPN      N1  1
0120180117BBDC4       0079610C00402320000000000000100216001290000402320 VIS000000036280000001             BRBBDCACNPR8000BCO BRADESCOPN      N1  1
0120180117BBDC4       0079620C00402320000000000000100216001290000402320 VIS000000036280000001             BRBBDCACNPR8000BCO BRADESCOPN      N1  1
0120180117BBDC4       0094180V00404772000000000000200216018290000013456 VIS000000036400000001             BRBBDCACNPR8000BCO BRADESCOPN      N1C 1
0120180117BBDC4       0094210V00404772000000000000100216018290000013456 VIS000000036400000001             BRBBDCACNPR8000BCO BRADESCOPN      N1C 1
0120180117BBDC4       0094350V00404772000000000000200216018290000013456 VIS000000036410000001             BRBBDCACNPR8000BCO BRADESCOPN      N1C 1
0120180117BBDC4       0094520V00402320000000000000041216001290000402320 VIS000000036400000001             BRBBDCACNPR8000BCO BRADESCOPN      N1  1
0120180117BBDC4       0094520V00404772000000000000159216018290000013456 VIS000000036400000001             BRBBDCACNPR8000BCO BRADESCOPN      N1C 1
0120180117BBDC4       0094530V00402320000000000000100216001290000402320 VIS000000036400000001             BRBBDCACNPR8000BCO BRADESCOPN      N1  1
0120180117BBDC4       0094540V00402320000000000000400216001290000402320 VIS000000036400000001             BRBBDCACNPR8000BCO BRADESCOPN      N1  1
0120180117BBDC4       0094550V00402320000000000000200216001290000402320 VIS000000036400000001             BRBBDCACNPR8000BCO BRADESCOPN      N1  1
0120180117BBDC4       0094560V00402320000000000000100216001290000402320 VIS000000036400000001             BRBBDCACNPR8000BCO BRADESCOPN      N1  1
0120180117BBDC4       0094620V00402320000000000000123216001290000402320 VIS000000036390000001             BRBBDCACNPR8000BCO BRADESCOPN      N1  1
0120180117BBDC4       0094620V00404772000000000000177216018290000013456 VIS000000036390000001             BRBBDCACNPR8000BCO BRADESCOPN      N1C 1
0120180117BBDC4       0094630V00402320000000000000100216001290000402320 VIS000000036390000001             BRBBDCACNPR8000BCO BRADESCOPN      N1  1
0120180117BBDC4       0094660V00402320000000000000100216001290000402320 VIS000000036390000001             BRBBDCACNPR8000BCO BRADESCOPN      N1  1
0120180117BBDC4       0095060V00404772000000000000900216018290000013456 VIS000000036410000001             BRBBDCACNPR8000BCO BRADESCOPN      N1C 1
0120180117BBDC4       0095070V00402320000000000000069216001290000402320 VIS000000036410000001             BRBBDCACNPR8000BCO BRADESCOPN      N1  1
0120180117BBDC4       0095070V00404772000000000000031216018290000013456 VIS000000036410000001             BRBBDCACNPR8000BCO BRADESCOPN      N1C 1
0120180117BBDC4       0095080V00402320000000000000500216001290000402320 VIS000000036410000001             BRBBDCACNPR8000BCO BRADESCOPN      N1  1
0120180117BBDC4       0095090V00402320000000000000100216001290000402320 VIS000000036410000001             BRBBDCACNPR8000BCO BRADESCOPN      N1  1
0120180117BBDC4       0095100V00402320000000000000100216001290000402320 VIS000000036410000001             BRBBDCACNPR8000BCO BRADESCOPN      N1  1
0120180117BBDC4       0095110V00402320000000000000100216001290000402320 VIS000000036410000001             BRBBDCACNPR8000BCO BRADESCOPN      N1  1
0120180117BBDC4       0095120V00402320000000000000200216001290000402320 VIS000000036410000001             BRBBDCACNPR8000BCO BRADESCOPN      N1  1
0120180117BBDC4       0095130V00402320000000000000100216001290000402320 VIS000000036410000001             BRBBDCACNPR8000BCO BRADESCOPN      N1  1
0120180117BBDC4       0095140V00402320000000000000100216001290000402320 VIS000000036410000001             BRBBDCACNPR8000BCO BRADESCOPN      N1  1
0120180117BBDC4       0095150V00402320000000000000200216001290000402320 VIS000000036410000001             BRBBDCACNPR8000BCO BRADESCOPN      N1  1
0120180117BBDC4       0095160V00402320000000000000500216001290000402320 VIS000000036410000001             BRBBDCACNPR8000BCO BRADESCOPN      N1  1
0120180117BBDC4       0095170V00402320000000000000100216001290000402320 VIS000000036410000001             BRBBDCACNPR8000BCO BRADESCOPN      N1  1
0120180117BBDC4       0110380C00402320000000000000156216001290000402320 VIS000000036570000001             BRBBDCACNPR8000BCO BRADESCOPN      N1  1
0120180117BBDC4       0110380C00404772000000000000144216018290000013456 VIS000000036570000001             BRBBDCACNPR8000BCO BRADESCOPN      N1C 1
0120180117BBDC4       0110390C00402320000000000000100216001290000402320 VIS000000036570000001             BRBBDCACNPR8000BCO BRADESCOPN      N1  1
0120180117BBDC4       0134290V00404772000000000001100216018290000013456 VIS000000036650000001             BRBBDCACNPR8000BCO BRADESCOPN      N1C 1
0120180117BBDC4       0134300V00404772000000000000100216018290000013456 VIS000000036650000001             BRBBDCACNPR8000BCO BRADESCOPN      N1C 1
0120180117BBDC4       0134310V00404772000000000000200216018290000013456 VIS000000036650000001             BRBBDCACNPR8000BCO BRADESCOPN      N1C 1
0120180117BBDC4       0134320V00404772000000000000100216018290000013456 VIS000000036650000001             BRBBDCACNPR8000BCO BRADESCOPN      N1C 1
0120180117BBDC4       0134330V00404772000000000000800216018290000013456 VIS000000036650000001             BRBBDCACNPR8000BCO BRADESCOPN      N1C 1
0120180117BBDC4       0134340V00404772000000000000100216018290000013456 VIS000000036650000001             BRBBDCACNPR8000BCO BRADESCOPN      N1C 1
0120180117BBDC4       0134350V00404772000000000000100216018290000013456 VIS000000036650000001             BRBBDCACNPR8000BCO BRADESCOPN      N1C 1
0120180117BBDC4       0134360V00404772000000000000600216018290000013456 VIS000000036650000001             BRBBDCACNPR8000BCO BRADESCOPN      N1C 1
0120180117BBDC4       0134370V00404772000000000000100216018290000013456 VIS000000036650000001             BRBBDCACNPR8000BCO BRADESCOPN      N1C 1
0120180117BBDC4       0134380V00404772000000000000100216018290000013456 VIS000000036650000001             BRBBDCACNPR8000BCO BRADESCOPN      N1C 1
0120180117BBDC4       0134390V00402320000000000000167216001290000402320 VIS000000036650000001             BRBBDCACNPR8000BCO BRADESCOPN      N1  1
0120180117BBDC4       0134390V00404772000000000000233216018290000013456 VIS000000036650000001             BRBBDCACNPR8000BCO BRADESCOPN      N1C 1
0120180117BBDC4       0134400V00402320000000000000200216001290000402320 VIS000000036650000001             BRBBDCACNPR8000BCO BRADESCOPN      N1  1
0120180117BBDC4       0134410V00402320000000000000100216001290000402320 VIS000000036650000001             BRBBDCACNPR8000BCO BRADESCOPN      N1  1
0120180117BBDC4       0134420V00402320000000000000100216001290000402320 VIS000000036650000001             BRBBDCACNPR8000BCO BRADESCOPN      N1  1
0120180117BBDC4       0134430V00402320000000000000100216001290000402320 VIS000000036650000001             BRBBDCACNPR8000BCO BRADESCOPN      N1  1
0120180117BBDC4       0134440V00402320000000000000800216001290000402320 VIS000000036650000001             BRBBDCACNPR8000BCO BRADESCOPN      N1  1
0120180117BBDC4       0134450V00402320000000000000500216001290000402320 VIS000000036650000001             BRBBDCACNPR8000BCO BRADESCOPN      N1  1
0120180117BBDC4       0134490V00402320000000000000100216001290000402320 VIS000000036650000001             BRBBDCACNPR8000BCO BRADESCOPN      N1  1
0120180117BBDC4       0134500V00402320000000000000300216001290000402320 VIS000000036650000001             BRBBDCACNPR8000BCO BRADESCOPN      N1  1
0120180117BBDC4       0134550V00402320000000000000100216001290000402320 VIS000000036650000001             BRBBDCACNPR8000BCO BRADESCOPN      N1  1
0120180117BBDC4       0134570V00402320000000000000100216001290000402320 VIS000000036650000001             BRBBDCACNPR8000BCO BRADESCOPN      N1  1
0120180117BBDC4       0134580V00402320000000000000200216001290000402320 VIS000000036650000001             BRBBDCACNPR8000BCO BRADESCOPN      N1  1
0120180117BBDC4       0134590V00402320000000000000200216001290000402320 VIS000000036650000001             BRBBDCACNPR8000BCO BRADESCOPN      N1  1
0120180117BBDC4       0134610V00402320000000000000100216001290000402320 VIS000000036650000001             BRBBDCACNPR8000BCO BRADESCOPN      N1  1
0120180117BBDC4       0134620V00402320000000000000100216001290000402320 VIS000000036650000001             BRBBDCACNPR8000BCO BRADESCOPN      N1  1
0120180117BBDC4       0134630V00402320000000000000100216001290000402320 VIS000000036650000001             BRBBDCACNPR8000BCO BRADESCOPN      N1  1
0120180117BBDC4       0134640V00402320000000000000100216001290000402320 VIS000000036650000001             BRBBDCACNPR8000BCO BRADESCOPN      N1  1
0120180117BBDC4       0134650V00402320000000000000100216001290000402320 VIS000000036650000001             BRBBDCACNPR8000BCO BRADESCOPN      N1  1
0120180117BBDC4       0134660V00402320000000000000100216001290000402320 VIS000000036650000001             BRBBDCACNPR8000BCO BRADESCOPN      N1  1
0120180117BBDC4       0134680V00402320000000000000100216001290000402320 VIS000000036650000001             BRBBDCACNPR8000BCO BRADESCOPN      N1  1
0120180117BBDC4       0134690V00402320000000000000100216001290000402320 VIS000000036650000001             BRBBDCACNPR8000BCO BRADESCOPN      N1  1
0120180117BBDC4       0134710V00402320000000000000100216001290000402320 VIS000000036650000001             BRBBDCACNPR8000BCO BRADESCOPN      N1  1
0120180117BBDC4       0134720V00402320000000000000100216001290000402320 VIS000000036650000001             BRBBDCACNPR8000BCO BRADESCOPN      N1  1
0120180117BBDC4       0134740V00402320000000000000100216001290000402320 VIS000000036650000001             BRBBDCACNPR8000BCO BRADESCOPN      N1  1
0120180117BBDC4       0134750V00402320000000000000100216001290000402320 VIS000000036650000001             BRBBDCACNPR8000BCO BRADESCOPN      N1  1
0120180117BBDC4       0134760V00402320000000000000100216001290000402320 VIS000000036650000001             BRBBDCACNPR8000BCO BRADESCOPN      N1  1
0120180117BBDC4       0134780V00402320000000000000100216001290000402320 VIS000000036650000001             BRBBDCACNPR8000BCO BRADESCOPN      N1  1
0120180117BBDC4       0134790V00402320000000000000100216001290000402320 VIS000000036650000001             BRBBDCACNPR8000BCO BRADESCOPN      N1  1
0120180117BBDC4       0134800V00402320000000000000100216001290000402320 VIS000000036650000001             BRBBDCACNPR8000BCO BRADESCOPN      N1  1
0120180117BBDC4       0134820V00402320000000000000100216001290000402320 VIS000000036650000001             BRBBDCACNPR8000BCO BRADESCOPN      N1  1
0120180117BBDC4       0134830V00402320000000000000100216001290000402320 VIS000000036650000001             BRBBDCACNPR8000BCO BRADESCOPN      N1  1
0120180117BBDC4       0134840V00402320000000000000100216001290000402320 VIS000000036650000001             BRBBDCACNPR8000BCO BRADESCOPN      N1  1
0120180117BBDC4       0134850V00402320000000000000100216001290000402320 VIS000000036650000001             BRBBDCACNPR8000BCO BRADESCOPN      N1  1
0120180117BBDC4       0134860V00402320000000000000100216001290000402320 VIS000000036650000001             BRBBDCACNPR8000BCO BRADESCOPN      N1  1
0120180117BBDC4       0134870V00402320000000000000100216001290000402320 VIS000000036650000001             BRBBDCACNPR8000BCO BRADESCOPN      N1  1
0120180117BBDC4       0134890V00402320000000000000100216001290000402320 VIS000000036650000001             BRBBDCACNPR8000BCO BRADESCOPN      N1  1
0120180117BBDC4       0134900V00402320000000000000100216001290000402320 VIS000000036650000001             BRBBDCACNPR8000BCO BRADESCOPN      N1  1
0120180117BBDC4       0134910V00402320000000000000100216001290000402320 VIS000000036650000001             BRBBDCACNPR8000BCO BRADESCOPN      N1  1
0120180117BBDC4       0134920V00402320000000000000100216001290000402320 VIS000000036650000001             BRBBDCACNPR8000BCO BRADESCOPN      N1  1
0120180117BBDC4       0135000V00402320000000000000100216001290000402320 VIS000000036650000001             BRBBDCACNPR8000BCO BRADESCOPN      N1  1
0120180117BBDC4       0135020V00402320000000000000100216001290000402320 VIS000000036650000001             BRBBDCACNPR8000BCO BRADESCOPN      N1  1
0120180117BBDC4       0135030V00402320000000000000100216001290000402320 VIS000000036650000001             BRBBDCACNPR8000BCO BRADESCOPN      N1  1
0120180117BBDC4       0135050V00402320000000000000100216001290000402320 VIS000000036650000001             BRBBDCACNPR8000BCO BRADESCOPN      N1  1
0120180117BBDC4       0135060V00402320000000000000100216001290000402320 VIS000000036650000001             BRBBDCACNPR8000BCO BRADESCOPN      N1  1
0120180117BBDC4       0135070V00402320000000000000100216001290000402320 VIS000000036650000001             BRBBDCACNPR8000BCO BRADESCOPN      N1  1
0120180117BBDC4       0135080V00402320000000000000100216001290000402320 VIS000000036650000001             BRBBDCACNPR8000BCO BRADESCOPN      N1  1
0120180117BBDC4       0135090V00402320000000000000100216001290000402320 VIS000000036650000001             BRBBDCACNPR8000BCO BRADESCOPN      N1  1
0120180117BBDC4       0135130V00402320000000000000100216001290000402320 VIS000000036650000001             BRBBDCACNPR8000BCO BRADESCOPN      N1  1
0120180117FESA4       0001620C00404772000000000000100216018290000013456 VIS000000022800000001             BRFESAACNPR5000CIA FERRO LIPN      N1C 1
0120180117FESA4       0001630C00402320000000000000200216001290000402320 VIS000000022800000001             BRFESAACNPR5000CIA FERRO LIPN      N1  1
0120180117FESA4       0001630C00404772000000000000300216018290000013456 VIS000000022800000001             BRFESAACNPR5000CIA FERRO LIPN      N1C 1
0120180117FESA4       0001640C00402320000000000000400216001290000402320 VIS000000022800000001             BRFESAACNPR5000CIA FERRO LIPN      N1  1
0120180117FESA4       0017680V00402320000000000000600216001290000402320 VIS000000024150000001             BRFESAACNPR5000CIA FERRO LIPN      N1  1
0120180117FESA4       0017680V00404772000000000000400216018290000013456 VIS000000024150000001             BRFESAACNPR5000CIA FERRO LIPN      N1C 1
0120180117ITUB4       0096410V00404772000000000002900216018290000013456 VIS000000046500000001             BRITUBACNPR1000ITAU UNIBANCPN      N1C 1
0120180117ITUB4       0096420V00404772000000000000200216018290000013456 VIS000000046500000001             BRITUBACNPR1000ITAU UNIBANCPN      N1C 1
0120180117ITUB4       0096430V00402320000000000000900216001290000402320 VIS000000046500000001             BRITUBACNPR1000ITAU UNIBANCPN      N1  1
0120180117ITUB4       0096430V00404772000000000000500216018290000013456 VIS000000046500000001             BRITUBACNPR1000ITAU UNIBANCPN      N1C 1
0120180117ITUB4       0096440V00402320000000000000100216001290000402320 VIS000000046500000001             BRITUBACNPR1000ITAU UNIBANCPN      N1  1
0120180117ITUB4       0096450V00402320000000000000100216001290000402320 VIS000000046500000001             BRITUBACNPR1000ITAU UNIBANCPN      N1  1
0120180117ITUB4       0096460V00402320000000000000100216001290000402320 VIS000000046500000001             BRITUBACNPR1000ITAU UNIBANCPN      N1  1
0120180117ITUB4       0096470V00402320000000000000100216001290000402320 VIS000000046500000001             BRITUBACNPR1000ITAU UNIBANCPN      N1  1
0120180117ITUB4       0096480V00402320000000000000300216001290000402320 VIS000000046500000001             BRITUBACNPR1000ITAU UNIBANCPN      N1  1
0120180117ITUB4       0096490V00402320000000000000100216001290000402320 VIS000000046500000001             BRITUBACNPR1000ITAU UNIBANCPN      N1  1
0120180117ITUB4       0096530V00402320000000000000100216001290000402320 VIS000000046500000001             BRITUBACNPR1000ITAU UNIBANCPN      N1  1
0120180117ITUB4       0096550V00402320000000000000100216001290000402320 VIS000000046500000001             BRITUBACNPR1000ITAU UNIBANCPN      N1  1
0120180117ITUB4       0096560V00402320000000000000100216001290000402320 VIS000000046500000001             BRITUBACNPR1000ITAU UNIBANCPN      N1  1
0120180117ITUB4       0096570V00402320000000000000100216001290000402320 VIS000000046500000001             BRITUBACNPR1000ITAU UNIBANCPN      N1  1
0120180117ITUB4       0096580V00402320000000000000100216001290000402320 VIS000000046500000001             BRITUBACNPR1000ITAU UNIBANCPN      N1  1
0120180117ITUB4       0096590V00402320000000000000100216001290000402320 VIS000000046500000001             BRITUBACNPR1000ITAU UNIBANCPN      N1  1
0120180117ITUB4       0096600V00402320000000000004100216001290000402320 VIS000000046500000001             BRITUBACNPR1000ITAU UNIBANCPN      N1  1
0120180117ITUB4       0127060C00402320000000000000722216001290000402320 VIS000000046650000001             BRITUBACNPR1000ITAU UNIBANCPN      N1  1
0120180117ITUB4       0127060C00404772000000000001778216018290000013456 VIS000000046650000001             BRITUBACNPR1000ITAU UNIBANCPN      N1C 1
0120180117ITUB4       0127070C00402320000000000002500216001290000402320 VIS000000046650000001             BRITUBACNPR1000ITAU UNIBANCPN      N1  1
0120180117ITUB4       0141510C00404772000000000000200216018290000013456 VIS000000046600000001             BRITUBACNPR1000ITAU UNIBANCPN      N1C 1
0120180117ITUB4       0141530C00404772000000000000100216018290000013456 VIS000000046600000001             BRITUBACNPR1000ITAU UNIBANCPN      N1C 1
0120180117ITUB4       0141870C00404772000000000000200216018290000013456 VIS000000046610000001             BRITUBACNPR1000ITAU UNIBANCPN      N1C 1
0120180117ITUB4       0142310C00402320000000000000038216001290000402320 VIS000000046600000001             BRITUBACNPR1000ITAU UNIBANCPN      N1  1
0120180117ITUB4       0142310C00404772000000000000162216018290000013456 VIS000000046600000001             BRITUBACNPR1000ITAU UNIBANCPN      N1C 1
0120180117ITUB4       0142320C00402320000000000000100216001290000402320 VIS000000046600000001             BRITUBACNPR1000ITAU UNIBANCPN      N1  1
0120180117ITUB4       0142330C00402320000000000000400216001290000402320 VIS000000046600000001             BRITUBACNPR1000ITAU UNIBANCPN      N1  1
0120180117ITUB4       0142340C00402320000000000000200216001290000402320 VIS000000046600000001             BRITUBACNPR1000ITAU UNIBANCPN      N1  1
0120180117ITUB4       0142350C00402320000000000000100216001290000402320 VIS000000046600000001             BRITUBACNPR1000ITAU UNIBANCPN      N1  1
0120180117ITUB4       0142420C00402320000000000000122216001290000402320 VIS000000046590000001             BRITUBACNPR1000ITAU UNIBANCPN      N1  1
0120180117ITUB4       0142420C00404772000000000000178216018290000013456 VIS000000046590000001             BRITUBACNPR1000ITAU UNIBANCPN      N1C 1
0120180117ITUB4       0142430C00402320000000000000100216001290000402320 VIS000000046590000001             BRITUBACNPR1000ITAU UNIBANCPN      N1  1
0120180117ITUB4       0142450C00402320000000000000100216001290000402320 VIS000000046590000001             BRITUBACNPR1000ITAU UNIBANCPN      N1  1
0120180117ITUB4       0143310C00404772000000000000900216018290000013456 VIS000000046610000001             BRITUBACNPR1000ITAU UNIBANCPN      N1C 1
0120180117ITUB4       0143320C00402320000000000000063216001290000402320 VIS000000046610000001             BRITUBACNPR1000ITAU UNIBANCPN      N1  1
0120180117ITUB4       0143320C00404772000000000000037216018290000013456 VIS000000046610000001             BRITUBACNPR1000ITAU UNIBANCPN      N1C 1
0120180117ITUB4       0143330C00402320000000000000500216001290000402320 VIS000000046610000001             BRITUBACNPR1000ITAU UNIBANCPN      N1  1
0120180117ITUB4       0143340C00402320000000000000100216001290000402320 VIS000000046610000001             BRITUBACNPR1000ITAU UNIBANCPN      N1  1
0120180117ITUB4       0143350C00402320000000000000100216001290000402320 VIS000000046610000001             BRITUBACNPR1000ITAU UNIBANCPN      N1  1
0120180117ITUB4       0143360C00402320000000000000100216001290000402320 VIS000000046610000001             BRITUBACNPR1000ITAU UNIBANCPN      N1  1
0120180117ITUB4       0143370C00402320000000000000200216001290000402320 VIS000000046610000001             BRITUBACNPR1000ITAU UNIBANCPN      N1  1
0120180117ITUB4       0143380C00402320000000000000100216001290000402320 VIS000000046610000001             BRITUBACNPR1000ITAU UNIBANCPN      N1  1
0120180117ITUB4       0143390C00402320000000000000100216001290000402320 VIS000000046610000001             BRITUBACNPR1000ITAU UNIBANCPN      N1  1
0120180117ITUB4       0143400C00402320000000000000200216001290000402320 VIS000000046610000001             BRITUBACNPR1000ITAU UNIBANCPN      N1  1
0120180117ITUB4       0143410C00402320000000000000500216001290000402320 VIS000000046610000001             BRITUBACNPR1000ITAU UNIBANCPN      N1  1
0120180117ITUB4       0143420C00402320000000000000100216001290000402320 VIS000000046610000001             BRITUBACNPR1000ITAU UNIBANCPN      N1  1
0120180117ITUB4       0201600C00402320000000000000108216001290000402320 VIS000000046800000001             BRITUBACNPR1000ITAU UNIBANCPN      N1  1
0120180117ITUB4       0201600C00404772000000000001992216018290000013456 VIS000000046800000001             BRITUBACNPR1000ITAU UNIBANCPN      N1C 1
0120180117ITUB4       0201610C00402320000000000000200216001290000402320 VIS000000046800000001             BRITUBACNPR1000ITAU UNIBANCPN      N1  1
0120180117ITUB4       0201620C00402320000000000003000216001290000402320 VIS000000046800000001             BRITUBACNPR1000ITAU UNIBANCPN      N1  1
0120180117ITUB4       0201630C00402320000000000000100216001290000402320 VIS000000046800000001             BRITUBACNPR1000ITAU UNIBANCPN      N1  1
0120180117ITUB4       0201660C00402320000000000000100216001290000402320 VIS000000046800000001             BRITUBACNPR1000ITAU UNIBANCPN      N1  1
0120180117ITUB4       0201680C00402320000000000000100216001290000402320 VIS000000046800000001             BRITUBACNPR1000ITAU UNIBANCPN      N1  1
0120180117ITUB4       0202530C00402320000000000000547216001290000402320 VIS000000046840000001             BRITUBACNPR1000ITAU UNIBANCPN      N1  1
0120180117ITUB4       0202530C00404772000000000000853216018290000013456 VIS000000046840000001             BRITUBACNPR1000ITAU UNIBANCPN      N1C 1
0120180117ITUB4       0202590C00402320000000000000100216001290000402320 VIS000000046840000001             BRITUBACNPR1000ITAU UNIBANCPN      N1  1
0120180117ITUB4       0202730C00402320000000000000100216001290000402320 VIS000000046840000001             BRITUBACNPR1000ITAU UNIBANCPN      N1  1
0120180117ITUB4       0202760C00402320000000000000100216001290000402320 VIS000000046840000001             BRITUBACNPR1000ITAU UNIBANCPN      N1  1
0120180117ITUB4       0202820C00402320000000000000500216001290000402320 VIS000000046840000001             BRITUBACNPR1000ITAU UNIBANCPN      N1  1
0120180117ITUB4       0202830C00402320000000000000200216001290000402320 VIS000000046840000001             BRITUBACNPR1000ITAU UNIBANCPN      N1  1
0120180117PETRB49     0012390C00404772000000000001000216000000000000000 OPC000000000240000001 PETR4       BRPETRACNPR6000PETROLEO BRAPN   19,50  1
0120180117PETRB49     0012400C00404772000000000001000216000000000000000 OPC000000000240000001 PETR4       BRPETRACNPR6000PETROLEO BRAPN   19,50  1
0120180117PETRB49     0012410C00402320000000000013700216000000000000000 OPC000000000240000001 PETR4       BRPETRACNPR6000PETROLEO BRAPN   19,50  1
0120180117PETRB49     0012410C00404772000000000005300216000000000000000 OPC000000000240000001 PETR4       BRPETRACNPR6000PETROLEO BRAPN   19,50  1
0120180117PETRB49     0012420C00404772000000000008500216000000000000000 OPC000000000250000001 PETR4       BRPETRACNPR6000PETROLEO BRAPN   19,50  1
0120180117PETRB49     0012430C00404772000000000010000216000000000000000 OPC000000000250000001 PETR4       BRPETRACNPR6000PETROLEO BRAPN   19,50  1
0120180117PETRB49     0012440C00404772000000000001000216000000000000000 OPC000000000250000001 PETR4       BRPETRACNPR6000PETROLEO BRAPN   19,50  1
0120180117PETRB49     0012450C00404772000000000003000216000000000000000 OPC000000000250000001 PETR4       BRPETRACNPR6000PETROLEO BRAPN   19,50  1
0120180117PETRB49     0012460C00404772000000000001000216000000000000000 OPC000000000250000001 PETR4       BRPETRACNPR6000PETROLEO BRAPN   19,50  1
0120180117PETRB49     0012470C00402320000000000010800216000000000000000 OPC000000000250000001 PETR4       BRPETRACNPR6000PETROLEO BRAPN   19,50  1
0120180117PETRB49     0012470C00404772000000000004200216000000000000000 OPC000000000250000001 PETR4       BRPETRACNPR6000PETROLEO BRAPN   19,50  1
0120180117PETRB49     0012480C00402320000000000015000216000000000000000 OPC000000000250000001 PETR4       BRPETRACNPR6000PETROLEO BRAPN   19,50  1
0120180117PETRB49     0012490C00402320000000000022100216000000000000000 OPC000000000250000001 PETR4       BRPETRACNPR6000PETROLEO BRAPN   19,50  1
0120180117PETRB49     0012500C00402320000000000003400216000000000000000 OPC000000000250000001 PETR4       BRPETRACNPR6000PETROLEO BRAPN   19,50  1
0120180117PETRB49     0015250V00404772000000000021700216000000000000000 OPC000000000280000001 PETR4       BRPETRACNPR6000PETROLEO BRAPN   19,50  1
0120180117PETRB49     0015260V00402320000000000015000216000000000000000 OPC000000000280000001 PETR4       BRPETRACNPR6000PETROLEO BRAPN   19,50  1
0120180117PETRB49     0015260V00404772000000000013300216000000000000000 OPC000000000280000001 PETR4       BRPETRACNPR6000PETROLEO BRAPN   19,50  1
0120180117PETRB49     0015610V00402320000000000037000216000000000000000 OPC000000000280000001 PETR4       BRPETRACNPR6000PETROLEO BRAPN   19,50  1
0120180117PETRB49     0015620V00402320000000000005000216000000000000000 OPC000000000280000001 PETR4       BRPETRACNPR6000PETROLEO BRAPN   19,50  1
0120180117PETRB49     0015630V00402320000000000008000216000000000000000 OPC000000000280000001 PETR4       BRPETRACNPR6000PETROLEO BRAPN   19,50  1
0120180117PETRB59     0000190C00402320000000000065000216000000000000000 OPC000000000260000001 PETR4       BRPETRACNPR6000PETROLEO BRAPN   19,25  1
0120180117PETRB59     0000190C00404772000000000028600216000000000000000 OPC000000000260000001 PETR4       BRPETRACNPR6000PETROLEO BRAPN   19,25  1
0120180117PETRB59     0000200C00404772000000000006400216000000000000000 OPC000000000260000001 PETR4       BRPETRACNPR6000PETROLEO BRAPN   19,25  1
0120180117PETRB59     0000430V00402320000000000016300216000000000000000 OPC000000000280000001 PETR4       BRPETRACNPR6000PETROLEO BRAPN   19,25  1
0120180117PETRB59     0000440V00402320000000000004900216000000000000000 OPC000000000280000001 PETR4       BRPETRACNPR6000PETROLEO BRAPN   19,25  1
0120180117PETRB59     0000450V00402320000000000008800216000000000000000 OPC000000000280000001 PETR4       BRPETRACNPR6000PETROLEO BRAPN   19,25  1
0120180117PETRB59     0000490V00402320000000000002500216000000000000000 OPC000000000280000001 PETR4       BRPETRACNPR6000PETROLEO BRAPN   19,25  1
0120180117PETRB59     0000490V00404772000000000017500216000000000000000 OPC000000000280000001 PETR4       BRPETRACNPR6000PETROLEO BRAPN   19,25  1
0120180117PETRB59     0000520V00402320000000000020000216000000000000000 OPC000000000290000001 PETR4       BRPETRACNPR6000PETROLEO BRAPN   19,25  1
0120180117PETRB59     0000560V00402320000000000012500216000000000000000 OPC000000000290000001 PETR4       BRPETRACNPR6000PETROLEO BRAPN   19,25  1
0120180117PETRB59     0000560V00404772000000000017500216000000000000000 OPC000000000290000001 PETR4       BRPETRACNPR6000PETROLEO BRAPN   19,25  1
0120180117PETRB69     0001100V00402320000000000017500216000000000000000 OPC000000000280000001 PETR4       BRPETRACNPR6000PETROLEO BRAPN   19,00  1
0120180117PETRB69     0001100V00404772000000000002600216000000000000000 OPC000000000280000001 PETR4       BRPETRACNPR6000PETROLEO BRAPN   19,00  1
0120180117PETRB69     0001110V00404772000000000004900216000000000000000 OPC000000000280000001 PETR4       BRPETRACNPR6000PETROLEO BRAPN   19,00  1
0120180117PETRB69     0006460V00402320000000000017500216000000000000000 OPC000000000320000001 PETR4       BRPETRACNPR6000PETROLEO BRAPN   19,00  1
0120180117PETRB69     0006460V00404772000000000007500216000000000000000 OPC000000000320000001 PETR4       BRPETRACNPR6000PETROLEO BRAPN   19,00  1
0120180117VALEB47     0000770C00402443000000000066700216000000000000000 OPC000000000210000001 VALE3       BRVALEACNOR0000VALE S.A.   ON   47,99  1
0120180117VALEB47     0000770C00404772000000000033300216000000000000000 OPC000000000210000001 VALE3       BRVALEACNOR0000VALE S.A.   ON   47,99  1
0120180117VALEB47     0004120V00404772000000000024500216000000000000000 OPC000000000230000001 VALE3       BRVALEACNOR0000VALE S.A.   ON   47,99  1
0120180117VALEB47     0004130V00404772000000000004600216000000000000000 OPC000000000230000001 VALE3       BRVALEACNOR0000VALE S.A.   ON   47,99  1
0120180117VALEB47     0004140V00402443000000000000400216000000000000000 OPC000000000230000001 VALE3       BRVALEACNOR0000VALE S.A.   ON   47,99  1
0120180117VALEB47     0004140V00404772000000000004200216000000000000000 OPC000000000230000001 VALE3       BRVALEACNOR0000VALE S.A.   ON   47,99  1
0120180117VALEB47     0004150V00402443000000000010000216000000000000000 OPC000000000230000001 VALE3       BRVALEACNOR0000VALE S.A.   ON   47,99  1
0120180117VALEB47     0004160V00402443000000000004200216000000000000000 OPC000000000230000001 VALE3       BRVALEACNOR0000VALE S.A.   ON   47,99  1
0120180117VALEB47     0004180V00402443000000000000500216000000000000000 OPC000000000230000001 VALE3       BRVALEACNOR0000VALE S.A.   ON   47,99  1
0120180117VALEB47     0004190V00402443000000000000200216000000000000000 OPC000000000230000001 VALE3       BRVALEACNOR0000VALE S.A.   ON   47,99  1
0120180117VALEB47     0004200V00402443000000000001400216000000000000000 OPC000000000230000001 VALE3       BRVALEACNOR0000VALE S.A.   ON   47,99  1
0120180117VALEB47     0004320V00402443000000000004800216000000000000000 OPC000000000230000001 VALE3       BRVALEACNOR0000VALE S.A.   ON   47,99  1
0120180117VALEB47     0004330V00402443000000000005000216000000000000000 OPC000000000230000001 VALE3       BRVALEACNOR0000VALE S.A.   ON   47,99  1
0120180117VALEB47     0004340V00402443000000000010000216000000000000000 OPC000000000230000001 VALE3       BRVALEACNOR0000VALE S.A.   ON   47,99  1
0120180117VALEB47     0004350V00402443000000000000200216000000000000000 OPC000000000230000001 VALE3       BRVALEACNOR0000VALE S.A.   ON   47,99  1
0120180117VALEB47     0004390V00402443000000000002700216000000000000000 OPC000000000230000001 VALE3       BRVALEACNOR0000VALE S.A.   ON   47,99  1
0120180117VALEB47     0004400V00402443000000000001600216000000000000000 OPC000000000230000001 VALE3       BRVALEACNOR0000VALE S.A.   ON   47,99  1
0120180117VALEB47     0004410V00402443000000000001200216000000000000000 OPC000000000230000001 VALE3       BRVALEACNOR0000VALE S.A.   ON   47,99  1
0120180117VALEB47     0004420V00402443000000000001200216000000000000000 OPC000000000230000001 VALE3       BRVALEACNOR0000VALE S.A.   ON   47,99  1
0120180117VALEB47     0004430V00402443000000000001300216000000000000000 OPC000000000230000001 VALE3       BRVALEACNOR0000VALE S.A.   ON   47,99  1
0120180117VALEB47     0004440V00402443000000000001200216000000000000000 OPC000000000230000001 VALE3       BRVALEACNOR0000VALE S.A.   ON   47,99  1
0120180117VALEB47     0004450V00402443000000000001000216000000000000000 OPC000000000230000001 VALE3       BRVALEACNOR0000VALE S.A.   ON   47,99  1
0120180117VALEB47     0004460V00402443000000000001100216000000000000000 OPC000000000230000001 VALE3       BRVALEACNOR0000VALE S.A.   ON   47,99  1
0120180117VALEB47     0004470V00402443000000000002000216000000000000000 OPC000000000230000001 VALE3       BRVALEACNOR0000VALE S.A.   ON   47,99  1
0120180117VALEB47     0004480V00402443000000000000800216000000000000000 OPC000000000230000001 VALE3       BRVALEACNOR0000VALE S.A.   ON   47,99  1
0120180117VALEB47     0004490V00402443000000000000800216000000000000000 OPC000000000230000001 VALE3       BRVALEACNOR0000VALE S.A.   ON   47,99  1
0120180117VALEB47     0004500V00402443000000000000900216000000000000000 OPC000000000230000001 VALE3       BRVALEACNOR0000VALE S.A.   ON   47,99  1
0120180117VALEB47     0004510V00402443000000000001300216000000000000000 OPC000000000230000001 VALE3       BRVALEACNOR0000VALE S.A.   ON   47,99  1
0120180117VALEB47     0004520V00402443000000000001400216000000000000000 OPC000000000230000001 VALE3       BRVALEACNOR0000VALE S.A.   ON   47,99  1
0120180117VALEB47     0004530V00402443000000000009300216000000000000000 OPC000000000230000001 VALE3       BRVALEACNOR0000VALE S.A.   ON   47,99  1
0120180117VALEB47     0004540V00402443000000000002200216000000000000000 OPC000000000230000001 VALE3       BRVALEACNOR0000VALE S.A.   ON   47,99  1
0120180117VALEB47     0005970C00404772000000000001200216000000000000000 OPC000000000220000001 VALE3       BRVALEACNOR0000VALE S.A.   ON   47,99  1
0120180117VALEB47     0005980C00404772000000000005000216000000000000000 OPC000000000220000001 VALE3       BRVALEACNOR0000VALE S.A.   ON   47,99  1
0120180117VALEB47     0005990C00404772000000000005000216000000000000000 OPC000000000220000001 VALE3       BRVALEACNOR0000VALE S.A.   ON   47,99  1
0120180117VALEB47     0006000C00402443000000000004500216000000000000000 OPC000000000220000001 VALE3       BRVALEACNOR0000VALE S.A.   ON   47,99  1
0120180117VALEB47     0006000C00404772000000000005500216000000000000000 OPC000000000220000001 VALE3       BRVALEACNOR0000VALE S.A.   ON   47,99  1
0120180117VALEB47     0006010C00402443000000000027300216000000000000000 OPC000000000220000001 VALE3       BRVALEACNOR0000VALE S.A.   ON   47,99  1
0120180117VALEB47     0006020C00402443000000000001500216000000000000000 OPC000000000220000001 VALE3       BRVALEACNOR0000VALE S.A.   ON   47,99  1
0120180117VALEB47     0006930V00402443000000000005500216000000000000000 OPC000000000240000001 VALE3       BRVALEACNOR0000VALE S.A.   ON   47,99  1
0120180117VALEB47     0006930V00404772000000000016700216000000000000000 OPC000000000240000001 VALE3       BRVALEACNOR0000VALE S.A.   ON   47,99  1
0120180117VALEB47     0006940V00402443000000000002300216000000000000000 OPC000000000240000001 VALE3       BRVALEACNOR0000VALE S.A.   ON   47,99  1
0120180117VALEB47     0006950V00402443000000000025500216000000000000000 OPC000000000240000001 VALE3       BRVALEACNOR0000VALE S.A.   ON   47,99  1
0120180117PETRB59     0000170C00386030000000000020000216000000000000000 OPC000000000260000001 PETR4       BRPETRACNPR6000PETROLEO BRAPN   19,25  1
0120180117PETRB59     0000170C00392391000000000023600216000000000000000 OPC000000000260000001 PETR4       BRPETRACNPR6000PETROLEO BRAPN   19,25  1
0120180117PETRB59     0000180C00392391000000000006400216000000000000000 OPC000000000260000001 PETR4       BRPETRACNPR6000PETROLEO BRAPN   19,25  1
0120180117PETRB59     0000460V00386030000000000008000216000000000000000 OPC000000000280000001 PETR4       BRPETRACNPR6000PETROLEO BRAPN   19,25  1
0120180117PETRB59     0000460V00392391000000000012000216000000000000000 OPC000000000280000001 PETR4       BRPETRACNPR6000PETROLEO BRAPN   19,25  1
0120180117PETRB59     0000510V00386030000000000010000216000000000000000 OPC000000000290000001 PETR4       BRPETRACNPR6000PETROLEO BRAPN   19,25  1
0120180117PETRB59     0000570V00386030000000000002000216000000000000000 OPC000000000290000001 PETR4       BRPETRACNPR6000PETROLEO BRAPN   19,25  1
0120180117PETRB59     0000570V00392391000000000018000216000000000000000 OPC000000000290000001 PETR4       BRPETRACNPR6000PETROLEO BRAPN   19,25  1
0120180117PETRB49     0012390C00404772000000000001000216000000000000000 OPC000000000240000001 PETR4       BRPETRACNPR6000PETROLEO BRAPN   19,50  1
0120180117VALEB47     0006000C00404772000000000005500216000000000000000 OPC000000000220000001 VALE3       BRVALEACNOR0000VALE S.A.   ON   47,99  1
0120180117PETRB49     0012430C00404772000000000010000216000000000000000 OPC000000000250000001 PETR4       BRPETRACNPR6000PETROLEO BRAPN   19,50  1
0120180117PETRB49     0012470C00404772000000000004200216000000000000000 OPC000000000250000001 PETR4       BRPETRACNPR6000PETROLEO BRAPN   19,50  1
0120180117PETRB49     0015260V00404772000000000013300216000000000000000 OPC000000000280000001 PETR4       BRPETRACNPR6000PETROLEO BRAPN   19,50  1
0120180117ABCB2       0000560C00404772000000000000072216018290000013456 VIS000000005010000001             BRABCBD12PR6000BCO ABC BRASDP   12,46  1
0120180117VALEB47     0005990C00404772000000000005000216000000000000000 OPC000000000220000001 VALE3       BRVALEACNOR0000VALE S.A.   ON   47,99  1
0120180117PETRB49     0012450C00404772000000000003000216000000000000000 OPC000000000250000001 PETR4       BRPETRACNPR6000PETROLEO BRAPN   19,50  1
0120180117PETRB49     0015250V00404772000000000021700216000000000000000 OPC000000000280000001 PETR4       BRPETRACNPR6000PETROLEO BRAPN   19,50  1
0120180117ABCB2       0001200C00404772000000000000728216018290000013456 VIS000000005000000001             BRABCBD12PR6000BCO ABC BRASDP   12,46  1
0120180117BBDC4       0094210V00404772000000000000100216018290000013456 VIS000000036400000001             BRBBDCACNPR8000BCO BRADESCOPN      N1  1
0120180117BBDC4       0094350V00404772000000000000200216018290000013456 VIS000000036410000001             BRBBDCACNPR8000BCO BRADESCOPN      N1  1
0120180117BBDC4       0094620V00404772000000000000177216018290000013456 VIS000000036390000001             BRBBDCACNPR8000BCO BRADESCOPN      N1  1
0120180117BBDC4       0095070V00404772000000000000031216018290000013456 VIS000000036410000001             BRBBDCACNPR8000BCO BRADESCOPN      N1  1
0120180117BBDC4       0134360V00404772000000000000600216018290000013456 VIS000000036650000001             BRBBDCACNPR8000BCO BRADESCOPN      N1  1
0120180117ITUB4       0142310C00404772000000000000162216018290000013456 VIS000000046600000001             BRITUBACNPR1000ITAU UNIBANCPN      N1  1
0120180117FESA4       0001620C00404772000000000000100216018290000013456 VIS000000022800000001             BRFESAACNPR5000CIA FERRO LIPN      N1  1
0120180117BBDC4       0134290V00404772000000000001100216018290000013456 VIS000000036650000001             BRBBDCACNPR8000BCO BRADESCOPN      N1  1
0120180117BBDC4       0134370V00404772000000000000100216018290000013456 VIS000000036650000001             BRBBDCACNPR8000BCO BRADESCOPN      N1  1
0120180117ITUB4       0127060C00404772000000000001778216018290000013456 VIS000000046650000001             BRITUBACNPR1000ITAU UNIBANCPN      N1  1
0120180117ITUB4       0096420V00404772000000000000200216018290000013456 VIS000000046500000001             BRITUBACNPR1000ITAU UNIBANCPN      N1  1
0120180117VALEB47     0004120V00404772000000000024500216000000000000000 OPC000000000230000001 VALE3       BRVALEACNOR0000VALE S.A.   ON   47,99  1
0120180117VALEB47     0006930V00404772000000000016700216000000000000000 OPC000000000240000001 VALE3       BRVALEACNOR0000VALE S.A.   ON   47,99  1
0120180117PETRB59     0000490V00404772000000000017500216000000000000000 OPC000000000280000001 PETR4       BRPETRACNPR6000PETROLEO BRAPN   19,25  1
0120180117ITUB4       0201600C00404772000000000001992216018290000013456 VIS000000046800000001             BRITUBACNPR1000ITAU UNIBANCPN      N1  1
0120180117PETRB49     0012400C00404772000000000001000216000000000000000 OPC000000000240000001 PETR4       BRPETRACNPR6000PETROLEO BRAPN   19,50  1
0120180117VALEB47     0004130V00404772000000000004600216000000000000000 OPC000000000230000001 VALE3       BRVALEACNOR0000VALE S.A.   ON   47,99  1
0120180117PETRB49     0012440C00404772000000000001000216000000000000000 OPC000000000250000001 PETR4       BRPETRACNPR6000PETROLEO BRAPN   19,50  1
0120180117PETRB49     0012460C00404772000000000001000216000000000000000 OPC000000000250000001 PETR4       BRPETRACNPR6000PETROLEO BRAPN   19,50  1
0120180117PETRB59     0000190C00404772000000000028600216000000000000000 OPC000000000260000001 PETR4       BRPETRACNPR6000PETROLEO BRAPN   19,25  1
0120180117PETRB59     0000560V00404772000000000017500216000000000000000 OPC000000000290000001 PETR4       BRPETRACNPR6000PETROLEO BRAPN   19,25  1
0120180117VALEB47     0000770C00404772000000000033300216000000000000000 OPC000000000210000001 VALE3       BRVALEACNOR0000VALE S.A.   ON   47,99  1
0120180117FESA4       0017680V00404772000000000000400216018290000013456 VIS000000024150000001             BRFESAACNPR5000CIA FERRO LIPN      N1  1
0120180117BBDC4       0094520V00404772000000000000159216018290000013456 VIS000000036400000001             BRBBDCACNPR8000BCO BRADESCOPN      N1  1
0120180117BBDC4       0095060V00404772000000000000900216018290000013456 VIS000000036410000001             BRBBDCACNPR8000BCO BRADESCOPN      N1  1
0120180117ITUB4       0202530C00404772000000000000853216018290000013456 VIS000000046840000001             BRITUBACNPR1000ITAU UNIBANCPN      N1  1
0120180117BBDC4       0110380C00404772000000000000144216018290000013456 VIS000000036570000001             BRBBDCACNPR8000BCO BRADESCOPN      N1  1
0120180117PETRB49     0012410C00404772000000000005300216000000000000000 OPC000000000240000001 PETR4       BRPETRACNPR6000PETROLEO BRAPN   19,50  1
0120180117VALEB47     0005980C00404772000000000005000216000000000000000 OPC000000000220000001 VALE3       BRVALEACNOR0000VALE S.A.   ON   47,99  1
0120180117PETRB69     0001100V00404772000000000002600216000000000000000 OPC000000000280000001 PETR4       BRPETRACNPR6000PETROLEO BRAPN   19,00  1
0120180117PETRB59     0000200C00404772000000000006400216000000000000000 OPC000000000260000001 PETR4       BRPETRACNPR6000PETROLEO BRAPN   19,25  1
0120180117BBDC4       0134310V00404772000000000000200216018290000013456 VIS000000036650000001             BRBBDCACNPR8000BCO BRADESCOPN      N1  1
0120180117BBDC4       0134350V00404772000000000000100216018290000013456 VIS000000036650000001             BRBBDCACNPR8000BCO BRADESCOPN      N1  1
0120180117VALEB47     0004140V00404772000000000004200216000000000000000 OPC000000000230000001 VALE3       BRVALEACNOR0000VALE S.A.   ON   47,99  1
0120180117PETRB69     0001110V00404772000000000004900216000000000000000 OPC000000000280000001 PETR4       BRPETRACNPR6000PETROLEO BRAPN   19,00  1
0120180117PETRB69     0006460V00404772000000000007500216000000000000000 OPC000000000320000001 PETR4       BRPETRACNPR6000PETROLEO BRAPN   19,00  1
0120180117BBDC4       0134300V00404772000000000000100216018290000013456 VIS000000036650000001             BRBBDCACNPR8000BCO BRADESCOPN      N1  1
0120180117BBDC4       0134320V00404772000000000000100216018290000013456 VIS000000036650000001             BRBBDCACNPR8000BCO BRADESCOPN      N1  1
0120180117BBDC4       0134380V00404772000000000000100216018290000013456 VIS000000036650000001             BRBBDCACNPR8000BCO BRADESCOPN      N1  1
0120180117ITUB4       0141510C00404772000000000000200216018290000013456 VIS000000046600000001             BRITUBACNPR1000ITAU UNIBANCPN      N1  1
0120180117BBDC4       0079330C00404772000000000001656216018290000013456 VIS000000036280000001             BRBBDCACNPR8000BCO BRADESCOPN      N1  1
0120180117ITUB4       0096430V00404772000000000000500216018290000013456 VIS000000046500000001             BRITUBACNPR1000ITAU UNIBANCPN      N1  1
0120180117PETRB49     0012420C00404772000000000008500216000000000000000 OPC000000000250000001 PETR4       BRPETRACNPR6000PETROLEO BRAPN   19,50  1
0120180117VALEB47     0005970C00404772000000000001200216000000000000000 OPC000000000220000001 VALE3       BRVALEACNOR0000VALE S.A.   ON   47,99  1
0120180117FESA4       0001630C00404772000000000000300216018290000013456 VIS000000022800000001             BRFESAACNPR5000CIA FERRO LIPN      N1  1
0120180117BBDC4       0094180V00404772000000000000200216018290000013456 VIS000000036400000001             BRBBDCACNPR8000BCO BRADESCOPN      N1  1
0120180117BBDC4       0134330V00404772000000000000800216018290000013456 VIS000000036650000001             BRBBDCACNPR8000BCO BRADESCOPN      N1  1
0120180117BBDC4       0134340V00404772000000000000100216018290000013456 VIS000000036650000001             BRBBDCACNPR8000BCO BRADESCOPN      N1  1
0120180117BBDC4       0134390V00404772000000000000233216018290000013456 VIS000000036650000001             BRBBDCACNPR8000BCO BRADESCOPN      N1  1
0120180117ITUB4       0141530C00404772000000000000100216018290000013456 VIS000000046600000001             BRITUBACNPR1000ITAU UNIBANCPN      N1  1
0120180117ITUB4       0141870C00404772000000000000200216018290000013456 VIS000000046610000001             BRITUBACNPR1000ITAU UNIBANCPN      N1  1
0120180117ITUB4       0142420C00404772000000000000178216018290000013456 VIS000000046590000001             BRITUBACNPR1000ITAU UNIBANCPN      N1  1
0120180117ITUB4       0143310C00404772000000000000900216018290000013456 VIS000000046610000001             BRITUBACNPR1000ITAU UNIBANCPN      N1  1
0120180117ITUB4       0143320C00404772000000000000037216018290000013456 VIS000000046610000001             BRITUBACNPR1000ITAU UNIBANCPN      N1  1
0120180117ITUB4       0096410V00404772000000000002900216018290000013456 VIS000000046500000001             BRITUBACNPR1000ITAU UNIBANCPN      N1  1
99ESCS0129CBLC  01292018117000000000
