00PESC0129CBLC  012920181182018118
0120180118BBDC4       0013140V00392391000000000001000216001290000392391 VIS000000036910000001             BRBBDCACNPR8000BCO BRADESCOPN      N1  1              
0120180118BBDC4       0013220V00392391000000000000300216001290000392391 VIS000000036910000001             BRBBDCACNPR8000BCO BRADESCOPN      N1  1              
0120180118BBDC4       0013230V00392391000000000000700216001290000392391 VIS000000036910000001             BRBBDCACNPR8000BCO BRADESCOPN      N1  1              
0120180118BBDC4       0013250V00392391000000000000100216001290000392391 VIS000000036920000001             BRBBDCACNPR8000BCO BRADESCOPN      N1  1              
0120180118BBDC4       0013350V00392391000000000000500216001290000392391 VIS000000036920000001             BRBBDCACNPR8000BCO BRADESCOPN      N1  1              
0120180118BBDC4       0013380V00392391000000000000500216001290000392391 VIS000000036920000001             BRBBDCACNPR8000BCO BRADESCOPN      N1  1              
0120180118BBDC4       0013860V00392391000000000001000216001290000392391 VIS000000036980000001             BRBBDCACNPR8000BCO BRADESCOPN      N1  1              
0120180118BBDC4       0013920V00392391000000000000100216001290000392391 VIS000000036980000001             BRBBDCACNPR8000BCO BRADESCOPN      N1  1              
0120180118BBDC4       0013960V00392391000000000000100216001290000392391 VIS000000036980000001             BRBBDCACNPR8000BCO BRADESCOPN      N1  1              
0120180118BBDC4       0013970V00392391000000000000100216001290000392391 VIS000000036980000001             BRBBDCACNPR8000BCO BRADESCOPN      N1  1              
0120180118BBDC4       0013980V00392391000000000001000216001290000392391 VIS000000036980000001             BRBBDCACNPR8000BCO BRADESCOPN      N1  1              
0120180118BBDC4       0014000V00392391000000000001000216001290000392391 VIS000000036980000001             BRBBDCACNPR8000BCO BRADESCOPN      N1  1              
0120180118BBDC4       0014030V00392391000000000000400216001290000392391 VIS000000036980000001             BRBBDCACNPR8000BCO BRADESCOPN      N1  1              
0120180118BBDC4       0014040V00392391000000000000100216001290000392391 VIS000000036980000001             BRBBDCACNPR8000BCO BRADESCOPN      N1  1              
0120180118BBDC4       0014840V00392391000000000000100216001290000392391 VIS000000036990000001             BRBBDCACNPR8000BCO BRADESCOPN      N1  1              
0120180118BBDC4       0014850V00392391000000000000100216001290000392391 VIS000000036990000001             BRBBDCACNPR8000BCO BRADESCOPN      N1  1              
0120180118BBDC4       0014860V00392391000000000000700216001290000392391 VIS000000036990000001             BRBBDCACNPR8000BCO BRADESCOPN      N1  1              
0120180118BBDC4       0015150V00392391000000000000700216001290000392391 VIS000000037000000001             BRBBDCACNPR8000BCO BRADESCOPN      N1  1              
0120180118BBDC4       0015290V00392391000000000000500216001290000392391 VIS000000037010000001             BRBBDCACNPR8000BCO BRADESCOPN      N1  1              
0120180118BBDC4       0015300V00392391000000000000200216001290000392391 VIS000000037010000001             BRBBDCACNPR8000BCO BRADESCOPN      N1  1              
0120180118BBDC4       0015310V00392391000000000000100216001290000392391 VIS000000037010000001             BRBBDCACNPR8000BCO BRADESCOPN      N1  1              
0120180118BBDC4       0015320V00392391000000000000200216001290000392391 VIS000000037000000001             BRBBDCACNPR8000BCO BRADESCOPN      N1  1              
0120180118BBDC4       0015340V00392391000000000000100216001290000392391 VIS000000037000000001             BRBBDCACNPR8000BCO BRADESCOPN      N1  1              
0120180118BBDC4       0015350V00392391000000000000400216001290000392391 VIS000000037000000001             BRBBDCACNPR8000BCO BRADESCOPN      N1  1              
0120180118BBDC4       0275670C00392391000000000010000216001290000392391 VIS000000036850000001             BRBBDCACNPR8000BCO BRADESCOPN      N1  1              
0120180118ITUB4       0009460C00392391000000000000800216001290000392391 VIS000000046830000001             BRITUBACNPR1000ITAU UNIBANCPN      N1  1              
0120180118ITUB4       0009530C00392391000000000000200216001290000392391 VIS000000046850000001             BRITUBACNPR1000ITAU UNIBANCPN      N1  1              
0120180118ITUB4       0009540C00392391000000000000600216001290000392391 VIS000000046850000001             BRITUBACNPR1000ITAU UNIBANCPN      N1  1              
0120180118ITUB4       0009550C00392391000000000000100216001290000392391 VIS000000046850000001             BRITUBACNPR1000ITAU UNIBANCPN      N1  1              
0120180118ITUB4       0009610C00392391000000000000400216001290000392391 VIS000000046850000001             BRITUBACNPR1000ITAU UNIBANCPN      N1  1              
0120180118ITUB4       0009780C00392391000000000000100216001290000392391 VIS000000046850000001             BRITUBACNPR1000ITAU UNIBANCPN      N1  1              
0120180118ITUB4       0009790C00392391000000000000100216001290000392391 VIS000000046870000001             BRITUBACNPR1000ITAU UNIBANCPN      N1  1              
0120180118ITUB4       0009800C00392391000000000000200216001290000392391 VIS000000046890000001             BRITUBACNPR1000ITAU UNIBANCPN      N1  1              
0120180118ITUB4       0010010C00392391000000000000800216001290000392391 VIS000000046920000001             BRITUBACNPR1000ITAU UNIBANCPN      N1  1              
0120180118ITUB4       0010020C00392391000000000000100216001290000392391 VIS000000046920000001             BRITUBACNPR1000ITAU UNIBANCPN      N1  1              
0120180118ITUB4       0010030C00392391000000000000100216001290000392391 VIS000000046920000001             BRITUBACNPR1000ITAU UNIBANCPN      N1  1              
0120180118ITUB4       0010050C00392391000000000000800216001290000392391 VIS000000046920000001             BRITUBACNPR1000ITAU UNIBANCPN      N1  1              
0120180118ITUB4       0010150C00392391000000000000800216001290000392391 VIS000000046920000001             BRITUBACNPR1000ITAU UNIBANCPN      N1  1              
0120180118ITUB4       0010190C00392391000000000000300216001290000392391 VIS000000046920000001             BRITUBACNPR1000ITAU UNIBANCPN      N1  1              
0120180118ITUB4       0010240C00392391000000000000100216001290000392391 VIS000000046920000001             BRITUBACNPR1000ITAU UNIBANCPN      N1  1              
0120180118ITUB4       0010710C00392391000000000000100216001290000392391 VIS000000046930000001             BRITUBACNPR1000ITAU UNIBANCPN      N1  1              
0120180118ITUB4       0010720C00392391000000000000100216001290000392391 VIS000000046930000001             BRITUBACNPR1000ITAU UNIBANCPN      N1  1              
0120180118ITUB4       0010730C00392391000000000000500216001290000392391 VIS000000046930000001             BRITUBACNPR1000ITAU UNIBANCPN      N1  1              
0120180118ITUB4       0010740C00392391000000000000100216001290000392391 VIS000000046930000001             BRITUBACNPR1000ITAU UNIBANCPN      N1  1              
0120180118ITUB4       0010760C00392391000000000000500216001290000392391 VIS000000046940000001             BRITUBACNPR1000ITAU UNIBANCPN      N1  1              
0120180118ITUB4       0010770C00392391000000000000400216001290000392391 VIS000000046940000001             BRITUBACNPR1000ITAU UNIBANCPN      N1  1              
0120180118ITUB4       0010780C00392391000000000000200216001290000392391 VIS000000046940000001             BRITUBACNPR1000ITAU UNIBANCPN      N1  1              
0120180118ITUB4       0010790C00392391000000000000200216001290000392391 VIS000000046940000001             BRITUBACNPR1000ITAU UNIBANCPN      N1  1              
0120180118ITUB4       0010800C00392391000000000000100216001290000392391 VIS000000046940000001             BRITUBACNPR1000ITAU UNIBANCPN      N1  1              
0120180118ITUB4       0010810C00392391000000000000300216001290000392391 VIS000000046940000001             BRITUBACNPR1000ITAU UNIBANCPN      N1  1              
0120180118ITUB4       0213270V00392391000000000008000216001290000392391 VIS000000046680000001             BRITUBACNPR1000ITAU UNIBANCPN      N1  1              
99ESCS0129CBLC  01292018118000000001
