00PESC0129CBLC    01292018012620180126
0120180126ABCB4       0000500V00402320000000000000200216001290000402320 VIS000000018810000001             BRABCBACNPR4000BCO ABC BRASPN      N2  1              
0120180126ABCB4       0000520V00402320000000000000200216001290000402320 VIS000000018800000001             BRABCBACNPR4000BCO ABC BRASPN      N2  1              
0120180126ABCB4       0000530V00402320000000000000200216001290000402320 VIS000000018800000001             BRABCBACNPR4000BCO ABC BRASPN      N2  1              
0120180126ABCB4       0000540V00402320000000000000120216001290000402320 VIS000000018800000001             BRABCBACNPR4000BCO ABC BRASPN      N2  1              
0120180126ABCB4       0000540V00404772000000000000080216018290000013456 VIS000000018800000001             BRABCBACNPR4000BCO ABC BRASPN      N2C 1              
0120180126ABCB4       0000550V00404772000000000000200216018290000013456 VIS000000018800000001             BRABCBACNPR4000BCO ABC BRASPN      N2C 1              
0120180126ABCB4       0000560V00402320000000000000200216001290000402320 VIS000000018810000001             BRABCBACNPR4000BCO ABC BRASPN      N2  1              
0120180126ABCB4       0000580V00402320000000000000200216001290000402320 VIS000000018810000001             BRABCBACNPR4000BCO ABC BRASPN      N2  1              
0120180126ABCB4       0000590V00402320000000000000180216001290000402320 VIS000000018810000001             BRABCBACNPR4000BCO ABC BRASPN      N2  1              
0120180126ABCB4       0000590V00404772000000000000020216018290000013456 VIS000000018810000001             BRABCBACNPR4000BCO ABC BRASPN      N2C 1              
0120180126ABCB4       0000600V00404772000000000000200216018290000013456 VIS000000018810000001             BRABCBACNPR4000BCO ABC BRASPN      N2C 1              
0120180126ABCB4       0000610V00404772000000000000200216018290000013456 VIS000000018810000001             BRABCBACNPR4000BCO ABC BRASPN      N2C 1              
0120180126BBDC4       0005900V00404772000000000000500216018290000013456 VIS000000040180000001             BRBBDCACNPR8000BCO BRADESCOPN      N1C 1              
0120180126BBDC4       0005910V00404772000000000000100216018290000013456 VIS000000040180000001             BRBBDCACNPR8000BCO BRADESCOPN      N1C 1              
0120180126BBDC4       0005930C00404772000000000000100216018290000013456 VIS000000040160000001             BRBBDCACNPR8000BCO BRADESCOPN      N1C 1              
0120180126BBDC4       0005940C00404772000000000001000216018290000013456 VIS000000040170000001             BRBBDCACNPR8000BCO BRADESCOPN      N1C 1              
0120180126BBDC4       0005950C00404772000000000000500216018290000013456 VIS000000040170000001             BRBBDCACNPR8000BCO BRADESCOPN      N1C 1              
0120180126BBDC4       0005960C00404772000000000000100216018290000013456 VIS000000040170000001             BRBBDCACNPR8000BCO BRADESCOPN      N1C 1              
0120180126BBDC4       0005970C00404772000000000000400216018290000013456 VIS000000040170000001             BRBBDCACNPR8000BCO BRADESCOPN      N1C 1              
0120180126BBDC4       0005980C00404772000000000001000216018290000013456 VIS000000040170000001             BRBBDCACNPR8000BCO BRADESCOPN      N1C 1              
0120180126BBDC4       0006000C00404772000000000000600216018290000013456 VIS000000040170000001             BRBBDCACNPR8000BCO BRADESCOPN      N1C 1              
0120180126BBDC4       0006010C00404772000000000001000216018290000013456 VIS000000040170000001             BRBBDCACNPR8000BCO BRADESCOPN      N1C 1              
0120180126BBDC4       0006030V00404772000000000000100216018290000013456 VIS000000040180000001             BRBBDCACNPR8000BCO BRADESCOPN      N1C 1              
0120180126BBDC4       0006040C00404772000000000000300216018290000013456 VIS000000040180000001             BRBBDCACNPR8000BCO BRADESCOPN      N1C 1              
0120180126BBDC4       0006040V00404772000000000000300216018290000013456 VIS000000040180000001             BRBBDCACNPR8000BCO BRADESCOPN      N1C 1              
0120180126BBDC4       0006090V00402320000000000006006216001290000402320 VIS000000040180000001             BRBBDCACNPR8000BCO BRADESCOPN      N1  1              
0120180126BBDC4       0006090V00404772000000000002994216018290000013456 VIS000000040180000001             BRBBDCACNPR8000BCO BRADESCOPN      N1C 1              
0120180126BBDC4       0201780V00404772000000000000600216018290000013456 VIS000000040630000001             BRBBDCACNPR8000BCO BRADESCOPN      N1C 1              
0120180126BBDC4       0201790V00404772000000000000100216018290000013456 VIS000000040630000001             BRBBDCACNPR8000BCO BRADESCOPN      N1C 1              
0120180126BBDC4       0201800V00404772000000000000100216018290000013456 VIS000000040630000001             BRBBDCACNPR8000BCO BRADESCOPN      N1C 1              
0120180126BBDC4       0201810V00404772000000000000600216018290000013456 VIS000000040630000001             BRBBDCACNPR8000BCO BRADESCOPN      N1C 1              
0120180126BBDC4       0201820V00404772000000000000100216018290000013456 VIS000000040630000001             BRBBDCACNPR8000BCO BRADESCOPN      N1C 1              
0120180126BBDC4       0201830V00402320000000000002903216001290000402320 VIS000000040630000001             BRBBDCACNPR8000BCO BRADESCOPN      N1  1              
0120180126BBDC4       0201830V00404772000000000000497216018290000013456 VIS000000040630000001             BRBBDCACNPR8000BCO BRADESCOPN      N1C 1              
0120180126BBDC4       0201840V00402320000000000000100216001290000402320 VIS000000040630000001             BRBBDCACNPR8000BCO BRADESCOPN      N1  1              
0120180126BBDC4       0228410C00404772000000000000700216018290000013456 VIS000000040930000001             BRBBDCACNPR8000BCO BRADESCOPN      N1C 1              
0120180126BBDC4       0228420C00404772000000000000200216018290000013456 VIS000000040930000001             BRBBDCACNPR8000BCO BRADESCOPN      N1C 1              
0120180126BBDC4       0228430C00404772000000000000300216018290000013456 VIS000000040930000001             BRBBDCACNPR8000BCO BRADESCOPN      N1C 1              
0120180126BBDC4       0228440C00404772000000000000200216018290000013456 VIS000000040930000001             BRBBDCACNPR8000BCO BRADESCOPN      N1C 1              
0120180126BBDC4       0228450C00404772000000000000300216018290000013456 VIS000000040930000001             BRBBDCACNPR8000BCO BRADESCOPN      N1C 1              
0120180126BBDC4       0228460C00404772000000000000200216018290000013456 VIS000000040930000001             BRBBDCACNPR8000BCO BRADESCOPN      N1C 1              
0120180126BBDC4       0228470C00404772000000000000100216018290000013456 VIS000000040930000001             BRBBDCACNPR8000BCO BRADESCOPN      N1C 1              
0120180126BBDC4       0228480C00404772000000000000100216018290000013456 VIS000000040930000001             BRBBDCACNPR8000BCO BRADESCOPN      N1C 1              
0120180126BBDC4       0228490C00404772000000000000100216018290000013456 VIS000000040930000001             BRBBDCACNPR8000BCO BRADESCOPN      N1C 1              
0120180126BBDC4       0228500C00404772000000000000100216018290000013456 VIS000000040930000001             BRBBDCACNPR8000BCO BRADESCOPN      N1C 1              
0120180126BBDC4       0228520C00404772000000000000500216018290000013456 VIS000000040930000001             BRBBDCACNPR8000BCO BRADESCOPN      N1C 1              
0120180126BBDC4       0228760C00404772000000000000500216018290000013456 VIS000000040930000001             BRBBDCACNPR8000BCO BRADESCOPN      N1C 1              
0120180126BBDC4       0228770C00404772000000000000200216018290000013456 VIS000000040930000001             BRBBDCACNPR8000BCO BRADESCOPN      N1C 1              
0120180126BBDC4       0228840C00404772000000000000100216018290000013456 VIS000000040930000001             BRBBDCACNPR8000BCO BRADESCOPN      N1C 1              
0120180126BBDC4       0228850C00404772000000000000100216018290000013456 VIS000000040930000001             BRBBDCACNPR8000BCO BRADESCOPN      N1C 1              
0120180126BBDC4       0228870C00404772000000000000100216018290000013456 VIS000000040930000001             BRBBDCACNPR8000BCO BRADESCOPN      N1C 1              
0120180126BBDC4       0228880C00404772000000000000100216018290000013456 VIS000000040930000001             BRBBDCACNPR8000BCO BRADESCOPN      N1C 1              
0120180126BBDC4       0230160C00402320000000000009012216001290000402320 VIS000000040930000001             BRBBDCACNPR8000BCO BRADESCOPN      N1  1              
0120180126BBDC4       0230160C00404772000000000004088216018290000013456 VIS000000040930000001             BRBBDCACNPR8000BCO BRADESCOPN      N1C 1              
0120180126BBDC4       0230170C00402320000000000000200216001290000402320 VIS000000040930000001             BRBBDCACNPR8000BCO BRADESCOPN      N1  1              
0120180126BBDC4       0230180C00402320000000000000200216001290000402320 VIS000000040930000001             BRBBDCACNPR8000BCO BRADESCOPN      N1  1              
0120180126BBDC4       0230190C00402320000000000000200216001290000402320 VIS000000040930000001             BRBBDCACNPR8000BCO BRADESCOPN      N1  1              
0120180126BBDC4       0230200C00402320000000000000200216001290000402320 VIS000000040930000001             BRBBDCACNPR8000BCO BRADESCOPN      N1  1              
0120180126BBDC4       0230210C00402320000000000000200216001290000402320 VIS000000040930000001             BRBBDCACNPR8000BCO BRADESCOPN      N1  1              
0120180126BBDC4       0230220C00402320000000000000200216001290000402320 VIS000000040930000001             BRBBDCACNPR8000BCO BRADESCOPN      N1  1              
0120180126BBDC4       0230230C00402320000000000000200216001290000402320 VIS000000040930000001             BRBBDCACNPR8000BCO BRADESCOPN      N1  1              
0120180126BBDC4       0230270C00402320000000000000100216001290000402320 VIS000000040930000001             BRBBDCACNPR8000BCO BRADESCOPN      N1  1              
0120180126BBDC4       0230280C00402320000000000000200216001290000402320 VIS000000040930000001             BRBBDCACNPR8000BCO BRADESCOPN      N1  1              
0120180126BBDC4       0230290C00402320000000000000200216001290000402320 VIS000000040930000001             BRBBDCACNPR8000BCO BRADESCOPN      N1  1              
0120180126BBDC4       0230300C00402320000000000000200216001290000402320 VIS000000040930000001             BRBBDCACNPR8000BCO BRADESCOPN      N1  1              
0120180126BBDC4       0230850C00402320000000000000100216001290000402320 VIS000000040930000001             BRBBDCACNPR8000BCO BRADESCOPN      N1  1              
0120180126BBDC4       0230860C00402320000000000000400216001290000402320 VIS000000040930000001             BRBBDCACNPR8000BCO BRADESCOPN      N1  1              
0120180126BBDC4       0230870C00402320000000000000200216001290000402320 VIS000000040930000001             BRBBDCACNPR8000BCO BRADESCOPN      N1  1              
0120180126BBDC4       0230880C00402320000000000000200216001290000402320 VIS000000040930000001             BRBBDCACNPR8000BCO BRADESCOPN      N1  1              
0120180126BBDC4       0332930V00402320000000000000021216001290000402320 VIS000000040880000001             BRBBDCACNPR8000BCO BRADESCOPN      N1  1              
0120180126BBDC4       0332930V00404772000000000000279216018290000013456 VIS000000040880000001             BRBBDCACNPR8000BCO BRADESCOPN      N1C 1              
0120180126BBDC4       0332940V00402320000000000000200216001290000402320 VIS000000040880000001             BRBBDCACNPR8000BCO BRADESCOPN      N1  1              
0120180126BBDC4       0332950V00402320000000000000200216001290000402320 VIS000000040880000001             BRBBDCACNPR8000BCO BRADESCOPN      N1  1              
0120180126BBDC4       0332960V00404772000000000000700216018290000013456 VIS000000040870000001             BRBBDCACNPR8000BCO BRADESCOPN      N1C 1              
0120180126BBDC4       0332970V00404772000000000000100216018290000013456 VIS000000040870000001             BRBBDCACNPR8000BCO BRADESCOPN      N1C 1              
0120180126BBDC4       0332980V00404772000000000001000216018290000013456 VIS000000040870000001             BRBBDCACNPR8000BCO BRADESCOPN      N1C 1              
0120180126BBDC4       0332990V00404772000000000000400216018290000013456 VIS000000040870000001             BRBBDCACNPR8000BCO BRADESCOPN      N1C 1              
0120180126BBDC4       0333000V00404772000000000000400216018290000013456 VIS000000040870000001             BRBBDCACNPR8000BCO BRADESCOPN      N1C 1              
0120180126BBDC4       0333010V00402320000000000000164216001290000402320 VIS000000040870000001             BRBBDCACNPR8000BCO BRADESCOPN      N1  1              
0120180126BBDC4       0333010V00404772000000000000236216018290000013456 VIS000000040870000001             BRBBDCACNPR8000BCO BRADESCOPN      N1C 1              
0120180126BBDC4       0333020V00402320000000000000100216001290000402320 VIS000000040870000001             BRBBDCACNPR8000BCO BRADESCOPN      N1  1              
0120180126BBDC4       0333030V00402320000000000000100216001290000402320 VIS000000040870000001             BRBBDCACNPR8000BCO BRADESCOPN      N1  1              
0120180126BBDC4       0333040V00402320000000000000400216001290000402320 VIS000000040870000001             BRBBDCACNPR8000BCO BRADESCOPN      N1  1              
0120180126BBDC4       0333050V00402320000000000001200216001290000402320 VIS000000040870000001             BRBBDCACNPR8000BCO BRADESCOPN      N1  1              
0120180126BBDC4       0333060V00402320000000000001100216001290000402320 VIS000000040870000001             BRBBDCACNPR8000BCO BRADESCOPN      N1  1              
0120180126BBDC4       0333070V00402320000000000000200216001290000402320 VIS000000040870000001             BRBBDCACNPR8000BCO BRADESCOPN      N1  1              
0120180126BBDC4       0333080V00402320000000000000500216001290000402320 VIS000000040870000001             BRBBDCACNPR8000BCO BRADESCOPN      N1  1              
0120180126BBDC4       0333090V00402320000000000000100216001290000402320 VIS000000040870000001             BRBBDCACNPR8000BCO BRADESCOPN      N1  1              
0120180126BBDC4       0333100V00402320000000000000100216001290000402320 VIS000000040870000001             BRBBDCACNPR8000BCO BRADESCOPN      N1  1              
0120180126BBDC4       0333110V00402320000000000000300216001290000402320 VIS000000040870000001             BRBBDCACNPR8000BCO BRADESCOPN      N1  1              
0120180126BBDC4       0413980V00404772000000000001800216018290000013456 VIS000000041000000001             BRBBDCACNPR8000BCO BRADESCOPN      N1C 1              
0120180126BBDC4       0413990V00404772000000000000100216018290000013456 VIS000000041000000001             BRBBDCACNPR8000BCO BRADESCOPN      N1C 1              
0120180126BBDC4       0414000V00404772000000000000100216018290000013456 VIS000000041000000001             BRBBDCACNPR8000BCO BRADESCOPN      N1C 1              
0120180126BBDC4       0414010V00404772000000000000100216018290000013456 VIS000000041000000001             BRBBDCACNPR8000BCO BRADESCOPN      N1C 1              
0120180126BBDC4       0414020V00404772000000000000100216018290000013456 VIS000000041000000001             BRBBDCACNPR8000BCO BRADESCOPN      N1C 1              
0120180126BBDC4       0414030V00404772000000000000300216018290000013456 VIS000000041000000001             BRBBDCACNPR8000BCO BRADESCOPN      N1C 1              
0120180126BBDC4       0414040V00404772000000000001000216018290000013456 VIS000000041000000001             BRBBDCACNPR8000BCO BRADESCOPN      N1C 1              
0120180126BBDC4       0414050V00402320000000000000006216001290000402320 VIS000000041000000001             BRBBDCACNPR8000BCO BRADESCOPN      N1  1              
0120180126BBDC4       0414050V00404772000000000000494216018290000013456 VIS000000041000000001             BRBBDCACNPR8000BCO BRADESCOPN      N1C 1              
0120180126BBDC4       0414060V00402320000000000000500216001290000402320 VIS000000041000000001             BRBBDCACNPR8000BCO BRADESCOPN      N1  1              
0120180126BBDC4       0414070V00402320000000000000100216001290000402320 VIS000000041000000001             BRBBDCACNPR8000BCO BRADESCOPN      N1  1              
0120180126BBDC4       0414080V00402320000000000000100216001290000402320 VIS000000041000000001             BRBBDCACNPR8000BCO BRADESCOPN      N1  1              
0120180126BBDC4       0414090V00402320000000000000300216001290000402320 VIS000000041000000001             BRBBDCACNPR8000BCO BRADESCOPN      N1  1              
0120180126BBDC4       0414100V00402320000000000002000216001290000402320 VIS000000041000000001             BRBBDCACNPR8000BCO BRADESCOPN      N1  1              
0120180126BBDC4       0414110V00402320000000000002000216001290000402320 VIS000000041000000001             BRBBDCACNPR8000BCO BRADESCOPN      N1  1              
0120180126BBDC4       0414120V00402320000000000001000216001290000402320 VIS000000041000000001             BRBBDCACNPR8000BCO BRADESCOPN      N1  1              
0120180126BBDC4       0534880C00404772000000000002300216018290000013456 VIS000000041200000001             BRBBDCACNPR8000BCO BRADESCOPN      N1C 1              
0120180126BBDC4       0534890C00404772000000000002700216018290000013456 VIS000000041200000001             BRBBDCACNPR8000BCO BRADESCOPN      N1C 1              
0120180126BBDC4       0535040C00402320000000000000888216001290000402320 VIS000000041200000001             BRBBDCACNPR8000BCO BRADESCOPN      N1  1              
0120180126BBDC4       0535040C00404772000000000000112216018290000013456 VIS000000041200000001             BRBBDCACNPR8000BCO BRADESCOPN      N1C 1              
0120180126BBDC4       0535050C00402320000000000002400216001290000402320 VIS000000041200000001             BRBBDCACNPR8000BCO BRADESCOPN      N1  1              
0120180126BBDC4       0535060C00402320000000000000200216001290000402320 VIS000000041200000001             BRBBDCACNPR8000BCO BRADESCOPN      N1  1              
0120180126BBDC4       0535070C00402320000000000004200216001290000402320 VIS000000041200000001             BRBBDCACNPR8000BCO BRADESCOPN      N1  1              
0120180126CSNA3       0085600V00404772000000000002200216018290000013456 VIS000000010850000001             BRCSNAACNOR6000CIA SIDERURGON        C 1              
0120180126CSNA3       0085610V00402320000000000003200216001290000402320 VIS000000010850000001             BRCSNAACNOR6000CIA SIDERURGON          1              
0120180126CSNA3       0085610V00404772000000000001800216018290000013456 VIS000000010850000001             BRCSNAACNOR6000CIA SIDERURGON        C 1              
0120180126CSNA3       0085620V00402320000000000000100216001290000402320 VIS000000010850000001             BRCSNAACNOR6000CIA SIDERURGON          1              
0120180126CSNA3       0085630V00402320000000000000300216001290000402320 VIS000000010850000001             BRCSNAACNOR6000CIA SIDERURGON          1              
0120180126CSNA3       0085640V00402320000000000000200216001290000402320 VIS000000010850000001             BRCSNAACNOR6000CIA SIDERURGON          1              
0120180126CSNA3       0085650V00402320000000000000100216001290000402320 VIS000000010850000001             BRCSNAACNOR6000CIA SIDERURGON          1              
0120180126CSNA3       0085660V00402320000000000000200216001290000402320 VIS000000010850000001             BRCSNAACNOR6000CIA SIDERURGON          1              
0120180126CSNA3       0085670V00402320000000000000100216001290000402320 VIS000000010850000001             BRCSNAACNOR6000CIA SIDERURGON          1              
0120180126CSNA3       0085680V00402320000000000000100216001290000402320 VIS000000010850000001             BRCSNAACNOR6000CIA SIDERURGON          1              
0120180126CSNA3       0085690V00402320000000000000200216001290000402320 VIS000000010850000001             BRCSNAACNOR6000CIA SIDERURGON          1              
0120180126CSNA3       0085700V00402320000000000000500216001290000402320 VIS000000010850000001             BRCSNAACNOR6000CIA SIDERURGON          1              
0120180126CSNA3       0085710V00402320000000000000200216001290000402320 VIS000000010850000001             BRCSNAACNOR6000CIA SIDERURGON          1              
0120180126CSNA3       0085720V00402320000000000000100216001290000402320 VIS000000010850000001             BRCSNAACNOR6000CIA SIDERURGON          1              
0120180126CSNA3       0085730V00402320000000000000100216001290000402320 VIS000000010850000001             BRCSNAACNOR6000CIA SIDERURGON          1              
0120180126CSNA3       0085740V00402320000000000000600216001290000402320 VIS000000010850000001             BRCSNAACNOR6000CIA SIDERURGON          1              
0120180126CSNA3       0099250C00404772000000000001900216018290000013456 VIS000000010810000001             BRCSNAACNOR6000CIA SIDERURGON        C 1              
0120180126CSNA3       0099260C00404772000000000000100216018290000013456 VIS000000010810000001             BRCSNAACNOR6000CIA SIDERURGON        C 1              
0120180126CSNA3       0099270C00404772000000000000100216018290000013456 VIS000000010810000001             BRCSNAACNOR6000CIA SIDERURGON        C 1              
0120180126CSNA3       0099280C00404772000000000000800216018290000013456 VIS000000010810000001             BRCSNAACNOR6000CIA SIDERURGON        C 1              
0120180126CSNA3       0099290C00404772000000000000200216018290000013456 VIS000000010810000001             BRCSNAACNOR6000CIA SIDERURGON        C 1              
0120180126CSNA3       0099300C00404772000000000000100216018290000013456 VIS000000010810000001             BRCSNAACNOR6000CIA SIDERURGON        C 1              
0120180126CSNA3       0099310C00402320000000000002400216001290000402320 VIS000000010810000001             BRCSNAACNOR6000CIA SIDERURGON          1              
0120180126CSNA3       0099310C00404772000000000000800216018290000013456 VIS000000010810000001             BRCSNAACNOR6000CIA SIDERURGON        C 1              
0120180126CSNA3       0099350C00402320000000000000100216001290000402320 VIS000000010810000001             BRCSNAACNOR6000CIA SIDERURGON          1              
0120180126CSNA3       0099360C00402320000000000000100216001290000402320 VIS000000010810000001             BRCSNAACNOR6000CIA SIDERURGON          1              
0120180126CSNA3       0099370C00402320000000000000100216001290000402320 VIS000000010810000001             BRCSNAACNOR6000CIA SIDERURGON          1              
0120180126CSNA3       0099400C00402320000000000000100216001290000402320 VIS000000010810000001             BRCSNAACNOR6000CIA SIDERURGON          1              
0120180126CSNA3       0099410C00402320000000000000100216001290000402320 VIS000000010810000001             BRCSNAACNOR6000CIA SIDERURGON          1              
0120180126CSNA3       0099420C00402320000000000003100216001290000402320 VIS000000010810000001             BRCSNAACNOR6000CIA SIDERURGON          1              
0120180126CSNAN10     0000840C00404772000000000000600216000000000000000 OPV000000000180000001             BRCSNAACNOR6000CIA SIDERURGON   10,00  1              
0120180126CSNAN10     0000850C00402320000000000012000216000000000000000 OPV000000000180000001             BRCSNAACNOR6000CIA SIDERURGON   10,00  1              
0120180126CSNAN10     0000850C00404772000000000007400216000000000000000 OPV000000000180000001             BRCSNAACNOR6000CIA SIDERURGON   10,00  1              
0120180126ITUB4       0007570V00404772000000000000100216018290000013456 VIS000000051170000001             BRITUBACNPR1000ITAU UNIBANCPN      N1C 1              
0120180126ITUB4       0007580V00404772000000000000800216018290000013456 VIS000000051180000001             BRITUBACNPR1000ITAU UNIBANCPN      N1C 1              
0120180126ITUB4       0007590V00404772000000000000400216018290000013456 VIS000000051180000001             BRITUBACNPR1000ITAU UNIBANCPN      N1C 1              
0120180126ITUB4       0007600V00404772000000000000400216018290000013456 VIS000000051180000001             BRITUBACNPR1000ITAU UNIBANCPN      N1C 1              
0120180126ITUB4       0007620V00404772000000000000800216018290000013456 VIS000000051180000001             BRITUBACNPR1000ITAU UNIBANCPN      N1C 1              
0120180126ITUB4       0007630V00404772000000000000500216018290000013456 VIS000000051180000001             BRITUBACNPR1000ITAU UNIBANCPN      N1C 1              
0120180126ITUB4       0007650V00404772000000000000800216018290000013456 VIS000000051180000001             BRITUBACNPR1000ITAU UNIBANCPN      N1C 1              
0120180126ITUB4       0007810V00404772000000000000200216018290000013456 VIS000000051200000001             BRITUBACNPR1000ITAU UNIBANCPN      N1C 1              
0120180126ITUB4       0255220V00404772000000000003400216018290000013456 VIS000000052690000001             BRITUBACNPR1000ITAU UNIBANCPN      N1C 1              
0120180126ITUB4       0255230V00404772000000000000100216018290000013456 VIS000000052690000001             BRITUBACNPR1000ITAU UNIBANCPN      N1C 1              
0120180126ITUB4       0255240V00404772000000000000100216018290000013456 VIS000000052690000001             BRITUBACNPR1000ITAU UNIBANCPN      N1C 1              
0120180126ITUB4       0255250V00402320000000000000400216001290000402320 VIS000000052690000001             BRITUBACNPR1000ITAU UNIBANCPN      N1  1              
0120180126ITUB4       0255250V00404772000000000000400216018290000013456 VIS000000052690000001             BRITUBACNPR1000ITAU UNIBANCPN      N1C 1              
0120180126ITUB4       0255260V00402320000000000000100216001290000402320 VIS000000052690000001             BRITUBACNPR1000ITAU UNIBANCPN      N1  1              
0120180126ITUB4       0255270V00402320000000000000100216001290000402320 VIS000000052690000001             BRITUBACNPR1000ITAU UNIBANCPN      N1  1              
0120180126ITUB4       0255280V00402320000000000000100216001290000402320 VIS000000052690000001             BRITUBACNPR1000ITAU UNIBANCPN      N1  1              
0120180126ITUB4       0255460V00402320000000000005300216001290000402320 VIS000000052690000001             BRITUBACNPR1000ITAU UNIBANCPN      N1  1              
0120180126ITUB4       0391350C00402320000000000001400216001290000402320 VIS000000052500000001             BRITUBACNPR1000ITAU UNIBANCPN      N1  1              
0120180126ITUB4       0391350C00404772000000000002000216018290000013456 VIS000000052500000001             BRITUBACNPR1000ITAU UNIBANCPN      N1C 1              
0120180126ITUB4       0391360C00402320000000000000100216001290000402320 VIS000000052500000001             BRITUBACNPR1000ITAU UNIBANCPN      N1  1              
0120180126ITUB4       0391370C00402320000000000000200216001290000402320 VIS000000052500000001             BRITUBACNPR1000ITAU UNIBANCPN      N1  1              
0120180126ITUB4       0391380C00402320000000000000100216001290000402320 VIS000000052500000001             BRITUBACNPR1000ITAU UNIBANCPN      N1  1              
0120180126ITUB4       0391390C00402320000000000000300216001290000402320 VIS000000052500000001             BRITUBACNPR1000ITAU UNIBANCPN      N1  1              
0120180126ITUB4       0391400C00402320000000000000100216001290000402320 VIS000000052500000001             BRITUBACNPR1000ITAU UNIBANCPN      N1  1              
0120180126ITUB4       0391410C00402320000000000000800216001290000402320 VIS000000052500000001             BRITUBACNPR1000ITAU UNIBANCPN      N1  1              
0120180126ITUB4       0395800C00402320000000000001680216001290000402320 VIS000000052390000001             BRITUBACNPR1000ITAU UNIBANCPN      N1  1              
0120180126ITUB4       0395800C00404772000000000001120216018290000013456 VIS000000052390000001             BRITUBACNPR1000ITAU UNIBANCPN      N1C 1              
0120180126ITUB4       0621020C00402320000000000001320216001290000402320 VIS000000053120000001             BRITUBACNPR1000ITAU UNIBANCPN      N1  1              
0120180126ITUB4       0621020C00404772000000000000880216018290000013456 VIS000000053120000001             BRITUBACNPR1000ITAU UNIBANCPN      N1C 1              
0120180126PETR4       0073500V00402320000000000004700216001290000402320 VIS000000019470000001             BRPETRACNPR6000PETROLEO BRAPN  ATZ     1              
0120180126PETR4       0073510V00402320000000000000800216001290000402320 VIS000000019470000001             BRPETRACNPR6000PETROLEO BRAPN  ATZ     1              
0120180126PETR4       0073520V00402320000000000003000216001290000402320 VIS000000019470000001             BRPETRACNPR6000PETROLEO BRAPN  ATZ     1              
0120180126PETR4       0073530V00402320000000000003500216001290000402320 VIS000000019470000001             BRPETRACNPR6000PETROLEO BRAPN  ATZ     1              
0120180126PETR4       0073540V00404772000000000000100216018290000013456 VIS000000019470000001             BRPETRACNPR6000PETROLEO BRAPN  ATZ   C 1              
0120180126PETR4       0073550V00404772000000000007900216018290000013456 VIS000000019470000001             BRPETRACNPR6000PETROLEO BRAPN  ATZ   C 1              
0120180126PETR4       0160540C00404772000000000002000216018290000013456 VIS000000019380000001             BRPETRACNPR6000PETROLEO BRAPN  ATZ   C 1              
0120180126PETR4       0160550C00404772000000000000100216018290000013456 VIS000000019380000001             BRPETRACNPR6000PETROLEO BRAPN  ATZ   C 1              
0120180126PETR4       0160560C00404772000000000000100216018290000013456 VIS000000019380000001             BRPETRACNPR6000PETROLEO BRAPN  ATZ   C 1              
0120180126PETR4       0160570C00402320000000000004200216001290000402320 VIS000000019380000001             BRPETRACNPR6000PETROLEO BRAPN  ATZ     1              
0120180126PETR4       0160570C00404772000000000001800216018290000013456 VIS000000019380000001             BRPETRACNPR6000PETROLEO BRAPN  ATZ   C 1              
0120180126PETR4       0160580C00402320000000000001800216001290000402320 VIS000000019380000001             BRPETRACNPR6000PETROLEO BRAPN  ATZ     1              
0120180126PETR4       0171130C00404772000000000001500216018290000013456 VIS000000019320000001             BRPETRACNPR6000PETROLEO BRAPN  ATZ   C 1              
0120180126PETR4       0171140C00402320000000000001000216001290000402320 VIS000000019320000001             BRPETRACNPR6000PETROLEO BRAPN  ATZ     1              
0120180126PETR4       0171140C00404772000000000002500216018290000013456 VIS000000019320000001             BRPETRACNPR6000PETROLEO BRAPN  ATZ   C 1              
0120180126PETR4       0171170C00402320000000000000300216001290000402320 VIS000000019320000001             BRPETRACNPR6000PETROLEO BRAPN  ATZ     1              
0120180126PETR4       0171180C00402320000000000000100216001290000402320 VIS000000019320000001             BRPETRACNPR6000PETROLEO BRAPN  ATZ     1              
0120180126PETR4       0171200C00402320000000000000100216001290000402320 VIS000000019320000001             BRPETRACNPR6000PETROLEO BRAPN  ATZ     1              
0120180126PETR4       0171210C00402320000000000001000216001290000402320 VIS000000019320000001             BRPETRACNPR6000PETROLEO BRAPN  ATZ     1              
0120180126PETR4       0171220C00402320000000000000100216001290000402320 VIS000000019320000001             BRPETRACNPR6000PETROLEO BRAPN  ATZ     1              
0120180126PETR4       0171280C00402320000000000000700216001290000402320 VIS000000019320000001             BRPETRACNPR6000PETROLEO BRAPN  ATZ     1              
0120180126PETR4       0171290C00402320000000000002000216001290000402320 VIS000000019320000001             BRPETRACNPR6000PETROLEO BRAPN  ATZ     1              
0120180126PETR4       0171300C00402320000000000000100216001290000402320 VIS000000019320000001             BRPETRACNPR6000PETROLEO BRAPN  ATZ     1              
0120180126PETR4       0171310C00402320000000000000600216001290000402320 VIS000000019320000001             BRPETRACNPR6000PETROLEO BRAPN  ATZ     1              
0120180126PETR4       0779990V00402320000000000000100216001290000402320 VIS000000019890000001             BRPETRACNPR6000PETROLEO BRAPN  ATZ     1              
0120180126PETR4       0780000V00402320000000000000300216001290000402320 VIS000000019890000001             BRPETRACNPR6000PETROLEO BRAPN  ATZ     1              
0120180126PETR4       0780010V00402320000000000000500216001290000402320 VIS000000019890000001             BRPETRACNPR6000PETROLEO BRAPN  ATZ     1              
0120180126PETR4       0780020V00402320000000000000800216001290000402320 VIS000000019890000001             BRPETRACNPR6000PETROLEO BRAPN  ATZ     1              
0120180126PETR4       0780030V00402320000000000004300216001290000402320 VIS000000019890000001             BRPETRACNPR6000PETROLEO BRAPN  ATZ     1              
0120180126PETR4       0780030V00404772000000000000500216018290000013456 VIS000000019890000001             BRPETRACNPR6000PETROLEO BRAPN  ATZ   C 1              
0120180126PETR4       0780040V00404772000000000003500216018290000013456 VIS000000019890000001             BRPETRACNPR6000PETROLEO BRAPN  ATZ   C 1              
0120180126PETR4       0908610C00402320000000000006000216001290000402320 VIS000000019930000001             BRPETRACNPR6000PETROLEO BRAPN  ATZ     1              
0120180126PETR4       0908610C00404772000000000004000216018290000013456 VIS000000019930000001             BRPETRACNPR6000PETROLEO BRAPN  ATZ   C 1              
0120180126PETRB21     0035880C00402320000000000004000216000000000000000 OPC000000000240000001 PETR4       BRPETRACNPR6000PETROLEO BRAPN   21,00  1              
0120180126PETRB21     0035880C00404772000000000016000216000000000000000 OPC000000000240000001 PETR4       BRPETRACNPR6000PETROLEO BRAPN   21,00  1              
0120180126PETRB21     0035890C00402320000000000020000216000000000000000 OPC000000000240000001 PETR4       BRPETRACNPR6000PETROLEO BRAPN   21,00  1              
0120180126PETRB21     0038970V00402320000000000012000216000000000000000 OPC000000000250000001 PETR4       BRPETRACNPR6000PETROLEO BRAPN   21,00  1              
0120180126PETRB21     0038970V00404772000000000008000216000000000000000 OPC000000000250000001 PETR4       BRPETRACNPR6000PETROLEO BRAPN   21,00  1              
0120180126VALEB449    0004340C00402320000000000018000216000000000000000 OPC000000000230000001 VALE3       BRVALEACNOR0000VALE S.A.   ON   44,99  1              
0120180126VALEB449    0004340C00404772000000000012000216000000000000000 OPC000000000230000001 VALE3       BRVALEACNOR0000VALE S.A.   ON   44,99  1              
0120180126PETRB21     0038970V00404772000000000008000216000000000000000 OPC000000000250000001 PETR4       BRPETRACNPR6000PETROLEO BRAPN   21,00  1              
0120180126BBDC4       0006040C00404772000000000000300216018290000013456 VIS000000040180000001             BRBBDCACNPR8000BCO BRADESCOPN      N1  1              
0120180126ITUB4       0621020C00404772000000000000880216018290000013456 VIS000000053120000001             BRITUBACNPR1000ITAU UNIBANCPN      N1  1              
0120180126ITUB4       0255240V00404772000000000000100216018290000013456 VIS000000052690000001             BRITUBACNPR1000ITAU UNIBANCPN      N1  1              
0120180126ITUB4       0007810V00404772000000000000200216018290000013456 VIS000000051200000001             BRITUBACNPR1000ITAU UNIBANCPN      N1  1              
0120180126BBDC4       0414040V00404772000000000001000216018290000013456 VIS000000041000000001             BRBBDCACNPR8000BCO BRADESCOPN      N1  1              
0120180126BBDC4       0332990V00404772000000000000400216018290000013456 VIS000000040870000001             BRBBDCACNPR8000BCO BRADESCOPN      N1  1              
0120180126BBDC4       0006030V00404772000000000000100216018290000013456 VIS000000040180000001             BRBBDCACNPR8000BCO BRADESCOPN      N1  1              
0120180126CSNA3       0099260C00404772000000000000100216018290000013456 VIS000000010810000001             BRCSNAACNOR6000CIA SIDERURGON          1              
0120180126PETR4       0171140C00404772000000000002500216018290000013456 VIS000000019320000001             BRPETRACNPR6000PETROLEO BRAPN  ATZ     1              
0120180126PETR4       0160570C00404772000000000001800216018290000013456 VIS000000019380000001             BRPETRACNPR6000PETROLEO BRAPN  ATZ     1              
0120180126BBDC4       0534880C00404772000000000002300216018290000013456 VIS000000041200000001             BRBBDCACNPR8000BCO BRADESCOPN      N1  1              
0120180126BBDC4       0228520C00404772000000000000500216018290000013456 VIS000000040930000001             BRBBDCACNPR8000BCO BRADESCOPN      N1  1              
0120180126BBDC4       0228450C00404772000000000000300216018290000013456 VIS000000040930000001             BRBBDCACNPR8000BCO BRADESCOPN      N1  1              
0120180126BBDC4       0228420C00404772000000000000200216018290000013456 VIS000000040930000001             BRBBDCACNPR8000BCO BRADESCOPN      N1  1              
0120180126ABCB4       0000540V00404772000000000000080216018290000013456 VIS000000018800000001             BRABCBACNPR4000BCO ABC BRASPN      N2  1              
0120180126VALEB449    0004340C00404772000000000012000216000000000000000 OPC000000000230000001 VALE3       BRVALEACNOR0000VALE S.A.   ON   44,99  1              
0120180126ITUB4       0007620V00404772000000000000800216018290000013456 VIS000000051180000001             BRITUBACNPR1000ITAU UNIBANCPN      N1  1              
0120180126ITUB4       0007600V00404772000000000000400216018290000013456 VIS000000051180000001             BRITUBACNPR1000ITAU UNIBANCPN      N1  1              
0120180126BBDC4       0414000V00404772000000000000100216018290000013456 VIS000000041000000001             BRBBDCACNPR8000BCO BRADESCOPN      N1  1              
0120180126BBDC4       0333010V00404772000000000000236216018290000013456 VIS000000040870000001             BRBBDCACNPR8000BCO BRADESCOPN      N1  1              
0120180126PETR4       0073550V00404772000000000007900216018290000013456 VIS000000019470000001             BRPETRACNPR6000PETROLEO BRAPN  ATZ     1              
0120180126PETR4       0160540C00404772000000000002000216018290000013456 VIS000000019380000001             BRPETRACNPR6000PETROLEO BRAPN  ATZ     1              
0120180126BBDC4       0535040C00404772000000000000112216018290000013456 VIS000000041200000001             BRBBDCACNPR8000BCO BRADESCOPN      N1  1              
0120180126BBDC4       0228880C00404772000000000000100216018290000013456 VIS000000040930000001             BRBBDCACNPR8000BCO BRADESCOPN      N1  1              
0120180126BBDC4       0228850C00404772000000000000100216018290000013456 VIS000000040930000001             BRBBDCACNPR8000BCO BRADESCOPN      N1  1              
0120180126BBDC4       0005950C00404772000000000000500216018290000013456 VIS000000040170000001             BRBBDCACNPR8000BCO BRADESCOPN      N1  1              
0120180126BBDC4       0414010V00404772000000000000100216018290000013456 VIS000000041000000001             BRBBDCACNPR8000BCO BRADESCOPN      N1  1              
0120180126BBDC4       0413980V00404772000000000001800216018290000013456 VIS000000041000000001             BRBBDCACNPR8000BCO BRADESCOPN      N1  1              
0120180126BBDC4       0332930V00404772000000000000279216018290000013456 VIS000000040880000001             BRBBDCACNPR8000BCO BRADESCOPN      N1  1              
0120180126BBDC4       0006090V00404772000000000002994216018290000013456 VIS000000040180000001             BRBBDCACNPR8000BCO BRADESCOPN      N1  1              
0120180126CSNA3       0099310C00404772000000000000800216018290000013456 VIS000000010810000001             BRCSNAACNOR6000CIA SIDERURGON          1              
0120180126CSNA3       0099280C00404772000000000000800216018290000013456 VIS000000010810000001             BRCSNAACNOR6000CIA SIDERURGON          1              
0120180126CSNA3       0099270C00404772000000000000100216018290000013456 VIS000000010810000001             BRCSNAACNOR6000CIA SIDERURGON          1              
0120180126CSNA3       0099250C00404772000000000001900216018290000013456 VIS000000010810000001             BRCSNAACNOR6000CIA SIDERURGON          1              
0120180126PETR4       0160550C00404772000000000000100216018290000013456 VIS000000019380000001             BRPETRACNPR6000PETROLEO BRAPN  ATZ     1              
0120180126BBDC4       0228480C00404772000000000000100216018290000013456 VIS000000040930000001             BRBBDCACNPR8000BCO BRADESCOPN      N1  1              
0120180126CSNAN10     0000850C00404772000000000007400216000000000000000 OPV000000000180000001             BRCSNAACNOR6000CIA SIDERURGON   10,00  1              
0120180126BBDC4       0005940C00404772000000000001000216018290000013456 VIS000000040170000001             BRBBDCACNPR8000BCO BRADESCOPN      N1  1              
0120180126ITUB4       0255250V00404772000000000000400216018290000013456 VIS000000052690000001             BRITUBACNPR1000ITAU UNIBANCPN      N1  1              
0120180126ITUB4       0007580V00404772000000000000800216018290000013456 VIS000000051180000001             BRITUBACNPR1000ITAU UNIBANCPN      N1  1              
0120180126BBDC4       0201800V00404772000000000000100216018290000013456 VIS000000040630000001             BRBBDCACNPR8000BCO BRADESCOPN      N1  1              
0120180126BBDC4       0201790V00404772000000000000100216018290000013456 VIS000000040630000001             BRBBDCACNPR8000BCO BRADESCOPN      N1  1              
0120180126BBDC4       0006040V00404772000000000000300216018290000013456 VIS000000040180000001             BRBBDCACNPR8000BCO BRADESCOPN      N1  1              
0120180126BBDC4       0005900V00404772000000000000500216018290000013456 VIS000000040180000001             BRBBDCACNPR8000BCO BRADESCOPN      N1  1              
0120180126BBDC4       0228840C00404772000000000000100216018290000013456 VIS000000040930000001             BRBBDCACNPR8000BCO BRADESCOPN      N1  1              
0120180126BBDC4       0228770C00404772000000000000200216018290000013456 VIS000000040930000001             BRBBDCACNPR8000BCO BRADESCOPN      N1  1              
0120180126BBDC4       0228500C00404772000000000000100216018290000013456 VIS000000040930000001             BRBBDCACNPR8000BCO BRADESCOPN      N1  1              
0120180126BBDC4       0228430C00404772000000000000300216018290000013456 VIS000000040930000001             BRBBDCACNPR8000BCO BRADESCOPN      N1  1              
0120180126ABCB4       0000610V00404772000000000000200216018290000013456 VIS000000018810000001             BRABCBACNPR4000BCO ABC BRASPN      N2  1              
0120180126ABCB4       0000590V00404772000000000000020216018290000013456 VIS000000018810000001             BRABCBACNPR4000BCO ABC BRASPN      N2  1              
0120180126BBDC4       0005970C00404772000000000000400216018290000013456 VIS000000040170000001             BRBBDCACNPR8000BCO BRADESCOPN      N1  1              
0120180126ITUB4       0391350C00404772000000000002000216018290000013456 VIS000000052500000001             BRITUBACNPR1000ITAU UNIBANCPN      N1  1              
0120180126ITUB4       0007650V00404772000000000000800216018290000013456 VIS000000051180000001             BRITUBACNPR1000ITAU UNIBANCPN      N1  1              
0120180126ITUB4       0007630V00404772000000000000500216018290000013456 VIS000000051180000001             BRITUBACNPR1000ITAU UNIBANCPN      N1  1              
0120180126ITUB4       0007570V00404772000000000000100216018290000013456 VIS000000051170000001             BRITUBACNPR1000ITAU UNIBANCPN      N1  1              
0120180126BBDC4       0201830V00404772000000000000497216018290000013456 VIS000000040630000001             BRBBDCACNPR8000BCO BRADESCOPN      N1  1              
0120180126BBDC4       0201810V00404772000000000000600216018290000013456 VIS000000040630000001             BRBBDCACNPR8000BCO BRADESCOPN      N1  1              
0120180126PETR4       0780040V00404772000000000003500216018290000013456 VIS000000019890000001             BRPETRACNPR6000PETROLEO BRAPN  ATZ     1              
0120180126PETR4       0160560C00404772000000000000100216018290000013456 VIS000000019380000001             BRPETRACNPR6000PETROLEO BRAPN  ATZ     1              
0120180126BBDC4       0534890C00404772000000000002700216018290000013456 VIS000000041200000001             BRBBDCACNPR8000BCO BRADESCOPN      N1  1              
0120180126BBDC4       0230160C00404772000000000004088216018290000013456 VIS000000040930000001             BRBBDCACNPR8000BCO BRADESCOPN      N1  1              
0120180126BBDC4       0228410C00404772000000000000700216018290000013456 VIS000000040930000001             BRBBDCACNPR8000BCO BRADESCOPN      N1  1              
0120180126CSNAN10     0000840C00404772000000000000600216000000000000000 OPV000000000180000001             BRCSNAACNOR6000CIA SIDERURGON   10,00  1              
0120180126BBDC4       0006000C00404772000000000000600216018290000013456 VIS000000040170000001             BRBBDCACNPR8000BCO BRADESCOPN      N1  1              
0120180126ITUB4       0255230V00404772000000000000100216018290000013456 VIS000000052690000001             BRITUBACNPR1000ITAU UNIBANCPN      N1  1              
0120180126BBDC4       0414050V00404772000000000000494216018290000013456 VIS000000041000000001             BRBBDCACNPR8000BCO BRADESCOPN      N1  1              
0120180126BBDC4       0414020V00404772000000000000100216018290000013456 VIS000000041000000001             BRBBDCACNPR8000BCO BRADESCOPN      N1  1              
0120180126BBDC4       0413990V00404772000000000000100216018290000013456 VIS000000041000000001             BRBBDCACNPR8000BCO BRADESCOPN      N1  1              
0120180126BBDC4       0332970V00404772000000000000100216018290000013456 VIS000000040870000001             BRBBDCACNPR8000BCO BRADESCOPN      N1  1              
0120180126BBDC4       0201780V00404772000000000000600216018290000013456 VIS000000040630000001             BRBBDCACNPR8000BCO BRADESCOPN      N1  1              
0120180126BBDC4       0005910V00404772000000000000100216018290000013456 VIS000000040180000001             BRBBDCACNPR8000BCO BRADESCOPN      N1  1              
0120180126BBDC4       0414030V00404772000000000000300216018290000013456 VIS000000041000000001             BRBBDCACNPR8000BCO BRADESCOPN      N1  1              
0120180126CSNA3       0085600V00404772000000000002200216018290000013456 VIS000000010850000001             BRCSNAACNOR6000CIA SIDERURGON          1              
0120180126BBDC4       0228440C00404772000000000000200216018290000013456 VIS000000040930000001             BRBBDCACNPR8000BCO BRADESCOPN      N1  1              
0120180126ABCB4       0000550V00404772000000000000200216018290000013456 VIS000000018800000001             BRABCBACNPR4000BCO ABC BRASPN      N2  1              
0120180126PETRB21     0035880C00404772000000000016000216000000000000000 OPC000000000240000001 PETR4       BRPETRACNPR6000PETROLEO BRAPN   21,00  1              
0120180126BBDC4       0005960C00404772000000000000100216018290000013456 VIS000000040170000001             BRBBDCACNPR8000BCO BRADESCOPN      N1  1              
0120180126BBDC4       0333000V00404772000000000000400216018290000013456 VIS000000040870000001             BRBBDCACNPR8000BCO BRADESCOPN      N1  1              
0120180126CSNA3       0085610V00404772000000000001800216018290000013456 VIS000000010850000001             BRCSNAACNOR6000CIA SIDERURGON          1              
0120180126PETR4       0073540V00404772000000000000100216018290000013456 VIS000000019470000001             BRPETRACNPR6000PETROLEO BRAPN  ATZ     1              
0120180126PETR4       0908610C00404772000000000004000216018290000013456 VIS000000019930000001             BRPETRACNPR6000PETROLEO BRAPN  ATZ     1              
0120180126BBDC4       0228870C00404772000000000000100216018290000013456 VIS000000040930000001             BRBBDCACNPR8000BCO BRADESCOPN      N1  1              
0120180126BBDC4       0228460C00404772000000000000200216018290000013456 VIS000000040930000001             BRBBDCACNPR8000BCO BRADESCOPN      N1  1              
0120180126BBDC4       0006010C00404772000000000001000216018290000013456 VIS000000040170000001             BRBBDCACNPR8000BCO BRADESCOPN      N1  1              
0120180126BBDC4       0005980C00404772000000000001000216018290000013456 VIS000000040170000001             BRBBDCACNPR8000BCO BRADESCOPN      N1  1              
0120180126BBDC4       0005930C00404772000000000000100216018290000013456 VIS000000040160000001             BRBBDCACNPR8000BCO BRADESCOPN      N1  1              
0120180126ITUB4       0395800C00404772000000000001120216018290000013456 VIS000000052390000001             BRITUBACNPR1000ITAU UNIBANCPN      N1  1              
0120180126ITUB4       0255220V00404772000000000003400216018290000013456 VIS000000052690000001             BRITUBACNPR1000ITAU UNIBANCPN      N1  1              
0120180126ITUB4       0007590V00404772000000000000400216018290000013456 VIS000000051180000001             BRITUBACNPR1000ITAU UNIBANCPN      N1  1              
0120180126BBDC4       0332980V00404772000000000001000216018290000013456 VIS000000040870000001             BRBBDCACNPR8000BCO BRADESCOPN      N1  1              
0120180126BBDC4       0332960V00404772000000000000700216018290000013456 VIS000000040870000001             BRBBDCACNPR8000BCO BRADESCOPN      N1  1              
0120180126BBDC4       0201820V00404772000000000000100216018290000013456 VIS000000040630000001             BRBBDCACNPR8000BCO BRADESCOPN      N1  1              
0120180126CSNA3       0099300C00404772000000000000100216018290000013456 VIS000000010810000001             BRCSNAACNOR6000CIA SIDERURGON          1              
0120180126CSNA3       0099290C00404772000000000000200216018290000013456 VIS000000010810000001             BRCSNAACNOR6000CIA SIDERURGON          1              
0120180126PETR4       0780030V00404772000000000000500216018290000013456 VIS000000019890000001             BRPETRACNPR6000PETROLEO BRAPN  ATZ     1              
0120180126PETR4       0171130C00404772000000000001500216018290000013456 VIS000000019320000001             BRPETRACNPR6000PETROLEO BRAPN  ATZ     1              
0120180126BBDC4       0228760C00404772000000000000500216018290000013456 VIS000000040930000001             BRBBDCACNPR8000BCO BRADESCOPN      N1  1              
0120180126BBDC4       0228490C00404772000000000000100216018290000013456 VIS000000040930000001             BRBBDCACNPR8000BCO BRADESCOPN      N1  1              
0120180126BBDC4       0228470C00404772000000000000100216018290000013456 VIS000000040930000001             BRBBDCACNPR8000BCO BRADESCOPN      N1  1              
0120180126ABCB4       0000600V00404772000000000000200216018290000013456 VIS000000018810000001             BRABCBACNPR4000BCO ABC BRASPN      N2  1              
99PESC0129CBLC    012920180126000000217
