00NEGS0129SINACOR 01292018011620180116                                                                                                                                                                  
010003180CFESA4       VISNORCIA FERRO LIPN      N1000000000750000000260000045    10:17             00000000BRFESAACNPR5000000000100000000000         00000             11003017100000000              1 N
010003190CFESA4       VISNORCIA FERRO LIPN      N1000000001000000000260000045    10:17             00000000BRFESAACNPR5000000000100000000000         00000             11003017100000000              1 N
010020160CPETRB69     OPCNORPETROLEO BRAPN   19,00000000150000000000002700129    11:57 PETR4       00000000BRPETRACNPR6000000000100000000000         00000             11001017100000000              1 N
010008010CFESA4       VISNORCIA FERRO LIPN      N1000000003500000000254500735    11:58             00000000BRFESAACNPR5000000000100000000000         00000             11003017100000000              1 N
010001880CABCB2       VISNORBCO ABC BRASDP   12,46000000002000000000048200040    12:01             00000000BRABCBD12PR6000000000100000000000         00000             11003017100000000              1 N
010003160CFESA4       VISNORCIA FERRO LIPN      N1000000001750000000259900003    10:17             00000000BRFESAACNPR5000000000100000000000         00000             11003017100000000              1 N
010001860CABCB2       VISNORBCO ABC BRASDP   12,46000000004000000000048200129    12:01             00000000BRABCBD12PR6000000000100000000000         00000             11003017100000000              1 N
010003000CABCB4       VISNORBCO ABC BRASPN      N2000000007000000000174200008    11:52             00000000BRABCBACNPR4000000000100000000000         00000             11003017100000000              1 N
010001870CABCB2       VISNORBCO ABC BRASDP   12,46000000001000000000048200040    12:01             00000000BRABCBD12PR6000000000100000000000         00000             11003017100000000              1 N
99NEGS0129SINACOR 012920180116000000011                                                                                                                                                                 
