00NEGS0129SINACOR 01292018011620180116                                                                                                                                                                  
010000150CPETRB78     OPCNORPETROLEO BRAPN   18,75000000250000000000002700045    10:55 PETR4       00000000BRPETRACNPR6000000000100000000000         00000             11001017100000000              1 N
010069110VPETRB69     OPCNORPETROLEO BRAPN   19,00000000020000000000002500015    17:02 PETR4       00000000BRPETRACNPR6000000000100000000000         00000             11001017100000000              1 N
010069150VPETRB69     OPCNORPETROLEO BRAPN   19,00000000010000000000002500308    17:02 PETR4       00000000BRPETRACNPR6000000000100000000000         00000             11001017100000000              1 N
010069180VPETRB69     OPCNORPETROLEO BRAPN   19,00000000010000000000002500308    17:02 PETR4       00000000BRPETRACNPR6000000000100000000000         00000             11001017100000000              1 N
010069200VPETRB69     OPCNORPETROLEO BRAPN   19,00000000010000000000002500308    17:02 PETR4       00000000BRPETRACNPR6000000000100000000000         00000             11001017100000000              1 N
010069210VPETRB69     OPCNORPETROLEO BRAPN   19,00000000010000000000002500308    17:02 PETR4       00000000BRPETRACNPR6000000000100000000000         00000             11001017100000000              1 N
010069260VPETRB69     OPCNORPETROLEO BRAPN   19,00000000010000000000002500308    17:02 PETR4       00000000BRPETRACNPR6000000000100000000000         00000             11001017100000000              1 N
010069290VPETRB69     OPCNORPETROLEO BRAPN   19,00000000010000000000002500308    17:02 PETR4       00000000BRPETRACNPR6000000000100000000000         00000             11001017100000000              1 N
010309750VPETR4       VISNORPETROLEO BRAPN        000000001000000000177100016    17:00             00000000BRPETRACNPR6000000000100000000000         00000             11003017100000000              1 N
010309710VPETR4       VISNORPETROLEO BRAPN        000000001000000000177100016    17:00             00000000BRPETRACNPR6000000000100000000000         00000             11003017100000000              1 N
010309770VPETR4       VISNORPETROLEO BRAPN        000000001000000000177100045    17:00             00000000BRPETRACNPR6000000000100000000000         00000             11003017100000000              1 N
010309870VPETR4       VISNORPETROLEO BRAPN        000000001000000000177100016    17:00             00000000BRPETRACNPR6000000000100000000000         00000             11003017100000000              1 N
010309830VPETR4       VISNORPETROLEO BRAPN        000000001000000000177100045    17:00             00000000BRPETRACNPR6000000000100000000000         00000             11003017100000000              1 N
010309840VPETR4       VISNORPETROLEO BRAPN        000000001000000000177100016    17:00             00000000BRPETRACNPR6000000000100000000000         00000             11003017100000000              1 N
010003180CFESA4       VISNORCIA FERRO LIPN      N1000000001250000000260000045    10:17             00000000BRFESAACNPR5000000000100000000000         00000             11003017100000000              1 N
010309930VPETR4       VISNORPETROLEO BRAPN        000000001000000000177100016    17:00             00000000BRPETRACNPR6000000000100000000000         00000             11003017100000000              1 N
010309940VPETR4       VISNORPETROLEO BRAPN        000000001000000000177100045    17:00             00000000BRPETRACNPR6000000000100000000000         00000             11003017100000000              1 N
010309980VPETR4       VISNORPETROLEO BRAPN        000000001000000000177100045    17:01             00000000BRPETRACNPR6000000000100000000000         00000             11003017100000000              1 N
010085560VBBDC4       VISNORBCO BRADESCOPN      N1000000050000000000360900008    14:38             00000000BRBBDCACNPR8000000000100000000000         00000             11003017100000000              1 N
010121370CCSNA3       VISNORCIA SIDERURGON        000000004000000000106100008    17:22             00000000BRCSNAACNOR6000000000100000000000         00000             11003017100000000              1 N
010310360VPETR4       VISNORPETROLEO BRAPN        000000001000000000177100045    17:01             00000000BRPETRACNPR6000000000100000000000         00000             11003017100000000              1 N
010310380VPETR4       VISNORPETROLEO BRAPN        000000001000000000177100045    17:01             00000000BRPETRACNPR6000000000100000000000         00000             11003017100000000              1 N
010309780VPETR4       VISNORPETROLEO BRAPN        000000004000000000177100072    17:00             00000000BRPETRACNPR6000000000100000000000         00000             11003017100000000              1 N
010069170VPETRB69     OPCNORPETROLEO BRAPN   19,00000000010000000000002500308    17:02 PETR4       00000000BRPETRACNPR6000000000100000000000         00000             11001017100000000              1 N
010069190VPETRB69     OPCNORPETROLEO BRAPN   19,00000000010000000000002500308    17:02 PETR4       00000000BRPETRACNPR6000000000100000000000         00000             11001017100000000              1 N
010309810VPETR4       VISNORPETROLEO BRAPN        000000001000000000177100127    17:00             00000000BRPETRACNPR6000000000100000000000         00000             11003017100000000              1 N
010309860VPETR4       VISNORPETROLEO BRAPN        000000001000000000177100016    17:00             00000000BRPETRACNPR6000000000100000000000         00000             11003017100000000              1 N
010309890VPETR4       VISNORPETROLEO BRAPN        000000001000000000177100045    17:00             00000000BRPETRACNPR6000000000100000000000         00000             11003017100000000              1 N
010310020VPETR4       VISNORPETROLEO BRAPN        000000001000000000177100045    17:01             00000000BRPETRACNPR6000000000100000000000         00000             11003017100000000              1 N
010001640CABCB2       VISNORBCO ABC BRASDP   12,46000000002000000000048200129    12:00             00000000BRABCBD12PR6000000000100000000000         00000             11003017100000000              1 N
010147520CBBDC4       VISNORBCO BRADESCOPN      N1000000003000000000359900008    17:12             00000000BRBBDCACNPR8000000000100000000000         00000             11003017100000000              1 N
010147490CBBDC4       VISNORBCO BRADESCOPN      N1000000007000000000359800016    17:12             00000000BRBBDCACNPR8000000000100000000000         00000             11003017100000000              1 N
010147580CBBDC4       VISNORBCO BRADESCOPN      N1000000012000000000359900008    17:12             00000000BRBBDCACNPR8000000000100000000000         00000             11003017100000000              1 N
010310070VPETR4       VISNORPETROLEO BRAPN        000000001000000000177100016    17:01             00000000BRPETRACNPR6000000000100000000000         00000             11003017100000000              1 N
010310110VPETR4       VISNORPETROLEO BRAPN        000000003000000000177100072    17:01             00000000BRPETRACNPR6000000000100000000000         00000             11003017100000000              1 N
010310210VPETR4       VISNORPETROLEO BRAPN        000000001000000000177100016    17:01             00000000BRPETRACNPR6000000000100000000000         00000             11003017100000000              1 N
010310400VPETR4       VISNORPETROLEO BRAPN        000000001000000000177100045    17:01             00000000BRPETRACNPR6000000000100000000000         00000             11003017100000000              1 N
010020160CPETRB69     OPCNORPETROLEO BRAPN   19,00000000100000000000002700129    11:57 PETR4       00000000BRPETRACNPR6000000000100000000000         00000             11001017100000000              1 N
010033840CPETRB69     OPCNORPETROLEO BRAPN   19,00000000002000000000002700308    12:38 PETR4       00000000BRPETRACNPR6000000000100000000000         00000             11001017100000000              1 N
010033830CPETRB69     OPCNORPETROLEO BRAPN   19,00000000025000000000002700003    12:38 PETR4       00000000BRPETRACNPR6000000000100000000000         00000             11001017100000000              1 N
010069220VPETRB69     OPCNORPETROLEO BRAPN   19,00000000010000000000002500308    17:02 PETR4       00000000BRPETRACNPR6000000000100000000000         00000             11001017100000000              1 N
010069280VPETRB69     OPCNORPETROLEO BRAPN   19,00000000010000000000002500308    17:02 PETR4       00000000BRPETRACNPR6000000000100000000000         00000             11001017100000000              1 N
010309820VPETR4       VISNORPETROLEO BRAPN        000000001000000000177100045    17:00             00000000BRPETRACNPR6000000000100000000000         00000             11003017100000000              1 N
010309900VPETR4       VISNORPETROLEO BRAPN        000000001000000000177100045    17:00             00000000BRPETRACNPR6000000000100000000000         00000             11003017100000000              1 N
010008010CFESA4       VISNORCIA FERRO LIPN      N1000000003500000000254500735    11:58             00000000BRFESAACNPR5000000000100000000000         00000             11003017100000000              1 N
010309910VPETR4       VISNORPETROLEO BRAPN        000000001000000000177100045    17:00             00000000BRPETRACNPR6000000000100000000000         00000             11003017100000000              1 N
010310040VPETR4       VISNORPETROLEO BRAPN        000000001000000000177100045    17:01             00000000BRPETRACNPR6000000000100000000000         00000             11003017100000000              1 N
010147510CBBDC4       VISNORBCO BRADESCOPN      N1000000006000000000359900120    17:12             00000000BRBBDCACNPR8000000000100000000000         00000             11003017100000000              1 N
010147590CBBDC4       VISNORBCO BRADESCOPN      N1000000013000000000359900008    17:12             00000000BRBBDCACNPR8000000000100000000000         00000             11003017100000000              1 N
010121380CCSNA3       VISNORCIA SIDERURGON        000000002000000000106100077    17:22             00000000BRCSNAACNOR6000000000100000000000         00000             11003017100000000              1 N
010121400CCSNA3       VISNORCIA SIDERURGON        000000028000000000106100120    17:22             00000000BRCSNAACNOR6000000000100000000000         00000             11003017100000000              1 N
010310080VPETR4       VISNORPETROLEO BRAPN        000000001000000000177100003    17:01             00000000BRPETRACNPR6000000000100000000000         00000             11003017100000000              1 N
010310170VPETR4       VISNORPETROLEO BRAPN        000000001000000000177100045    17:01             00000000BRPETRACNPR6000000000100000000000         00000             11003017100000000              1 N
010310190VPETR4       VISNORPETROLEO BRAPN        000000001000000000177100045    17:01             00000000BRPETRACNPR6000000000100000000000         00000             11003017100000000              1 N
010310310VPETR4       VISNORPETROLEO BRAPN        000000004000000000177100072    17:01             00000000BRPETRACNPR6000000000100000000000         00000             11003017100000000              1 N
010310320VPETR4       VISNORPETROLEO BRAPN        000000001000000000177100045    17:01             00000000BRPETRACNPR6000000000100000000000         00000             11003017100000000              1 N
010310340VPETR4       VISNORPETROLEO BRAPN        000000001000000000177100045    17:01             00000000BRPETRACNPR6000000000100000000000         00000             11003017100000000              1 N
010310350VPETR4       VISNORPETROLEO BRAPN        000000001000000000177100016    17:01             00000000BRPETRACNPR6000000000100000000000         00000             11003017100000000              1 N
010310410VPETR4       VISNORPETROLEO BRAPN        000000001000000000177100016    17:01             00000000BRPETRACNPR6000000000100000000000         00000             11003017100000000              1 N
010069240VPETRB69     OPCNORPETROLEO BRAPN   19,00000000010000000000002500308    17:02 PETR4       00000000BRPETRACNPR6000000000100000000000         00000             11001017100000000              1 N
010069270VPETRB69     OPCNORPETROLEO BRAPN   19,00000000010000000000002500308    17:02 PETR4       00000000BRPETRACNPR6000000000100000000000         00000             11001017100000000              1 N
010309720VPETR4       VISNORPETROLEO BRAPN        000000001000000000177100045    17:00             00000000BRPETRACNPR6000000000100000000000         00000             11003017100000000              1 N
010309740VPETR4       VISNORPETROLEO BRAPN        000000001000000000177100045    17:00             00000000BRPETRACNPR6000000000100000000000         00000             11003017100000000              1 N
010002990CABCB4       VISNORBCO ABC BRASPN      N2000000005000000000174200015    11:52             00000000BRABCBACNPR4000000000100000000000         00000             11003017100000000              1 N
010309960VPETR4       VISNORPETROLEO BRAPN        000000003000000000177100072    17:01             00000000BRPETRACNPR6000000000100000000000         00000             11003017100000000              1 N
010309970VPETR4       VISNORPETROLEO BRAPN        000000001000000000177100016    17:01             00000000BRPETRACNPR6000000000100000000000         00000             11003017100000000              1 N
010310010VPETR4       VISNORPETROLEO BRAPN        000000001000000000177100045    17:01             00000000BRPETRACNPR6000000000100000000000         00000             11003017100000000              1 N
010007960CFESA4       VISNORCIA FERRO LIPN      N1000000002000000000254500021    11:58             00000000BRFESAACNPR5000000000100000000000         00000             11003017100000000              1 N
010001660CABCB2       VISNORBCO ABC BRASDP   12,46000000001000000000048200129    12:00             00000000BRABCBD12PR6000000000100000000000         00000             11003017100000000              1 N
010001680CABCB2       VISNORBCO ABC BRASDP   12,46000000004000000000048200040    12:00             00000000BRABCBD12PR6000000000100000000000         00000             11003017100000000              1 N
010310230VPETR4       VISNORPETROLEO BRAPN        000000002000000000177100386    17:01             00000000BRPETRACNPR6000000000100000000000         00000             11003017100000000              1 N
010310260VPETR4       VISNORPETROLEO BRAPN        000000001000000000177100016    17:01             00000000BRPETRACNPR6000000000100000000000         00000             11003017100000000              1 N
010310290VPETR4       VISNORPETROLEO BRAPN        000000001000000000177100003    17:01             00000000BRPETRACNPR6000000000100000000000         00000             11003017100000000              1 N
010310370VPETR4       VISNORPETROLEO BRAPN        000000001000000000177100016    17:01             00000000BRPETRACNPR6000000000100000000000         00000             11003017100000000              1 N
010325220CPETR4       VISNORPETROLEO BRAPN        000000008000000000176500386    17:13             00000000BRPETRACNPR6000000000100000000000         00000             11003017100000000              1 N
010337740CPETR4       VISNORPETROLEO BRAPN        000000013000000000176200008    17:20             00000000BRPETRACNPR6000000000100000000000         00000             11003017100000000              1 N
010069130VPETRB69     OPCNORPETROLEO BRAPN   19,00000000010000000000002500308    17:02 PETR4       00000000BRPETRACNPR6000000000100000000000         00000             11001017100000000              1 N
010069300VPETRB69     OPCNORPETROLEO BRAPN   19,00000000010000000000002500308    17:02 PETR4       00000000BRPETRACNPR6000000000100000000000         00000             11001017100000000              1 N
010069320VPETRB69     OPCNORPETROLEO BRAPN   19,00000000005000000000002500308    17:02 PETR4       00000000BRPETRACNPR6000000000100000000000         00000             11001017100000000              1 N
010309790VPETR4       VISNORPETROLEO BRAPN        000000001000000000177100016    17:00             00000000BRPETRACNPR6000000000100000000000         00000             11003017100000000              1 N
010003160CFESA4       VISNORCIA FERRO LIPN      N1000000003250000000259900003    10:17             00000000BRFESAACNPR5000000000100000000000         00000             11003017100000000              1 N
010003170CFESA4       VISNORCIA FERRO LIPN      N1000000002000000000260000058    10:17             00000000BRFESAACNPR5000000000100000000000         00000             11003017100000000              1 N
010001860CABCB2       VISNORBCO ABC BRASDP   12,46000000003000000000048200129    12:01             00000000BRABCBD12PR6000000000100000000000         00000             11003017100000000              1 N
010147540CBBDC4       VISNORBCO BRADESCOPN      N1000000001000000000359900120    17:12             00000000BRBBDCACNPR8000000000100000000000         00000             11003017100000000              1 N
010084870VCSNA3       VISNORCIA SIDERURGON        000000037000000000106700735    14:50             00000000BRCSNAACNOR6000000000100000000000         00000             11003017100000000              1 N
010121420CCSNA3       VISNORCIA SIDERURGON        000000002000000000106100085    17:22             00000000BRCSNAACNOR6000000000100000000000         00000             11003017100000000              1 N
010310090VPETR4       VISNORPETROLEO BRAPN        000000001000000000177100045    17:01             00000000BRPETRACNPR6000000000100000000000         00000             11003017100000000              1 N
010310220VPETR4       VISNORPETROLEO BRAPN        000000001000000000177100045    17:01             00000000BRPETRACNPR6000000000100000000000         00000             11003017100000000              1 N
010310300VPETR4       VISNORPETROLEO BRAPN        000000001000000000177100016    17:01             00000000BRPETRACNPR6000000000100000000000         00000             11003017100000000              1 N
010069250VPETRB69     OPCNORPETROLEO BRAPN   19,00000000010000000000002500308    17:02 PETR4       00000000BRPETRACNPR6000000000100000000000         00000             11001017100000000              1 N
010309850VPETR4       VISNORPETROLEO BRAPN        000000001000000000177100045    17:00             00000000BRPETRACNPR6000000000100000000000         00000             11003017100000000              1 N
010309950VPETR4       VISNORPETROLEO BRAPN        000000001000000000177100016    17:01             00000000BRPETRACNPR6000000000100000000000         00000             11003017100000000              1 N
010309990VPETR4       VISNORPETROLEO BRAPN        000000001000000000177100045    17:01             00000000BRPETRACNPR6000000000100000000000         00000             11003017100000000              1 N
010007970CFESA4       VISNORCIA FERRO LIPN      N1000000001000000000254500040    11:58             00000000BRFESAACNPR5000000000100000000000         00000             11003017100000000              1 N
010147550CBBDC4       VISNORBCO BRADESCOPN      N1000000001000000000359900008    17:12             00000000BRBBDCACNPR8000000000100000000000         00000             11003017100000000              1 N
010147560CBBDC4       VISNORBCO BRADESCOPN      N1000000001000000000359900040    17:12             00000000BRBBDCACNPR8000000000100000000000         00000             11003017100000000              1 N
010147570CBBDC4       VISNORBCO BRADESCOPN      N1000000002000000000359900008    17:12             00000000BRBBDCACNPR8000000000100000000000         00000             11003017100000000              1 N
010121390CCSNA3       VISNORCIA SIDERURGON        000000002000000000106100040    17:22             00000000BRCSNAACNOR6000000000100000000000         00000             11003017100000000              1 N
010310100VPETR4       VISNORPETROLEO BRAPN        000000001000000000177100045    17:01             00000000BRPETRACNPR6000000000100000000000         00000             11003017100000000              1 N
010310130VPETR4       VISNORPETROLEO BRAPN        000000001000000000177100016    17:01             00000000BRPETRACNPR6000000000100000000000         00000             11003017100000000              1 N
010310330VPETR4       VISNORPETROLEO BRAPN        000000001000000000177100016    17:01             00000000BRPETRACNPR6000000000100000000000         00000             11003017100000000              1 N
010033810CPETRB69     OPCNORPETROLEO BRAPN   19,00000000375000000000002700003    12:38 PETR4       00000000BRPETRACNPR6000000000100000000000         00000             11001017100000000              1 N
010033820CPETRB69     OPCNORPETROLEO BRAPN   19,00000000094000000000002700120    12:38 PETR4       00000000BRPETRACNPR6000000000100000000000         00000             11001017100000000              1 N
010033850CPETRB69     OPCNORPETROLEO BRAPN   19,00000000004000000000002700008    12:38 PETR4       00000000BRPETRACNPR6000000000100000000000         00000             11001017100000000              1 N
010069160VPETRB69     OPCNORPETROLEO BRAPN   19,00000000010000000000002500308    17:02 PETR4       00000000BRPETRACNPR6000000000100000000000         00000             11001017100000000              1 N
010069140VPETRB69     OPCNORPETROLEO BRAPN   19,00000000010000000000002500308    17:02 PETR4       00000000BRPETRACNPR6000000000100000000000         00000             11001017100000000              1 N
010069120VPETRB69     OPCNORPETROLEO BRAPN   19,00000000010000000000002500308    17:02 PETR4       00000000BRPETRACNPR6000000000100000000000         00000             11001017100000000              1 N
010309800VPETR4       VISNORPETROLEO BRAPN        000000001000000000177100045    17:00             00000000BRPETRACNPR6000000000100000000000         00000             11003017100000000              1 N
010002970CABCB4       VISNORBCO ABC BRASPN      N2000000001000000000174200085    11:52             00000000BRABCBACNPR4000000000100000000000         00000             11003017100000000              1 N
010003000CABCB4       VISNORBCO ABC BRASPN      N2000000002000000000174200008    11:52             00000000BRABCBACNPR4000000000100000000000         00000             11003017100000000              1 N
010310000VPETR4       VISNORPETROLEO BRAPN        000000001000000000177100016    17:01             00000000BRPETRACNPR6000000000100000000000         00000             11003017100000000              1 N
010310030VPETR4       VISNORPETROLEO BRAPN        000000001000000000177100016    17:01             00000000BRPETRACNPR6000000000100000000000         00000             11003017100000000              1 N
010001630CABCB2       VISNORBCO ABC BRASDP   12,46000000001000000000048200129    12:00             00000000BRABCBD12PR6000000000100000000000         00000             11003017100000000              1 N
010001650CABCB2       VISNORBCO ABC BRASDP   12,46000000001000000000048200040    12:00             00000000BRABCBD12PR6000000000100000000000         00000             11003017100000000              1 N
010001670CABCB2       VISNORBCO ABC BRASDP   12,46000000001000000000048200129    12:00             00000000BRABCBD12PR6000000000100000000000         00000             11003017100000000              1 N
010147530CBBDC4       VISNORBCO BRADESCOPN      N1000000003000000000359900008    17:12             00000000BRBBDCACNPR8000000000100000000000         00000             11003017100000000              1 N
010147500CBBDC4       VISNORBCO BRADESCOPN      N1000000001000000000359800016    17:12             00000000BRBBDCACNPR8000000000100000000000         00000             11003017100000000              1 N
010084900VCSNA3       VISNORCIA SIDERURGON        000000002000000000106700072    14:50             00000000BRCSNAACNOR6000000000100000000000         00000             11003017100000000              1 N
010310120VPETR4       VISNORPETROLEO BRAPN        000000001000000000177100045    17:01             00000000BRPETRACNPR6000000000100000000000         00000             11003017100000000              1 N
010325210CPETR4       VISNORPETROLEO BRAPN        000000042000000000176500086    17:13             00000000BRPETRACNPR6000000000100000000000         00000             11003017100000000              1 N
010000350VPETRB78     OPCNORPETROLEO BRAPN   18,75000000100000000000003200008    11:45 PETR4       00000000BRPETRACNPR6000000000100000000000         00000             11001017100000000              1 N
010000390VPETRB78     OPCNORPETROLEO BRAPN   18,75000000150000000000003300008    11:49 PETR4       00000000BRPETRACNPR6000000000100000000000         00000             11001017100000000              1 N
010069230VPETRB69     OPCNORPETROLEO BRAPN   19,00000000010000000000002500308    17:02 PETR4       00000000BRPETRACNPR6000000000100000000000         00000             11001017100000000              1 N
010069310VPETRB69     OPCNORPETROLEO BRAPN   19,00000000005000000000002500308    17:02 PETR4       00000000BRPETRACNPR6000000000100000000000         00000             11001017100000000              1 N
010069330VPETRB69     OPCNORPETROLEO BRAPN   19,00000000030000000000002500008    17:02 PETR4       00000000BRPETRACNPR6000000000100000000000         00000             11001017100000000              1 N
010309730VPETR4       VISNORPETROLEO BRAPN        000000001000000000177100016    17:00             00000000BRPETRACNPR6000000000100000000000         00000             11003017100000000              1 N
010309700VPETR4       VISNORPETROLEO BRAPN        000000001000000000177100045    17:00             00000000BRPETRACNPR6000000000100000000000         00000             11003017100000000              1 N
010002980CABCB4       VISNORBCO ABC BRASPN      N2000000005000000000174200015    11:52             00000000BRABCBACNPR4000000000100000000000         00000             11003017100000000              1 N
010310060VPETR4       VISNORPETROLEO BRAPN        000000001000000000177100045    17:01             00000000BRPETRACNPR6000000000100000000000         00000             11003017100000000              1 N
010084880VCSNA3       VISNORCIA SIDERURGON        000000007000000000106700040    14:50             00000000BRCSNAACNOR6000000000100000000000         00000             11003017100000000              1 N
010084910VCSNA3       VISNORCIA SIDERURGON        000000003000000000106700386    14:50             00000000BRCSNAACNOR6000000000100000000000         00000             11003017100000000              1 N
010084890VCSNA3       VISNORCIA SIDERURGON        000000001000000000106700016    14:50             00000000BRCSNAACNOR6000000000100000000000         00000             11003017100000000              1 N
010121410CCSNA3       VISNORCIA SIDERURGON        000000012000000000106100077    17:22             00000000BRCSNAACNOR6000000000100000000000         00000             11003017100000000              1 N
010310140VPETR4       VISNORPETROLEO BRAPN        000000001000000000177100045    17:01             00000000BRPETRACNPR6000000000100000000000         00000             11003017100000000              1 N
010310150VPETR4       VISNORPETROLEO BRAPN        000000001000000000177100016    17:01             00000000BRPETRACNPR6000000000100000000000         00000             11003017100000000              1 N
010310160VPETR4       VISNORPETROLEO BRAPN        000000001000000000177100016    17:01             00000000BRPETRACNPR6000000000100000000000         00000             11003017100000000              1 N
010310200VPETR4       VISNORPETROLEO BRAPN        000000001000000000177100045    17:01             00000000BRPETRACNPR6000000000100000000000         00000             11003017100000000              1 N
010310250VPETR4       VISNORPETROLEO BRAPN        000000001000000000177100045    17:01             00000000BRPETRACNPR6000000000100000000000         00000             11003017100000000              1 N
010310270VPETR4       VISNORPETROLEO BRAPN        000000001000000000177100016    17:01             00000000BRPETRACNPR6000000000100000000000         00000             11003017100000000              1 N
010310280VPETR4       VISNORPETROLEO BRAPN        000000001000000000177100045    17:01             00000000BRPETRACNPR6000000000100000000000         00000             11003017100000000              1 N
010310420VPETR4       VISNORPETROLEO BRAPN        000000001000000000177100045    17:01             00000000BRPETRACNPR6000000000100000000000         00000             11003017100000000              1 N
010310050VPETR4       VISNORPETROLEO BRAPN        000000001000000000177100016    17:01             00000000BRPETRACNPR6000000000100000000000         00000             11003017100000000              1 N
010310430VPETR4       VISNORPETROLEO BRAPN        000000022000000000177100003    17:01             00000000BRPETRACNPR6000000000100000000000         00000             11003017100000000              1 N
010337750CPETR4       VISNORPETROLEO BRAPN        000000037000000000176200120    17:20             00000000BRPETRACNPR6000000000100000000000         00000             11003017100000000              1 N
99NEGS0129SINACOR 012920180116000000146                                                                                                                                                                 
