00NEGS0129SINACOR 01292018011220180112                                                                                                                                                                  
010291330VPETR4       VISNORPETROLEO BRAPN        000000002000000000172000045    16:43             00000000BRPETRACNPR6000000000100000000000         00000             11003017100000000              1 N
010022580CPETRA67     OPCNORPETROLEO BRAPN   17,25000000001000000000000700114    16:43 PETR4       00000000BRPETRACNPR6000000000100000000000         00000             11001017100000000              1 N
010022560CPETRA67     OPCNORPETROLEO BRAPN   17,25000000001000000000000700114    16:41 PETR4       00000000BRPETRACNPR6000000000100000000000         00000             11001017100000000              1 N
010008150CPETRA47     OPCNORPETROLEO BRAPN   17,50000000150000000000000600003    13:14 PETR4       00000000BRPETRACNPR6000000000100000000000         00000             11001017100000000              1 N
010291310VPETR4       VISNORPETROLEO BRAPN        000000005000000000172000045    16:43             00000000BRPETRACNPR6000000000100000000000         00000             11003017100000000              1 N
010291320VPETR4       VISNORPETROLEO BRAPN        000000005000000000172000045    16:43             00000000BRPETRACNPR6000000000100000000000         00000             11003017100000000              1 N
010291340VPETR4       VISNORPETROLEO BRAPN        000000004830000000172000072    16:43             00000000BRPETRACNPR6000000000100000000000         00000             11003017100000000              1 N
010000790CABCB2       VISNORBCO ABC BRASDP   12,46000000004500000000048500085    13:58             00000000BRABCBD12PR6000000000100000000000         00000             11003017100000000              1 N
010022570CPETRA67     OPCNORPETROLEO BRAPN   17,25000000001000000000000700114    16:42 PETR4       00000000BRPETRACNPR6000000000100000000000         00000             11001017100000000              1 N
010000300VPETRA67     OPCNORPETROLEO BRAPN   17,25000000110000000000000800045    10:14 PETR4       00000000BRPETRACNPR6000000000100000000000         00000             11001017100000000              1 N
010022590CPETRA67     OPCNORPETROLEO BRAPN   17,25000000096000000000000700045    16:43 PETR4       00000000BRPETRACNPR6000000000100000000000         00000             11001017100000000              1 N
010022550CPETRA67     OPCNORPETROLEO BRAPN   17,25000000001000000000000700088    16:41 PETR4       00000000BRPETRACNPR6000000000100000000000         00000             11001017100000000              1 N
010000780CABCB2       VISNORBCO ABC BRASDP   12,46000000000500000000048200129    13:58             00000000BRABCBD12PR6000000000100000000000         00000             11003017100000000              1 N
010024350VPETRA67     OPCNORPETROLEO BRAPN   17,25000000034000000000001000003    17:29 PETR4       00000000BRPETRACNPR6000000000100000000000         00000             11001017100000000              1 N
010291580VPETR4       VISNORPETROLEO BRAPN        000000016170000000171900003    16:43             00000000BRPETRACNPR6000000000100000000000         00000             11003017100000000              1 N
99NEGS0129SINACOR 012920180112000000017                                                                                                                                                                 
