00NEGS0129SINACOR 01292018011220180112                                                                                                                                                                  
010291550VPETR4       VISNORPETROLEO BRAPN        000000005000000000172000045    16:43             00000000BRPETRACNPR6000000000100000000000         00000             11003017100000000              1 N
010000310VPETRA67     OPCNORPETROLEO BRAPN   17,25000000115000000000000800129    10:14 PETR4       00000000BRPETRACNPR6000000000100000000000         00000             11001017100000000              1 N
010008150CPETRA47     OPCNORPETROLEO BRAPN   17,50000000223000000000000600003    13:14 PETR4       00000000BRPETRACNPR6000000000100000000000         00000             11001017100000000              1 N
010291480VPETR4       VISNORPETROLEO BRAPN        000000001000000000172000045    16:43             00000000BRPETRACNPR6000000000100000000000         00000             11003017100000000              1 N
010008140CPETRA47     OPCNORPETROLEO BRAPN   17,50000000047000000000000600090    13:14 PETR4       00000000BRPETRACNPR6000000000100000000000         00000             11001017100000000              1 N
010291340VPETR4       VISNORPETROLEO BRAPN        000000018170000000172000072    16:43             00000000BRPETRACNPR6000000000100000000000         00000             11003017100000000              1 N
010291490VPETR4       VISNORPETROLEO BRAPN        000000001000000000172000045    16:43             00000000BRPETRACNPR6000000000100000000000         00000             11003017100000000              1 N
010291570VPETR4       VISNORPETROLEO BRAPN        000000001000000000172000072    16:43             00000000BRPETRACNPR6000000000100000000000         00000             11003017100000000              1 N
010000790CABCB2       VISNORBCO ABC BRASDP   12,46000000004500000000048500085    13:58             00000000BRABCBD12PR6000000000100000000000         00000             11003017100000000              1 N
010000300VPETRA67     OPCNORPETROLEO BRAPN   17,25000000075000000000000800045    10:14 PETR4       00000000BRPETRACNPR6000000000100000000000         00000             11001017100000000              1 N
010022600CPETRA67     OPCNORPETROLEO BRAPN   17,25000000062000000000000700045    16:43 PETR4       00000000BRPETRACNPR6000000000100000000000         00000             11001017100000000              1 N
010022590CPETRA67     OPCNORPETROLEO BRAPN   17,25000000138000000000000700045    16:43 PETR4       00000000BRPETRACNPR6000000000100000000000         00000             11001017100000000              1 N
010291440VPETR4       VISNORPETROLEO BRAPN        000000005000000000172000045    16:43             00000000BRPETRACNPR6000000000100000000000         00000             11003017100000000              1 N
010291590VPETR4       VISNORPETROLEO BRAPN        000000025000000000171900120    16:43             00000000BRPETRACNPR6000000000100000000000         00000             11003017100000000              1 N
010000780CABCB2       VISNORBCO ABC BRASDP   12,46000000000500000000048200129    13:58             00000000BRABCBD12PR6000000000100000000000         00000             11003017100000000              1 N
010024350VPETRA67     OPCNORPETROLEO BRAPN   17,25000000066000000000001000003    17:29 PETR4       00000000BRPETRACNPR6000000000100000000000         00000             11001017100000000              1 N
010291350VPETR4       VISNORPETROLEO BRAPN        000000003000000000172000045    16:43             00000000BRPETRACNPR6000000000100000000000         00000             11003017100000000              1 N
010291580VPETR4       VISNORPETROLEO BRAPN        000000007830000000171900003    16:43             00000000BRPETRACNPR6000000000100000000000         00000             11003017100000000              1 N
99NEGS0129SINACOR 012920180112000000020                                                                                                                                                                 
