00NEGS0129SINACOR 01292018011220180112                                                                                                                                                                  
010016310VPETRA57     OPCNORPETROLEO BRAPN   17,00000000045000000000002800003    11:06 PETR4       00000000BRPETRACNPR6000000000100000000000         00000             11001017100000000              1 N
010168040VPETR4       VISNORPETROLEO BRAPN        000000001000000000173700114    14:09             00000000BRPETRACNPR6000000000100000000000         00000             11003017100000000              1 N
010168090VPETR4       VISNORPETROLEO BRAPN        000000004000000000173700088    14:09             00000000BRPETRACNPR6000000000100000000000         00000             11003017100000000              1 N
010168180VPETR4       VISNORPETROLEO BRAPN        000000003000000000173700127    14:09             00000000BRPETRACNPR6000000000100000000000         00000             11003017100000000              1 N
010013820CPETRA57     OPCNORPETROLEO BRAPN   17,00000000102000000000002500086    10:59 PETR4       00000000BRPETRACNPR6000000000100000000000         00000             11001017100000000              1 N
010167940VPETR4       VISNORPETROLEO BRAPN        000000022000000000173700008    14:09             00000000BRPETRACNPR6000000000100000000000         00000             11003017100000000              1 N
010167960VPETR4       VISNORPETROLEO BRAPN        000000001000000000173700308    14:09             00000000BRPETRACNPR6000000000100000000000         00000             11003017100000000              1 N
010167980VPETR4       VISNORPETROLEO BRAPN        000000003000000000173700013    14:09             00000000BRPETRACNPR6000000000100000000000         00000             11003017100000000              1 N
010168070VPETR4       VISNORPETROLEO BRAPN        000000004000000000173700027    14:09             00000000BRPETRACNPR6000000000100000000000         00000             11003017100000000              1 N
010009280CPETRA47     OPCNORPETROLEO BRAPN   17,50000000066000000000000600114    13:37 PETR4       00000000BRPETRACNPR6000000000100000000000         00000             11001017100000000              1 N
010015320VPETRA47     OPCNORPETROLEO BRAPN   17,50000000200000000000000300015    15:42 PETR4       00000000BRPETRACNPR6000000000100000000000         00000             11001017100000000              1 N
010167920VPETR4       VISNORPETROLEO BRAPN        000000011000000000173700040    14:09             00000000BRPETRACNPR6000000000100000000000         00000             11003017100000000              1 N
010168010VPETR4       VISNORPETROLEO BRAPN        000000001000000000173700008    14:09             00000000BRPETRACNPR6000000000100000000000         00000             11003017100000000              1 N
010168150VPETR4       VISNORPETROLEO BRAPN        000000001000000000173700059    14:09             00000000BRPETRACNPR6000000000100000000000         00000             11003017100000000              1 N
010009290CPETRA47     OPCNORPETROLEO BRAPN   17,50000000434000000000000600045    13:37 PETR4       00000000BRPETRACNPR6000000000100000000000         00000             11001017100000000              1 N
010013810CPETRA57     OPCNORPETROLEO BRAPN   17,00000000098000000000002500086    10:59 PETR4       00000000BRPETRACNPR6000000000100000000000         00000             11001017100000000              1 N
010016130VPETRA57     OPCNORPETROLEO BRAPN   17,00000000038000000000002800045    11:04 PETR4       00000000BRPETRACNPR6000000000100000000000         00000             11001017100000000              1 N
010016300VPETRA57     OPCNORPETROLEO BRAPN   17,00000000023000000000002800010    11:06 PETR4       00000000BRPETRACNPR6000000000100000000000         00000             11001017100000000              1 N
010167970VPETR4       VISNORPETROLEO BRAPN        000000009000000000173700308    14:09             00000000BRPETRACNPR6000000000100000000000         00000             11003017100000000              1 N
010168050VPETR4       VISNORPETROLEO BRAPN        000000006000000000173700308    14:09             00000000BRPETRACNPR6000000000100000000000         00000             11003017100000000              1 N
010015370CPETRA47     OPCNORPETROLEO BRAPN   17,50000000200000000000000300003    15:43 PETR4       00000000BRPETRACNPR6000000000100000000000         00000             11001017100000000              1 N
010167950VPETR4       VISNORPETROLEO BRAPN        000000002000000000173700008    14:09             00000000BRPETRACNPR6000000000100000000000         00000             11003017100000000              1 N
010167990VPETR4       VISNORPETROLEO BRAPN        000000022000000000173700008    14:09             00000000BRPETRACNPR6000000000100000000000         00000             11003017100000000              1 N
010168080VPETR4       VISNORPETROLEO BRAPN        000000002000000000173700072    14:09             00000000BRPETRACNPR6000000000100000000000         00000             11003017100000000              1 N
010168190VPETR4       VISNORPETROLEO BRAPN        000000010000000000173700072    14:09             00000000BRPETRACNPR6000000000100000000000         00000             11003017100000000              1 N
010168200VPETR4       VISNORPETROLEO BRAPN        000000001000000000173700088    14:09             00000000BRPETRACNPR6000000000100000000000         00000             11003017100000000              1 N
010016110VPETRA57     OPCNORPETROLEO BRAPN   17,00000000053000000000002800045    11:04 PETR4       00000000BRPETRACNPR6000000000100000000000         00000             11001017100000000              1 N
010016320VPETRA57     OPCNORPETROLEO BRAPN   17,00000000032000000000002800045    11:06 PETR4       00000000BRPETRACNPR6000000000100000000000         00000             11001017100000000              1 N
010167930VPETR4       VISNORPETROLEO BRAPN        000000001000000000173700008    14:09             00000000BRPETRACNPR6000000000100000000000         00000             11003017100000000              1 N
010168020VPETR4       VISNORPETROLEO BRAPN        000000001000000000173700120    14:09             00000000BRPETRACNPR6000000000100000000000         00000             11003017100000000              1 N
010168210VPETR4       VISNORPETROLEO BRAPN        000000002000000000173700308    14:09             00000000BRPETRACNPR6000000000100000000000         00000             11003017100000000              1 N
010168000VPETR4       VISNORPETROLEO BRAPN        000000002000000000173700008    14:09             00000000BRPETRACNPR6000000000100000000000         00000             11003017100000000              1 N
010168030VPETR4       VISNORPETROLEO BRAPN        000000022000000000173700008    14:09             00000000BRPETRACNPR6000000000100000000000         00000             11003017100000000              1 N
010168060VPETR4       VISNORPETROLEO BRAPN        000000015000000000173700072    14:09             00000000BRPETRACNPR6000000000100000000000         00000             11003017100000000              1 N
010223110CPETR4       VISNORPETROLEO BRAPN        000000100000000000172700016    15:32             00000000BRPETRACNPR6000000000100000000000         00000             11003017100000000              1 N
010016120VPETRA57     OPCNORPETROLEO BRAPN   17,00000000009000000000002800045    11:04 PETR4       00000000BRPETRACNPR6000000000100000000000         00000             11001017100000000              1 N
010167910VPETR4       VISNORPETROLEO BRAPN        000000053000000000173700127    14:09             00000000BRPETRACNPR6000000000100000000000         00000             11003017100000000              1 N
010168160VPETR4       VISNORPETROLEO BRAPN        000000001000000000173700045    14:09             00000000BRPETRACNPR6000000000100000000000         00000             11003017100000000              1 N
010225930CPETR4       VISNORPETROLEO BRAPN        000000100000000000172800127    15:36             00000000BRPETRACNPR6000000000100000000000         00000             11003017100000000              1 N
99NEGS0129SINACOR 012920180112000000041                                                                                                                                                                 
