00NEGS0129SINACOR 01292018011820180118                                                                                                                                                                  
010014000VBBDC4       VISNORBCO BRADESCOPN      N1000000010000000000369800008    10:38             00000000BRBBDCACNPR8000000000100000000000         00000             11003017100000000              1 N
010014040VBBDC4       VISNORBCO BRADESCOPN      N1000000001000000000369800045    10:38             00000000BRBBDCACNPR8000000000100000000000         00000             11003017100000000              1 N
010015290VBBDC4       VISNORBCO BRADESCOPN      N1000000005000000000370100040    10:40             00000000BRBBDCACNPR8000000000100000000000         00000             11003017100000000              1 N
010013230VBBDC4       VISNORBCO BRADESCOPN      N1000000007000000000369100008    10:37             00000000BRBBDCACNPR8000000000100000000000         00000             11003017100000000              1 N
010013380VBBDC4       VISNORBCO BRADESCOPN      N1000000005000000000369200003    10:37             00000000BRBBDCACNPR8000000000100000000000         00000             11003017100000000              1 N
010015320VBBDC4       VISNORBCO BRADESCOPN      N1000000002000000000370000120    10:40             00000000BRBBDCACNPR8000000000100000000000         00000             11003017100000000              1 N
010009540CITUB4       VISNORITAU UNIBANCPN      N1000000006000000000468500114    10:37             00000000BRITUBACNPR1000000000100000000000         00000             11003017100000000              1 N
010010800CITUB4       VISNORITAU UNIBANCPN      N1000000001000000000469400015    10:40             00000000BRITUBACNPR1000000000100000000000         00000             11003017100000000              1 N
010009550CITUB4       VISNORITAU UNIBANCPN      N1000000001000000000468500088    10:37             00000000BRITUBACNPR1000000000100000000000         00000             11003017100000000              1 N
010010730CITUB4       VISNORITAU UNIBANCPN      N1000000005000000000469300115    10:40             00000000BRITUBACNPR1000000000100000000000         00000             11003017100000000              1 N
010013860VBBDC4       VISNORBCO BRADESCOPN      N1000000010000000000369800086    10:38             00000000BRBBDCACNPR8000000000100000000000         00000             11003017100000000              1 N
010009460CITUB4       VISNORITAU UNIBANCPN      N1000000008000000000468300114    10:37             00000000BRITUBACNPR1000000000100000000000         00000             11003017100000000              1 N
010009790CITUB4       VISNORITAU UNIBANCPN      N1000000001000000000468700003    10:37             00000000BRITUBACNPR1000000000100000000000         00000             11003017100000000              1 N
010010050CITUB4       VISNORITAU UNIBANCPN      N1000000008000000000469200015    10:38             00000000BRITUBACNPR1000000000100000000000         00000             11003017100000000              1 N
010010150CITUB4       VISNORITAU UNIBANCPN      N1000000008000000000469200015    10:38             00000000BRITUBACNPR1000000000100000000000         00000             11003017100000000              1 N
010013920VBBDC4       VISNORBCO BRADESCOPN      N1000000001000000000369800045    10:38             00000000BRBBDCACNPR8000000000100000000000         00000             11003017100000000              1 N
010015150VBBDC4       VISNORBCO BRADESCOPN      N1000000007000000000370000085    10:40             00000000BRBBDCACNPR8000000000100000000000         00000             11003017100000000              1 N
010013220VBBDC4       VISNORBCO BRADESCOPN      N1000000003000000000369100008    10:37             00000000BRBBDCACNPR8000000000100000000000         00000             11003017100000000              1 N
010213270VITUB4       VISNORITAU UNIBANCPN      N1000000080000000000466800238    18:10             00000000BRITUBACNPR1000000000100000000000         00000             11003018101010000              1 N
010009780CITUB4       VISNORITAU UNIBANCPN      N1000000001000000000468500003    10:37             00000000BRITUBACNPR1000000000100000000000         00000             11003017100000000              1 N
010010020CITUB4       VISNORITAU UNIBANCPN      N1000000001000000000469200015    10:38             00000000BRITUBACNPR1000000000100000000000         00000             11003017100000000              1 N
010010760CITUB4       VISNORITAU UNIBANCPN      N1000000005000000000469400015    10:40             00000000BRITUBACNPR1000000000100000000000         00000             11003017100000000              1 N
010010790CITUB4       VISNORITAU UNIBANCPN      N1000000002000000000469400015    10:40             00000000BRITUBACNPR1000000000100000000000         00000             11003017100000000              1 N
010010710CITUB4       VISNORITAU UNIBANCPN      N1000000001000000000469300115    10:40             00000000BRITUBACNPR1000000000100000000000         00000             11003017100000000              1 N
010010740CITUB4       VISNORITAU UNIBANCPN      N1000000001000000000469300040    10:40             00000000BRITUBACNPR1000000000100000000000         00000             11003017100000000              1 N
010013350VBBDC4       VISNORBCO BRADESCOPN      N1000000005000000000369200003    10:37             00000000BRBBDCACNPR8000000000100000000000         00000             11003017100000000              1 N
010014840VBBDC4       VISNORBCO BRADESCOPN      N1000000001000000000369900003    10:40             00000000BRBBDCACNPR8000000000100000000000         00000             11003017100000000              1 N
010014850VBBDC4       VISNORBCO BRADESCOPN      N1000000001000000000369900045    10:40             00000000BRBBDCACNPR8000000000100000000000         00000             11003017100000000              1 N
010014860VBBDC4       VISNORBCO BRADESCOPN      N1000000007000000000369900085    10:40             00000000BRBBDCACNPR8000000000100000000000         00000             11003017100000000              1 N
010015340VBBDC4       VISNORBCO BRADESCOPN      N1000000001000000000370000120    10:40             00000000BRBBDCACNPR8000000000100000000000         00000             11003017100000000              1 N
010015350VBBDC4       VISNORBCO BRADESCOPN      N1000000004000000000370000008    10:40             00000000BRBBDCACNPR8000000000100000000000         00000             11003017100000000              1 N
010013140VBBDC4       VISNORBCO BRADESCOPN      N1000000010000000000369100008    10:37             00000000BRBBDCACNPR8000000000100000000000         00000             11003017100000000              1 N
010010780CITUB4       VISNORITAU UNIBANCPN      N1000000002000000000469400015    10:40             00000000BRITUBACNPR1000000000100000000000         00000             11003017100000000              1 N
010013980VBBDC4       VISNORBCO BRADESCOPN      N1000000010000000000369800008    10:38             00000000BRBBDCACNPR8000000000100000000000         00000             11003017100000000              1 N
010014030VBBDC4       VISNORBCO BRADESCOPN      N1000000004000000000369800003    10:38             00000000BRBBDCACNPR8000000000100000000000         00000             11003017100000000              1 N
010015300VBBDC4       VISNORBCO BRADESCOPN      N1000000002000000000370100085    10:40             00000000BRBBDCACNPR8000000000100000000000         00000             11003017100000000              1 N
010015310VBBDC4       VISNORBCO BRADESCOPN      N1000000001000000000370100016    10:40             00000000BRBBDCACNPR8000000000100000000000         00000             11003017100000000              1 N
010010810CITUB4       VISNORITAU UNIBANCPN      N1000000003000000000469400015    10:40             00000000BRITUBACNPR1000000000100000000000         00000             11003017100000000              1 N
010009610CITUB4       VISNORITAU UNIBANCPN      N1000000004000000000468500040    10:37             00000000BRITUBACNPR1000000000100000000000         00000             11003017100000000              1 N
010010030CITUB4       VISNORITAU UNIBANCPN      N1000000001000000000469200015    10:38             00000000BRITUBACNPR1000000000100000000000         00000             11003017100000000              1 N
010010720CITUB4       VISNORITAU UNIBANCPN      N1000000001000000000469300115    10:40             00000000BRITUBACNPR1000000000100000000000         00000             11003017100000000              1 N
010013960VBBDC4       VISNORBCO BRADESCOPN      N1000000001000000000369801982    10:38             00000000BRBBDCACNPR8000000000100000000000         00000             11003017100000000              1 N
010013970VBBDC4       VISNORBCO BRADESCOPN      N1000000001000000000369800045    10:38             00000000BRBBDCACNPR8000000000100000000000         00000             11003017100000000              1 N
010009530CITUB4       VISNORITAU UNIBANCPN      N1000000002000000000468500114    10:37             00000000BRITUBACNPR1000000000100000000000         00000             11003017100000000              1 N
010275670CBBDC4       VISNORBCO BRADESCOPN      N1000000100000000000368500238    18:08             00000000BRBBDCACNPR8000000000100000000000         00000             11003018101010000              1 N
010013250VBBDC4       VISNORBCO BRADESCOPN      N1000000001000000000369200016    10:37             00000000BRBBDCACNPR8000000000100000000000         00000             11003017100000000              1 N
010009800CITUB4       VISNORITAU UNIBANCPN      N1000000002000000000468900114    10:37             00000000BRITUBACNPR1000000000100000000000         00000             11003017100000000              1 N
010010010CITUB4       VISNORITAU UNIBANCPN      N1000000008000000000469200015    10:38             00000000BRITUBACNPR1000000000100000000000         00000             11003017100000000              1 N
010010190CITUB4       VISNORITAU UNIBANCPN      N1000000003000000000469200015    10:38             00000000BRITUBACNPR1000000000100000000000         00000             11003017100000000              1 N
010010240CITUB4       VISNORITAU UNIBANCPN      N1000000001000000000469200015    10:38             00000000BRITUBACNPR1000000000100000000000         00000             11003017100000000              1 N
010010770CITUB4       VISNORITAU UNIBANCPN      N1000000004000000000469400015    10:40             00000000BRITUBACNPR1000000000100000000000         00000             11003017100000000              1 N
99NEGS0129SINACOR 012920180118000000053                                                                                                                                                                 
