00PROD9999BOVESPA 99992018012920180130                                                                                                                                                                                                                                                                                                                                                      
01BRAETBBDR009105AETB34      AETNA INC   DRN       010DIVIDENDO      20171203000000104538239400000000100000000000            000            000            000000000000000000000400012312018020620172017100SEM TRATAMENTO 000000000000000000N000               000               4000123140001231000000               00000000000000000006095201801090000001A                               
01BRBSANBDR002113BSAN33      BANSANTANDERDR3       010DIVIDENDO      20171220000000019175855792000000100000000000            000            000            000000000000000000000400012312018020520172017100SEM TRATAMENTO 000000000000000000N000               000               4000123140001231000000               00000000000000000006296201801300000001I                               
01BRCSCOBDR004127CSCO34      CISCO       DRN       010DIVIDENDO      20171211000000060447746369000000100000000000            000            000            000000000000000000000400012312018013020172017100SEM TRATAMENTO 000000000000000000N000               000               4000123140001231000000               00000000000000000002257201801030000001A                               
01BRCMCSBDR008124CMCS34      COMCAST     DRN       010DIVIDENDO      20171026000000032808511594000000100000000000            000            000            000000000000000000000400012312018013020172017100SEM TRATAMENTO 000000000000000000N000               000               4000123140001231000000               00000000000000000002257201801020000001A                               
01BRDHERBDR004110DHER34      DANAHER CORPDRN       010DIVIDENDO      20171205000000007157159474000000100000000000            000            000            000000000000000000000400012312018020120172017100SEM TRATAMENTO 000000000000000000N000               000               4000123140001231000000               00000000000000000007807201712260000001A                               
01BRHGLGCTF004183HGLG11      FII CSHG LOGCI  ER    050SUBSCRICAO     20170912000009758000000000000000100000000000BRHGLGCTF004184            000BRHGLGD03M10183000124710000000000201802094000123100000000000SEM TRATAMENTO 000000000000000000N000               000               4000123140001231000000               00000000000000000006296201709140000001A                               
01BRHGLGD03M10183HGLG12      FII CSHG LOGDIR       052EXERCICIO SUBS 20170912000009758000000000000000100000000000BRHGLGR03M14184BRHGLGCTF004183            000000124710000000000201802094000123100000000000SEM TRATAMENTO 000000000000000000N000               000               4000123140001231000000               00000000000000000006296201709140000001A                               
01BRGEOOBDR000128GEOO34      GE          DRN       010DIVIDENDO      20171208000000025008885728000000100000000000            000            000            000000000000000000000400012312018013020172017100SEM TRATAMENTO 000000000000000000N000               000               4000123140001231000000               00000000000000000002257201712220000001A                               
01BRMLCKDBS004110MLCK-DEB11  MELNICK PARTD11 EJ    016JUROS RF       20180129000036661203000000000000100000000000            000            000            000000000000000000000400012312018013020172017100SEM TRATAMENTO 000000000000000000N000               000               4000123140001231000000               00000000000000000006095201801300000001I                               
01BROCTSCRA1Q5102OCTS-CRA61  OCTANTE SEC A61       016JUROS RF       20180129000003808302000000000000100000000000            000            000            000000000000000000000400012312018013020182018100SEM TRATAMENTO 000000000000000000N000               000               4000123140001231000000               00000000000000000000129201801300000001I                               
99PROD9999BOVESPA 999920180129000000012                                                                                                                                                                                                                                                                                                                                                     
