00PROD9999BOVESPA 99992018011020180111                                                                                                                                                                                                                                                                                                                                                      
01BRRBRFCTF003103RBRF11      FII RBRALPHACI        014RENDIMENTO     20180110000000037275553300000000100000000000            000            000            000000000000000000000400012312018011720172017100SEM TRATAMENTO 000000000000000000N000               000               4000123140001231000000               00000000000000000008387201801110000001I                               
01BRMRCKBDR003128MRCK34      MERCK       DRN       010DIVIDENDO      20171129000000102681195086000000100000000000            000            000            000000000000000000000400012312018011220172017100SEM TRATAMENTO 000000000000000000N000               000               4000123140001231000000               00000000000000000002257201712130000001A                               
01BRPFRMACNOR1111PFRM3       PROFARMA    ON      NM050SUBSCRICAO     20180105000006657060794220000000100000000000BRPFRMACNOR1112            000BRPFRMD04OR0111000000700000000000201802094000123100000000000SEM TRATAMENTO 000000000000000000N000               000               4000123140001231000000               00000000000000000008387201801110000001I                               
01BRPFRMD04OR0111PFRM1       PROFARMA    DIR ORD NM052EXERCICIO SUBS 20180105000006657060794220000000100000000000BRPFRMR04OR0111BRPFRMACNOR1111            000000000700000000000201802094000123100000000000SEM TRATAMENTO 000000000000000000N000               000               4000123140001231000000               00000000000000000008387201801110000001I                               
01BRRBCSCRI2M1162RBCS-CRI84  RBCAPITALSECC84     MB016JUROS RF       20180110000143585573610000000000100000000000            000            000            000000000000000000000400012312018011120182018100SEM TRATAMENTO 000000000000000000N000               000               4000123140001231000000               00000000000000000007309201801110000001I                               
01BRRBCSCRI2M1162RBCS-CRI84  RBCAPITALSECC84     MB017AMORTIZACAO RF 20180110000497667788610000000000100000000000            000            000            000000000000000000000400012312018011120182018100SEM TRATAMENTO 000000000000000000N000               000               4000123140001231000000               00000000000000000007309201801110000002I                               
01BRRBCSCRI2V2156RBCS-CRI91  RBCAPITALSECC91     MB016JUROS RF       20180110000034675117647000000000100000000000            000            000            000000000000000000000400012312018011120182018100SEM TRATAMENTO 000000000000000000N000               000               4000123140001231000000               00000000000000000006296201801110000001I                               
01BRRBCSCRI2V2156RBCS-CRI91  RBCAPITALSECC91     MB017AMORTIZACAO RF 20180110000606188994563000000000100000000000            000            000            000000000000000000000400012312018011120182018100SEM TRATAMENTO 000000000000000000N000               000               4000123140001231000000               00000000000000000006296201801110000002I                               
01BRTIFFBDR000111TIFF34      TIFFANY     DRN       010DIVIDENDO      20171116000000107469761200000000100000000000            000            000            000000000000000000000400012312018011720172017100SEM TRATAMENTO 000000000000000000N000               000               4000123140001231000000               00000000000000000006296201712190000001A                               
99PROD9999BOVESPA 999920180110000000011                                                                                                                                                                                                                                                                                                                                                     
