00PROD9999BOVESPA 99992018010920180110                                                                                                                                                                                                                                                                                                                                                      
01BRABTTBDR007124ABTT34      ABBOTT      DRN       010DIVIDENDO      20171215000000015095080000000000100000000000            000            000            000000000000000000000400012312018022220172017100SEM TRATAMENTO 000000000000000000N000               000               4000123140001231000000               00000000000000000007807201801100000001I                               
01BRABBVBDR001107ABBV34      ABBVIE      DRN       010DIVIDENDO      20171027000000151348925000000000100000000000            000            000            000000000000000000000400012312018022220172017100SEM TRATAMENTO 000000000000000000N000               000               4000123140001231000000               00000000000000000007807201801100000001I                               
01BRBSCSCRI525180BSCS-CRIJ3  BRAZILIAN SCCJ3       016JUROS RF       20180109000000007000000000000000100000000000            000            000            000000000000000000000400012312018011020182018100SEM TRATAMENTO 000000000000000000N000               000               4000123140001231000000               00000000000000000007309201801100000001I                               
01BRBSCSCRI525180BSCS-CRIJ3  BRAZILIAN SCCJ3       017AMORTIZACAO RF 20180109000000139000000000000000100000000000            000            000            000000000000000000000400012312018011020182018100SEM TRATAMENTO 000000000000000000N000               000               4000123140001231000000               00000000000000000007309201801100000002I                               
01BRNCHBCTF000151NCHB11      FII NCH BRA CI  ER    017AMORTIZACAO RF 20180109000000182926829268000000100000000000            000            000            000000000000000000000400012312018011620172017100SEM TRATAMENTO 000000000000000000N000               000               2018010920180109000000               00000000000000000008387201801100000001I                               
01BRGAFLCRA089139GAFL-CRA91  GAIA AGRO   A91       016JUROS RF       20180109000089404509029000000000100000000000            000            000            000000000000000000000400012312018011020182018100SEM TRATAMENTO 000000000000000000N000               000               4000123140001231000000               00000000000000000000129201801100000001I                               
01BRGAFLCRA089139GAFL-CRA91  GAIA AGRO   A91       017AMORTIZACAO RF 20180109000555554248296000000000100000000000            000            000            000000000000000000000400012312018011020182018100SEM TRATAMENTO 000000000000000000N000               000               4000123140001231000000               00000000000000000000129201801100000002I                               
01BRGAIACRI0D2187GAIA-CRI47  GAIA SECURITC47     MB016JUROS RF       20180109000194657726199000000000100000000000            000            000            000000000000000000000400012312018011020182018100SEM TRATAMENTO 000000000000000000N000               000               4000123140001231000000               00000000000000000006095201801100000001I                               
01BRGAIACRI0D2187GAIA-CRI47  GAIA SECURITC47     MB017AMORTIZACAO RF 20180109000238391446762000000000100000000000            000            000            000000000000000000000400012312018011020182018100SEM TRATAMENTO 000000000000000000N000               000               4000123140001231000000               00000000000000000006095201801100000002I                               
01BRPEPBBDR005120PEPB34      PEPSICO INC DRN       010DIVIDENDO      20171117000000172519562500000000100000000000            000            000            000000000000000000000400012312018011720172017100SEM TRATAMENTO 000000000000000000N000               000               4000123140001231000000               00000000000000000006095201711290000001A                               
99PROD9999BOVESPA 999920180109000000012                                                                                                                                                                                                                                                                                                                                                     
