00PROD9999BOVESPA 99992018012220180123                                                                                                                                                                                                                                                                                                                                                      
01BRCNESCTF001181CNES11      FII CENESP  CI        014RENDIMENTO     20180122000000029634799108000000100000000000            000            000            000000000000000000000400012312018013020172017100SEM TRATAMENTO 000000000000000000N000               000               2018012220180122000000               00000000000000000008387201801230000001I                               
01BRLATRCTF009117LATR11B     FII LATERES CI      MB014RENDIMENTO     20180122000000215759607530000000100000000000            000            000            000000000000000000000400012312018013020182018100SEM TRATAMENTO 000000000000000000N000               000               2018012220180122000000               00000000000000000002358201801230000001I                               
01BRLATRCTF009117LATR11B     FII LATERES CI      MB017AMORTIZACAO RF 20180122000001057544580890000000100000000000            000            000            000000000000000000000400012312018013020182018100SEM TRATAMENTO 000000000000000000N000               000               2018012220180122000000               00000000000000000002358201801230000002I                               
01BRFTCECTF005111FTCE11B     FII OPPORTUNCI      MB014RENDIMENTO     20180122000012464320349234000000100000000000            000            000            000000000000000000000400012312018013020172017100SEM TRATAMENTO 000000000000000000N000               000               2018012220180122000000               00000000000000000005242201801230000001I                               
99PROD9999BOVESPA 999920180122000000006                                                                                                                                                                                                                                                                                                                                                     
