00PROD9999BOVESPA 99992018012320180124                                                                                                                                                                                                                                                                                                                                                      
01BRAPCSCRI1Z8114APCS-CRI73  APICESECURITC73       016JUROS RF       20180123000000465042381000000000100000000000            000            000            000000000000000000000400012312018012420182018100SEM TRATAMENTO 000000000000000000N000               000               4000123140001231000000               00000000000000000008387201801240000001I                               
01BRAPCSCRI1Z8114APCS-CRI73  APICESECURITC73       017AMORTIZACAO RF 20180123000000488229473000000000100000000000            000            000            000000000000000000000400012312018012420182018100SEM TRATAMENTO 000000000000000000N000               000               4000123140001231000000               00000000000000000008387201801240000002I                               
01BRFLRPCTF006194FLRP11      FII FLORIPA CI        014RENDIMENTO     20180123000000590942136268000000100000000000            000            000            000000000000000000000400012312018013120172017100SEM TRATAMENTO 000000000000000000N000               000               2018012320180123000000               00000000000000000006296201801240000001I                               
01BREDGACTF001164EDGA11      FII GALERIA CI        014RENDIMENTO     20180123000000016036586565000000100000000000            000            000            000000000000000000000400012312018013120172017100SEM TRATAMENTO 000000000000000000N000               000               2018012320180123000000               00000000000000000008387201801240000001I                               
01BRPRTSCTF002100PRTS11      FII MULTPROPCI        050SUBSCRICAO     20180112000000773283000000000000100000000000BRPRTSCTF002101            000BRPRTSD01M17100000000077260000000201802074000123100000000000SEM TRATAMENTO 000000000000000000N000               000               4000123140001231000000               00000000000000000000683201801150000001A                               
01BRPRTSD01M17100PRTS12      FII MULTPROPDIR       052EXERCICIO SUBS 20180112000000773283000000000000100000000000BRPRTSR01M11101BRPRTSCTF002100            000000000077260000000201802074000123100000000000SEM TRATAMENTO 000000000000000000N000               000               4000123140001231000000               00000000000000000000683201801150000001A                               
01BRVERECTF002143VERE11      FII VEREDA  CI        050SUBSCRICAO     20180123000004635655645300000000100000000000BRVERECTF002144            000BRVERED01M12143000023600000000000201802234000123100000000000SEM TRATAMENTO 000000000000000000N000               000               4000123140001231000000               00000000000000000003200201801240000001I                               
01BRVERED01M12143VERE12      FII VEREDA  DIR       052EXERCICIO SUBS 20180123000004635655645300000000100000000000BRVERER01M16144BRVERECTF002143            000000023600000000000201802234000123100000000000SEM TRATAMENTO 000000000000000000N000               000               4000123140001231000000               00000000000000000003200201801240000001I                               
01BRMDTCBDR004106MDTC34      MEDTRONIC   DRN       010DIVIDENDO      20171208000000054918174093000000100000000000            000            000            000000000000000000000400012312018012620172017100SEM TRATAMENTO 000000000000000000N000               000               4000123140001231000000               00000000000000000007807201712260000001A                               
01BRMULTACNOR5117MULT3       MULTIPLAN   ON      N2013JRS CAP PROPRIO20170621000000055205752114000000100000000000            000            000            000000000000000000000400012312018012920172017100SEM TRATAMENTO 000000000000000000N000               000               4000123140001231000000               00000000000000000008387201706270000001A                               
01BRMULTACNOR5118MULT3       MULTIPLAN   ON      N2013JRS CAP PROPRIO20170921000000032574766582000000100000000000            000            000            000000000000000000000400012312018012920172017100SEM TRATAMENTO 000000000000000000N000               000               4000123140001231000000               00000000000000000008387201709270000001A                               
01BRMULTACNOR5119MULT3       MULTIPLAN   ON      N2013JRS CAP PROPRIO20171221000000032623060055000000100000000000            000            000            000000000000000000000400012312018012920172017100SEM TRATAMENTO 000000000000000000N000               000               4000123140001231000000               00000000000000000008387201712280000001A                               
99PROD9999BOVESPA 999920180123000000014                                                                                                                                                                                                                                                                                                                                                     
