00PROD9999BOVESPA 99992018011120180112                                                                                                                                                                                                                                                                                                                                                      
01BRBRCSCRI055110BRCS-CRI71  BRC SECURIT C71       016JUROS RF       20081118002388373110181000000000100000000000            000            000            000000000000000000000400012312018011220182018100SEM TRATAMENTO 000000000000000000N000               000               4000123140001231000000               00000000000000000006095201801120000001I                               
01BRBRCSCRI055110BRCS-CRI71  BRC SECURIT C71       017AMORTIZACAO RF 20081118003731786655571000000000100000000000            000            000            000000000000000000000400012312018011220182018100SEM TRATAMENTO 000000000000000000N000               000               4000123140001231000000               00000000000000000006095201801120000002I                               
01BRBRCSCRI089109BRCS-CRI1A  BRC SECURIT C1A       016JUROS RF       20090422001881674256378000000000100000000000            000            000            000000000000000000000400012312018011220182018100SEM TRATAMENTO 000000000000000000N000               000               4000123140001231000000               00000000000000000006095201801120000001I                               
01BRBRCSCRI089109BRCS-CRI1A  BRC SECURIT C1A       017AMORTIZACAO RF 20090422004044262097945000000000100000000000            000            000            000000000000000000000400012312018011220182018100SEM TRATAMENTO 000000000000000000N000               000               4000123140001231000000               00000000000000000006095201801120000002I                               
01BRDASAACNOR1114DASA3       DASA        ON        013JRS CAP PROPRIO20171226000000013529782757000000100000000000            000            000            000000000000000000000400012312018013020172017100SEM TRATAMENTO 000000000000000000N000               000               4000123140001231000000               00000000000000000008387201801020000001A                               
01BRBBVHCTF005106BBVH-FID01  FDC INFRA   F01       014RENDIMENTO     20180111000008393000000000000000100000000000            000            000            000000000000000000000400012312018011220172017100SEM TRATAMENTO 000000000000000000N000               000               4000123140001231000000               00000000000000000006098201801120000001I                               
01BRPRSVCTF008191PRSV11      FII P VARGASCI        014RENDIMENTO     20180111000000076000000000000000100000000000            000            000            000000000000000000000400012312018012220172017100SEM TRATAMENTO 000000000000000000N000               000               2018011120180111000000               00000000000000000006095201801120000001I                               
01BRTSNCCTF009142TSNC11      FII TRANSINCCI        014RENDIMENTO     20180111000003008972009054000000100000000000            000            000            000000000000000000000400012312018012220172017100SEM TRATAMENTO 000000000000000000N000               000               2018011120180111000000               00000000000000000005247201801120000001I                               
01BRTELBR04PR8137TELB10      TELEBRAS    PN  REC   090ATUALIZACAO    20180111000010000000000000000000100000000000BRTELBACNPR9138            000            000000000000000000000400012314000123100000000000SEM TRATAMENTO 000000000000000000N000               000               4000123140001231000000               00000000000000000006095201801120000001I                               
01BRTELBR06OR6137TELB9       TELEBRAS    ON  REC   090ATUALIZACAO    20180111000010000000000000000000100000000000BRTELBACNOR2138            000            000000000000000000000400012314000123100000000000SEM TRATAMENTO 000000000000000000N000               000               4000123140001231000000               00000000000000000006095201801120000001I                               
99PROD9999BOVESPA 999920180111000000012                                                                                                                                                                                                                                                                                                                                                     
