00PROD9999BOVESPA 99992018011520180116                                                                                                                                                                                                                                                                                                                                                      
01BRTRXLCTF001192TRXL11      FII TRX LOG CI        014RENDIMENTO     20180115000000033724607000000000100000000000            000            000            000000000000000000000400012312018012420182018100SEM TRATAMENTO 000000000000000000N000               000               2018011520180115000000               00000000000000000008387201801160000001I                               
01BRUBSRCTF000100UBSR11      FII UBS     CI        014RENDIMENTO     20180115000000046544237796000000100000000000            000            000            000000000000000000000400012312018012220172017100SEM TRATAMENTO 000000000000000000N000               000               2018011520180115000000               00000000000000000002358201801160000001I                               
01BRXPOMCTF004109XPOM11      FIP XP OMEGACI        010DIVIDENDO      20180115000000019000000000000000100000000000            000            000            000000000000000000000400012312018013120162016100SEM TRATAMENTO 000000000000000000N000               000               4000123140001231000000               00000000000000000007508201801160000001I                               
01BRMDLZBDR002109MDLZ34      MONDELEZ INTDRN       010DIVIDENDO      20171212000000022720492992000000100000000000            000            000            000000000000000000000400012312018011820172017100SEM TRATAMENTO 000000000000000000N000               000               4000123140001231000000               00000000000000000007807201712260000001A                               
99PROD9999BOVESPA 999920180115000000006                                                                                                                                                                                                                                                                                                                                                     
