00PROD9999BOVESPA 99992018010520180108                                                                                                                                                                                                                                                                                                                                                      
01BRATTBBDR007121ATTB34      ATT INC     DRN       010DIVIDENDO      20171215000000109891021200000000100000000000            000            000            000000000000000000000400012312018021420172017100SEM TRATAMENTO 000000000000000000N000               000               4000123140001231000000               00000000000000000006095201801080000001I                               
01BRFAMBCTF018277FAMB11B     FII ALMIRANTCI      MB014RENDIMENTO     20171228000003647285085877000000100000000000            000            000            000000000000000000000400012312018011220172017100SEM TRATAMENTO 000000000000000000N000               000               4000123140001231000000               00000000000000000008387201801020000001A                               
01BRSHPHCTF008275SHPH11      FII HIGIENOPCI  ES    014RENDIMENTO     20180105000000350000000000000000100000000000            000            000            000000000000000000000400012312018011520172017100SEM TRATAMENTO 000000000000000000N000               000               2018010520180105000000               00000000000000000006296201801080000001I                               
01BRMBRFCTF004176MBRF11      FII MERC BR CI        014RENDIMENTO     20180105000000800000000000000000100000000000            000            000            000000000000000000000400012312018011520172017100SEM TRATAMENTO 000000000000000000N000               000               2018010520180105000000               00000000000000000008387201801080000001I                               
01BRDRITCTF009174DRIT11B     FII MTGESTAOCI      MB014RENDIMENTO     20180105000000055000000000000000100000000000            000            000            000000000000000000000400012312018011520172017100SEM TRATAMENTO 000000000000000000N000               000               2018010520180105000000               00000000000000000008387201801080000001I                               
01BRFPNGCTF005113FPNG11      FII P NEGRA CI        014RENDIMENTO     20180105000000067000000000000000100000000000            000            000            000000000000000000000400012312018011520172017100SEM TRATAMENTO 000000000000000000N000               000               2018010520180105000000               00000000000000000008387201801080000001I                               
01BRFFCICTF005273FFCI11      FII RIOB RC CI        014RENDIMENTO     20180105000000070000000000000000100000000000            000            000            000000000000000000000400012312018011520172017100SEM TRATAMENTO 000000000000000000N000               000               2018010520180105000000               00000000000000000006296201801080000001I                               
01BRFLMACTF009263FLMA11      FII S F LIMACI        014RENDIMENTO     20180105000000001220000000000000100000000000            000            000            000000000000000000000400012312018011520172017100SEM TRATAMENTO 000000000000000000N000               000               2018010520180105000000               00000000000000000008387201801080000001I                               
01BRSFNDCTF006198SFND11      FII SAO FER CI        014RENDIMENTO     20180105000000077000000000000000100000000000            000            000            000000000000000000000400012312018011520172017100SEM TRATAMENTO 000000000000000000N000               000               2018010520180105000000               00000000000000000006095201801080000001I                               
01BRSCPFCTF003234SCPF11      FII SCP     CI        014RENDIMENTO     20180105000000007866200000000000100000000000            000            000            000000000000000000000400012312018011520172017100SEM TRATAMENTO 000000000000000000N000               000               2018010520180105000000               00000000000000000008387201801080000001I                               
01BRONEFCTF003163ONEF11      FII THE ONE CI        014RENDIMENTO     20180105000000665000000000000000100000000000            000            000            000000000000000000000400012312018011520172017100SEM TRATAMENTO 000000000000000000N000               000               2018010520180105000000               00000000000000000008387201801080000001I                               
01BRGAFLCRA0B4135GAFL-CRA81  GAIA AGRO   A81       016JUROS RF       20180105000008500158973000000000100000000000            000            000            000000000000000000000400012312018010820182018100SEM TRATAMENTO 000000000000000000N000               000               4000123140001231000000               00000000000000000000129201801080000001I                               
01BRGAFLCRA0B4135GAFL-CRA81  GAIA AGRO   A81       017AMORTIZACAO RF 20180105000395694365040000000000100000000000            000            000            000000000000000000000400012312018010820182018100SEM TRATAMENTO 000000000000000000N000               000               4000123140001231000000               00000000000000000000129201801080000002I                               
01BRGERUDBS008125GERU-DEB11  GERU SEC    D11 EJA   017AMORTIZACAO RF 20180105000000951000000000000000100000000000            000            000            000000000000000000000400012312018010820182018100SEM TRATAMENTO 000000000000000000N000               000               4000123140001231000000               00000000000000000007309201801080000001I                               
01BRGERUDBS008125GERU-DEB11  GERU SEC    D11 EJA   016JUROS RF       20180105000000559000000000000000100000000000            000            000            000000000000000000000400012312018010820182018100SEM TRATAMENTO 000000000000000000N000               000               4000123140001231000000               00000000000000000007309201801080000002I                               
01BRGERUDBS016118GERU-DEB21  GERU SEC    D21 EJA   017AMORTIZACAO RF 20180105000000225000000000000000100000000000            000            000            000000000000000000000400012312018010820182018100SEM TRATAMENTO 000000000000000000N000               000               4000123140001231000000               00000000000000000007309201801080000001I                               
01BRGERUDBS016118GERU-DEB21  GERU SEC    D21 EJA   016JUROS RF       20180105000000069000000000000000100000000000            000            000            000000000000000000000400012312018010820182018100SEM TRATAMENTO 000000000000000000N000               000               4000123140001231000000               00000000000000000007309201801080000002I                               
01BRGERUDBS024113GERU-DEB31  GERU SEC    D31 EA    017AMORTIZACAO RF 20180105000000418000000000000000100000000000            000            000            000000000000000000000400012312018010820182018100SEM TRATAMENTO 000000000000000000N000               000               4000123140001231000000               00000000000000000007309201801080000001I                               
01BRGERUDBS032107GERU-DEB41  GERU SEC    D41 EA    017AMORTIZACAO RF 20180105000000541000000000000000100000000000            000            000            000000000000000000000400012312018010820182018100SEM TRATAMENTO 000000000000000000N000               000               4000123140001231000000               00000000000000000007309201801080000001I                               
01BRGERUDBS040101GERU-DEB51  GERU SEC    D51 EA    017AMORTIZACAO RF 20180105000005285000000000000000100000000000            000            000            000000000000000000000400012312018010820182018100SEM TRATAMENTO 000000000000000000N000               000               4000123140001231000000               00000000000000000007309201801080000001I                               
01BRLTELACNOR1148LTEL3B      LITEL       ON      MB013JRS CAP PROPRIO20171228000000129226300200000000100000000000            000            000            000000000000000000000400012314000123120172017100SEM TRATAMENTO 000000000000000000N000               000               4000123140001231000000               00000000000000000008387201801080000001I                               
01BRLTELACNPA4146LTEL5B      LITEL       PNA     MB013JRS CAP PROPRIO20171228000000129226300200000000100000000000            000            000            000000000000000000000400012314000123120172017100SEM TRATAMENTO 000000000000000000N000               000               4000123140001231000000               00000000000000000008387201801080000001I                               
01BRLTELARNPB0146LTEL11B     LITEL       PRB     MB013JRS CAP PROPRIO20171228000000129226300200000000100000000000            000            000            000000000000000000000400012314000123120172017100SEM TRATAMENTO 000000000000000000N000               000               4000123140001231000000               00000000000000000008387201801080000001I                               
01BRMSCDBDR006126MSCD34      MASTERCARD  DRN       010DIVIDENDO      20171204000000053825931300000000100000000000            000            000            000000000000000000000400012312018022020182018100SEM TRATAMENTO 000000000000000000N000               000               4000123140001231000000               00000000000000000006296201801080000001I                               
01BRNEOER01OR8101NEOE9B      NEOENERGIA  ON  REC MB090ATUALIZACAO    20180105000010000000000000000000100000000000BRNEOEACNOR3102            000            000000000000000000000400012314000123100000000000SEM TRATAMENTO 000000000000000000N000               000               4000123140001231000000               00000000000000000006098201801080000001I                               
01BRRBRACRI234154RBRA-CRI81  RBCAPITALRESC81     MB016JUROS RF       20180105000123942533354000000000100000000000            000            000            000000000000000000000400012312018010820182018100SEM TRATAMENTO 000000000000000000N000               000               4000123140001231000000               00000000000000000008387201801080000001I                               
01BRRBRACRI234154RBRA-CRI81  RBCAPITALRESC81     MB017AMORTIZACAO RF 20180105000227640226442000000000100000000000            000            000            000000000000000000000400012312018010820182018100SEM TRATAMENTO 000000000000000000N000               000               4000123140001231000000               00000000000000000008387201801080000002I                               
01BRRBRACRI2F8135RBRA-CRI97  RBCAPITALRESC97     MB016JUROS RF       20180105000161621292029000000000100000000000            000            000            000000000000000000000400012312018010820182018100SEM TRATAMENTO 000000000000000000N000               000               4000123140001231000000               00000000000000000008387201801080000001I                               
01BRRBRACRI2F8135RBRA-CRI97  RBCAPITALRESC97     MB017AMORTIZACAO RF 20180105000591547763775000000000100000000000            000            000            000000000000000000000400012312018010820182018100SEM TRATAMENTO 000000000000000000N000               000               4000123140001231000000               00000000000000000008387201801080000002I                               
01BRRBRACRI2G6135RBRA-CRI98  RBCAPITALRESC98     MB016JUROS RF       20180105000185839499466000000000100000000000            000            000            000000000000000000000400012312018010820182018100SEM TRATAMENTO 000000000000000000N000               000               4000123140001231000000               00000000000000000007309201801080000001I                               
01BRRBRACRI2G6135RBRA-CRI98  RBCAPITALRESC98     MB017AMORTIZACAO RF 20180105000445930187062000000000100000000000            000            000            000000000000000000000400012312018010820182018100SEM TRATAMENTO 000000000000000000N000               000               4000123140001231000000               00000000000000000007309201801080000002I                               
01BRRBRACRI2H4135RBRA-CRI99  RBCAPITALRESC99     MB016JUROS RF       20180105000210403681725000000000100000000000            000            000            000000000000000000000400012312018010820182018100SEM TRATAMENTO 000000000000000000N000               000               4000123140001231000000               00000000000000000007309201801080000001I                               
01BRRBRACRI2H4135RBRA-CRI99  RBCAPITALRESC99     MB017AMORTIZACAO RF 20180105000303130479189000000000100000000000            000            000            000000000000000000000400012312018010820182018100SEM TRATAMENTO 000000000000000000N000               000               4000123140001231000000               00000000000000000007309201801080000002I                               
01BRRBRACRI2I2147RBRA-CRI96  RBCAPITALRESC96     MB016JUROS RF       20180105000210289688074000000000100000000000            000            000            000000000000000000000400012312018010820182018100SEM TRATAMENTO 000000000000000000N000               000               4000123140001231000000               00000000000000000007309201801080000001I                               
01BRRBRACRI2I2147RBRA-CRI96  RBCAPITALRESC96     MB017AMORTIZACAO RF 20180105000184497673019000000000100000000000            000            000            000000000000000000000400012312018010820172017100SEM TRATAMENTO 000000000000000000N000               000               4000123140001231000000               00000000000000000007309201801080000002I                               
01BRRBRACRI3C3119RBRA-CRIB2  RBCAPITALRESCB2     MB016JUROS RF       20180105000000655817041000000000100000000000            000            000            000000000000000000000400012312018010820182018100SEM TRATAMENTO 000000000000000000N000               000               4000123140001231000000               00000000000000000008387201801080000001I                               
01BRRBRACRI3C3119RBRA-CRIB2  RBCAPITALRESCB2     MB017AMORTIZACAO RF 20180105000000688407586000000000100000000000            000            000            000000000000000000000400012312018010820182018100SEM TRATAMENTO 000000000000000000N000               000               4000123140001231000000               00000000000000000008387201801080000002I                               
01BRRBRACRI3V3111RBRA-CRID1  RBCAPITALRESCD1     MB016JUROS RF       20180105000000568428777000000000100000000000            000            000            000000000000000000000400012312018010820182018100SEM TRATAMENTO 000000000000000000N000               000               4000123140001231000000               00000000000000000007309201801080000001I                               
01BRRBRACRI3V3111RBRA-CRID1  RBCAPITALRESCD1     MB017AMORTIZACAO RF 20180105000000665200787000000000100000000000            000            000            000000000000000000000400012312018010820182018100SEM TRATAMENTO 000000000000000000N000               000               4000123140001231000000               00000000000000000007309201801080000002I                               
01BRRBRACRI3W1111RBRA-CRI09  RBCAPITALRESC09     MB016JUROS RF       20180105000000575232567000000000100000000000            000            000            000000000000000000000400012312018010820182018100SEM TRATAMENTO 000000000000000000N000               000               4000123140001231000000               00000000000000000008387201801080000001I                               
01BRRBRACRI3W1111RBRA-CRI09  RBCAPITALRESC09     MB017AMORTIZACAO RF 20180105000000701406411000000000100000000000            000            000            000000000000000000000400012312018010820182018100SEM TRATAMENTO 000000000000000000N000               000               4000123140001231000000               00000000000000000008387201801080000002I                               
01BRSANBACNOR8142SANB3       SANTANDER BRON        010DIVIDENDO      20171228000000031829937110000000100000000000            000            000            000000000000000000000400012312018022620172017100SEM TRATAMENTO 000000000000000000N000               000               4000123140001231000000               00000000000000000006062201801080000001I                               
01BRSANBACNOR8142SANB3       SANTANDER BRON        013JRS CAP PROPRIO20171228000000029283542142000000100000000000            000            000            000000000000000000000400012312018022620172017100SEM TRATAMENTO 000000000000000000N000               000               4000123140001231000000               00000000000000000006062201801080000002I                               
01BRSANBACNPR5142SANB4       SANTANDER BRPN        010DIVIDENDO      20171228000000035012930822000000100000000000            000            000            000000000000000000000400012312018022620172017100SEM TRATAMENTO 000000000000000000N000               000               4000123140001231000000               00000000000000000006062201801080000001I                               
01BRSANBACNPR5142SANB4       SANTANDER BRPN        013JRS CAP PROPRIO20171228000000032211896356000000100000000000            000            000            000000000000000000000400012312018022620172017100SEM TRATAMENTO 000000000000000000N000               000               4000123140001231000000               00000000000000000006062201801080000002I                               
01BRSANBCDAM13135SANB11      SANTANDER BRUNT       010DIVIDENDO      20171228000000066842867932000000100000000000            000            000            000000000000000000000400012312018022620172017100SEM TRATAMENTO 000000000000000000N000               000               4000123140001231000000               00000000000000000006062201801080000001I                               
01BRSANBCDAM13135SANB11      SANTANDER BRUNT       013JRS CAP PROPRIO20171228000000061495438498000000100000000000            000            000            000000000000000000000400012312018022620172017100SEM TRATAMENTO 000000000000000000N000               000               4000123140001231000000               00000000000000000006062201801080000002I                               
01BRTWXBBDR003118TWXB34      TIME WARNER DRN       010DIVIDENDO      20171219000000087665002400000000100000000000            000            000            000000000000000000000400012312018021420172017100SEM TRATAMENTO 000000000000000000N000               000               4000123140001231000000               00000000000000000006095201801080000001I                               
01BRUPKPACNOR8136UPKP3B      UPTICK      ON      MB013JRS CAP PROPRIO20171228000000010450635403000000100000000000            000            000            000000000000000000000400012314000123120172017100SEM TRATAMENTO 000000000000000000N000               000               4000123140001231000000               00000000000000000008387201801080000001I                               
01BRVERZBDR008123VERZ34      VERIZON     DRN       010DIVIDENDO      20171208000000128377661500000000100000000000            000            000            000000000000000000000400012312018020720172017100SEM TRATAMENTO 000000000000000000N000               000               4000123140001231000000               00000000000000000002257201801080000001I                               
99PROD9999BOVESPA 999920180105000000052                                                                                                                                                                                                                                                                                                                                                     
