00PROD9999BOVESPA 99992018010820180109                                                                                                                                                                                                                                                                                                                                                      
01BRAETBBDR009105AETB34      AETNA INC   DRN       010DIVIDENDO      20171203000000107651862500000000100000000000            000            000            000000000000000000000400012312018020620172017100SEM TRATAMENTO 000000000000000000N000               000               4000123140001231000000               00000000000000000006095201801090000001I                               
01BRFAEDCTF003199FAED11      FII ANH EDUCCI        014RENDIMENTO     20180108000000157749092137000000100000000000            000            000            000000000000000000000400012312018011520172017100SEM TRATAMENTO 000000000000000000N000               000               2018010820180108000000               00000000000000000006296201801090000001I                               
01BRBCFFCTF000195BCFF11      FII BC FFII CI        014RENDIMENTO     20180108000000050885349031000000100000000000            000            000            000000000000000000000400012312018011520172017100SEM TRATAMENTO 000000000000000000N000               000               2018010820180108000000               00000000000000000006296201801090000001I                               
01BRBRCRCTF000184BRCR11      FII BC FUND CI        014RENDIMENTO     20180108000000044937635897000000100000000000            000            000            000000000000000000000400012312018011520172017100SEM TRATAMENTO 000000000000000000N000               000               2018010820180108000000               00000000000000000006296201801090000001I                               
01BRTHRACTF007152THRA11      FII BM THERACI        014RENDIMENTO     20180108000000041936234661000000100000000000            000            000            000000000000000000000400012312018011520172017100SEM TRATAMENTO 000000000000000000N000               000               2018010820180108000000               00000000000000000008387201801090000001I                               
01BRBMLCCTF004170BMLC11B     FII BMBRC LCCI      MB014RENDIMENTO     20180108000000060346657000000000100000000000            000            000            000000000000000000000400012312018011520172017100SEM TRATAMENTO 000000000000000000N000               000               2018010820180108000000               00000000000000000008387201801090000001I                               
01BRCEOCCTF003137CEOC11      FII CEO CCP CI        014RENDIMENTO     20180108000000051912312964000000100000000000            000            000            000000000000000000000400012312018011520172017100SEM TRATAMENTO 000000000000000000N000               000               2018010820180108000000               00000000000000000008387201801090000001I                               
01BRFEXCCTF007203FEXC11      FII EXCELLENCI        014RENDIMENTO     20180108000000068000000000000000100000000000            000            000            000000000000000000000400012312018011520172017100SEM TRATAMENTO 000000000000000000N000               000               2018010820180108000000               00000000000000000006296201801090000001I                               
01BRLATRCTF009116LATR11B     FII LATERES CI      MB014RENDIMENTO     20180108000000283061239000000000100000000000            000            000            000000000000000000000400012312018011520172017100SEM TRATAMENTO 000000000000000000N000               000               2018010820180108000000               00000000000000000002358201801090000001I                               
01BRMAXRCTF009191MAXR11      FII MAX RET CI        014RENDIMENTO     20180108000000997050924128000000100000000000            000            000            000000000000000000000400012312018011520172017100SEM TRATAMENTO 000000000000000000N000               000               2018010820180108000000               00000000000000000006296201801090000001I                               
01BRNCHBCTF000150NCHB11      FII NCH BRA CI        014RENDIMENTO     20180108000000263708609756000000100000000000            000            000            000000000000000000000400012312018011520172017100SEM TRATAMENTO 000000000000000000N000               000               2018010820180108000000               00000000000000000008387201801090000001I                               
01BRPRSNCTF005108PRSN11B     FII PERSONALCI  EA  MB014RENDIMENTO     20180108000000007103192290000000100000000000            000            000            000000000000000000000400012312018011520182018100SEM TRATAMENTO 000000000000000000N000               000               2018010820180108000000               00000000000000000002358201801090000001I                               
01BRJRDMCTF002164JRDM11      FII SHOPJSULCI        014RENDIMENTO     20180108000000038185445736000000100000000000            000            000            000000000000000000000400012312018011520172017100SEM TRATAMENTO 000000000000000000N000               000               2018010820180108000000               00000000000000000008387201801090000001I                               
01BRKLBNDBM007114KLBN-DCA61  KLABIN S/A  D61     N2016JUROS RF       20180108000000681458200000000000100000000000            000            000            000000000000000000000400012312018010920172017100SEM TRATAMENTO 000000000000000000N000               000               4000123140001231000000               00000000000000000007309201801090000001I                               
01BRLCAMACNOR3121LCAM3       LOCAMERICA  ON      NM010DIVIDENDO      20180103000000021620870580000000100000000000            000            000            000000000000000000000400012312018011820172017100SEM TRATAMENTO 000000000000000000N000               000               4000123140001231000000               00000000000000000008387201801090000001I                               
01BRORCLBDR007123ORCL34      ORACLE      DRN       010DIVIDENDO      20171214000000041758588100000000100000000000            000            000            000000000000000000000400012312018013120182018100SEM TRATAMENTO 000000000000000000N000               000               4000123140001231000000               00000000000000000006296201801090000001I                               
01BRRBCSCRI2X8156RBCS-CRI97  RBCAPITALSECC97     MB016JUROS RF       20180108000102124581698000000000100000000000            000            000            000000000000000000000400012312018010920182018100SEM TRATAMENTO 000000000000000000N000               000               4000123140001231000000               00000000000000000007309201801090000001I                               
01BRRBCSCRI2X8156RBCS-CRI97  RBCAPITALSECC97     MB017AMORTIZACAO RF 20180108000434657746352000000000100000000000            000            000            000000000000000000000400012312018010920182018100SEM TRATAMENTO 000000000000000000N000               000               4000123140001231000000               00000000000000000007309201801090000002I                               
99PROD9999BOVESPA 999920180108000000020                                                                                                                                                                                                                                                                                                                                                     
