00PROD9999BOVESPA 99992018010420180105                                                                                                                                                                                                                                                                                                                                                      
01BRBRSRACNOR3151BRSR3       BANRISUL    ON      N1013JRS CAP PROPRIO20171228000000030348774000000000100000000000            000            000            000000000000000000000400012312018022020172017100SEM TRATAMENTO 000000000000000000N000               000               4000123140001231000000               00000000000000000006070201801050000001I                               
01BRBRSRACNPA6155BRSR5       BANRISUL    PNA     N1013JRS CAP PROPRIO20171228000000033159171000000000100000000000            000            000            000000000000000000000400012312018022020172017100SEM TRATAMENTO 000000000000000000N000               000               4000123140001231000000               00000000000000000006070201801050000001I                               
01BRBRSRACNPB4154BRSR6       BANRISUL    PNB     N1013JRS CAP PROPRIO20171228000000030348774000000000100000000000            000            000            000000000000000000000400012312018022020172017100SEM TRATAMENTO 000000000000000000N000               000               4000123140001231000000               00000000000000000006070201801050000001I                               
01BRBNPAACNOR4135BNPA3B      BONAIRE PARTON      MB013JRS CAP PROPRIO20171228000000000488544100000000100000000000            000            000            000000000000000000000400012314000123120172017100SEM TRATAMENTO 000000000000000000N000               000               4000123140001231000000               00000000000000000008387201801050000001I                               
01BRBPACACNOR7116BPAC3       BTGP BANCO  ON        013JRS CAP PROPRIO20171228000000022842975500000000100000000000            000            000            000000000000000000000400012314000123120172017100SEM TRATAMENTO 000000000000000000N000               000               4000123140001231000000               00000000000000000006095201801050000001I                               
01BRBPACACNPA0116BPAC5       BTGP BANCO  PNA       013JRS CAP PROPRIO20171228000000022842975500000000100000000000            000            000            000000000000000000000400012314000123120172017100SEM TRATAMENTO 000000000000000000N000               000               4000123140001231000000               00000000000000000006095201801050000001I                               
01BRBPACUNT006101BPAC11      BTGP BANCO  UNT       013JRS CAP PROPRIO20171228000000068528926500000000100000000000            000            000            000000000000000000000400012314000123120172017100SEM TRATAMENTO 000000000000000000N000               000               4000123140001231000000               00000000000000000006095201801050000001I                               
01BRCREMACNOR2176CREM3       CREMER      ON        013JRS CAP PROPRIO20171228000000013482057153000000100000000000            000            000            000000000000000000000400012312018122820172017100SEM TRATAMENTO 000000000000000000N000               000               4000123140001231000000               00000000000000000008387201801050000001I                               
01BRCYREDBS017120CYRE-DEB21  CYRELA REALTD21     NM016JUROS RF       20180104000043914070000000000000100000000000            000            000            000000000000000000000400012312018010520182018100SEM TRATAMENTO 000000000000000000N000               000               4000123140001231000000               00000000000000000006095201801050000001I                               
01BRCYREDBS017120CYRE-DEB21  CYRELA REALTD21     NM094RESG TOTAL RF  20180104000010000000000000000000100000000000            000            000            000000000000000000000400012314000123100000000000SEM TRATAMENTO 001000000000000000N000               000               4000123140001231000000               00000000000000000006095201801050000002I                               
01BRCYREDBS025120CYRE-DEB22  CYRELA REALTD22     NM016JUROS RF       20180104000043914070000000000000100000000000            000            000            000000000000000000000400012312018010520182018100SEM TRATAMENTO 000000000000000000N000               000               4000123140001231000000               00000000000000000006095201801050000001I                               
01BRCYREDBS025120CYRE-DEB22  CYRELA REALTD22     NM094RESG TOTAL RF  20180104000010000000000000000000100000000000            000            000            000000000000000000000400012314000123100000000000SEM TRATAMENTO 001000000000000000N000               000               4000123140001231000000               00000000000000000006095201801050000002I                               
01BRHPQBBDR006121HPQB34      HP COMPANY  DRN       010DIVIDENDO      20171114000000029785096100000000100000000000            000            000            000000000000000000000400012312018011220172017100SEM TRATAMENTO 000000000000000000N000               000               4000123140001231000000               00000000000000000006095201712110000001A                               
01BRKMBBBDR009109KMBB34      KIMBERLY CL DRN       010DIVIDENDO      20171116000000207405449600000000100000000000            000            000            000000000000000000000400012312018011220172017100SEM TRATAMENTO 000000000000000000N000               000               4000123140001231000000               00000000000000000006095201712060000001A                               
01BRLAMEACNOR9198LAME3       LOJAS AMERICON      N1013JRS CAP PROPRIO20171229000000007522892900000000100000000000            000            000            000000000000000000000400012312018040220172017100SEM TRATAMENTO 000000000000000000N000               000               4000123140001231000000               00000000000000000006095201801050000001I                               
01BRLAMEACNPR6198LAME4       LOJAS AMERICPN      N1013JRS CAP PROPRIO20171229000000007522892900000000100000000000            000            000            000000000000000000000400012312018040220172017100SEM TRATAMENTO 000000000000000000N000               000               4000123140001231000000               00000000000000000006095201801050000001I                               
01BRMOVIACNOR0100MOVI3       MOVIDA      ON      NM013JRS CAP PROPRIO20171228000000007026038000000000100000000000            000            000            000000000000000000000400012312018053020172017100SEM TRATAMENTO 000000000000000000N000               000               4000123140001231000000               00000000000000000006095201801050000001I                               
99PROD9999BOVESPA 999920180104000000019                                                                                                                                                                                                                                                                                                                                                     
