00PROD9999BOVESPA 99992018012420180126                                                                                                                                                                                                                                                                                                                                                      
01BRAPCSCRI200105APCS-CRI75  APICESECURITC75       016JUROS RF       20180124000000235466751000000000100000000000            000            000            000000000000000000000400012312018012620172017100SEM TRATAMENTO 000000000000000000N000               000               4000123140001231000000               00000000000000000008387201801260000001I                               
01BRBONYBDR001109BONY34      BNY MELLON  DRN       010DIVIDENDO      20180118000000051073488400000000100000000000            000            000            000000000000000000000400012312018022220172017100SEM TRATAMENTO 000000000000000000N000               000               4000123140001231000000               00000000000000000006095201801260000001I                               
01BRBSCSCRI9G7127BSCS-CRIZ3  BRAZILIAN SCCZ3       016JUROS RF       20180123000013938000000000000000100000000000            000            000            000000000000000000000400012312018012620182018100SEM TRATAMENTO 000000000000000000N000               000               4000123140001231000000               00000000000000000008387201801260000001I                               
01BRBSCSCRI9G7127BSCS-CRIZ3  BRAZILIAN SCCZ3       017AMORTIZACAO RF 20180123000038408000000000000000100000000000            000            000            000000000000000000000400012312018012620182018100SEM TRATAMENTO 000000000000000000N000               000               4000123140001231000000               00000000000000000008387201801260000002I                               
01BRBSCSCRI9H5114BSCS-CRIZ4  BRAZILIAN SCCZ4       016JUROS RF       20180123001008864000000000000000100000000000            000            000            000000000000000000000400012312018012620182018100SEM TRATAMENTO 000000000000000000N000               000               4000123140001231000000               00000000000000000008387201801260000001I                               
01BRBSCSCRI9H5114BSCS-CRIZ4  BRAZILIAN SCCZ4       017AMORTIZACAO RF 20180123000562196000000000000000100000000000            000            000            000000000000000000000400012312018012620182018100SEM TRATAMENTO 000000000000000000N000               000               4000123140001231000000               00000000000000000008387201801260000002I                               
01BRFDMOBDR008123FDMO34      FORD MOTORS DRN       010DIVIDENDO      20180117000000032046137700000000100000000000            000            000            000000000000000000000400012312018030720182018100SEM TRATAMENTO 000000000000000000N000               000               4000123140001231000000               00000000000000000002257201801260000001I                               
01BRGAFLCRA014150GAFL-CRA41  GAIA AGRO   A41       016JUROS RF       20180124000081824188873000000000100000000000            000            000            000000000000000000000400012312018012620182018100SEM TRATAMENTO 000000000000000000N000               000               4000123140001231000000               00000000000000000000129201801260000001I                               
01BRGAFLCRA014150GAFL-CRA41  GAIA AGRO   A41       017AMORTIZACAO RF 20180124000580167611913000000000100000000000            000            000            000000000000000000000400012312018012620182018100SEM TRATAMENTO 000000000000000000N000               000               4000123140001231000000               00000000000000000000129201801260000002I                               
01BRORCLBDR007123ORCL34      ORACLE      DRN       010DIVIDENDO      20171214000000040265750200000000100000000000            000            000            000000000000000000000400012312018013120182018100SEM TRATAMENTO 000000000000000000N000               000               4000123140001231000000               00000000000000000006296201801090000001A                               
01BRRCSLACNOR4128RCSL3       RECRUSUL    ON        040GRUPAMENTO     20180124000000033333333334000000100000000000BRRCSLACNOR4129            000            000000000000000000000400012314000123100000000000SEM TRATAMENTO 000000000000000000N000               000               4000123140001231000000               00000000000000000008387201801260000001I                               
01BRRCSLACNPR1128RCSL4       RECRUSUL    PN        040GRUPAMENTO     20180124000000033333333334000000100000000000BRRCSLACNPR1129            000            000000000000000000000400012314000123100000000000SEM TRATAMENTO 000000000000000000N000               000               4000123140001231000000               00000000000000000008387201801260000001I                               
01BRSNSTDBS004237SNST-DEB21  SANESALTO   D21       016JUROS RF       20180119000000823158100000000000100000000000            000            000            000000000000000000000400012312018012620182018100SEM TRATAMENTO 000000000000000000N000               000               4000123140001231000000               00000000000000000007309201801260000001I                               
01BRSNSTDBS004237SNST-DEB21  SANESALTO   D21       017AMORTIZACAO RF 20180119000001416467400000000000100000000000            000            000            000000000000000000000400012312018012620182018100SEM TRATAMENTO 000000000000000000N000               000               4000123140001231000000               00000000000000000007309201801260000002I                               
99PROD9999BOVESPA 999920180124000000016                                                                                                                                                                                                                                                                                                                                                     
