00PROD9999BOVESPA 99992018011720180118                                                                                                                                                                                                                                                                                                                                                      
01BRFCFLCTF009190FCFL11      FII CAMPUSFLCI        014RENDIMENTO     20180117000001055024269461000000100000000000            000            000            000000000000000000000400012312018012420172017100SEM TRATAMENTO 000000000000000000N000               000               2018011720180117000000               00000000000000000006296201801180000001I                               
01BRELDOCTF002200ELDO11B     FII ELDORADOCI      MB014RENDIMENTO     20180117000000813000000000000000100000000000            000            000            000000000000000000000400012312018012420182018100SEM TRATAMENTO 000000000000000000N000               000               2018011720180117000000               00000000000000000008387201801180000001I                               
01BRGAIACRI3J3108GAIA-CRI96  GAIA SECURITC96 EJ  MB016JUROS RF       20180116000000727870200000000000100000000000            000            000            000000000000000000000400012312018011820182018100SEM TRATAMENTO 000000000000000000N000               000               4000123140001231000000               00000000000000000003868201801180000001I                               
01BRPGCOBDR001128PGCO34      PG          DRN       010DIVIDENDO      20180109000000147089219400000000100000000000            000            000            000000000000000000000400012312018022120182018100SEM TRATAMENTO 000000000000000000N000               000               4000123140001231000000               00000000000000000002257201801180000001I                               
01BRTMOSBDR007106TMOS34      THERMFISCHERDRN       010DIVIDENDO      20171109000000007791078431000000100000000000            000            000            000000000000000000000400012312018012220172017100SEM TRATAMENTO 000000000000000000N000               000               4000123140001231000000               00000000000000000007807201712130000001A                               
99PROD9999BOVESPA 999920180117000000007                                                                                                                                                                                                                                                                                                                                                     
