00PROD9999BOVESPA 99992018011920180122                                                                                                                                                                                                                                                                                                                                                      
01BRCBEER04OR2152CBEE9       AMPLA ENERG ON  REC   090ATUALIZACAO    20180118000010000000000000000000100000000000BRCBEEACNOR3153            000            000000000000000000000400012314000123100000000000SEM TRATAMENTO 000000000000000000N000               000               4000123140001231000000               00000000000000000006095201801220000001I                               
01BRBSCSCRI392126BSCS-CRIC0  BRAZILIAN SCCC0       016JUROS RF       20180119000051000109205000000000100000000000            000            000            000000000000000000000400012312018012220182018100SEM TRATAMENTO 000000000000000000N000               000               4000123140001231000000               00000000000000000006095201801220000001I                               
01BRBSCSCRI392126BSCS-CRIC0  BRAZILIAN SCCC0       017AMORTIZACAO RF 20180119000240202000000000000000100000000000            000            000            000000000000000000000400012312018012220182018100SEM TRATAMENTO 000000000000000000N000               000               4000123140001231000000               00000000000000000006095201801220000002I                               
01BRBSCSCRI3A3126BSCS-CRIC1  BRAZILIAN SCCC1       016JUROS RF       20180119000077278350043000000000100000000000            000            000            000000000000000000000400012312018012220182018100SEM TRATAMENTO 000000000000000000N000               000               4000123140001231000000               00000000000000000006095201801220000001I                               
01BRBSCSCRI3A3126BSCS-CRIC1  BRAZILIAN SCCC1       017AMORTIZACAO RF 20180119000286433000000000000000100000000000            000            000            000000000000000000000400012312018012220182018100SEM TRATAMENTO 000000000000000000N000               000               4000123140001231000000               00000000000000000006095201801220000002I                               
01BRBSCSCRI4E3160BSCS-CRIH0  BRAZILIAN SCCH0       016JUROS RF       20180119000023075991115000000000100000000000            000            000            000000000000000000000400012312018012220182018100SEM TRATAMENTO 000000000000000000N000               000               4000123140001231000000               00000000000000000008387201801220000001I                               
01BRBSCSCRI4E3160BSCS-CRIH0  BRAZILIAN SCCH0       017AMORTIZACAO RF 20180119000184805077142000000000100000000000            000            000            000000000000000000000400012312018012220182018100SEM TRATAMENTO 000000000000000000N000               000               4000123140001231000000               00000000000000000008387201801220000002I                               
01BRBSCSCRI4I4126BSCS-CRIH6  BRAZILIAN SCCH6       016JUROS RF       20180119000068943105731000000000100000000000            000            000            000000000000000000000400012312018012220182018100SEM TRATAMENTO 000000000000000000N000               000               4000123140001231000000               00000000000000000008387201801220000001I                               
01BRBSCSCRI4I4126BSCS-CRIH6  BRAZILIAN SCCH6       017AMORTIZACAO RF 20180119000280045754501000000000100000000000            000            000            000000000000000000000400012312018012220182018100SEM TRATAMENTO 000000000000000000N000               000               4000123140001231000000               00000000000000000008387201801220000002I                               
01BRBSCSCRI541126BSCS-CRII9  BRAZILIAN SCCI9       016JUROS RF       20180119000046338540240000000000100000000000            000            000            000000000000000000000400012312018012220182018100SEM TRATAMENTO 000000000000000000N000               000               4000123140001231000000               00000000000000000008387201801220000001I                               
01BRBSCSCRI541126BSCS-CRII9  BRAZILIAN SCCI9       017AMORTIZACAO RF 20180119000333695068709000000000100000000000            000            000            000000000000000000000400012312018012220182018100SEM TRATAMENTO 000000000000000000N000               000               4000123140001231000000               00000000000000000008387201801220000002I                               
01BRBSCSCRI5G5126BSCS-CRIJ1  BRAZILIAN SCCJ1       016JUROS RF       20180119000037603265524000000000100000000000            000            000            000000000000000000000400012312018012220182018100SEM TRATAMENTO 000000000000000000N000               000               4000123140001231000000               00000000000000000008387201801220000001I                               
01BRBSCSCRI5G5126BSCS-CRIJ1  BRAZILIAN SCCJ1       017AMORTIZACAO RF 20180119000067994148474000000000100000000000            000            000            000000000000000000000400012312018012220182018100SEM TRATAMENTO 000000000000000000N000               000               4000123140001231000000               00000000000000000008387201801220000002I                               
01BRBSCSCRI5J9160BSCS-CRIL1  BRAZILIAN SCCL1       016JUROS RF       20180119000019275794703000000000100000000000            000            000            000000000000000000000400012312018012220182018100SEM TRATAMENTO 000000000000000000N000               000               4000123140001231000000               00000000000000000008387201801220000001I                               
01BRBSCSCRI5J9160BSCS-CRIL1  BRAZILIAN SCCL1       017AMORTIZACAO RF 20180119000137245129204000000000100000000000            000            000            000000000000000000000400012312018012220182018100SEM TRATAMENTO 000000000000000000N000               000               4000123140001231000000               00000000000000000008387201801220000002I                               
01BRBSCSCRI5L5160BSCS-CRIL6  BRAZILIAN SCCL6       016JUROS RF       20180119000063963767791000000000100000000000            000            000            000000000000000000000400012312018012220182018100SEM TRATAMENTO 000000000000000000N000               000               4000123140001231000000               00000000000000000008387201801220000001I                               
01BRBSCSCRI5L5160BSCS-CRIL6  BRAZILIAN SCCL6       017AMORTIZACAO RF 20180119000043633147006000000000100000000000            000            000            000000000000000000000400012312018012220182018100SEM TRATAMENTO 000000000000000000N000               000               4000123140001231000000               00000000000000000008387201801220000002I                               
01BRBSCSCRI5N1160BSCS-CRIK7  BRAZILIAN SCCK7       016JUROS RF       20180119000062369262449000000000100000000000            000            000            000000000000000000000400012312018012220182018100SEM TRATAMENTO 000000000000000000N000               000               4000123140001231000000               00000000000000000008387201801220000001I                               
01BRBSCSCRI5N1160BSCS-CRIK7  BRAZILIAN SCCK7       017AMORTIZACAO RF 20180119001395835456347000000000100000000000            000            000            000000000000000000000400012312018012220182018100SEM TRATAMENTO 000000000000000000N000               000               4000123140001231000000               00000000000000000008387201801220000002I                               
01BRBSCSCRI5P6160BSCS-CRIK9  BRAZILIAN SCCK9       016JUROS RF       20180119000030536494656000000000100000000000            000            000            000000000000000000000400012312018012220182018100SEM TRATAMENTO 000000000000000000N000               000               4000123140001231000000               00000000000000000008387201801220000001I                               
01BRBSCSCRI5P6160BSCS-CRIK9  BRAZILIAN SCCK9       017AMORTIZACAO RF 20180119000112557722622000000000100000000000            000            000            000000000000000000000400012312018012220182018100SEM TRATAMENTO 000000000000000000N000               000               4000123140001231000000               00000000000000000008387201801220000002I                               
01BRBSCSCRI5S0160BSCS-CRIM3  BRAZILIAN SCCM3       016JUROS RF       20180119000043523300461000000000100000000000            000            000            000000000000000000000400012312018012220182018100SEM TRATAMENTO 000000000000000000N000               000               4000123140001231000000               00000000000000000008387201801220000001I                               
01BRBSCSCRI5S0160BSCS-CRIM3  BRAZILIAN SCCM3       017AMORTIZACAO RF 20180119000306973552985000000000100000000000            000            000            000000000000000000000400012312018012220182018100SEM TRATAMENTO 000000000000000000N000               000               4000123140001231000000               00000000000000000008387201801220000002I                               
01BRBSCSCRI5U6160BSCS-CRIL4  BRAZILIAN SCCL4       016JUROS RF       20180119000043968329239000000000100000000000            000            000            000000000000000000000400012312018012220182018100SEM TRATAMENTO 000000000000000000N000               000               4000123140001231000000               00000000000000000008387201801220000001I                               
01BRBSCSCRI5U6160BSCS-CRIL4  BRAZILIAN SCCL4       017AMORTIZACAO RF 20180119000074524606161000000000100000000000            000            000            000000000000000000000400012312018012220182018100SEM TRATAMENTO 000000000000000000N000               000               4000123140001231000000               00000000000000000008387201801220000002I                               
01BRBSCSCRI5V4137BSCS-CRIL5  BRAZILIAN SCCL5       016JUROS RF       20180119001282864890281000000000100000000000            000            000            000000000000000000000400012312018012220182018100SEM TRATAMENTO 000000000000000000N000               000               4000123140001231000000               00000000000000000008387201801220000001I                               
01BRBSCSCRI5V4137BSCS-CRIL5  BRAZILIAN SCCL5       017AMORTIZACAO RF 20180119000530090763395000000000100000000000            000            000            000000000000000000000400012312018012220182018100SEM TRATAMENTO 000000000000000000N000               000               4000123140001231000000               00000000000000000008387201801220000002I                               
01BRBSCSCRI632161BSCS-CRIN7  BRAZILIAN SCCN7       016JUROS RF       20180119000055197264555000000000100000000000            000            000            000000000000000000000400012312018012220182018100SEM TRATAMENTO 000000000000000000N000               000               4000123140001231000000               00000000000000000008387201801220000001I                               
01BRBSCSCRI632161BSCS-CRIN7  BRAZILIAN SCCN7       017AMORTIZACAO RF 20180119000318315328892000000000100000000000            000            000            000000000000000000000400012312018012220182018100SEM TRATAMENTO 000000000000000000N000               000               4000123140001231000000               00000000000000000008387201801220000002I                               
01BRBSCSCRI6E8161BSCS-CRIO1  BRAZILIAN SCCO1       016JUROS RF       20180119000021685345885000000000100000000000            000            000            000000000000000000000400012312018012220182018100SEM TRATAMENTO 000000000000000000N000               000               4000123140001231000000               00000000000000000008387201801220000001I                               
01BRBSCSCRI6E8161BSCS-CRIO1  BRAZILIAN SCCO1       017AMORTIZACAO RF 20180119000047525877135000000000100000000000            000            000            000000000000000000000400012312018012220182018100SEM TRATAMENTO 000000000000000000N000               000               4000123140001231000000               00000000000000000008387201801220000002I                               
01BRBSCSCRI6H1161BSCS-CRIO3  BRAZILIAN SCCO3       016JUROS RF       20180119000070911813297000000000100000000000            000            000            000000000000000000000400012312018012220182018100SEM TRATAMENTO 000000000000000000N000               000               4000123140001231000000               00000000000000000008387201801220000001I                               
01BRBSCSCRI6H1161BSCS-CRIO3  BRAZILIAN SCCO3       017AMORTIZACAO RF 20180119000078475080566000000000100000000000            000            000            000000000000000000000400012312018012220182018100SEM TRATAMENTO 000000000000000000N000               000               4000123140001231000000               00000000000000000008387201801220000002I                               
01BRBSCSCRI6J7161BSCS-CRIO5  BRAZILIAN SCCO5       016JUROS RF       20180119000105712604041000000000100000000000            000            000            000000000000000000000400012312018012220182018100SEM TRATAMENTO 000000000000000000N000               000               4000123140001231000000               00000000000000000008387201801220000001I                               
01BRBSCSCRI6J7161BSCS-CRIO5  BRAZILIAN SCCO5       017AMORTIZACAO RF 20180119000560321477500000000000100000000000            000            000            000000000000000000000400012312018012220182018100SEM TRATAMENTO 000000000000000000N000               000               4000123140001231000000               00000000000000000008387201801220000002I                               
01BRBSCSCRI6M1160BSCS-CRIO7  BRAZILIAN SCCO7       016JUROS RF       20180119000029492976516000000000100000000000            000            000            000000000000000000000400012312018012220182018100SEM TRATAMENTO 000000000000000000N000               000               4000123140001231000000               00000000000000000008387201801220000001I                               
01BRBSCSCRI6M1160BSCS-CRIO7  BRAZILIAN SCCO7       017AMORTIZACAO RF 20180119000022099001680000000000100000000000            000            000            000000000000000000000400012312018012220182018100SEM TRATAMENTO 000000000000000000N000               000               4000123140001231000000               00000000000000000008387201801220000002I                               
01BRBSCSCRI6P4161BSCS-CRIO9  BRAZILIAN SCCO9       016JUROS RF       20180119000051551317385000000000100000000000            000            000            000000000000000000000400012312018012220182018100SEM TRATAMENTO 000000000000000000N000               000               4000123140001231000000               00000000000000000008387201801220000001I                               
01BRBSCSCRI6P4161BSCS-CRIO9  BRAZILIAN SCCO9       017AMORTIZACAO RF 20180119000508230910202000000000100000000000            000            000            000000000000000000000400012312018012220182018100SEM TRATAMENTO 000000000000000000N000               000               4000123140001231000000               00000000000000000008387201801220000002I                               
01BRBSCSCRI6S8161BSCS-CRIP1  BRAZILIAN SCCP1       016JUROS RF       20180119000020257873417000000000100000000000            000            000            000000000000000000000400012312018012220182018100SEM TRATAMENTO 000000000000000000N000               000               4000123140001231000000               00000000000000000008387201801220000001I                               
01BRBSCSCRI6S8161BSCS-CRIP1  BRAZILIAN SCCP1       017AMORTIZACAO RF 20180119000040509260819000000000100000000000            000            000            000000000000000000000400012312018012220182018100SEM TRATAMENTO 000000000000000000N000               000               4000123140001231000000               00000000000000000008387201801220000002I                               
01BRBSCSCRI6W0161BSCS-CRIP3  BRAZILIAN SCCP3       016JUROS RF       20180119000028222381640000000000100000000000            000            000            000000000000000000000400012312018012220182018100SEM TRATAMENTO 000000000000000000N000               000               4000123140001231000000               00000000000000000008387201801220000001I                               
01BRBSCSCRI6W0161BSCS-CRIP3  BRAZILIAN SCCP3       017AMORTIZACAO RF 20180119000362202418109000000000100000000000            000            000            000000000000000000000400012312018012220182018100SEM TRATAMENTO 000000000000000000N000               000               4000123140001231000000               00000000000000000008387201801220000002I                               
01BRBSCSCRI715161BSCS-CRIP9  BRAZILIAN SCCP9       016JUROS RF       20180119000073294000336000000000100000000000            000            000            000000000000000000000400012312018012220182018100SEM TRATAMENTO 000000000000000000N000               000               4000123140001231000000               00000000000000000008387201801220000001I                               
01BRBSCSCRI715161BSCS-CRIP9  BRAZILIAN SCCP9       017AMORTIZACAO RF 20180119000098355214213000000000100000000000            000            000            000000000000000000000400012312018012220182018100SEM TRATAMENTO 000000000000000000N000               000               4000123140001231000000               00000000000000000008387201801220000002I                               
01BRBSCSCRI764161BSCS-CRIQ4  BRAZILIAN SCCQ4       016JUROS RF       20180119000046557541171000000000100000000000            000            000            000000000000000000000400012312018012220182018100SEM TRATAMENTO 000000000000000000N000               000               4000123140001231000000               00000000000000000008387201801220000001I                               
01BRBSCSCRI764161BSCS-CRIQ4  BRAZILIAN SCCQ4       017AMORTIZACAO RF 20180119000578846608873000000000100000000000            000            000            000000000000000000000400012312018012220182018100SEM TRATAMENTO 000000000000000000N000               000               4000123140001231000000               00000000000000000008387201801220000002I                               
01BRBSCSCRI780161BSCS-CRIQ6  BRAZILIAN SCCQ6       016JUROS RF       20180119000070942600465000000000100000000000            000            000            000000000000000000000400012312018012220182018100SEM TRATAMENTO 000000000000000000N000               000               4000123140001231000000               00000000000000000008387201801220000001I                               
01BRBSCSCRI780161BSCS-CRIQ6  BRAZILIAN SCCQ6       017AMORTIZACAO RF 20180119000059191054645000000000100000000000            000            000            000000000000000000000400012312018012220182018100SEM TRATAMENTO 000000000000000000N000               000               4000123140001231000000               00000000000000000008387201801220000002I                               
01BRBSCSCRI798153BSCS-CRIQ7  BRAZILIAN SCCQ7       016JUROS RF       20180119000518242696787000000000100000000000            000            000            000000000000000000000400012312018012220182018100SEM TRATAMENTO 000000000000000000N000               000               4000123140001231000000               00000000000000000008387201801220000001I                               
01BRBSCSCRI798153BSCS-CRIQ7  BRAZILIAN SCCQ7       017AMORTIZACAO RF 20180119000136761842670000000000100000000000            000            000            000000000000000000000400012312018012220182018100SEM TRATAMENTO 000000000000000000N000               000               4000123140001231000000               00000000000000000008387201801220000002I                               
01BRBSCSCRI7Y4126BSCS-CRIT0  BRAZILIAN SCCT0       016JUROS RF       20180119000070597015395000000000100000000000            000            000            000000000000000000000400012312018012220182018100SEM TRATAMENTO 000000000000000000N000               000               4000123140001231000000               00000000000000000008387201801220000001I                               
01BRBSCSCRI7Y4126BSCS-CRIT0  BRAZILIAN SCCT0       017AMORTIZACAO RF 20180119000109357929253000000000100000000000            000            000            000000000000000000000400012312018012220182018100SEM TRATAMENTO 000000000000000000N000               000               4000123140001231000000               00000000000000000008387201801220000002I                               
01BRBSCSCRI9R4120BSCS-CRI9R  BRAZILIAN SCC9R       016JUROS RF       20180119000118776354000000000000100000000000            000            000            000000000000000000000400012312018012220182018100SEM TRATAMENTO 000000000000000000N000               000               4000123140001231000000               00000000000000000008387201801220000001I                               
01BRBSCSCRI9R4120BSCS-CRI9R  BRAZILIAN SCC9R       017AMORTIZACAO RF 20180119000333013035153000000000100000000000            000            000            000000000000000000000400012312018012220182018100SEM TRATAMENTO 000000000000000000N000               000               4000123140001231000000               00000000000000000008387201801220000002I                               
01BRCOLGBDR000126COLG34      COLGATE     DRN       010DIVIDENDO      20180111000000084682598600000000100000000000            000            000            000000000000000000000400012312018022220182018100SEM TRATAMENTO 000000000000000000N000               000               4000123140001231000000               00000000000000000006296201801220000001I                               
01BRCVSHBDR008106CVSH34      CVS HEALTH  DRN       010DIVIDENDO      20171229000000053745250000000000100000000000            000            000            000000000000000000000400012312018020820182018100SEM TRATAMENTO 000000000000000000N000               000               4000123140001231000000               00000000000000000007807201801220000001I                               
01BRDCDICTF005111DCDI-FID11  FDC INFI DI F11 ERA   014RENDIMENTO     20180119000000722872682000000000100000000000            000            000            000000000000000000000400012312018012220182018100SEM TRATAMENTO 000000000000000000N000               000               4000123140001231000000               00000000000000000002358201801220000001I                               
01BRDOVLCTF006150DOVL11B     FII DOVEL   CI      MB014RENDIMENTO     20180119000001564531715600000000100000000000            000            000            000000000000000000000400012312018012920172017100SEM TRATAMENTO 000000000000000000N000               000               2018011920180119000000               00000000000000000006095201801220000001I                               
01BRFVPQCTF015190FVPQ11      FII V PARQUECI        014RENDIMENTO     20180119000000136844057000000000100000000000            000            000            000000000000000000000400012312018013020182018100SEM TRATAMENTO 000000000000000000N000               000               2018011920180119000000               00000000000000000008387201801220000001I                               
01BROIBRACNOR1105OIBR3       OI          ON      N1090ATUALIZACAO    20180119000010000000000000000000100000000000BROIBRACNOR1106            000            000000000000000000000400012314000123100000000000SEM TRATAMENTO 000000000000000000N000               000               4000123140001231000000               00000000000000000006098201801220000001I                               
01BRPETRACNPR6186PETR4       PETROBRAS   PN        090ATUALIZACAO    20180119000010000000000000000000100000000000BRPETRACNPR6187            000            000000000000000000000400012314000123100000000000SEM TRATAMENTO 000000000000000000N000               000               4000123140001231000000               00000000000000000006098201801220000001I                               
01BRSTENDBS012114STEN-DEB31  STO ANTONIO D31       018PREMIO RF      20171220000002055901897000000000100000000000            000            000            000000000000000000000400012312018012220172017100SEM TRATAMENTO 000000000000000000N000               000               4000123140001231000000               00000000000000000007309201801220000001I                               
01BRSTENDBS020114STEN-DEB32  STO ANTONIO D32       018PREMIO RF      20171220000002058114635000000000100000000000            000            000            000000000000000000000400012312018012220172017100SEM TRATAMENTO 000000000000000000N000               000               4000123140001231000000               00000000000000000007309201801220000001I                               
99PROD9999BOVESPA 999920180119000000066                                                                                                                                                                                                                                                                                                                                                     
