00PROD9999BOVESPA 99992018011820180119                                                                                                                                                                                                                                                                                                                                                      
01BRCATPBDR003125CATP34      CATERPILLAR DRN       010DIVIDENDO      20171213000000170675568900000000100000000000            000            000            000000000000000000000400012312018022720172017100SEM TRATAMENTO 000000000000000000N000               000               4000123140001231000000               00000000000000000006296201801190000001I                               
01BRECOACRA234100ECOA-CRAA7  ECO SEC AGROAA7     MB016JUROS RF       20180118000003860643000000000000100000000000            000            000            000000000000000000000400012312018011920182018100SEM TRATAMENTO 000000000000000000N000               000               4000123140001231000000               00000000000000000000129201801190000001I                               
01BRECOACRA242100ECOA-CRAA8  ECO SEC AGROAA8     MB016JUROS RF       20180118000003901204000000000000100000000000            000            000            000000000000000000000400012312018011920182018100SEM TRATAMENTO 000000000000000000N000               000               4000123140001231000000               00000000000000000000129201801190000001I                               
01BRGWIRCTF022123GWIR11      FII GWI RI  CI        014RENDIMENTO     20180118000000211000000000000000100000000000            000            000            000000000000000000000400012312018012920182018100SEM TRATAMENTO 000000000000000000N000               000               2018011820180118000000               00000000000000000008387201801190000001I                               
01BRTBOFCTF006154TBOF11      FII TBOFFICECI        014RENDIMENTO     20180118000000015158803582000000100000000000            000            000            000000000000000000000400012312018013120172017100SEM TRATAMENTO 000000000000000000N000               000               2018011820180118000000               00000000000000000006098201801190000001I                               
01BRMOARACNOR5196MOAR3       MONT ARANHA ON        010DIVIDENDO      20180115000000155086582700000000100000000000            000            000            000000000000000000000400012312018020120182018100SEM TRATAMENTO 000000000000000000N000               000               4000123140001231000000               00000000000000000008387201801190000001I                               
01BRMOARACNOR5196MOAR3       MONT ARANHA ON        013JRS CAP PROPRIO20180115000000048974710300000000100000000000            000            000            000000000000000000000400012312018020120182018100SEM TRATAMENTO 000000000000000000N000               000               4000123140001231000000               00000000000000000008387201801190000002I                               
99PROD9999BOVESPA 999920180118000000009                                                                                                                                                                                                                                                                                                                                                     
