00PROD9999BOVESPA 99992018012620180129                                                                                                                                                                                                                                                                                                                                                      
01BRBRGEACNOR6200BRGE3       ALFA CONSORCON        010DIVIDENDO      20180122000000000145000000000000100000000000            000            000            000000000000000000000400012314000123120172017100SEM TRATAMENTO 000000000000000000N000               000               4000123140001231000000               00000000000000000006062201801290000001I                               
01BRBRGEACNPA9205BRGE5       ALFA CONSORCPNA       010DIVIDENDO      20180122000000017886000000000000100000000000            000            000            000000000000000000000400012314000123120172017100SEM TRATAMENTO 000000000000000000N000               000               4000123140001231000000               00000000000000000006062201801290000001I                               
01BRBRGEACNPB7206BRGE6       ALFA CONSORCPNB       010DIVIDENDO      20180122000000042979000000000000100000000000            000            000            000000000000000000000400012314000123120172017100SEM TRATAMENTO 000000000000000000N000               000               4000123140001231000000               00000000000000000006062201801290000001I                               
01BRBRGEACNPC5207BRGE7       ALFA CONSORCPNC       010DIVIDENDO      20180122000000025093000000000000100000000000            000            000            000000000000000000000400012314000123120172017100SEM TRATAMENTO 000000000000000000N000               000               4000123140001231000000               00000000000000000006062201801290000001I                               
01BRBRGEACNPD3208BRGE8       ALFA CONSORCPND       010DIVIDENDO      20180122000000017886000000000000100000000000            000            000            000000000000000000000400012314000123120172017100SEM TRATAMENTO 000000000000000000N000               000               4000123140001231000000               00000000000000000006062201801290000001I                               
01BRBRGEACNPE1099BRGE11      ALFA CONSORCPNE       010DIVIDENDO      20180122000000021516000000000000100000000000            000            000            000000000000000000000400012314000123120172017100SEM TRATAMENTO 000000000000000000N000               000               4000123140001231000000               00000000000000000006062201801290000001I                               
01BRBRGEACNPF8094BRGE12      ALFA CONSORCPNF       010DIVIDENDO      20180122000000000159000000000000100000000000            000            000            000000000000000000000400012314000123120172017100SEM TRATAMENTO 000000000000000000N000               000               4000123140001231000000               00000000000000000006062201801290000001I                               
01BRCRIVACNOR4190CRIV3       ALFA FINANC ON        013JRS CAP PROPRIO20180122000000003373000000000000100000000000            000            000            000000000000000000000400012314000123120172017100SEM TRATAMENTO 000000000000000000N000               000               4000123140001231000000               00000000000000000006062201801290000001I                               
01BRCRIVACNPR1198CRIV4       ALFA FINANC PN        013JRS CAP PROPRIO20180122000000018275000000000000100000000000            000            000            000000000000000000000400012314000123120172017100SEM TRATAMENTO 000000000000000000N000               000               4000123140001231000000               00000000000000000006062201801290000001I                               
01BRRPADACNPA4205RPAD5       ALFA HOLDINGPNA       010DIVIDENDO      20180122000000032595000000000000100000000000            000            000            000000000000000000000400012314000123120172017100SEM TRATAMENTO 000000000000000000N000               000               4000123140001231000000               00000000000000000006062201801290000001I                               
01BRBRIVACNPR3205BRIV4       ALFA INVEST PN        013JRS CAP PROPRIO20180122000000027183000000000000100000000000            000            000            000000000000000000000400012314000123120172017100SEM TRATAMENTO 000000000000000000N000               000               4000123140001231000000               00000000000000000006062201801290000001I                               
01BRAPCSCRI291107APCS-CRI82  APICESECURITC82       016JUROS RF       20180126000000522126160000000000100000000000            000            000            000000000000000000000400012312018012920182018100SEM TRATAMENTO 000000000000000000N000               000               4000123140001231000000               00000000000000000008387201801290000001I                               
01BRCEEBACNOR3171CEEB3       COELBA      ON        050SUBSCRICAO     20180126000001486971400000000000100000000000BRCEEBACNOR3172            000BRCEEBD04OR2171000002908000000000201802284000123100000000000SEM TRATAMENTO 000000000000000000N000               000               4000123140001231000000               00000000000000000006098201801290000001I                               
01BRCEEBACNPA6165CEEB5       COELBA      PNA       050SUBSCRICAO     20180126000001486971400000000000100000000000BRCEEBACNPA6166            000BRCEEBD02PA9165000002908000000000201802284000123100000000000SEM TRATAMENTO 000000000000000000N000               000               4000123140001231000000               00000000000000000006098201801290000001I                               
01BRCEEBACNPB4165CEEB6       COELBA      PNB       050SUBSCRICAO     20180126000001486971400000000000100000000000BRCEEBACNPB4166            000BRCEEBD02PB7165000002908000000000201802284000123100000000000SEM TRATAMENTO 000000000000000000N000               000               4000123140001231000000               00000000000000000006098201801290000001I                               
01BRCEEBD02PA9165CEEB11      COELBA      DIR P/A   052EXERCICIO SUBS 20180126000001486971400000000000100000000000BRCEEBR02PA9165BRCEEBACNPA6165            000000002908000000000201802284000123100000000000SEM TRATAMENTO 000000000000000000N000               000               4000123140001231000000               00000000000000000006098201801290000001I                               
01BRCEEBD02PB7165CEEB13      COELBA      DIR P/B   052EXERCICIO SUBS 20180126000001486971400000000000100000000000BRCEEBR02PB7165BRCEEBACNPB4165            000000002908000000000201802284000123100000000000SEM TRATAMENTO 000000000000000000N000               000               4000123140001231000000               00000000000000000006098201801290000001I                               
01BRCEEBD04OR2171CEEB1       COELBA      DIR ORD   052EXERCICIO SUBS 20180126000001486971400000000000100000000000BRCEEBR03OR4171BRCEEBACNOR3171            000000002908000000000201802284000123100000000000SEM TRATAMENTO 000000000000000000N000               000               4000123140001231000000               00000000000000000006098201801290000001I                               
01BROPIMCTF005103OPIM-FID11  FDC BURITI  F11     MB014RENDIMENTO     20180126000000003054916000000000100000000000            000            000            000000000000000000000400012312018012920182018100SEM TRATAMENTO 000000000000000000N000               000               4000123140001231000000               00000000000000000002358201801290000001I                               
01BROPIMCTF005103OPIM-FID11  FDC BURITI  F11     MB017AMORTIZACAO RF 20180126000000021525354000000000100000000000            000            000            000000000000000000000400012312018012920182018100SEM TRATAMENTO 000000000000000000N000               000               4000123140001231000000               00000000000000000002358201801290000002I                               
01BRFDMOBDR008124FDMO34      FORD MOTORS DRN ED    010DIVIDENDO      20180118000000027633802500000000100000000000            000            000            000000000000000000000400012312018030720172017100SEM TRATAMENTO 000000000000000000N000               000               4000123140001231000000               00000000000000000002257201801290000001I                               
01BRMSBRBDR008118MSBR34      MORGAN STAN DRN       010DIVIDENDO      20180118000000053201550400000000100000000000            000            000            000000000000000000000400012312018022620172017100SEM TRATAMENTO 000000000000000000N000               000               4000123140001231000000               00000000000000000006095201801290000001I                               
01BRTEXABDR003109TEXA34      TEXAS INC   DRN       010DIVIDENDO      20180118000000131767337100000000100000000000            000            000            000000000000000000000400012312018022220172017100SEM TRATAMENTO 000000000000000000N000               000               4000123140001231000000               00000000000000000006095201801290000001I                               
99PROD9999BOVESPA 999920180126000000025                                                                                                                                                                                                                                                                                                                                                     
