00PESC0129CBLC    01292018012220180122
0120180122BBDC4       0003380V00404772000000000000100216018290000013456 VIS000000037430000001             BRBBDCACNPR8000BCO BRADESCOPN      N1C 1              
0120180122BBDC4       0003390V00404772000000000000200216018290000013456 VIS000000037430000001             BRBBDCACNPR8000BCO BRADESCOPN      N1C 1              
0120180122BBDC4       0003430V00404772000000000000500216018290000013456 VIS000000037430000001             BRBBDCACNPR8000BCO BRADESCOPN      N1C 1              
0120180122BBDC4       0003450V00404772000000000000200216018290000013456 VIS000000037430000001             BRBBDCACNPR8000BCO BRADESCOPN      N1C 1              
0120180122BBDC4       0003460V00404772000000000000300216018290000013456 VIS000000037430000001             BRBBDCACNPR8000BCO BRADESCOPN      N1C 1              
0120180122BBDC4       0003470V00404772000000000000400216018290000013456 VIS000000037430000001             BRBBDCACNPR8000BCO BRADESCOPN      N1C 1              
0120180122BBDC4       0003550V00404772000000000001000216018290000013456 VIS000000037440000001             BRBBDCACNPR8000BCO BRADESCOPN      N1C 1              
0120180122BBDC4       0003560V00404772000000000001000216018290000013456 VIS000000037440000001             BRBBDCACNPR8000BCO BRADESCOPN      N1C 1              
0120180122BBDC4       0003670V00404772000000000001000216018290000013456 VIS000000037420000001             BRBBDCACNPR8000BCO BRADESCOPN      N1C 1              
0120180122BBDC4       0003680V00404772000000000001000216018290000013456 VIS000000037420000001             BRBBDCACNPR8000BCO BRADESCOPN      N1C 1              
0120180122BBDC4       0003890V00404772000000000000100216018290000013456 VIS000000037380000001             BRBBDCACNPR8000BCO BRADESCOPN      N1C 1              
0120180122BBDC4       0003980V00404772000000000000100216018290000013456 VIS000000037400000001             BRBBDCACNPR8000BCO BRADESCOPN      N1C 1              
0120180122BBDC4       0004010V00404772000000000000400216018290000013456 VIS000000037410000001             BRBBDCACNPR8000BCO BRADESCOPN      N1C 1              
0120180122BBDC4       0004020V00404772000000000000100216018290000013456 VIS000000037410000001             BRBBDCACNPR8000BCO BRADESCOPN      N1C 1              
0120180122BBDC4       0004030V00404772000000000000400216018290000013456 VIS000000037410000001             BRBBDCACNPR8000BCO BRADESCOPN      N1C 1              
0120180122BBDC4       0004040V00404772000000000000100216018290000013456 VIS000000037410000001             BRBBDCACNPR8000BCO BRADESCOPN      N1C 1              
0120180122BBDC4       0004060V00404772000000000000400216018290000013456 VIS000000037410000001             BRBBDCACNPR8000BCO BRADESCOPN      N1C 1              
0120180122BBDC4       0004120V00404772000000000001000216018290000013456 VIS000000037400000001             BRBBDCACNPR8000BCO BRADESCOPN      N1C 1              
0120180122BBDC4       0004130V00404772000000000001000216018290000013456 VIS000000037400000001             BRBBDCACNPR8000BCO BRADESCOPN      N1C 1              
0120180122BBDC4       0004480V00404772000000000000400216018290000013456 VIS000000037370000001             BRBBDCACNPR8000BCO BRADESCOPN      N1C 1              
0120180122BBDC4       0004490V00404772000000000000300216018290000013456 VIS000000037370000001             BRBBDCACNPR8000BCO BRADESCOPN      N1C 1              
0120180122BBDC4       0054590C00404772000000000000400216018290000013456 VIS000000037310000001             BRBBDCACNPR8000BCO BRADESCOPN      N1C 1              
0120180122BBDC4       0054600C00404772000000000000100216018290000013456 VIS000000037320000001             BRBBDCACNPR8000BCO BRADESCOPN      N1C 1              
0120180122BBDC4       0054610C00404772000000000000100216018290000013456 VIS000000037320000001             BRBBDCACNPR8000BCO BRADESCOPN      N1C 1              
0120180122BBDC4       0054620C00404772000000000000100216018290000013456 VIS000000037320000001             BRBBDCACNPR8000BCO BRADESCOPN      N1C 1              
0120180122BBDC4       0054630C00404772000000000000100216018290000013456 VIS000000037320000001             BRBBDCACNPR8000BCO BRADESCOPN      N1C 1              
0120180122BBDC4       0054640C00404772000000000001000216018290000013456 VIS000000037320000001             BRBBDCACNPR8000BCO BRADESCOPN      N1C 1              
0120180122BBDC4       0054650C00404772000000000001000216018290000013456 VIS000000037320000001             BRBBDCACNPR8000BCO BRADESCOPN      N1C 1              
0120180122BBDC4       0054660C00404772000000000001000216018290000013456 VIS000000037320000001             BRBBDCACNPR8000BCO BRADESCOPN      N1C 1              
0120180122BBDC4       0054690C00404772000000000001000216018290000013456 VIS000000037320000001             BRBBDCACNPR8000BCO BRADESCOPN      N1C 1              
0120180122BBDC4       0054720C00404772000000000001000216018290000013456 VIS000000037320000001             BRBBDCACNPR8000BCO BRADESCOPN      N1C 1              
0120180122BBDC4       0054730C00404772000000000001000216018290000013456 VIS000000037320000001             BRBBDCACNPR8000BCO BRADESCOPN      N1C 1              
0120180122BBDC4       0054760C00404772000000000001000216018290000013456 VIS000000037320000001             BRBBDCACNPR8000BCO BRADESCOPN      N1C 1              
0120180122BBDC4       0054770C00404772000000000001000216018290000013456 VIS000000037320000001             BRBBDCACNPR8000BCO BRADESCOPN      N1C 1              
0120180122BBDC4       0054780C00404772000000000000300216018290000013456 VIS000000037320000001             BRBBDCACNPR8000BCO BRADESCOPN      N1C 1              
0120180122BBDC4       0054790C00404772000000000000200216018290000013456 VIS000000037320000001             BRBBDCACNPR8000BCO BRADESCOPN      N1C 1              
0120180122BBDC4       0054800C00404772000000000000500216018290000013456 VIS000000037320000001             BRBBDCACNPR8000BCO BRADESCOPN      N1C 1              
0120180122BBDC4       0055030C00404772000000000000200216018290000013456 VIS000000037320000001             BRBBDCACNPR8000BCO BRADESCOPN      N1C 1              
0120180122BBDC4       0109890C00404772000000000000100216018290000013456 VIS000000037260000001             BRBBDCACNPR8000BCO BRADESCOPN      N1C 1              
0120180122BBDC4       0110560C00404772000000000001000216018290000013456 VIS000000037250000001             BRBBDCACNPR8000BCO BRADESCOPN      N1C 1              
0120180122BBDC4       0114800C00404772000000000000700216018290000013456 VIS000000037280000001             BRBBDCACNPR8000BCO BRADESCOPN      N1C 1              
0120180122BBDC4       0114810C00404772000000000000700216018290000013456 VIS000000037280000001             BRBBDCACNPR8000BCO BRADESCOPN      N1C 1              
0120180122BBDC4       0114860C00404772000000000000300216018290000013456 VIS000000037280000001             BRBBDCACNPR8000BCO BRADESCOPN      N1C 1              
0120180122BBDC4       0114870C00404772000000000000300216018290000013456 VIS000000037280000001             BRBBDCACNPR8000BCO BRADESCOPN      N1C 1              
0120180122BBDC4       0114880C00404772000000000000600216018290000013456 VIS000000037280000001             BRBBDCACNPR8000BCO BRADESCOPN      N1C 1              
0120180122BBDC4       0114890C00404772000000000000100216018290000013456 VIS000000037280000001             BRBBDCACNPR8000BCO BRADESCOPN      N1C 1              
0120180122BBDC4       0114900C00404772000000000000300216018290000013456 VIS000000037280000001             BRBBDCACNPR8000BCO BRADESCOPN      N1C 1              
0120180122BBDC4       0114910C00404772000000000000200216018290000013456 VIS000000037280000001             BRBBDCACNPR8000BCO BRADESCOPN      N1C 1              
0120180122BBDC4       0114960C00404772000000000000700216018290000013456 VIS000000037280000001             BRBBDCACNPR8000BCO BRADESCOPN      N1C 1              
0120180122BPAC11      0006170V00402320000000000000100216001290000402320 VIS000000020510000001             BRBPACUNT006000BCO BTG PACTUNT         1              
0120180122BPAC11      0006180V00402320000000000000100216001290000402320 VIS000000020510000001             BRBPACUNT006000BCO BTG PACTUNT         1              
0120180122BPAC11      0006190V00402320000000000000800216001290000402320 VIS000000020500000001             BRBPACUNT006000BCO BTG PACTUNT         1              
0120180122ITUB4       0003120C00404772000000000000100216018290000013456 VIS000000047230000001             BRITUBACNPR1000ITAU UNIBANCPN      N1C 1              
0120180122ITUB4       0003140C00404772000000000000100216018290000013456 VIS000000047230000001             BRITUBACNPR1000ITAU UNIBANCPN      N1C 1              
0120180122ITUB4       0003150C00404772000000000000300216018290000013456 VIS000000047230000001             BRITUBACNPR1000ITAU UNIBANCPN      N1C 1              
0120180122ITUB4       0003160C00404772000000000000100216018290000013456 VIS000000047230000001             BRITUBACNPR1000ITAU UNIBANCPN      N1C 1              
0120180122ITUB4       0003170C00404772000000000000200216018290000013456 VIS000000047230000001             BRITUBACNPR1000ITAU UNIBANCPN      N1C 1              
0120180122ITUB4       0003180C00404772000000000000200216018290000013456 VIS000000047250000001             BRITUBACNPR1000ITAU UNIBANCPN      N1C 1              
0120180122ITUB4       0003190C00404772000000000000100216018290000013456 VIS000000047260000001             BRITUBACNPR1000ITAU UNIBANCPN      N1C 1              
0120180122ITUB4       0003200C00404772000000000000100216018290000013456 VIS000000047260000001             BRITUBACNPR1000ITAU UNIBANCPN      N1C 1              
0120180122ITUB4       0003210C00404772000000000000200216018290000013456 VIS000000047250000001             BRITUBACNPR1000ITAU UNIBANCPN      N1C 1              
0120180122ITUB4       0003240C00404772000000000000100216018290000013456 VIS000000047240000001             BRITUBACNPR1000ITAU UNIBANCPN      N1C 1              
0120180122ITUB4       0003250C00404772000000000000700216018290000013456 VIS000000047240000001             BRITUBACNPR1000ITAU UNIBANCPN      N1C 1              
0120180122ITUB4       0003260C00404772000000000000200216018290000013456 VIS000000047240000001             BRITUBACNPR1000ITAU UNIBANCPN      N1C 1              
0120180122ITUB4       0003270C00404772000000000000100216018290000013456 VIS000000047240000001             BRITUBACNPR1000ITAU UNIBANCPN      N1C 1              
0120180122ITUB4       0003280C00404772000000000000100216018290000013456 VIS000000047240000001             BRITUBACNPR1000ITAU UNIBANCPN      N1C 1              
0120180122ITUB4       0003300C00404772000000000000400216018290000013456 VIS000000047250000001             BRITUBACNPR1000ITAU UNIBANCPN      N1C 1              
0120180122ITUB4       0003360C00404772000000000000800216018290000013456 VIS000000047210000001             BRITUBACNPR1000ITAU UNIBANCPN      N1C 1              
0120180122ITUB4       0003380C00404772000000000000100216018290000013456 VIS000000047210000001             BRITUBACNPR1000ITAU UNIBANCPN      N1C 1              
0120180122ITUB4       0003390C00404772000000000000100216018290000013456 VIS000000047210000001             BRITUBACNPR1000ITAU UNIBANCPN      N1C 1              
0120180122ITUB4       0003400C00404772000000000000100216018290000013456 VIS000000047210000001             BRITUBACNPR1000ITAU UNIBANCPN      N1C 1              
0120180122ITUB4       0003410C00404772000000000000500216018290000013456 VIS000000047220000001             BRITUBACNPR1000ITAU UNIBANCPN      N1C 1              
0120180122ITUB4       0003580C00404772000000000000100216018290000013456 VIS000000047220000001             BRITUBACNPR1000ITAU UNIBANCPN      N1C 1              
0120180122ITUB4       0003590C00404772000000000000300216018290000013456 VIS000000047230000001             BRITUBACNPR1000ITAU UNIBANCPN      N1C 1              
0120180122ITUB4       0003600C00404772000000000000100216018290000013456 VIS000000047230000001             BRITUBACNPR1000ITAU UNIBANCPN      N1C 1              
0120180122ITUB4       0003610C00404772000000000000300216018290000013456 VIS000000047230000001             BRITUBACNPR1000ITAU UNIBANCPN      N1C 1              
0120180122ITUB4       0003620C00404772000000000000100216018290000013456 VIS000000047230000001             BRITUBACNPR1000ITAU UNIBANCPN      N1C 1              
0120180122ITUB4       0003630C00404772000000000000100216018290000013456 VIS000000047230000001             BRITUBACNPR1000ITAU UNIBANCPN      N1C 1              
0120180122ITUB4       0003640C00404772000000000000200216018290000013456 VIS000000047230000001             BRITUBACNPR1000ITAU UNIBANCPN      N1C 1              
0120180122ITUB4       0003700C00404772000000000000800216018290000013456 VIS000000047220000001             BRITUBACNPR1000ITAU UNIBANCPN      N1C 1              
0120180122ITUB4       0003720C00404772000000000000100216018290000013456 VIS000000047220000001             BRITUBACNPR1000ITAU UNIBANCPN      N1C 1              
0120180122ITUB4       0003740C00404772000000000000100216018290000013456 VIS000000047220000001             BRITUBACNPR1000ITAU UNIBANCPN      N1C 1              
0120180122ITUB4       0003750C00404772000000000000100216018290000013456 VIS000000047220000001             BRITUBACNPR1000ITAU UNIBANCPN      N1C 1              
0120180122ITUB4       0003760C00404772000000000000500216018290000013456 VIS000000047220000001             BRITUBACNPR1000ITAU UNIBANCPN      N1C 1              
0120180122ITUB4       0003860C00404772000000000000100216018290000013456 VIS000000047180000001             BRITUBACNPR1000ITAU UNIBANCPN      N1C 1              
0120180122ITUB4       0003870C00404772000000000000300216018290000013456 VIS000000047180000001             BRITUBACNPR1000ITAU UNIBANCPN      N1C 1              
0120180122ITUB4       0003880C00404772000000000000100216018290000013456 VIS000000047180000001             BRITUBACNPR1000ITAU UNIBANCPN      N1C 1              
0120180122ITUB4       0003890C00404772000000000000100216018290000013456 VIS000000047180000001             BRITUBACNPR1000ITAU UNIBANCPN      N1C 1              
0120180122ITUB4       0039640V00404772000000000000300216018290000013456 VIS000000047300000001             BRITUBACNPR1000ITAU UNIBANCPN      N1C 1              
0120180122ITUB4       0039710V00404772000000000000100216018290000013456 VIS000000047320000001             BRITUBACNPR1000ITAU UNIBANCPN      N1C 1              
0120180122ITUB4       0039720V00404772000000000000100216018290000013456 VIS000000047320000001             BRITUBACNPR1000ITAU UNIBANCPN      N1C 1              
0120180122ITUB4       0039730V00404772000000000000100216018290000013456 VIS000000047320000001             BRITUBACNPR1000ITAU UNIBANCPN      N1C 1              
0120180122ITUB4       0039740V00404772000000000000800216018290000013456 VIS000000047310000001             BRITUBACNPR1000ITAU UNIBANCPN      N1C 1              
0120180122ITUB4       0039750V00404772000000000000800216018290000013456 VIS000000047310000001             BRITUBACNPR1000ITAU UNIBANCPN      N1C 1              
0120180122ITUB4       0039760V00404772000000000000800216018290000013456 VIS000000047310000001             BRITUBACNPR1000ITAU UNIBANCPN      N1C 1              
0120180122ITUB4       0039770V00404772000000000000500216018290000013456 VIS000000047310000001             BRITUBACNPR1000ITAU UNIBANCPN      N1C 1              
0120180122ITUB4       0039780V00404772000000000000200216018290000013456 VIS000000047310000001             BRITUBACNPR1000ITAU UNIBANCPN      N1C 1              
0120180122ITUB4       0039790V00404772000000000000100216018290000013456 VIS000000047310000001             BRITUBACNPR1000ITAU UNIBANCPN      N1C 1              
0120180122ITUB4       0039810V00404772000000000000800216018290000013456 VIS000000047310000001             BRITUBACNPR1000ITAU UNIBANCPN      N1C 1              
0120180122ITUB4       0039820V00404772000000000000100216018290000013456 VIS000000047310000001             BRITUBACNPR1000ITAU UNIBANCPN      N1C 1              
0120180122ITUB4       0039850V00404772000000000000100216018290000013456 VIS000000047310000001             BRITUBACNPR1000ITAU UNIBANCPN      N1C 1              
0120180122ITUB4       0039860V00404772000000000000600216018290000013456 VIS000000047310000001             BRITUBACNPR1000ITAU UNIBANCPN      N1C 1              
0120180122ITUB4       0039890V00404772000000000000800216018290000013456 VIS000000047310000001             BRITUBACNPR1000ITAU UNIBANCPN      N1C 1              
0120180122ITUB4       0039900V00404772000000000000600216018290000013456 VIS000000047310000001             BRITUBACNPR1000ITAU UNIBANCPN      N1C 1              
0120180122ITUB4       0039910V00404772000000000000200216018290000013456 VIS000000047310000001             BRITUBACNPR1000ITAU UNIBANCPN      N1C 1              
0120180122ITUB4       0039920V00404772000000000000300216018290000013456 VIS000000047310000001             BRITUBACNPR1000ITAU UNIBANCPN      N1C 1              
0120180122ITUB4       0039930V00404772000000000000100216018290000013456 VIS000000047310000001             BRITUBACNPR1000ITAU UNIBANCPN      N1C 1              
0120180122ITUB4       0039940V00404772000000000000400216018290000013456 VIS000000047310000001             BRITUBACNPR1000ITAU UNIBANCPN      N1C 1              
0120180122ITUB4       0040090V00404772000000000000200216018290000013456 VIS000000047310000001             BRITUBACNPR1000ITAU UNIBANCPN      N1C 1              
0120180122ITUB4       0107390V00404772000000000000100216018290000013456 VIS000000047710000001             BRITUBACNPR1000ITAU UNIBANCPN      N1C 1              
0120180122ITUB4       0107750V00404772000000000000500216018290000013456 VIS000000047700000001             BRITUBACNPR1000ITAU UNIBANCPN      N1C 1              
0120180122ITUB4       0107920V00404772000000000000300216018290000013456 VIS000000047690000001             BRITUBACNPR1000ITAU UNIBANCPN      N1C 1              
0120180122ITUB4       0111450V00404772000000000000400216018290000013456 VIS000000047740000001             BRITUBACNPR1000ITAU UNIBANCPN      N1C 1              
0120180122ITUB4       0111460V00404772000000000000100216018290000013456 VIS000000047740000001             BRITUBACNPR1000ITAU UNIBANCPN      N1C 1              
0120180122ITUB4       0111480V00404772000000000000600216018290000013456 VIS000000047740000001             BRITUBACNPR1000ITAU UNIBANCPN      N1C 1              
0120180122ITUB4       0111500V00404772000000000000200216018290000013456 VIS000000047740000001             BRITUBACNPR1000ITAU UNIBANCPN      N1C 1              
0120180122ITUB4       0111520V00404772000000000000100216018290000013456 VIS000000047740000001             BRITUBACNPR1000ITAU UNIBANCPN      N1C 1              
0120180122ITUB4       0111530V00404772000000000000200216018290000013456 VIS000000047740000001             BRITUBACNPR1000ITAU UNIBANCPN      N1C 1              
0120180122ITUB4       0111540V00404772000000000000100216018290000013456 VIS000000047740000001             BRITUBACNPR1000ITAU UNIBANCPN      N1C 1              
0120180122ITUB4       0111550V00404772000000000000400216018290000013456 VIS000000047740000001             BRITUBACNPR1000ITAU UNIBANCPN      N1C 1              
0120180122ITUB4       0111560V00404772000000000000300216018290000013456 VIS000000047740000001             BRITUBACNPR1000ITAU UNIBANCPN      N1C 1              
0120180122ITUB4       0111570V00404772000000000000100216018290000013456 VIS000000047740000001             BRITUBACNPR1000ITAU UNIBANCPN      N1C 1              
0120180122ITUB4       0111580V00404772000000000000600216018290000013456 VIS000000047740000001             BRITUBACNPR1000ITAU UNIBANCPN      N1C 1              
99PESC0129CBLC    012920180122000000125
