00PESC0129CBLC    01292018011020180110
0120180110BBDC4       0023960V00392391000000000000100216001290000392391 VIS000000035000000001             BRBBDCACNPR8000BCO BRADESCOPN  EJ  N1  1              
0120180110BBDC4       0023970V00392391000000000000500216001290000392391 VIS000000035000000001             BRBBDCACNPR8000BCO BRADESCOPN  EJ  N1  1              
0120180110BBDC4       0023980V00392391000000000000100216001290000392391 VIS000000035000000001             BRBBDCACNPR8000BCO BRADESCOPN  EJ  N1  1              
0120180110BBDC4       0023990V00392391000000000000100216001290000392391 VIS000000035000000001             BRBBDCACNPR8000BCO BRADESCOPN  EJ  N1  1              
0120180110BBDC4       0024020V00354724000000000000400216001290000354724 VIS000000035000000001             BRBBDCACNPR8000BCO BRADESCOPN  EJ  N1  1              
0120180110BBDC4       0024020V00392391000000000000600216001290000392391 VIS000000035000000001             BRBBDCACNPR8000BCO BRADESCOPN  EJ  N1  1              
0120180110BBDC4       0024030V00354724000000000000500216001290000354724 VIS000000035000000001             BRBBDCACNPR8000BCO BRADESCOPN  EJ  N1  1              
0120180110BBDC4       0024040V00354724000000000000500216001290000354724 VIS000000035000000001             BRBBDCACNPR8000BCO BRADESCOPN  EJ  N1  1              
0120180110BBDC4       0030060V00392391000000000001000216001290000392391 VIS000000034940000001             BRBBDCACNPR8000BCO BRADESCOPN  EJ  N1  1              
0120180110BBDC4       0030120V00354724000000000001000216001290000354724 VIS000000034940000001             BRBBDCACNPR8000BCO BRADESCOPN  EJ  N1  1              
0120180110BBDC4       0030330V00354724000000000000050216001290000354724 VIS000000034960000001             BRBBDCACNPR8000BCO BRADESCOPN  EJ  N1  1              
0120180110BBDC4       0030330V00392391000000000000050216001290000392391 VIS000000034960000001             BRBBDCACNPR8000BCO BRADESCOPN  EJ  N1  1              
0120180110BBDC4       0082310V00354724000000000000150216001290000354724 VIS000000035040000001             BRBBDCACNPR8000BCO BRADESCOPN  EJ  N1  1              
0120180110BBDC4       0082310V00392391000000000000150216001290000392391 VIS000000035040000001             BRBBDCACNPR8000BCO BRADESCOPN  EJ  N1  1              
0120180110BBDC4       0082890V00392391000000000001000216001290000392391 VIS000000035050000001             BRBBDCACNPR8000BCO BRADESCOPN  EJ  N1  1              
0120180110BBDC4       0082920V00354724000000000001000216001290000354724 VIS000000035050000001             BRBBDCACNPR8000BCO BRADESCOPN  EJ  N1  1              
0120180110BBDC4       0082960V00392391000000000001000216001290000392391 VIS000000035060000001             BRBBDCACNPR8000BCO BRADESCOPN  EJ  N1  1              
0120180110BBDC4       0083010V00392391000000000001000216001290000392391 VIS000000035060000001             BRBBDCACNPR8000BCO BRADESCOPN  EJ  N1  1              
0120180110BBDC4       0083030V00392391000000000000300216001290000392391 VIS000000035060000001             BRBBDCACNPR8000BCO BRADESCOPN  EJ  N1  1              
0120180110BBDC4       0083040V00354724000000000000150216001290000354724 VIS000000035060000001             BRBBDCACNPR8000BCO BRADESCOPN  EJ  N1  1              
0120180110BBDC4       0083040V00392391000000000000050216001290000392391 VIS000000035060000001             BRBBDCACNPR8000BCO BRADESCOPN  EJ  N1  1              
0120180110BBDC4       0083050V00354724000000000000300216001290000354724 VIS000000035060000001             BRBBDCACNPR8000BCO BRADESCOPN  EJ  N1  1              
0120180110BBDC4       0083070V00354724000000000000500216001290000354724 VIS000000035060000001             BRBBDCACNPR8000BCO BRADESCOPN  EJ  N1  1              
0120180110BBDC4       0083080V00354724000000000000300216001290000354724 VIS000000035060000001             BRBBDCACNPR8000BCO BRADESCOPN  EJ  N1  1              
0120180110BBDC4       0083500V00354724000000000000300216001290000354724 VIS000000035060000001             BRBBDCACNPR8000BCO BRADESCOPN  EJ  N1  1              
0120180110BBDC4       0083510V00354724000000000000200216001290000354724 VIS000000035060000001             BRBBDCACNPR8000BCO BRADESCOPN  EJ  N1  1              
0120180110BBDC4       0083520V00354724000000000000300216001290000354724 VIS000000035060000001             BRBBDCACNPR8000BCO BRADESCOPN  EJ  N1  1              
0120180110BBDC4       0083530V00354724000000000000200216001290000354724 VIS000000035060000001             BRBBDCACNPR8000BCO BRADESCOPN  EJ  N1  1              
0120180110BBDC4       0083540V00354724000000000000100216001290000354724 VIS000000035060000001             BRBBDCACNPR8000BCO BRADESCOPN  EJ  N1  1              
0120180110BBDC4       0083570V00392391000000000001000216001290000392391 VIS000000035070000001             BRBBDCACNPR8000BCO BRADESCOPN  EJ  N1  1              
0120180110BBDC4       0083580V00392391000000000001000216001290000392391 VIS000000035070000001             BRBBDCACNPR8000BCO BRADESCOPN  EJ  N1  1              
0120180110BBDC4       0083590V00392391000000000001000216001290000392391 VIS000000035070000001             BRBBDCACNPR8000BCO BRADESCOPN  EJ  N1  1              
0120180110BBDC4       0083610V00354724000000000000500216001290000354724 VIS000000035070000001             BRBBDCACNPR8000BCO BRADESCOPN  EJ  N1  1              
0120180110BBDC4       0083610V00392391000000000000500216001290000392391 VIS000000035070000001             BRBBDCACNPR8000BCO BRADESCOPN  EJ  N1  1              
0120180110BBDC4       0083620V00354724000000000001000216001290000354724 VIS000000035070000001             BRBBDCACNPR8000BCO BRADESCOPN  EJ  N1  1              
0120180110BBDC4       0083630V00354724000000000001000216001290000354724 VIS000000035070000001             BRBBDCACNPR8000BCO BRADESCOPN  EJ  N1  1              
0120180110BBDC4       0083650V00354724000000000000300216001290000354724 VIS000000035070000001             BRBBDCACNPR8000BCO BRADESCOPN  EJ  N1  1              
0120180110BBDC4       0083660V00354724000000000000300216001290000354724 VIS000000035070000001             BRBBDCACNPR8000BCO BRADESCOPN  EJ  N1  1              
0120180110BBDC4       0083680V00354724000000000000300216001290000354724 VIS000000035070000001             BRBBDCACNPR8000BCO BRADESCOPN  EJ  N1  1              
0120180110BBDC4       0083690V00354724000000000000100216001290000354724 VIS000000035070000001             BRBBDCACNPR8000BCO BRADESCOPN  EJ  N1  1              
0120180110BBDC4       0083880V00354724000000000000500216001290000354724 VIS000000035080000001             BRBBDCACNPR8000BCO BRADESCOPN  EJ  N1  1              
0120180110BBDC4       0083880V00392391000000000000500216001290000392391 VIS000000035080000001             BRBBDCACNPR8000BCO BRADESCOPN  EJ  N1  1              
0120180110BBDC4       0084010V00354724000000000000050216001290000354724 VIS000000035090000001             BRBBDCACNPR8000BCO BRADESCOPN  EJ  N1  1              
0120180110BBDC4       0084010V00392391000000000000050216001290000392391 VIS000000035090000001             BRBBDCACNPR8000BCO BRADESCOPN  EJ  N1  1              
0120180110BBDC4       0112590C00392391000000000000100216001290000392391 VIS000000034870000001             BRBBDCACNPR8000BCO BRADESCOPN  EJ  N1  1              
0120180110BBDC4       0112700C00354724000000000000150216001290000354724 VIS000000034870000001             BRBBDCACNPR8000BCO BRADESCOPN  EJ  N1  1              
0120180110BBDC4       0112700C00392391000000000000050216001290000392391 VIS000000034870000001             BRBBDCACNPR8000BCO BRADESCOPN  EJ  N1  1              
0120180110BBDC4       0112930C00392391000000000000600216001290000392391 VIS000000034900000001             BRBBDCACNPR8000BCO BRADESCOPN  EJ  N1  1              
0120180110BBDC4       0113050C00354724000000000000100216001290000354724 VIS000000034890000001             BRBBDCACNPR8000BCO BRADESCOPN  EJ  N1  1              
0120180110BBDC4       0113050C00392391000000000000200216001290000392391 VIS000000034890000001             BRBBDCACNPR8000BCO BRADESCOPN  EJ  N1  1              
0120180110BBDC4       0113170C00354724000000000000100216001290000354724 VIS000000034890000001             BRBBDCACNPR8000BCO BRADESCOPN  EJ  N1  1              
0120180110BBDC4       0114270C00354724000000000000500216001290000354724 VIS000000034910000001             BRBBDCACNPR8000BCO BRADESCOPN  EJ  N1  1              
0120180110BBDC4       0114270C00392391000000000000500216001290000392391 VIS000000034910000001             BRBBDCACNPR8000BCO BRADESCOPN  EJ  N1  1              
0120180110BBDC4       0114690C00392391000000000001000216001290000392391 VIS000000034900000001             BRBBDCACNPR8000BCO BRADESCOPN  EJ  N1  1              
0120180110BBDC4       0114720C00392391000000000001000216001290000392391 VIS000000034900000001             BRBBDCACNPR8000BCO BRADESCOPN  EJ  N1  1              
0120180110BBDC4       0115200C00392391000000000001000216001290000392391 VIS000000034900000001             BRBBDCACNPR8000BCO BRADESCOPN  EJ  N1  1              
0120180110BBDC4       0115230C00392391000000000001000216001290000392391 VIS000000034900000001             BRBBDCACNPR8000BCO BRADESCOPN  EJ  N1  1              
0120180110BBDC4       0115520C00392391000000000001000216001290000392391 VIS000000034900000001             BRBBDCACNPR8000BCO BRADESCOPN  EJ  N1  1              
0120180110BBDC4       0115530C00392391000000000001000216001290000392391 VIS000000034900000001             BRBBDCACNPR8000BCO BRADESCOPN  EJ  N1  1              
0120180110BBDC4       0115550C00392391000000000000200216001290000392391 VIS000000034900000001             BRBBDCACNPR8000BCO BRADESCOPN  EJ  N1  1              
0120180110BBDC4       0115560C00392391000000000000600216001290000392391 VIS000000034900000001             BRBBDCACNPR8000BCO BRADESCOPN  EJ  N1  1              
0120180110BBDC4       0115570C00392391000000000000400216001290000392391 VIS000000034900000001             BRBBDCACNPR8000BCO BRADESCOPN  EJ  N1  1              
0120180110BBDC4       0115580C00392391000000000001000216001290000392391 VIS000000034900000001             BRBBDCACNPR8000BCO BRADESCOPN  EJ  N1  1              
0120180110BBDC4       0115590C00354724000000000000650216001290000354724 VIS000000034900000001             BRBBDCACNPR8000BCO BRADESCOPN  EJ  N1  1              
0120180110BBDC4       0115590C00392391000000000000350216001290000392391 VIS000000034900000001             BRBBDCACNPR8000BCO BRADESCOPN  EJ  N1  1              
0120180110BBDC4       0115620C00354724000000000000200216001290000354724 VIS000000034900000001             BRBBDCACNPR8000BCO BRADESCOPN  EJ  N1  1              
0120180110BBDC4       0115630C00354724000000000001000216001290000354724 VIS000000034900000001             BRBBDCACNPR8000BCO BRADESCOPN  EJ  N1  1              
0120180110BBDC4       0115640C00354724000000000001000216001290000354724 VIS000000034900000001             BRBBDCACNPR8000BCO BRADESCOPN  EJ  N1  1              
0120180110BBDC4       0115650C00354724000000000000500216001290000354724 VIS000000034900000001             BRBBDCACNPR8000BCO BRADESCOPN  EJ  N1  1              
0120180110BBDC4       0115680C00354724000000000000500216001290000354724 VIS000000034900000001             BRBBDCACNPR8000BCO BRADESCOPN  EJ  N1  1              
0120180110BBDC4       0115720C00354724000000000001000216001290000354724 VIS000000034900000001             BRBBDCACNPR8000BCO BRADESCOPN  EJ  N1  1              
0120180110BBDC4       0115730C00354724000000000001000216001290000354724 VIS000000034900000001             BRBBDCACNPR8000BCO BRADESCOPN  EJ  N1  1              
0120180110BBDC4       0115740C00354724000000000001000216001290000354724 VIS000000034900000001             BRBBDCACNPR8000BCO BRADESCOPN  EJ  N1  1              
0120180110BBDC4       0115790C00354724000000000001000216001290000354724 VIS000000034900000001             BRBBDCACNPR8000BCO BRADESCOPN  EJ  N1  1              
0120180110BBDC4       0115800C00354724000000000000500216001290000354724 VIS000000034900000001             BRBBDCACNPR8000BCO BRADESCOPN  EJ  N1  1              
0120180110BBDC4       0115810C00354724000000000000700216001290000354724 VIS000000034900000001             BRBBDCACNPR8000BCO BRADESCOPN  EJ  N1  1              
0120180110BBDC4       0115840C00354724000000000000100216001290000354724 VIS000000034900000001             BRBBDCACNPR8000BCO BRADESCOPN  EJ  N1  1              
0120180110ITUB4       0026150C00392391000000000000100216001290000392391 VIS000000044410000001             BRITUBACNPR1000ITAU UNIBANCPN  ED  N1  1              
0120180110ITUB4       0026160C00392391000000000000400216001290000392391 VIS000000044410000001             BRITUBACNPR1000ITAU UNIBANCPN  ED  N1  1              
0120180110ITUB4       0026170C00392391000000000000100216001290000392391 VIS000000044410000001             BRITUBACNPR1000ITAU UNIBANCPN  ED  N1  1              
0120180110ITUB4       0026190C00354724000000000000050216001290000354724 VIS000000044410000001             BRITUBACNPR1000ITAU UNIBANCPN  ED  N1  1              
0120180110ITUB4       0026190C00392391000000000000250216001290000392391 VIS000000044410000001             BRITUBACNPR1000ITAU UNIBANCPN  ED  N1  1              
0120180110ITUB4       0026200C00354724000000000000100216001290000354724 VIS000000044410000001             BRITUBACNPR1000ITAU UNIBANCPN  ED  N1  1              
0120180110ITUB4       0026210C00354724000000000000100216001290000354724 VIS000000044410000001             BRITUBACNPR1000ITAU UNIBANCPN  ED  N1  1              
0120180110ITUB4       0026220C00354724000000000000100216001290000354724 VIS000000044410000001             BRITUBACNPR1000ITAU UNIBANCPN  ED  N1  1              
0120180110ITUB4       0026230C00354724000000000000100216001290000354724 VIS000000044410000001             BRITUBACNPR1000ITAU UNIBANCPN  ED  N1  1              
0120180110ITUB4       0026240C00354724000000000000100216001290000354724 VIS000000044410000001             BRITUBACNPR1000ITAU UNIBANCPN  ED  N1  1              
0120180110ITUB4       0026250C00354724000000000000100216001290000354724 VIS000000044410000001             BRITUBACNPR1000ITAU UNIBANCPN  ED  N1  1              
0120180110ITUB4       0026260C00354724000000000000100216001290000354724 VIS000000044410000001             BRITUBACNPR1000ITAU UNIBANCPN  ED  N1  1              
0120180110ITUB4       0026270C00354724000000000000100216001290000354724 VIS000000044410000001             BRITUBACNPR1000ITAU UNIBANCPN  ED  N1  1              
0120180110ITUB4       0026280C00354724000000000000150216001290000354724 VIS000000044420000001             BRITUBACNPR1000ITAU UNIBANCPN  ED  N1  1              
0120180110ITUB4       0026280C00392391000000000000250216001290000392391 VIS000000044420000001             BRITUBACNPR1000ITAU UNIBANCPN  ED  N1  1              
0120180110ITUB4       0026290C00354724000000000000100216001290000354724 VIS000000044420000001             BRITUBACNPR1000ITAU UNIBANCPN  ED  N1  1              
0120180110ITUB4       0032650C00354724000000000000350216001290000354724 VIS000000044340000001             BRITUBACNPR1000ITAU UNIBANCPN  ED  N1  1              
0120180110ITUB4       0032650C00392391000000000000450216001290000392391 VIS000000044340000001             BRITUBACNPR1000ITAU UNIBANCPN  ED  N1  1              
0120180110ITUB4       0032790C00354724000000000000100216001290000354724 VIS000000044340000001             BRITUBACNPR1000ITAU UNIBANCPN  ED  N1  1              
0120180110ITUB4       0032800C00354724000000000000300216001290000354724 VIS000000044360000001             BRITUBACNPR1000ITAU UNIBANCPN  ED  N1  1              
0120180110ITUB4       0032800C00392391000000000000400216001290000392391 VIS000000044360000001             BRITUBACNPR1000ITAU UNIBANCPN  ED  N1  1              
0120180110ITUB4       0032880C00354724000000000000100216001290000354724 VIS000000044360000001             BRITUBACNPR1000ITAU UNIBANCPN  ED  N1  1              
0120180110ITUB4       0096560C00354724000000000000150216001290000354724 VIS000000044460000001             BRITUBACNPR1000ITAU UNIBANCPN  ED  N1  1              
0120180110ITUB4       0096560C00392391000000000000150216001290000392391 VIS000000044460000001             BRITUBACNPR1000ITAU UNIBANCPN  ED  N1  1              
0120180110ITUB4       0097790C00392391000000000000200216001290000392391 VIS000000044470000001             BRITUBACNPR1000ITAU UNIBANCPN  ED  N1  1              
0120180110ITUB4       0097800C00392391000000000000300216001290000392391 VIS000000044470000001             BRITUBACNPR1000ITAU UNIBANCPN  ED  N1  1              
0120180110ITUB4       0097810C00392391000000000000300216001290000392391 VIS000000044470000001             BRITUBACNPR1000ITAU UNIBANCPN  ED  N1  1              
0120180110ITUB4       0097870C00354724000000000000200216001290000354724 VIS000000044470000001             BRITUBACNPR1000ITAU UNIBANCPN  ED  N1  1              
0120180110ITUB4       0097880C00354724000000000000500216001290000354724 VIS000000044470000001             BRITUBACNPR1000ITAU UNIBANCPN  ED  N1  1              
0120180110ITUB4       0097890C00354724000000000000100216001290000354724 VIS000000044470000001             BRITUBACNPR1000ITAU UNIBANCPN  ED  N1  1              
0120180110ITUB4       0097980C00392391000000000000300216001290000392391 VIS000000044480000001             BRITUBACNPR1000ITAU UNIBANCPN  ED  N1  1              
0120180110ITUB4       0097990C00392391000000000000400216001290000392391 VIS000000044480000001             BRITUBACNPR1000ITAU UNIBANCPN  ED  N1  1              
0120180110ITUB4       0098000C00392391000000000000100216001290000392391 VIS000000044480000001             BRITUBACNPR1000ITAU UNIBANCPN  ED  N1  1              
0120180110ITUB4       0098070C00354724000000000000100216001290000354724 VIS000000044480000001             BRITUBACNPR1000ITAU UNIBANCPN  ED  N1  1              
0120180110ITUB4       0098070C00392391000000000000300216001290000392391 VIS000000044480000001             BRITUBACNPR1000ITAU UNIBANCPN  ED  N1  1              
0120180110ITUB4       0098080C00354724000000000000100216001290000354724 VIS000000044480000001             BRITUBACNPR1000ITAU UNIBANCPN  ED  N1  1              
0120180110ITUB4       0098090C00354724000000000000100216001290000354724 VIS000000044480000001             BRITUBACNPR1000ITAU UNIBANCPN  ED  N1  1              
0120180110ITUB4       0098100C00354724000000000000100216001290000354724 VIS000000044480000001             BRITUBACNPR1000ITAU UNIBANCPN  ED  N1  1              
0120180110ITUB4       0098110C00354724000000000000100216001290000354724 VIS000000044480000001             BRITUBACNPR1000ITAU UNIBANCPN  ED  N1  1              
0120180110ITUB4       0098180C00354724000000000000200216001290000354724 VIS000000044480000001             BRITUBACNPR1000ITAU UNIBANCPN  ED  N1  1              
0120180110ITUB4       0098190C00354724000000000000100216001290000354724 VIS000000044480000001             BRITUBACNPR1000ITAU UNIBANCPN  ED  N1  1              
0120180110ITUB4       0098200C00354724000000000000100216001290000354724 VIS000000044480000001             BRITUBACNPR1000ITAU UNIBANCPN  ED  N1  1              
0120180110ITUB4       0098210C00354724000000000000200216001290000354724 VIS000000044480000001             BRITUBACNPR1000ITAU UNIBANCPN  ED  N1  1              
0120180110ITUB4       0098390C00392391000000000000400216001290000392391 VIS000000044490000001             BRITUBACNPR1000ITAU UNIBANCPN  ED  N1  1              
0120180110ITUB4       0098400C00392391000000000000100216001290000392391 VIS000000044490000001             BRITUBACNPR1000ITAU UNIBANCPN  ED  N1  1              
0120180110ITUB4       0098410C00392391000000000000100216001290000392391 VIS000000044490000001             BRITUBACNPR1000ITAU UNIBANCPN  ED  N1  1              
0120180110ITUB4       0098420C00354724000000000000150216001290000354724 VIS000000044490000001             BRITUBACNPR1000ITAU UNIBANCPN  ED  N1  1              
0120180110ITUB4       0098420C00392391000000000000150216001290000392391 VIS000000044490000001             BRITUBACNPR1000ITAU UNIBANCPN  ED  N1  1              
0120180110ITUB4       0098430C00354724000000000000100216001290000354724 VIS000000044490000001             BRITUBACNPR1000ITAU UNIBANCPN  ED  N1  1              
0120180110ITUB4       0098440C00354724000000000000300216001290000354724 VIS000000044490000001             BRITUBACNPR1000ITAU UNIBANCPN  ED  N1  1              
0120180110ITUB4       0098460C00354724000000000000100216001290000354724 VIS000000044490000001             BRITUBACNPR1000ITAU UNIBANCPN  ED  N1  1              
0120180110ITUB4       0098470C00354724000000000000100216001290000354724 VIS000000044490000001             BRITUBACNPR1000ITAU UNIBANCPN  ED  N1  1              
0120180110ITUB4       0098480C00392391000000000000200216001290000392391 VIS000000044500000001             BRITUBACNPR1000ITAU UNIBANCPN  ED  N1  1              
0120180110ITUB4       0098490C00392391000000000000500216001290000392391 VIS000000044500000001             BRITUBACNPR1000ITAU UNIBANCPN  ED  N1  1              
0120180110ITUB4       0098500C00392391000000000000100216001290000392391 VIS000000044500000001             BRITUBACNPR1000ITAU UNIBANCPN  ED  N1  1              
0120180110ITUB4       0098520C00392391000000000000800216001290000392391 VIS000000044500000001             BRITUBACNPR1000ITAU UNIBANCPN  ED  N1  1              
0120180110ITUB4       0098540C00392391000000000000100216001290000392391 VIS000000044500000001             BRITUBACNPR1000ITAU UNIBANCPN  ED  N1  1              
0120180110ITUB4       0098550C00392391000000000000200216001290000392391 VIS000000044500000001             BRITUBACNPR1000ITAU UNIBANCPN  ED  N1  1              
0120180110ITUB4       0098560C00392391000000000000200216001290000392391 VIS000000044500000001             BRITUBACNPR1000ITAU UNIBANCPN  ED  N1  1              
0120180110ITUB4       0098570C00392391000000000000300216001290000392391 VIS000000044500000001             BRITUBACNPR1000ITAU UNIBANCPN  ED  N1  1              
0120180110ITUB4       0098580C00392391000000000000300216001290000392391 VIS000000044500000001             BRITUBACNPR1000ITAU UNIBANCPN  ED  N1  1              
0120180110ITUB4       0098590C00354724000000000000400216001290000354724 VIS000000044500000001             BRITUBACNPR1000ITAU UNIBANCPN  ED  N1  1              
0120180110ITUB4       0098590C00392391000000000000100216001290000392391 VIS000000044500000001             BRITUBACNPR1000ITAU UNIBANCPN  ED  N1  1              
0120180110ITUB4       0098600C00354724000000000000200216001290000354724 VIS000000044500000001             BRITUBACNPR1000ITAU UNIBANCPN  ED  N1  1              
0120180110ITUB4       0098610C00354724000000000000600216001290000354724 VIS000000044500000001             BRITUBACNPR1000ITAU UNIBANCPN  ED  N1  1              
0120180110ITUB4       0098640C00354724000000000000100216001290000354724 VIS000000044500000001             BRITUBACNPR1000ITAU UNIBANCPN  ED  N1  1              
0120180110ITUB4       0098650C00354724000000000000200216001290000354724 VIS000000044500000001             BRITUBACNPR1000ITAU UNIBANCPN  ED  N1  1              
0120180110ITUB4       0098660C00354724000000000000400216001290000354724 VIS000000044500000001             BRITUBACNPR1000ITAU UNIBANCPN  ED  N1  1              
0120180110ITUB4       0098670C00354724000000000000100216001290000354724 VIS000000044500000001             BRITUBACNPR1000ITAU UNIBANCPN  ED  N1  1              
0120180110ITUB4       0098690C00354724000000000000300216001290000354724 VIS000000044500000001             BRITUBACNPR1000ITAU UNIBANCPN  ED  N1  1              
0120180110ITUB4       0098700C00354724000000000000200216001290000354724 VIS000000044500000001             BRITUBACNPR1000ITAU UNIBANCPN  ED  N1  1              
0120180110ITUB4       0098760C00354724000000000000200216001290000354724 VIS000000044500000001             BRITUBACNPR1000ITAU UNIBANCPN  ED  N1  1              
0120180110ITUB4       0098770C00354724000000000000100216001290000354724 VIS000000044500000001             BRITUBACNPR1000ITAU UNIBANCPN  ED  N1  1              
0120180110ITUB4       0098830C00354724000000000000400216001290000354724 VIS000000044510000001             BRITUBACNPR1000ITAU UNIBANCPN  ED  N1  1              
0120180110ITUB4       0098830C00392391000000000000400216001290000392391 VIS000000044510000001             BRITUBACNPR1000ITAU UNIBANCPN  ED  N1  1              
0120180110ITUB4       0099170C00354724000000000000050216001290000354724 VIS000000044530000001             BRITUBACNPR1000ITAU UNIBANCPN  ED  N1  1              
0120180110ITUB4       0099170C00392391000000000000050216001290000392391 VIS000000044530000001             BRITUBACNPR1000ITAU UNIBANCPN  ED  N1  1              
0120180110ITUB4       0134620V00392391000000000000100216001290000392391 VIS000000044450000001             BRITUBACNPR1000ITAU UNIBANCPN  ED  N1  1              
0120180110ITUB4       0134780V00354724000000000000100216001290000354724 VIS000000044450000001             BRITUBACNPR1000ITAU UNIBANCPN  ED  N1  1              
0120180110ITUB4       0135610V00392391000000000000500216001290000392391 VIS000000044490000001             BRITUBACNPR1000ITAU UNIBANCPN  ED  N1  1              
0120180110ITUB4       0135730V00354724000000000000050216001290000354724 VIS000000044480000001             BRITUBACNPR1000ITAU UNIBANCPN  ED  N1  1              
0120180110ITUB4       0135730V00392391000000000000150216001290000392391 VIS000000044480000001             BRITUBACNPR1000ITAU UNIBANCPN  ED  N1  1              
0120180110ITUB4       0135740V00354724000000000000100216001290000354724 VIS000000044480000001             BRITUBACNPR1000ITAU UNIBANCPN  ED  N1  1              
0120180110ITUB4       0136560V00392391000000000000500216001290000392391 VIS000000044500000001             BRITUBACNPR1000ITAU UNIBANCPN  ED  N1  1              
0120180110ITUB4       0136570V00392391000000000000300216001290000392391 VIS000000044500000001             BRITUBACNPR1000ITAU UNIBANCPN  ED  N1  1              
0120180110ITUB4       0136600V00392391000000000000600216001290000392391 VIS000000044500000001             BRITUBACNPR1000ITAU UNIBANCPN  ED  N1  1              
0120180110ITUB4       0136610V00392391000000000000100216001290000392391 VIS000000044500000001             BRITUBACNPR1000ITAU UNIBANCPN  ED  N1  1              
0120180110ITUB4       0136620V00392391000000000000100216001290000392391 VIS000000044500000001             BRITUBACNPR1000ITAU UNIBANCPN  ED  N1  1              
0120180110ITUB4       0136690V00354724000000000000400216001290000354724 VIS000000044500000001             BRITUBACNPR1000ITAU UNIBANCPN  ED  N1  1              
0120180110ITUB4       0136690V00392391000000000000400216001290000392391 VIS000000044500000001             BRITUBACNPR1000ITAU UNIBANCPN  ED  N1  1              
0120180110ITUB4       0136720V00354724000000000000400216001290000354724 VIS000000044500000001             BRITUBACNPR1000ITAU UNIBANCPN  ED  N1  1              
0120180110ITUB4       0136730V00354724000000000000400216001290000354724 VIS000000044500000001             BRITUBACNPR1000ITAU UNIBANCPN  ED  N1  1              
0120180110ITUB4       0136760V00354724000000000000600216001290000354724 VIS000000044500000001             BRITUBACNPR1000ITAU UNIBANCPN  ED  N1  1              
0120180110ITUB4       0136810V00354724000000000000200216001290000354724 VIS000000044500000001             BRITUBACNPR1000ITAU UNIBANCPN  ED  N1  1              
0120180110ITUB4       0136830V00392391000000000000500216001290000392391 VIS000000044490000001             BRITUBACNPR1000ITAU UNIBANCPN  ED  N1  1              
0120180110ITUB4       0136840V00392391000000000000100216001290000392391 VIS000000044490000001             BRITUBACNPR1000ITAU UNIBANCPN  ED  N1  1              
0120180110ITUB4       0136850V00392391000000000000100216001290000392391 VIS000000044490000001             BRITUBACNPR1000ITAU UNIBANCPN  ED  N1  1              
0120180110ITUB4       0136860V00392391000000000000100216001290000392391 VIS000000044490000001             BRITUBACNPR1000ITAU UNIBANCPN  ED  N1  1              
0120180110ITUB4       0136870V00392391000000000000800216001290000392391 VIS000000044490000001             BRITUBACNPR1000ITAU UNIBANCPN  ED  N1  1              
0120180110ITUB4       0136880V00392391000000000000200216001290000392391 VIS000000044490000001             BRITUBACNPR1000ITAU UNIBANCPN  ED  N1  1              
0120180110ITUB4       0136890V00392391000000000000500216001290000392391 VIS000000044490000001             BRITUBACNPR1000ITAU UNIBANCPN  ED  N1  1              
0120180110ITUB4       0136900V00392391000000000000300216001290000392391 VIS000000044490000001             BRITUBACNPR1000ITAU UNIBANCPN  ED  N1  1              
0120180110ITUB4       0136910V00392391000000000000200216001290000392391 VIS000000044490000001             BRITUBACNPR1000ITAU UNIBANCPN  ED  N1  1              
0120180110ITUB4       0136920V00392391000000000000600216001290000392391 VIS000000044490000001             BRITUBACNPR1000ITAU UNIBANCPN  ED  N1  1              
0120180110ITUB4       0136930V00392391000000000000400216001290000392391 VIS000000044490000001             BRITUBACNPR1000ITAU UNIBANCPN  ED  N1  1              
0120180110ITUB4       0136940V00392391000000000000400216001290000392391 VIS000000044490000001             BRITUBACNPR1000ITAU UNIBANCPN  ED  N1  1              
0120180110ITUB4       0136950V00392391000000000000200216001290000392391 VIS000000044490000001             BRITUBACNPR1000ITAU UNIBANCPN  ED  N1  1              
0120180110ITUB4       0136960V00392391000000000000400216001290000392391 VIS000000044490000001             BRITUBACNPR1000ITAU UNIBANCPN  ED  N1  1              
0120180110ITUB4       0136970V00392391000000000000400216001290000392391 VIS000000044490000001             BRITUBACNPR1000ITAU UNIBANCPN  ED  N1  1              
0120180110ITUB4       0136980V00354724000000000000350216001290000354724 VIS000000044490000001             BRITUBACNPR1000ITAU UNIBANCPN  ED  N1  1              
0120180110ITUB4       0136980V00392391000000000000050216001290000392391 VIS000000044490000001             BRITUBACNPR1000ITAU UNIBANCPN  ED  N1  1              
0120180110ITUB4       0136990V00354724000000000000400216001290000354724 VIS000000044490000001             BRITUBACNPR1000ITAU UNIBANCPN  ED  N1  1              
0120180110ITUB4       0137000V00354724000000000000400216001290000354724 VIS000000044490000001             BRITUBACNPR1000ITAU UNIBANCPN  ED  N1  1              
0120180110ITUB4       0137010V00354724000000000000200216001290000354724 VIS000000044490000001             BRITUBACNPR1000ITAU UNIBANCPN  ED  N1  1              
0120180110ITUB4       0137020V00354724000000000000200216001290000354724 VIS000000044490000001             BRITUBACNPR1000ITAU UNIBANCPN  ED  N1  1              
0120180110ITUB4       0137030V00354724000000000000800216001290000354724 VIS000000044490000001             BRITUBACNPR1000ITAU UNIBANCPN  ED  N1  1              
0120180110ITUB4       0137040V00354724000000000000800216001290000354724 VIS000000044490000001             BRITUBACNPR1000ITAU UNIBANCPN  ED  N1  1              
0120180110ITUB4       0137050V00354724000000000000200216001290000354724 VIS000000044490000001             BRITUBACNPR1000ITAU UNIBANCPN  ED  N1  1              
0120180110ITUB4       0137060V00354724000000000000600216001290000354724 VIS000000044490000001             BRITUBACNPR1000ITAU UNIBANCPN  ED  N1  1              
0120180110ITUB4       0137070V00354724000000000000400216001290000354724 VIS000000044490000001             BRITUBACNPR1000ITAU UNIBANCPN  ED  N1  1              
0120180110ITUB4       0137080V00354724000000000000400216001290000354724 VIS000000044490000001             BRITUBACNPR1000ITAU UNIBANCPN  ED  N1  1              
0120180110ITUB4       0137090V00354724000000000000400216001290000354724 VIS000000044490000001             BRITUBACNPR1000ITAU UNIBANCPN  ED  N1  1              
0120180110ITUB4       0137100V00354724000000000000200216001290000354724 VIS000000044490000001             BRITUBACNPR1000ITAU UNIBANCPN  ED  N1  1              
0120180110ITUB4       0137110V00354724000000000000300216001290000354724 VIS000000044490000001             BRITUBACNPR1000ITAU UNIBANCPN  ED  N1  1              
0120180110ITUB4       0137120V00354724000000000000100216001290000354724 VIS000000044490000001             BRITUBACNPR1000ITAU UNIBANCPN  ED  N1  1              
99PESC0129CBLC    012920180110000000204
