00PESC0129CBLC    01292018012920180129
0120180129FESA4       0001170C00402320000000000000120216001290000402320 VIS000000023740000001             BRFESAACNPR5000CIA FERRO LIPN      N1  1              
0120180129FESA4       0001170C00404772000000000000080216018290000013456 VIS000000023740000001             BRFESAACNPR5000CIA FERRO LIPN      N1C 1              
0120180129FESA4       0001190C00402320000000000000480216001290000402320 VIS000000023750000001             BRFESAACNPR5000CIA FERRO LIPN      N1  1              
0120180129FESA4       0001190C00404772000000000000320216018290000013456 VIS000000023750000001             BRFESAACNPR5000CIA FERRO LIPN      N1C 1              
0120180129FESA4       0001860V00402320000000000000600216001290000402320 VIS000000024000000001             BRFESAACNPR5000CIA FERRO LIPN      N1  1              
0120180129FESA4       0001860V00404772000000000000400216018290000013456 VIS000000024000000001             BRFESAACNPR5000CIA FERRO LIPN      N1C 1              
0120180129PETR4       0020040V00402320000000000001500216001290000402320 VIS000000019710000001             BRPETRACNPR6000PETROLEO BRAPN  ATZ     1              
0120180129PETR4       0020050V00402320000000000000200216001290000402320 VIS000000019710000001             BRPETRACNPR6000PETROLEO BRAPN  ATZ     1              
0120180129PETR4       0020060V00402320000000000004300216001290000402320 VIS000000019710000001             BRPETRACNPR6000PETROLEO BRAPN  ATZ     1              
0120180129PETR4       0020060V00404772000000000000700216018290000013456 VIS000000019710000001             BRPETRACNPR6000PETROLEO BRAPN  ATZ   C 1              
0120180129PETR4       0020070V00404772000000000002500216018290000013456 VIS000000019710000001             BRPETRACNPR6000PETROLEO BRAPN  ATZ   C 1              
0120180129PETR4       0020080V00404772000000000000800216018290000013456 VIS000000019710000001             BRPETRACNPR6000PETROLEO BRAPN  ATZ   C 1              
0120180129PETR4       0108710V00402320000000000005900216001290000402320 VIS000000019890000001             BRPETRACNPR6000PETROLEO BRAPN  ATZ     1              
0120180129PETR4       0108720V00402320000000000000100216001290000402320 VIS000000019890000001             BRPETRACNPR6000PETROLEO BRAPN  ATZ     1              
0120180129PETR4       0108720V00404772000000000004000216018290000013456 VIS000000019890000001             BRPETRACNPR6000PETROLEO BRAPN  ATZ   C 1              
0120180129PETR4       0144840C00404772000000000005000216018290000013456 VIS000000019810000001             BRPETRACNPR6000PETROLEO BRAPN  ATZ   C 1              
0120180129PETR4       0144850C00404772000000000000400216018290000013456 VIS000000019810000001             BRPETRACNPR6000PETROLEO BRAPN  ATZ   C 1              
0120180129PETR4       0144860C00404772000000000000200216018290000013456 VIS000000019810000001             BRPETRACNPR6000PETROLEO BRAPN  ATZ   C 1              
0120180129PETR4       0144870C00404772000000000000100216018290000013456 VIS000000019810000001             BRPETRACNPR6000PETROLEO BRAPN  ATZ   C 1              
0120180129PETR4       0144880C00404772000000000000100216018290000013456 VIS000000019810000001             BRPETRACNPR6000PETROLEO BRAPN  ATZ   C 1              
0120180129PETR4       0144900C00402320000000000002000216001290000402320 VIS000000019810000001             BRPETRACNPR6000PETROLEO BRAPN  ATZ     1              
0120180129PETR4       0144900C00404772000000000002200216018290000013456 VIS000000019810000001             BRPETRACNPR6000PETROLEO BRAPN  ATZ   C 1              
0120180129PETR4       0174630V00402320000000000000400216001290000402320 VIS000000019910000001             BRPETRACNPR6000PETROLEO BRAPN  ATZ     1              
0120180129PETR4       0174640V00402320000000000000200216001290000402320 VIS000000019910000001             BRPETRACNPR6000PETROLEO BRAPN  ATZ     1              
0120180129PETR4       0174650V00402320000000000000400216001290000402320 VIS000000019910000001             BRPETRACNPR6000PETROLEO BRAPN  ATZ     1              
0120180129PETR4       0174660V00402320000000000000600216001290000402320 VIS000000019910000001             BRPETRACNPR6000PETROLEO BRAPN  ATZ     1              
0120180129PETR4       0174690V00402320000000000000200216001290000402320 VIS000000019910000001             BRPETRACNPR6000PETROLEO BRAPN  ATZ     1              
0120180129PETR4       0174700V00402320000000000000100216001290000402320 VIS000000019910000001             BRPETRACNPR6000PETROLEO BRAPN  ATZ     1              
0120180129PETR4       0174710V00402320000000000000300216001290000402320 VIS000000019910000001             BRPETRACNPR6000PETROLEO BRAPN  ATZ     1              
0120180129PETR4       0174720V00402320000000000003800216001290000402320 VIS000000019910000001             BRPETRACNPR6000PETROLEO BRAPN  ATZ     1              
0120180129PETR4       0174720V00404772000000000004000216018290000013456 VIS000000019910000001             BRPETRACNPR6000PETROLEO BRAPN  ATZ   C 1              
0120180129PETR4       0239830C00402320000000000010000216001290000402320 VIS000000019810000001             BRPETRACNPR6000PETROLEO BRAPN  ATZ     1              
0120180129PETR4       0413340C00402320000000000001800216001290000402320 VIS000000019700000001             BRPETRACNPR6000PETROLEO BRAPN  ATZ     1              
0120180129PETR4       0413340C00404772000000000002000216018290000013456 VIS000000019700000001             BRPETRACNPR6000PETROLEO BRAPN  ATZ   C 1              
0120180129PETR4       0413350C00402320000000000000500216001290000402320 VIS000000019700000001             BRPETRACNPR6000PETROLEO BRAPN  ATZ     1              
0120180129PETR4       0413360C00402320000000000000700216001290000402320 VIS000000019700000001             BRPETRACNPR6000PETROLEO BRAPN  ATZ     1              
0120180129PETR4       0470720C00402320000000000002300216001290000402320 VIS000000019850000001             BRPETRACNPR6000PETROLEO BRAPN  ATZ     1              
0120180129PETR4       0470720C00404772000000000002000216018290000013456 VIS000000019850000001             BRPETRACNPR6000PETROLEO BRAPN  ATZ   C 1              
0120180129PETR4       0470730C00402320000000000000700216001290000402320 VIS000000019850000001             BRPETRACNPR6000PETROLEO BRAPN  ATZ     1              
0120180129PETRB21     0024780V00402320000000000006000216000000000000000 OPC000000000190000001 PETR4       BRPETRACNPR6000PETROLEO BRAPN   21,00  1              
0120180129PETRB21     0024780V00404772000000000004000216000000000000000 OPC000000000190000001 PETR4       BRPETRACNPR6000PETROLEO BRAPN   21,00  1              
0120180129PETRB21     0032610V00402320000000000001000216000000000000000 OPC000000000170000001 PETR4       BRPETRACNPR6000PETROLEO BRAPN   21,00  1              
0120180129PETRB21     0032610V00404772000000000004000216000000000000000 OPC000000000170000001 PETR4       BRPETRACNPR6000PETROLEO BRAPN   21,00  1              
0120180129PETRB21     0032620V00402320000000000005000216000000000000000 OPC000000000170000001 PETR4       BRPETRACNPR6000PETROLEO BRAPN   21,00  1              
0120180129VALEB449    0001750V00402320000000000006000216000000000000000 OPC000000000250000001 VALE3       BRVALEACNOR0000VALE S.A.   ON   44,99  1              
0120180129VALEB449    0001750V00404772000000000004000216000000000000000 OPC000000000250000001 VALE3       BRVALEACNOR0000VALE S.A.   ON   44,99  1              
0120180129VALEB449    0002790V00402320000000000006000216000000000000000 OPC000000000280000001 VALE3       BRVALEACNOR0000VALE S.A.   ON   44,99  1              
0120180129VALEB449    0002790V00404772000000000004000216000000000000000 OPC000000000280000001 VALE3       BRVALEACNOR0000VALE S.A.   ON   44,99  1              
0120180129VALEB449    0002940V00402320000000000002000216000000000000000 OPC000000000270000001 VALE3       BRVALEACNOR0000VALE S.A.   ON   44,99  1              
0120180129VALEB449    0002950V00402320000000000004000216000000000000000 OPC000000000270000001 VALE3       BRVALEACNOR0000VALE S.A.   ON   44,99  1              
0120180129VALEB449    0002950V00404772000000000003000216000000000000000 OPC000000000270000001 VALE3       BRVALEACNOR0000VALE S.A.   ON   44,99  1              
0120180129VALEB449    0002960V00404772000000000001000216000000000000000 OPC000000000270000001 VALE3       BRVALEACNOR0000VALE S.A.   ON   44,99  1              
99PESC0129CBLC    012920180129000000054
