00ESCS0129SINACOR 01292018012620180126
0120180126PETRB21     0038970V00404772000000000008000216000000000000000 OPC000000000250000001 PETR4       BRPETRACNPR6000PETROLEO BRAPN   21,00  1              
0120180126BBDC4       0006040C00404772000000000000300216018290000013456 VIS000000040180000001             BRBBDCACNPR8000BCO BRADESCOPN      N1  1              
0120180126ITUB4       0621020C00404772000000000000880216018290000013456 VIS000000053120000001             BRITUBACNPR1000ITAU UNIBANCPN      N1  1              
0120180126ITUB4       0255240V00404772000000000000100216018290000013456 VIS000000052690000001             BRITUBACNPR1000ITAU UNIBANCPN      N1  1              
0120180126ITUB4       0007810V00404772000000000000200216018290000013456 VIS000000051200000001             BRITUBACNPR1000ITAU UNIBANCPN      N1  1              
0120180126BBDC4       0414040V00404772000000000001000216018290000013456 VIS000000041000000001             BRBBDCACNPR8000BCO BRADESCOPN      N1  1              
0120180126BBDC4       0332990V00404772000000000000400216018290000013456 VIS000000040870000001             BRBBDCACNPR8000BCO BRADESCOPN      N1  1              
0120180126BBDC4       0006030V00404772000000000000100216018290000013456 VIS000000040180000001             BRBBDCACNPR8000BCO BRADESCOPN      N1  1              
0120180126CSNA3       0099260C00404772000000000000100216018290000013456 VIS000000010810000001             BRCSNAACNOR6000CIA SIDERURGON          1              
0120180126PETR4       0171140C00404772000000000002500216018290000013456 VIS000000019320000001             BRPETRACNPR6000PETROLEO BRAPN  ATZ     1              
0120180126PETR4       0160570C00404772000000000001800216018290000013456 VIS000000019380000001             BRPETRACNPR6000PETROLEO BRAPN  ATZ     1              
0120180126BBDC4       0534880C00404772000000000002300216018290000013456 VIS000000041200000001             BRBBDCACNPR8000BCO BRADESCOPN      N1  1              
0120180126BBDC4       0228520C00404772000000000000500216018290000013456 VIS000000040930000001             BRBBDCACNPR8000BCO BRADESCOPN      N1  1              
0120180126BBDC4       0228450C00404772000000000000300216018290000013456 VIS000000040930000001             BRBBDCACNPR8000BCO BRADESCOPN      N1  1              
0120180126BBDC4       0228420C00404772000000000000200216018290000013456 VIS000000040930000001             BRBBDCACNPR8000BCO BRADESCOPN      N1  1              
0120180126ABCB4       0000540V00404772000000000000080216018290000013456 VIS000000018800000001             BRABCBACNPR4000BCO ABC BRASPN      N2  1              
0120180126VALEB449    0004340C00404772000000000012000216000000000000000 OPC000000000230000001 VALE3       BRVALEACNOR0000VALE S.A.   ON   44,99  1              
0120180126ITUB4       0007620V00404772000000000000800216018290000013456 VIS000000051180000001             BRITUBACNPR1000ITAU UNIBANCPN      N1  1              
0120180126ITUB4       0007600V00404772000000000000400216018290000013456 VIS000000051180000001             BRITUBACNPR1000ITAU UNIBANCPN      N1  1              
0120180126BBDC4       0414000V00404772000000000000100216018290000013456 VIS000000041000000001             BRBBDCACNPR8000BCO BRADESCOPN      N1  1              
0120180126BBDC4       0333010V00404772000000000000236216018290000013456 VIS000000040870000001             BRBBDCACNPR8000BCO BRADESCOPN      N1  1              
0120180126PETR4       0073550V00404772000000000007900216018290000013456 VIS000000019470000001             BRPETRACNPR6000PETROLEO BRAPN  ATZ     1              
0120180126PETR4       0160540C00404772000000000002000216018290000013456 VIS000000019380000001             BRPETRACNPR6000PETROLEO BRAPN  ATZ     1              
0120180126BBDC4       0535040C00404772000000000000112216018290000013456 VIS000000041200000001             BRBBDCACNPR8000BCO BRADESCOPN      N1  1              
0120180126BBDC4       0228880C00404772000000000000100216018290000013456 VIS000000040930000001             BRBBDCACNPR8000BCO BRADESCOPN      N1  1              
0120180126BBDC4       0228850C00404772000000000000100216018290000013456 VIS000000040930000001             BRBBDCACNPR8000BCO BRADESCOPN      N1  1              
0120180126BBDC4       0005950C00404772000000000000500216018290000013456 VIS000000040170000001             BRBBDCACNPR8000BCO BRADESCOPN      N1  1              
0120180126BBDC4       0414010V00404772000000000000100216018290000013456 VIS000000041000000001             BRBBDCACNPR8000BCO BRADESCOPN      N1  1              
0120180126BBDC4       0413980V00404772000000000001800216018290000013456 VIS000000041000000001             BRBBDCACNPR8000BCO BRADESCOPN      N1  1              
0120180126BBDC4       0332930V00404772000000000000279216018290000013456 VIS000000040880000001             BRBBDCACNPR8000BCO BRADESCOPN      N1  1              
0120180126BBDC4       0006090V00404772000000000002994216018290000013456 VIS000000040180000001             BRBBDCACNPR8000BCO BRADESCOPN      N1  1              
0120180126CSNA3       0099310C00404772000000000000800216018290000013456 VIS000000010810000001             BRCSNAACNOR6000CIA SIDERURGON          1              
0120180126CSNA3       0099280C00404772000000000000800216018290000013456 VIS000000010810000001             BRCSNAACNOR6000CIA SIDERURGON          1              
0120180126CSNA3       0099270C00404772000000000000100216018290000013456 VIS000000010810000001             BRCSNAACNOR6000CIA SIDERURGON          1              
0120180126CSNA3       0099250C00404772000000000001900216018290000013456 VIS000000010810000001             BRCSNAACNOR6000CIA SIDERURGON          1              
0120180126PETR4       0160550C00404772000000000000100216018290000013456 VIS000000019380000001             BRPETRACNPR6000PETROLEO BRAPN  ATZ     1              
0120180126BBDC4       0228480C00404772000000000000100216018290000013456 VIS000000040930000001             BRBBDCACNPR8000BCO BRADESCOPN      N1  1              
0120180126CSNAN10     0000850C00404772000000000007400216000000000000000 OPV000000000180000001             BRCSNAACNOR6000CIA SIDERURGON   10,00  1              
0120180126BBDC4       0005940C00404772000000000001000216018290000013456 VIS000000040170000001             BRBBDCACNPR8000BCO BRADESCOPN      N1  1              
0120180126ITUB4       0255250V00404772000000000000400216018290000013456 VIS000000052690000001             BRITUBACNPR1000ITAU UNIBANCPN      N1  1              
0120180126ITUB4       0007580V00404772000000000000800216018290000013456 VIS000000051180000001             BRITUBACNPR1000ITAU UNIBANCPN      N1  1              
0120180126BBDC4       0201800V00404772000000000000100216018290000013456 VIS000000040630000001             BRBBDCACNPR8000BCO BRADESCOPN      N1  1              
0120180126BBDC4       0201790V00404772000000000000100216018290000013456 VIS000000040630000001             BRBBDCACNPR8000BCO BRADESCOPN      N1  1              
0120180126BBDC4       0006040V00404772000000000000300216018290000013456 VIS000000040180000001             BRBBDCACNPR8000BCO BRADESCOPN      N1  1              
0120180126BBDC4       0005900V00404772000000000000500216018290000013456 VIS000000040180000001             BRBBDCACNPR8000BCO BRADESCOPN      N1  1              
0120180126BBDC4       0228840C00404772000000000000100216018290000013456 VIS000000040930000001             BRBBDCACNPR8000BCO BRADESCOPN      N1  1              
0120180126BBDC4       0228770C00404772000000000000200216018290000013456 VIS000000040930000001             BRBBDCACNPR8000BCO BRADESCOPN      N1  1              
0120180126BBDC4       0228500C00404772000000000000100216018290000013456 VIS000000040930000001             BRBBDCACNPR8000BCO BRADESCOPN      N1  1              
0120180126BBDC4       0228430C00404772000000000000300216018290000013456 VIS000000040930000001             BRBBDCACNPR8000BCO BRADESCOPN      N1  1              
0120180126ABCB4       0000610V00404772000000000000200216018290000013456 VIS000000018810000001             BRABCBACNPR4000BCO ABC BRASPN      N2  1              
0120180126ABCB4       0000590V00404772000000000000020216018290000013456 VIS000000018810000001             BRABCBACNPR4000BCO ABC BRASPN      N2  1              
0120180126BBDC4       0005970C00404772000000000000400216018290000013456 VIS000000040170000001             BRBBDCACNPR8000BCO BRADESCOPN      N1  1              
0120180126ITUB4       0391350C00404772000000000002000216018290000013456 VIS000000052500000001             BRITUBACNPR1000ITAU UNIBANCPN      N1  1              
0120180126ITUB4       0007650V00404772000000000000800216018290000013456 VIS000000051180000001             BRITUBACNPR1000ITAU UNIBANCPN      N1  1              
0120180126ITUB4       0007630V00404772000000000000500216018290000013456 VIS000000051180000001             BRITUBACNPR1000ITAU UNIBANCPN      N1  1              
0120180126ITUB4       0007570V00404772000000000000100216018290000013456 VIS000000051170000001             BRITUBACNPR1000ITAU UNIBANCPN      N1  1              
0120180126BBDC4       0201830V00404772000000000000497216018290000013456 VIS000000040630000001             BRBBDCACNPR8000BCO BRADESCOPN      N1  1              
0120180126BBDC4       0201810V00404772000000000000600216018290000013456 VIS000000040630000001             BRBBDCACNPR8000BCO BRADESCOPN      N1  1              
0120180126PETR4       0780040V00404772000000000003500216018290000013456 VIS000000019890000001             BRPETRACNPR6000PETROLEO BRAPN  ATZ     1              
0120180126PETR4       0160560C00404772000000000000100216018290000013456 VIS000000019380000001             BRPETRACNPR6000PETROLEO BRAPN  ATZ     1              
0120180126BBDC4       0534890C00404772000000000002700216018290000013456 VIS000000041200000001             BRBBDCACNPR8000BCO BRADESCOPN      N1  1              
0120180126BBDC4       0230160C00404772000000000004088216018290000013456 VIS000000040930000001             BRBBDCACNPR8000BCO BRADESCOPN      N1  1              
0120180126BBDC4       0228410C00404772000000000000700216018290000013456 VIS000000040930000001             BRBBDCACNPR8000BCO BRADESCOPN      N1  1              
0120180126CSNAN10     0000840C00404772000000000000600216000000000000000 OPV000000000180000001             BRCSNAACNOR6000CIA SIDERURGON   10,00  1              
0120180126BBDC4       0006000C00404772000000000000600216018290000013456 VIS000000040170000001             BRBBDCACNPR8000BCO BRADESCOPN      N1  1              
0120180126ITUB4       0255230V00404772000000000000100216018290000013456 VIS000000052690000001             BRITUBACNPR1000ITAU UNIBANCPN      N1  1              
0120180126BBDC4       0414050V00404772000000000000494216018290000013456 VIS000000041000000001             BRBBDCACNPR8000BCO BRADESCOPN      N1  1              
0120180126BBDC4       0414020V00404772000000000000100216018290000013456 VIS000000041000000001             BRBBDCACNPR8000BCO BRADESCOPN      N1  1              
0120180126BBDC4       0413990V00404772000000000000100216018290000013456 VIS000000041000000001             BRBBDCACNPR8000BCO BRADESCOPN      N1  1              
0120180126BBDC4       0332970V00404772000000000000100216018290000013456 VIS000000040870000001             BRBBDCACNPR8000BCO BRADESCOPN      N1  1              
0120180126BBDC4       0201780V00404772000000000000600216018290000013456 VIS000000040630000001             BRBBDCACNPR8000BCO BRADESCOPN      N1  1              
0120180126BBDC4       0005910V00404772000000000000100216018290000013456 VIS000000040180000001             BRBBDCACNPR8000BCO BRADESCOPN      N1  1              
0120180126BBDC4       0414030V00404772000000000000300216018290000013456 VIS000000041000000001             BRBBDCACNPR8000BCO BRADESCOPN      N1  1              
0120180126CSNA3       0085600V00404772000000000002200216018290000013456 VIS000000010850000001             BRCSNAACNOR6000CIA SIDERURGON          1              
0120180126BBDC4       0228440C00404772000000000000200216018290000013456 VIS000000040930000001             BRBBDCACNPR8000BCO BRADESCOPN      N1  1              
0120180126ABCB4       0000550V00404772000000000000200216018290000013456 VIS000000018800000001             BRABCBACNPR4000BCO ABC BRASPN      N2  1              
0120180126PETRB21     0035880C00404772000000000016000216000000000000000 OPC000000000240000001 PETR4       BRPETRACNPR6000PETROLEO BRAPN   21,00  1              
0120180126BBDC4       0005960C00404772000000000000100216018290000013456 VIS000000040170000001             BRBBDCACNPR8000BCO BRADESCOPN      N1  1              
0120180126BBDC4       0333000V00404772000000000000400216018290000013456 VIS000000040870000001             BRBBDCACNPR8000BCO BRADESCOPN      N1  1              
0120180126CSNA3       0085610V00404772000000000001800216018290000013456 VIS000000010850000001             BRCSNAACNOR6000CIA SIDERURGON          1              
0120180126PETR4       0073540V00404772000000000000100216018290000013456 VIS000000019470000001             BRPETRACNPR6000PETROLEO BRAPN  ATZ     1              
0120180126PETR4       0908610C00404772000000000004000216018290000013456 VIS000000019930000001             BRPETRACNPR6000PETROLEO BRAPN  ATZ     1              
0120180126BBDC4       0228870C00404772000000000000100216018290000013456 VIS000000040930000001             BRBBDCACNPR8000BCO BRADESCOPN      N1  1              
0120180126BBDC4       0228460C00404772000000000000200216018290000013456 VIS000000040930000001             BRBBDCACNPR8000BCO BRADESCOPN      N1  1              
0120180126BBDC4       0006010C00404772000000000001000216018290000013456 VIS000000040170000001             BRBBDCACNPR8000BCO BRADESCOPN      N1  1              
0120180126BBDC4       0005980C00404772000000000001000216018290000013456 VIS000000040170000001             BRBBDCACNPR8000BCO BRADESCOPN      N1  1              
0120180126BBDC4       0005930C00404772000000000000100216018290000013456 VIS000000040160000001             BRBBDCACNPR8000BCO BRADESCOPN      N1  1              
0120180126ITUB4       0395800C00404772000000000001120216018290000013456 VIS000000052390000001             BRITUBACNPR1000ITAU UNIBANCPN      N1  1              
0120180126ITUB4       0255220V00404772000000000003400216018290000013456 VIS000000052690000001             BRITUBACNPR1000ITAU UNIBANCPN      N1  1              
0120180126ITUB4       0007590V00404772000000000000400216018290000013456 VIS000000051180000001             BRITUBACNPR1000ITAU UNIBANCPN      N1  1              
0120180126BBDC4       0332980V00404772000000000001000216018290000013456 VIS000000040870000001             BRBBDCACNPR8000BCO BRADESCOPN      N1  1              
0120180126BBDC4       0332960V00404772000000000000700216018290000013456 VIS000000040870000001             BRBBDCACNPR8000BCO BRADESCOPN      N1  1              
0120180126BBDC4       0201820V00404772000000000000100216018290000013456 VIS000000040630000001             BRBBDCACNPR8000BCO BRADESCOPN      N1  1              
0120180126CSNA3       0099300C00404772000000000000100216018290000013456 VIS000000010810000001             BRCSNAACNOR6000CIA SIDERURGON          1              
0120180126CSNA3       0099290C00404772000000000000200216018290000013456 VIS000000010810000001             BRCSNAACNOR6000CIA SIDERURGON          1              
0120180126PETR4       0780030V00404772000000000000500216018290000013456 VIS000000019890000001             BRPETRACNPR6000PETROLEO BRAPN  ATZ     1              
0120180126PETR4       0171130C00404772000000000001500216018290000013456 VIS000000019320000001             BRPETRACNPR6000PETROLEO BRAPN  ATZ     1              
0120180126BBDC4       0228760C00404772000000000000500216018290000013456 VIS000000040930000001             BRBBDCACNPR8000BCO BRADESCOPN      N1  1              
0120180126BBDC4       0228490C00404772000000000000100216018290000013456 VIS000000040930000001             BRBBDCACNPR8000BCO BRADESCOPN      N1  1              
0120180126BBDC4       0228470C00404772000000000000100216018290000013456 VIS000000040930000001             BRBBDCACNPR8000BCO BRADESCOPN      N1  1              
0120180126ABCB4       0000600V00404772000000000000200216018290000013456 VIS000000018810000001             BRABCBACNPR4000BCO ABC BRASPN      N2  1              
99ESCS0129SINACOR 012920180126000000103
