00PESC0129CBLC    01292018011020180110
0120180110BBDC4       0030050V00404772000000000001000216018290000013456 VIS000000034940000001             BRBBDCACNPR8000BCO BRADESCOPN  EJ  N1C 1              
0120180110BBDC4       0030110V00402320000000000001000216001290000402320 VIS000000034940000001             BRBBDCACNPR8000BCO BRADESCOPN  EJ  N1  1              
0120180110BBDC4       0030310V00404772000000000000100216018290000013456 VIS000000034960000001             BRBBDCACNPR8000BCO BRADESCOPN  EJ  N1C 1              
0120180110BBDC4       0030320V00402320000000000000500216001290000402320 VIS000000034960000001             BRBBDCACNPR8000BCO BRADESCOPN  EJ  N1  1              
0120180110BBDC4       0030320V00404772000000000000400216018290000013456 VIS000000034960000001             BRBBDCACNPR8000BCO BRADESCOPN  EJ  N1C 1              
0120180110BBDC4       0082320V00402320000000000000050216001290000402320 VIS000000035040000001             BRBBDCACNPR8000BCO BRADESCOPN  EJ  N1  1              
0120180110BBDC4       0082320V00404772000000000000050216018290000013456 VIS000000035040000001             BRBBDCACNPR8000BCO BRADESCOPN  EJ  N1C 1              
0120180110BBDC4       0082900V00404772000000000001000216018290000013456 VIS000000035050000001             BRBBDCACNPR8000BCO BRADESCOPN  EJ  N1C 1              
0120180110BBDC4       0082930V00402320000000000001000216001290000402320 VIS000000035050000001             BRBBDCACNPR8000BCO BRADESCOPN  EJ  N1  1              
0120180110BBDC4       0082980V00404772000000000001000216018290000013456 VIS000000035060000001             BRBBDCACNPR8000BCO BRADESCOPN  EJ  N1C 1              
0120180110BBDC4       0082990V00404772000000000000300216018290000013456 VIS000000035060000001             BRBBDCACNPR8000BCO BRADESCOPN  EJ  N1C 1              
0120180110BBDC4       0083000V00404772000000000000500216018290000013456 VIS000000035060000001             BRBBDCACNPR8000BCO BRADESCOPN  EJ  N1C 1              
0120180110BBDC4       0083020V00402320000000000000600216001290000402320 VIS000000035060000001             BRBBDCACNPR8000BCO BRADESCOPN  EJ  N1  1              
0120180110BBDC4       0083020V00404772000000000000400216018290000013456 VIS000000035060000001             BRBBDCACNPR8000BCO BRADESCOPN  EJ  N1C 1              
0120180110BBDC4       0083060V00402320000000000000300216001290000402320 VIS000000035060000001             BRBBDCACNPR8000BCO BRADESCOPN  EJ  N1  1              
0120180110BBDC4       0083100V00402320000000000000600216001290000402320 VIS000000035060000001             BRBBDCACNPR8000BCO BRADESCOPN  EJ  N1  1              
0120180110BBDC4       0083110V00402320000000000000100216001290000402320 VIS000000035060000001             BRBBDCACNPR8000BCO BRADESCOPN  EJ  N1  1              
0120180110BBDC4       0083120V00402320000000000000100216001290000402320 VIS000000035060000001             BRBBDCACNPR8000BCO BRADESCOPN  EJ  N1  1              
0120180110BBDC4       0083130V00402320000000000000100216001290000402320 VIS000000035060000001             BRBBDCACNPR8000BCO BRADESCOPN  EJ  N1  1              
0120180110BBDC4       0083140V00402320000000000000100216001290000402320 VIS000000035060000001             BRBBDCACNPR8000BCO BRADESCOPN  EJ  N1  1              
0120180110BBDC4       0083150V00402320000000000000100216001290000402320 VIS000000035060000001             BRBBDCACNPR8000BCO BRADESCOPN  EJ  N1  1              
0120180110BBDC4       0083160V00402320000000000000200216001290000402320 VIS000000035060000001             BRBBDCACNPR8000BCO BRADESCOPN  EJ  N1  1              
0120180110BBDC4       0083190V00402320000000000000250216001290000402320 VIS000000035070000001             BRBBDCACNPR8000BCO BRADESCOPN  EJ  N1  1              
0120180110BBDC4       0083190V00404772000000000000250216018290000013456 VIS000000035070000001             BRBBDCACNPR8000BCO BRADESCOPN  EJ  N1C 1              
0120180110BBDC4       0112580C00404772000000000000100216018290000013456 VIS000000034870000001             BRBBDCACNPR8000BCO BRADESCOPN  EJ  N1C 1              
0120180110BBDC4       0112660C00402320000000000000050216001290000402320 VIS000000034870000001             BRBBDCACNPR8000BCO BRADESCOPN  EJ  N1  1              
0120180110BBDC4       0112660C00404772000000000000050216018290000013456 VIS000000034870000001             BRBBDCACNPR8000BCO BRADESCOPN  EJ  N1C 1              
0120180110BBDC4       0112710C00402320000000000000100216001290000402320 VIS000000034870000001             BRBBDCACNPR8000BCO BRADESCOPN  EJ  N1  1              
0120180110BBDC4       0112940C00404772000000000000600216018290000013456 VIS000000034900000001             BRBBDCACNPR8000BCO BRADESCOPN  EJ  N1C 1              
0120180110BBDC4       0113040C00404772000000000000300216018290000013456 VIS000000034890000001             BRBBDCACNPR8000BCO BRADESCOPN  EJ  N1C 1              
0120180110BBDC4       0113140C00404772000000000000100216018290000013456 VIS000000034890000001             BRBBDCACNPR8000BCO BRADESCOPN  EJ  N1C 1              
0120180110BBDC4       0113250C00402320000000000000450216001290000402320 VIS000000034890000001             BRBBDCACNPR8000BCO BRADESCOPN  EJ  N1  1              
0120180110BBDC4       0113250C00404772000000000000050216018290000013456 VIS000000034890000001             BRBBDCACNPR8000BCO BRADESCOPN  EJ  N1C 1              
0120180110BBDC4       0114280C00402320000000000000500216001290000402320 VIS000000034910000001             BRBBDCACNPR8000BCO BRADESCOPN  EJ  N1  1              
0120180110BBDC4       0114280C00404772000000000000500216018290000013456 VIS000000034910000001             BRBBDCACNPR8000BCO BRADESCOPN  EJ  N1C 1              
0120180110BBDC4       0114700C00404772000000000001000216018290000013456 VIS000000034900000001             BRBBDCACNPR8000BCO BRADESCOPN  EJ  N1C 1              
0120180110BBDC4       0114730C00404772000000000001000216018290000013456 VIS000000034900000001             BRBBDCACNPR8000BCO BRADESCOPN  EJ  N1C 1              
0120180110BBDC4       0115210C00404772000000000001000216018290000013456 VIS000000034900000001             BRBBDCACNPR8000BCO BRADESCOPN  EJ  N1C 1              
0120180110BBDC4       0115270C00402320000000000000700216001290000402320 VIS000000034900000001             BRBBDCACNPR8000BCO BRADESCOPN  EJ  N1  1              
0120180110BBDC4       0115270C00404772000000000000300216018290000013456 VIS000000034900000001             BRBBDCACNPR8000BCO BRADESCOPN  EJ  N1C 1              
0120180110BBDC4       0115910C00402320000000000000200216001290000402320 VIS000000034900000001             BRBBDCACNPR8000BCO BRADESCOPN  EJ  N1  1              
0120180110BBDC4       0115940C00402320000000000001000216001290000402320 VIS000000034900000001             BRBBDCACNPR8000BCO BRADESCOPN  EJ  N1  1              
0120180110BBDC4       0115950C00402320000000000001000216001290000402320 VIS000000034900000001             BRBBDCACNPR8000BCO BRADESCOPN  EJ  N1  1              
0120180110BBDC4       0116040C00402320000000000001000216001290000402320 VIS000000034900000001             BRBBDCACNPR8000BCO BRADESCOPN  EJ  N1  1              
0120180110BBDC4       0145720C00404772000000000000100216018290000013456 VIS000000034840000001             BRBBDCACNPR8000BCO BRADESCOPN  EJ  N1C 1              
0120180110BBDC4       0145730C00404772000000000000900216018290000013456 VIS000000034840000001             BRBBDCACNPR8000BCO BRADESCOPN  EJ  N1C 1              
0120180110BBDC4       0145740C00404772000000000000300216018290000013456 VIS000000034840000001             BRBBDCACNPR8000BCO BRADESCOPN  EJ  N1C 1              
0120180110BBDC4       0145750C00404772000000000000100216018290000013456 VIS000000034840000001             BRBBDCACNPR8000BCO BRADESCOPN  EJ  N1C 1              
0120180110BBDC4       0145760C00404772000000000000100216018290000013456 VIS000000034840000001             BRBBDCACNPR8000BCO BRADESCOPN  EJ  N1C 1              
0120180110BBDC4       0145770C00404772000000000000300216018290000013456 VIS000000034840000001             BRBBDCACNPR8000BCO BRADESCOPN  EJ  N1C 1              
0120180110BBDC4       0145780C00404772000000000000100216018290000013456 VIS000000034840000001             BRBBDCACNPR8000BCO BRADESCOPN  EJ  N1C 1              
0120180110BBDC4       0145880C00404772000000000000800216018290000013456 VIS000000034850000001             BRBBDCACNPR8000BCO BRADESCOPN  EJ  N1C 1              
0120180110BBDC4       0145890C00404772000000000000200216018290000013456 VIS000000034850000001             BRBBDCACNPR8000BCO BRADESCOPN  EJ  N1C 1              
0120180110BBDC4       0145900C00402320000000000000400216001290000402320 VIS000000034850000001             BRBBDCACNPR8000BCO BRADESCOPN  EJ  N1  1              
0120180110BBDC4       0145900C00404772000000000000600216018290000013456 VIS000000034850000001             BRBBDCACNPR8000BCO BRADESCOPN  EJ  N1C 1              
0120180110BBDC4       0145920C00402320000000000000100216001290000402320 VIS000000034850000001             BRBBDCACNPR8000BCO BRADESCOPN  EJ  N1  1              
0120180110BBDC4       0145930C00404772000000000000100216018290000013456 VIS000000034860000001             BRBBDCACNPR8000BCO BRADESCOPN  EJ  N1C 1              
0120180110BBDC4       0145940C00402320000000000000050216001290000402320 VIS000000034860000001             BRBBDCACNPR8000BCO BRADESCOPN  EJ  N1  1              
0120180110BBDC4       0145940C00404772000000000000350216018290000013456 VIS000000034860000001             BRBBDCACNPR8000BCO BRADESCOPN  EJ  N1C 1              
0120180110BBDC4       0145950C00402320000000000000100216001290000402320 VIS000000034860000001             BRBBDCACNPR8000BCO BRADESCOPN  EJ  N1  1              
0120180110BBDC4       0145960C00402320000000000000300216001290000402320 VIS000000034860000001             BRBBDCACNPR8000BCO BRADESCOPN  EJ  N1  1              
0120180110BBDC4       0149360C00402320000000000000500216001290000402320 VIS000000034850000001             BRBBDCACNPR8000BCO BRADESCOPN  EJ  N1  1              
0120180110BBDC4       0149380C00402320000000000000300216001290000402320 VIS000000034850000001             BRBBDCACNPR8000BCO BRADESCOPN  EJ  N1  1              
0120180110BBDC4       0149390C00402320000000000000300216001290000402320 VIS000000034850000001             BRBBDCACNPR8000BCO BRADESCOPN  EJ  N1  1              
0120180110BBDC4       0149460C00404772000000000001000216018290000013456 VIS000000034840000001             BRBBDCACNPR8000BCO BRADESCOPN  EJ  N1C 1              
0120180110BBDC4       0149700C00402320000000000000950216001290000402320 VIS000000034840000001             BRBBDCACNPR8000BCO BRADESCOPN  EJ  N1  1              
0120180110BBDC4       0149700C00404772000000000000050216018290000013456 VIS000000034840000001             BRBBDCACNPR8000BCO BRADESCOPN  EJ  N1C 1              
0120180110BBDC4       0149710C00402320000000000001000216001290000402320 VIS000000034840000001             BRBBDCACNPR8000BCO BRADESCOPN  EJ  N1  1              
0120180110BBDC4       0149960C00402320000000000000600216001290000402320 VIS000000034840000001             BRBBDCACNPR8000BCO BRADESCOPN  EJ  N1  1              
0120180110BBDC4       0149990C00402320000000000000400216001290000402320 VIS000000034840000001             BRBBDCACNPR8000BCO BRADESCOPN  EJ  N1  1              
0120180110ITUB4       0032640C00402320000000000000800216001290000402320 VIS000000044340000001             BRITUBACNPR1000ITAU UNIBANCPN  ED  N1  1              
0120180110ITUB4       0032690C00404772000000000000400216018290000013456 VIS000000044340000001             BRITUBACNPR1000ITAU UNIBANCPN  ED  N1C 1              
0120180110ITUB4       0032700C00404772000000000000100216018290000013456 VIS000000044340000001             BRITUBACNPR1000ITAU UNIBANCPN  ED  N1C 1              
0120180110ITUB4       0032710C00404772000000000000200216018290000013456 VIS000000044340000001             BRITUBACNPR1000ITAU UNIBANCPN  ED  N1C 1              
0120180110ITUB4       0032730C00404772000000000000100216018290000013456 VIS000000044340000001             BRITUBACNPR1000ITAU UNIBANCPN  ED  N1C 1              
0120180110ITUB4       0032860C00402320000000000000100216001290000402320 VIS000000044360000001             BRITUBACNPR1000ITAU UNIBANCPN  ED  N1  1              
0120180110ITUB4       0032870C00402320000000000000300216001290000402320 VIS000000044360000001             BRITUBACNPR1000ITAU UNIBANCPN  ED  N1  1              
0120180110ITUB4       0032870C00404772000000000000400216018290000013456 VIS000000044360000001             BRITUBACNPR1000ITAU UNIBANCPN  ED  N1C 1              
0120180110ITUB4       0096570C00402320000000000000050216001290000402320 VIS000000044460000001             BRITUBACNPR1000ITAU UNIBANCPN  ED  N1  1              
0120180110ITUB4       0096570C00404772000000000000050216018290000013456 VIS000000044460000001             BRITUBACNPR1000ITAU UNIBANCPN  ED  N1C 1              
0120180110ITUB4       0097820C00402320000000000000300216001290000402320 VIS000000044470000001             BRITUBACNPR1000ITAU UNIBANCPN  ED  N1  1              
0120180110ITUB4       0097830C00402320000000000000500216001290000402320 VIS000000044470000001             BRITUBACNPR1000ITAU UNIBANCPN  ED  N1  1              
0120180110ITUB4       0097900C00404772000000000000400216018290000013456 VIS000000044470000001             BRITUBACNPR1000ITAU UNIBANCPN  ED  N1C 1              
0120180110ITUB4       0097910C00404772000000000000200216018290000013456 VIS000000044470000001             BRITUBACNPR1000ITAU UNIBANCPN  ED  N1C 1              
0120180110ITUB4       0097920C00404772000000000000200216018290000013456 VIS000000044470000001             BRITUBACNPR1000ITAU UNIBANCPN  ED  N1C 1              
0120180110ITUB4       0097960C00402320000000000000700216001290000402320 VIS000000044480000001             BRITUBACNPR1000ITAU UNIBANCPN  ED  N1  1              
0120180110ITUB4       0097970C00402320000000000000100216001290000402320 VIS000000044480000001             BRITUBACNPR1000ITAU UNIBANCPN  ED  N1  1              
0120180110ITUB4       0098010C00402320000000000000200216001290000402320 VIS000000044480000001             BRITUBACNPR1000ITAU UNIBANCPN  ED  N1  1              
0120180110ITUB4       0098020C00402320000000000000100216001290000402320 VIS000000044480000001             BRITUBACNPR1000ITAU UNIBANCPN  ED  N1  1              
0120180110ITUB4       0098030C00402320000000000000150216001290000402320 VIS000000044480000001             BRITUBACNPR1000ITAU UNIBANCPN  ED  N1  1              
0120180110ITUB4       0098030C00404772000000000000150216018290000013456 VIS000000044480000001             BRITUBACNPR1000ITAU UNIBANCPN  ED  N1C 1              
0120180110ITUB4       0098120C00404772000000000000100216018290000013456 VIS000000044480000001             BRITUBACNPR1000ITAU UNIBANCPN  ED  N1C 1              
0120180110ITUB4       0098130C00404772000000000000200216018290000013456 VIS000000044480000001             BRITUBACNPR1000ITAU UNIBANCPN  ED  N1C 1              
0120180110ITUB4       0098140C00404772000000000000200216018290000013456 VIS000000044480000001             BRITUBACNPR1000ITAU UNIBANCPN  ED  N1C 1              
0120180110ITUB4       0098150C00404772000000000000100216018290000013456 VIS000000044480000001             BRITUBACNPR1000ITAU UNIBANCPN  ED  N1C 1              
0120180110ITUB4       0098160C00404772000000000000100216018290000013456 VIS000000044480000001             BRITUBACNPR1000ITAU UNIBANCPN  ED  N1C 1              
0120180110ITUB4       0098170C00404772000000000000100216018290000013456 VIS000000044480000001             BRITUBACNPR1000ITAU UNIBANCPN  ED  N1C 1              
0120180110ITUB4       0098220C00404772000000000000100216018290000013456 VIS000000044480000001             BRITUBACNPR1000ITAU UNIBANCPN  ED  N1C 1              
0120180110ITUB4       0098230C00404772000000000000200216018290000013456 VIS000000044480000001             BRITUBACNPR1000ITAU UNIBANCPN  ED  N1C 1              
0120180110ITUB4       0098240C00402320000000000000200216001290000402320 VIS000000044490000001             BRITUBACNPR1000ITAU UNIBANCPN  ED  N1  1              
0120180110ITUB4       0098250C00402320000000000000200216001290000402320 VIS000000044490000001             BRITUBACNPR1000ITAU UNIBANCPN  ED  N1  1              
0120180110ITUB4       0098260C00402320000000000000100216001290000402320 VIS000000044490000001             BRITUBACNPR1000ITAU UNIBANCPN  ED  N1  1              
0120180110ITUB4       0098270C00404772000000000000100216018290000013456 VIS000000044490000001             BRITUBACNPR1000ITAU UNIBANCPN  ED  N1C 1              
0120180110ITUB4       0098280C00404772000000000000100216018290000013456 VIS000000044490000001             BRITUBACNPR1000ITAU UNIBANCPN  ED  N1C 1              
0120180110ITUB4       0098290C00404772000000000000100216018290000013456 VIS000000044490000001             BRITUBACNPR1000ITAU UNIBANCPN  ED  N1C 1              
0120180110ITUB4       0098300C00404772000000000000200216018290000013456 VIS000000044490000001             BRITUBACNPR1000ITAU UNIBANCPN  ED  N1C 1              
0120180110ITUB4       0098320C00402320000000000000200216001290000402320 VIS000000044500000001             BRITUBACNPR1000ITAU UNIBANCPN  ED  N1  1              
0120180110ITUB4       0098320C00404772000000000000100216018290000013456 VIS000000044500000001             BRITUBACNPR1000ITAU UNIBANCPN  ED  N1C 1              
0120180110ITUB4       0098330C00404772000000000000100216018290000013456 VIS000000044500000001             BRITUBACNPR1000ITAU UNIBANCPN  ED  N1C 1              
0120180110ITUB4       0134610V00404772000000000000100216018290000013456 VIS000000044450000001             BRITUBACNPR1000ITAU UNIBANCPN  ED  N1C 1              
0120180110ITUB4       0134670V00402320000000000000100216001290000402320 VIS000000044450000001             BRITUBACNPR1000ITAU UNIBANCPN  ED  N1  1              
0120180110ITUB4       0135620V00404772000000000000200216018290000013456 VIS000000044490000001             BRITUBACNPR1000ITAU UNIBANCPN  ED  N1C 1              
0120180110ITUB4       0135630V00404772000000000000300216018290000013456 VIS000000044490000001             BRITUBACNPR1000ITAU UNIBANCPN  ED  N1C 1              
0120180110ITUB4       0135690V00404772000000000000300216018290000013456 VIS000000044480000001             BRITUBACNPR1000ITAU UNIBANCPN  ED  N1C 1              
0120180110ITUB4       0136140V00402320000000000000050216001290000402320 VIS000000044480000001             BRITUBACNPR1000ITAU UNIBANCPN  ED  N1  1              
0120180110ITUB4       0136140V00404772000000000000050216018290000013456 VIS000000044480000001             BRITUBACNPR1000ITAU UNIBANCPN  ED  N1C 1              
0120180110ITUB4       0136150V00402320000000000000300216001290000402320 VIS000000044480000001             BRITUBACNPR1000ITAU UNIBANCPN  ED  N1  1              
0120180110ITUB4       0136580V00404772000000000000500216018290000013456 VIS000000044500000001             BRITUBACNPR1000ITAU UNIBANCPN  ED  N1C 1              
0120180110ITUB4       0136590V00404772000000000000300216018290000013456 VIS000000044500000001             BRITUBACNPR1000ITAU UNIBANCPN  ED  N1C 1              
0120180110ITUB4       0136630V00404772000000000000100216018290000013456 VIS000000044500000001             BRITUBACNPR1000ITAU UNIBANCPN  ED  N1C 1              
0120180110ITUB4       0136640V00404772000000000000100216018290000013456 VIS000000044500000001             BRITUBACNPR1000ITAU UNIBANCPN  ED  N1C 1              
0120180110ITUB4       0136650V00404772000000000000100216018290000013456 VIS000000044500000001             BRITUBACNPR1000ITAU UNIBANCPN  ED  N1C 1              
0120180110ITUB4       0136660V00404772000000000000100216018290000013456 VIS000000044500000001             BRITUBACNPR1000ITAU UNIBANCPN  ED  N1C 1              
0120180110ITUB4       0136670V00404772000000000000400216018290000013456 VIS000000044500000001             BRITUBACNPR1000ITAU UNIBANCPN  ED  N1C 1              
0120180110ITUB4       0136700V00404772000000000000200216018290000013456 VIS000000044500000001             BRITUBACNPR1000ITAU UNIBANCPN  ED  N1C 1              
0120180110ITUB4       0136710V00402320000000000000500216001290000402320 VIS000000044500000001             BRITUBACNPR1000ITAU UNIBANCPN  ED  N1  1              
0120180110ITUB4       0136710V00404772000000000000100216018290000013456 VIS000000044500000001             BRITUBACNPR1000ITAU UNIBANCPN  ED  N1C 1              
0120180110ITUB4       0136740V00402320000000000000600216001290000402320 VIS000000044500000001             BRITUBACNPR1000ITAU UNIBANCPN  ED  N1  1              
0120180110ITUB4       0136750V00402320000000000000200216001290000402320 VIS000000044500000001             BRITUBACNPR1000ITAU UNIBANCPN  ED  N1  1              
0120180110ITUB4       0136820V00402320000000000000600216001290000402320 VIS000000044500000001             BRITUBACNPR1000ITAU UNIBANCPN  ED  N1  1              
0120180110ITUB4       0137200V00404772000000000000100216018290000013456 VIS000000044490000001             BRITUBACNPR1000ITAU UNIBANCPN  ED  N1C 1              
0120180110ITUB4       0137210V00404772000000000000100216018290000013456 VIS000000044490000001             BRITUBACNPR1000ITAU UNIBANCPN  ED  N1C 1              
0120180110ITUB4       0137220V00404772000000000000200216018290000013456 VIS000000044490000001             BRITUBACNPR1000ITAU UNIBANCPN  ED  N1C 1              
0120180110ITUB4       0137260V00402320000000000000050216001290000402320 VIS000000044490000001             BRITUBACNPR1000ITAU UNIBANCPN  ED  N1  1              
0120180110ITUB4       0137260V00404772000000000000750216018290000013456 VIS000000044490000001             BRITUBACNPR1000ITAU UNIBANCPN  ED  N1C 1              
0120180110ITUB4       0137270V00402320000000000000600216001290000402320 VIS000000044490000001             BRITUBACNPR1000ITAU UNIBANCPN  ED  N1  1              
0120180110ITUB4       0137280V00402320000000000000100216001290000402320 VIS000000044490000001             BRITUBACNPR1000ITAU UNIBANCPN  ED  N1  1              
0120180110ITUB4       0137290V00402320000000000000100216001290000402320 VIS000000044490000001             BRITUBACNPR1000ITAU UNIBANCPN  ED  N1  1              
0120180110ITUB4       0137460V00402320000000000000200216001290000402320 VIS000000044490000001             BRITUBACNPR1000ITAU UNIBANCPN  ED  N1  1              
0120180110ITUB4       0137470V00402320000000000000300216001290000402320 VIS000000044490000001             BRITUBACNPR1000ITAU UNIBANCPN  ED  N1  1              
0120180110ITUB4       0137480V00402320000000000000300216001290000402320 VIS000000044490000001             BRITUBACNPR1000ITAU UNIBANCPN  ED  N1  1              
0120180110ITUB4       0178350V00404772000000000000100216018290000013456 VIS000000044560000001             BRITUBACNPR1000ITAU UNIBANCPN  ED  N1C 1              
0120180110ITUB4       0178360V00404772000000000000700216018290000013456 VIS000000044560000001             BRITUBACNPR1000ITAU UNIBANCPN  ED  N1C 1              
0120180110ITUB4       0178370V00404772000000000000100216018290000013456 VIS000000044560000001             BRITUBACNPR1000ITAU UNIBANCPN  ED  N1C 1              
0120180110ITUB4       0178380V00404772000000000000100216018290000013456 VIS000000044560000001             BRITUBACNPR1000ITAU UNIBANCPN  ED  N1C 1              
0120180110ITUB4       0178390V00404772000000000000100216018290000013456 VIS000000044560000001             BRITUBACNPR1000ITAU UNIBANCPN  ED  N1C 1              
0120180110ITUB4       0178400V00404772000000000000100216018290000013456 VIS000000044560000001             BRITUBACNPR1000ITAU UNIBANCPN  ED  N1C 1              
0120180110ITUB4       0178410V00404772000000000000100216018290000013456 VIS000000044560000001             BRITUBACNPR1000ITAU UNIBANCPN  ED  N1C 1              
0120180110ITUB4       0178420V00404772000000000000100216018290000013456 VIS000000044560000001             BRITUBACNPR1000ITAU UNIBANCPN  ED  N1C 1              
0120180110ITUB4       0178430V00404772000000000000100216018290000013456 VIS000000044560000001             BRITUBACNPR1000ITAU UNIBANCPN  ED  N1C 1              
0120180110ITUB4       0178600V00404772000000000000700216018290000013456 VIS000000044580000001             BRITUBACNPR1000ITAU UNIBANCPN  ED  N1C 1              
0120180110ITUB4       0178610V00404772000000000000100216018290000013456 VIS000000044580000001             BRITUBACNPR1000ITAU UNIBANCPN  ED  N1C 1              
0120180110ITUB4       0178620V00404772000000000000200216018290000013456 VIS000000044580000001             BRITUBACNPR1000ITAU UNIBANCPN  ED  N1C 1              
0120180110ITUB4       0178630V00402320000000000000400216001290000402320 VIS000000044580000001             BRITUBACNPR1000ITAU UNIBANCPN  ED  N1  1              
0120180110ITUB4       0178630V00404772000000000000200216018290000013456 VIS000000044580000001             BRITUBACNPR1000ITAU UNIBANCPN  ED  N1C 1              
0120180110ITUB4       0183430V00402320000000000000100216001290000402320 VIS000000044580000001             BRITUBACNPR1000ITAU UNIBANCPN  ED  N1  1              
0120180110ITUB4       0183440V00402320000000000000100216001290000402320 VIS000000044580000001             BRITUBACNPR1000ITAU UNIBANCPN  ED  N1  1              
0120180110ITUB4       0183500V00402320000000000000100216001290000402320 VIS000000044580000001             BRITUBACNPR1000ITAU UNIBANCPN  ED  N1  1              
0120180110ITUB4       0183510V00402320000000000000100216001290000402320 VIS000000044580000001             BRITUBACNPR1000ITAU UNIBANCPN  ED  N1  1              
0120180110ITUB4       0183520V00402320000000000000100216001290000402320 VIS000000044580000001             BRITUBACNPR1000ITAU UNIBANCPN  ED  N1  1              
0120180110ITUB4       0183920V00402320000000000000100216001290000402320 VIS000000044580000001             BRITUBACNPR1000ITAU UNIBANCPN  ED  N1  1              
0120180110ITUB4       0183930V00402320000000000000100216001290000402320 VIS000000044580000001             BRITUBACNPR1000ITAU UNIBANCPN  ED  N1  1              
0120180110ITUB4       0183940V00402320000000000000100216001290000402320 VIS000000044580000001             BRITUBACNPR1000ITAU UNIBANCPN  ED  N1  1              
0120180110ITUB4       0183970V00404772000000000000400216018290000013456 VIS000000044570000001             BRITUBACNPR1000ITAU UNIBANCPN  ED  N1C 1              
0120180110ITUB4       0183980V00402320000000000000150216001290000402320 VIS000000044570000001             BRITUBACNPR1000ITAU UNIBANCPN  ED  N1  1              
0120180110ITUB4       0183980V00404772000000000000050216018290000013456 VIS000000044570000001             BRITUBACNPR1000ITAU UNIBANCPN  ED  N1C 1              
0120180110ITUB4       0183990V00402320000000000000100216001290000402320 VIS000000044570000001             BRITUBACNPR1000ITAU UNIBANCPN  ED  N1  1              
0120180110ITUB4       0184020V00402320000000000000100216001290000402320 VIS000000044570000001             BRITUBACNPR1000ITAU UNIBANCPN  ED  N1  1              
0120180110ITUB4       0184060V00402320000000000000100216001290000402320 VIS000000044570000001             BRITUBACNPR1000ITAU UNIBANCPN  ED  N1  1              
0120180110ITUB4       0184150V00404772000000000000100216018290000013456 VIS000000044560000001             BRITUBACNPR1000ITAU UNIBANCPN  ED  N1C 1              
0120180110ITUB4       0184160V00404772000000000000300216018290000013456 VIS000000044560000001             BRITUBACNPR1000ITAU UNIBANCPN  ED  N1C 1              
0120180110ITUB4       0184170V00404772000000000000100216018290000013456 VIS000000044560000001             BRITUBACNPR1000ITAU UNIBANCPN  ED  N1C 1              
0120180110ITUB4       0184180V00402320000000000000200216001290000402320 VIS000000044560000001             BRITUBACNPR1000ITAU UNIBANCPN  ED  N1  1              
0120180110ITUB4       0184190V00402320000000000000100216001290000402320 VIS000000044560000001             BRITUBACNPR1000ITAU UNIBANCPN  ED  N1  1              
0120180110ITUB4       0184200V00402320000000000000100216001290000402320 VIS000000044560000001             BRITUBACNPR1000ITAU UNIBANCPN  ED  N1  1              
0120180110ITUB4       0184210V00402320000000000000100216001290000402320 VIS000000044560000001             BRITUBACNPR1000ITAU UNIBANCPN  ED  N1  1              
0120180110ITUB4       0184220V00402320000000000000600216001290000402320 VIS000000044560000001             BRITUBACNPR1000ITAU UNIBANCPN  ED  N1  1              
0120180110ITUB4       0184230V00402320000000000000200216001290000402320 VIS000000044560000001             BRITUBACNPR1000ITAU UNIBANCPN  ED  N1  1              
0120180110ITUB4       0184260V00404772000000000000100216018290000013456 VIS000000044550000001             BRITUBACNPR1000ITAU UNIBANCPN  ED  N1C 1              
0120180110ITUB4       0184270V00404772000000000000100216018290000013456 VIS000000044550000001             BRITUBACNPR1000ITAU UNIBANCPN  ED  N1C 1              
0120180110ITUB4       0184280V00404772000000000000100216018290000013456 VIS000000044550000001             BRITUBACNPR1000ITAU UNIBANCPN  ED  N1C 1              
0120180110ITUB4       0184290V00402320000000000000250216001290000402320 VIS000000044550000001             BRITUBACNPR1000ITAU UNIBANCPN  ED  N1  1              
0120180110ITUB4       0184290V00404772000000000000050216018290000013456 VIS000000044550000001             BRITUBACNPR1000ITAU UNIBANCPN  ED  N1C 1              
0120180110ITUB4       0184560V00402320000000000000500216001290000402320 VIS000000044560000001             BRITUBACNPR1000ITAU UNIBANCPN  ED  N1  1              
0120180110ITUB4       0184590V00402320000000000000100216001290000402320 VIS000000044560000001             BRITUBACNPR1000ITAU UNIBANCPN  ED  N1  1              
0120180110ITUB4       0184620V00402320000000000000100216001290000402320 VIS000000044560000001             BRITUBACNPR1000ITAU UNIBANCPN  ED  N1  1              
0120180110ITUB4       0184630V00402320000000000000100216001290000402320 VIS000000044550000001             BRITUBACNPR1000ITAU UNIBANCPN  ED  N1  1              
0120180110PETRA57     0014260C00404772000000000020000216000000000000000 OPC000000000210000001 PETR4       BRPETRACNPR6000PETROLEO BRAPN   17,00  1              
0120180110PETRA57     0025580V00402320000000000017500216000000000000000 OPC000000000190000001 PETR4       BRPETRACNPR6000PETROLEO BRAPN   17,00  1              
0120180110PETRA57     0025590V00402320000000000005500216000000000000000 OPC000000000190000001 PETR4       BRPETRACNPR6000PETROLEO BRAPN   17,00  1              
0120180110PETRA57     0025590V00404772000000000004500216000000000000000 OPC000000000190000001 PETR4       BRPETRACNPR6000PETROLEO BRAPN   17,00  1              
0120180110PETRA57     0025600V00404772000000000003000216000000000000000 OPC000000000190000001 PETR4       BRPETRACNPR6000PETROLEO BRAPN   17,00  1              
0120180110PETRA57     0025610V00404772000000000009500216000000000000000 OPC000000000190000001 PETR4       BRPETRACNPR6000PETROLEO BRAPN   17,00  1              
0120180110PETRA57     0026610C00402320000000000014400216000000000000000 OPC000000000210000001 PETR4       BRPETRACNPR6000PETROLEO BRAPN   17,00  1              
0120180110PETRA57     0026610C00404772000000000005000216000000000000000 OPC000000000210000001 PETR4       BRPETRACNPR6000PETROLEO BRAPN   17,00  1              
0120180110PETRA57     0026620C00402320000000000010600216000000000000000 OPC000000000210000001 PETR4       BRPETRACNPR6000PETROLEO BRAPN   17,00  1              
0120180110PETRA57     0026680C00402320000000000020000216000000000000000 OPC000000000210000001 PETR4       BRPETRACNPR6000PETROLEO BRAPN   17,00  1              
99PESC0129CBLC    012920180110000000199
