00PESC0129CBLC    01292018011720180117
0120180117PETRB59     0000170C00386030000000000020000216000000000000000 OPC000000000260000001 PETR4       BRPETRACNPR6000PETROLEO BRAPN   19,25  1              
0120180117PETRB59     0000170C00392391000000000023600216000000000000000 OPC000000000260000001 PETR4       BRPETRACNPR6000PETROLEO BRAPN   19,25  1              
0120180117PETRB59     0000180C00392391000000000006400216000000000000000 OPC000000000260000001 PETR4       BRPETRACNPR6000PETROLEO BRAPN   19,25  1              
0120180117PETRB59     0000460V00386030000000000008000216000000000000000 OPC000000000280000001 PETR4       BRPETRACNPR6000PETROLEO BRAPN   19,25  1              
0120180117PETRB59     0000460V00392391000000000012000216000000000000000 OPC000000000280000001 PETR4       BRPETRACNPR6000PETROLEO BRAPN   19,25  1              
0120180117PETRB59     0000510V00386030000000000010000216000000000000000 OPC000000000290000001 PETR4       BRPETRACNPR6000PETROLEO BRAPN   19,25  1              
0120180117PETRB59     0000570V00386030000000000002000216000000000000000 OPC000000000290000001 PETR4       BRPETRACNPR6000PETROLEO BRAPN   19,25  1              
0120180117PETRB59     0000570V00392391000000000018000216000000000000000 OPC000000000290000001 PETR4       BRPETRACNPR6000PETROLEO BRAPN   19,25  1              
99PESC0129CBLC    012920180117000000010
