00ESCS0129SINACOR 01292018011220180112
0120180112PETRA67     0022560C00404772000000000000100216000000000000000 OPC000000000070000001 PETR4       BRPETRACNPR6000PETROLEO BRAPN   17,25  1              
0120180112PETRA67     0022570C00404772000000000000100216000000000000000 OPC000000000070000001 PETR4       BRPETRACNPR6000PETROLEO BRAPN   17,25  1              
0120180112PETRA67     0022550C00404772000000000000100216000000000000000 OPC000000000070000001 PETR4       BRPETRACNPR6000PETROLEO BRAPN   17,25  1              
0120180112PETRA47     0008150C00404772000000000015000216000000000000000 OPC000000000060000001 PETR4       BRPETRACNPR6000PETROLEO BRAPN   17,50  1              
0120180112PETR4       0291320V00404772000000000000500216018290000013456 VIS000000017200000001             BRPETRACNPR6000PETROLEO BRAPN          1              
0120180112PETR4       0291310V00404772000000000000500216018290000013456 VIS000000017200000001             BRPETRACNPR6000PETROLEO BRAPN          1              
0120180112PETRA67     0024350V00404772000000000003400216000000000000000 OPC000000000100000001 PETR4       BRPETRACNPR6000PETROLEO BRAPN   17,25  1              
0120180112PETR4       0291580V00404772000000000001617216018290000013456 VIS000000017190000001             BRPETRACNPR6000PETROLEO BRAPN          1              
0120180112ABCB2       0000780C00404772000000000000050216018290000013456 VIS000000004820000001             BRABCBD12PR6000BCO ABC BRASDP   12,46  1              
0120180112PETRA67     0000300V00404772000000000011000216000000000000000 OPC000000000080000001 PETR4       BRPETRACNPR6000PETROLEO BRAPN   17,25  1              
0120180112PETR4       0291340V00404772000000000000483216018290000013456 VIS000000017200000001             BRPETRACNPR6000PETROLEO BRAPN          1              
0120180112PETRA67     0022580C00404772000000000000100216000000000000000 OPC000000000070000001 PETR4       BRPETRACNPR6000PETROLEO BRAPN   17,25  1              
0120180112PETR4       0291330V00404772000000000000200216018290000013456 VIS000000017200000001             BRPETRACNPR6000PETROLEO BRAPN          1              
0120180112ABCB2       0000790C00404772000000000000450216018290000013456 VIS000000004850000001             BRABCBD12PR6000BCO ABC BRASDP   12,46  1              
0120180112PETRA67     0022590C00404772000000000009600216000000000000000 OPC000000000070000001 PETR4       BRPETRACNPR6000PETROLEO BRAPN   17,25  1              
99ESCS0129SINACOR 012920180112000000017
