00PESCS0129SINACOR 01292018012920180129
0120180129VALEB449    0002950V00404772000000000003000216000000000000000 OPC000000000270000001 VALE3       BRVALEACNOR0000VALE S.A.   ON   44,99  1              
0120180129PETR4       0174720V00404772000000000004000216018290000013456 VIS000000019910000001             BRPETRACNPR6000PETROLEO BRAPN  ATZ     1              
0120180129PETR4       0144850C00404772000000000000400216018290000013456 VIS000000019810000001             BRPETRACNPR6000PETROLEO BRAPN  ATZ     1              
0120180129PETR4       0470720C00404772000000000002000216018290000013456 VIS000000019850000001             BRPETRACNPR6000PETROLEO BRAPN  ATZ     1              
0120180129VALEB449    0002790V00404772000000000004000216000000000000000 OPC000000000280000001 VALE3       BRVALEACNOR0000VALE S.A.   ON   44,99  1              
0120180129PETR4       0413340C00404772000000000002000216018290000013456 VIS000000019700000001             BRPETRACNPR6000PETROLEO BRAPN  ATZ     1              
0120180129FESA4       0001170C00404772000000000000080216018290000013456 VIS000000023740000001             BRFESAACNPR5000CIA FERRO LIPN      N1  1              
0120180129PETRB21     0024780V00404772000000000004000216000000000000000 OPC000000000190000001 PETR4       BRPETRACNPR6000PETROLEO BRAPN   21,00  1              
0120180129PETRB21     0032610V00404772000000000004000216000000000000000 OPC000000000170000001 PETR4       BRPETRACNPR6000PETROLEO BRAPN   21,00  1              
0120180129PETR4       0108720V00404772000000000004000216018290000013456 VIS000000019890000001             BRPETRACNPR6000PETROLEO BRAPN  ATZ     1              
0120180129PETR4       0144870C00404772000000000000100216018290000013456 VIS000000019810000001             BRPETRACNPR6000PETROLEO BRAPN  ATZ     1              
0120180129PETR4       0144880C00404772000000000000100216018290000013456 VIS000000019810000001             BRPETRACNPR6000PETROLEO BRAPN  ATZ     1              
0120180129PETR4       0144900C00404772000000000002200216018290000013456 VIS000000019810000001             BRPETRACNPR6000PETROLEO BRAPN  ATZ     1              
0120180129FESA4       0001190C00404772000000000000320216018290000013456 VIS000000023750000001             BRFESAACNPR5000CIA FERRO LIPN      N1  1              
0120180129VALEB449    0002960V00404772000000000001000216000000000000000 OPC000000000270000001 VALE3       BRVALEACNOR0000VALE S.A.   ON   44,99  1              
0120180129PETR4       0020080V00404772000000000000800216018290000013456 VIS000000019710000001             BRPETRACNPR6000PETROLEO BRAPN  ATZ     1              
0120180129PETR4       0144860C00404772000000000000200216018290000013456 VIS000000019810000001             BRPETRACNPR6000PETROLEO BRAPN  ATZ     1              
0120180129FESA4       0001860V00404772000000000000400216018290000013456 VIS000000024000000001             BRFESAACNPR5000CIA FERRO LIPN      N1  1              
0120180129PETR4       0020060V00404772000000000000700216018290000013456 VIS000000019710000001             BRPETRACNPR6000PETROLEO BRAPN  ATZ     1              
0120180129VALEB449    0001750V00404772000000000004000216000000000000000 OPC000000000250000001 VALE3       BRVALEACNOR0000VALE S.A.   ON   44,99  1              
0120180129PETR4       0020070V00404772000000000002500216018290000013456 VIS000000019710000001             BRPETRACNPR6000PETROLEO BRAPN  ATZ     1              
0120180129PETR4       0144840C00404772000000000005000216018290000013456 VIS000000019810000001             BRPETRACNPR6000PETROLEO BRAPN  ATZ     1              
99ESCS0129SINACOR 012920180129000000024
