00PESC0129CBLC    01292018011620180116
0120180116ABCB2       0001630C00402320000000000000100216001290000402320 VIS000000004820000001             BRABCBD12PR6000BCO ABC BRASDP   12,46  1              
0120180116ABCB2       0001640C00402320000000000000200216001290000402320 VIS000000004820000001             BRABCBD12PR6000BCO ABC BRASDP   12,46  1              
0120180116ABCB2       0001650C00402320000000000000100216001290000402320 VIS000000004820000001             BRABCBD12PR6000BCO ABC BRASDP   12,46  1              
0120180116ABCB2       0001660C00402320000000000000100216001290000402320 VIS000000004820000001             BRABCBD12PR6000BCO ABC BRASDP   12,46  1              
0120180116ABCB2       0001670C00402320000000000000100216001290000402320 VIS000000004820000001             BRABCBD12PR6000BCO ABC BRASDP   12,46  1              
0120180116ABCB2       0001680C00402320000000000000400216001290000402320 VIS000000004820000001             BRABCBD12PR6000BCO ABC BRASDP   12,46  1              
0120180116ABCB2       0001860C00402320000000000000300216001290000402320 VIS000000004820000001             BRABCBD12PR6000BCO ABC BRASDP   12,46  1              
0120180116ABCB2       0001860C00404772000000000000400216018290000013456 VIS000000004820000001             BRABCBD12PR6000BCO ABC BRASDP   12,46C 1              
0120180116ABCB2       0001870C00404772000000000000100216018290000013456 VIS000000004820000001             BRABCBD12PR6000BCO ABC BRASDP   12,46C 1              
0120180116ABCB2       0001880C00404772000000000000200216018290000013456 VIS000000004820000001             BRABCBD12PR6000BCO ABC BRASDP   12,46C 1              
0120180116ABCB4       0002970C00402320000000000000100216001290000402320 VIS000000017420000001             BRABCBACNPR4000BCO ABC BRASPN      N2  1              
0120180116ABCB4       0002980C00402320000000000000500216001290000402320 VIS000000017420000001             BRABCBACNPR4000BCO ABC BRASPN      N2  1              
0120180116ABCB4       0002990C00402320000000000000500216001290000402320 VIS000000017420000001             BRABCBACNPR4000BCO ABC BRASPN      N2  1              
0120180116ABCB4       0003000C00402320000000000000200216001290000402320 VIS000000017420000001             BRABCBACNPR4000BCO ABC BRASPN      N2  1              
0120180116ABCB4       0003000C00404772000000000000700216018290000013456 VIS000000017420000001             BRABCBACNPR4000BCO ABC BRASPN      N2C 1              
0120180116BBDC4       0085510V00402443000000000000400216001290000402443 VIS000000036090000001             BRBBDCACNPR8000BCO BRADESCOPN      N1  1              
0120180116BBDC4       0085520V00402443000000000001000216001290000402443 VIS000000036090000001             BRBBDCACNPR8000BCO BRADESCOPN      N1  1              
0120180116BBDC4       0085530V00402443000000000000200216001290000402443 VIS000000036090000001             BRBBDCACNPR8000BCO BRADESCOPN      N1  1              
0120180116BBDC4       0085540V00402443000000000000100216001290000402443 VIS000000036090000001             BRBBDCACNPR8000BCO BRADESCOPN      N1  1              
0120180116BBDC4       0085550V00402443000000000000100216001290000402443 VIS000000036090000001             BRBBDCACNPR8000BCO BRADESCOPN      N1  1              
0120180116BBDC4       0085560V00402320000000000005000216001290000402320 VIS000000036090000001             BRBBDCACNPR8000BCO BRADESCOPN      N1  1              
0120180116BBDC4       0085560V00402443000000000003200216001290000402443 VIS000000036090000001             BRBBDCACNPR8000BCO BRADESCOPN      N1  1              
0120180116BBDC4       0147490C00402320000000000000700216001290000402320 VIS000000035980000001             BRBBDCACNPR8000BCO BRADESCOPN      N1  1              
0120180116BBDC4       0147500C00402320000000000000100216001290000402320 VIS000000035980000001             BRBBDCACNPR8000BCO BRADESCOPN      N1  1              
0120180116BBDC4       0147500C00402443000000000000800216001290000402443 VIS000000035980000001             BRBBDCACNPR8000BCO BRADESCOPN      N1  1              
0120180116BBDC4       0147510C00402320000000000000600216001290000402320 VIS000000035990000001             BRBBDCACNPR8000BCO BRADESCOPN      N1  1              
0120180116BBDC4       0147520C00402320000000000000300216001290000402320 VIS000000035990000001             BRBBDCACNPR8000BCO BRADESCOPN      N1  1              
0120180116BBDC4       0147530C00402320000000000000300216001290000402320 VIS000000035990000001             BRBBDCACNPR8000BCO BRADESCOPN      N1  1              
0120180116BBDC4       0147540C00402320000000000000100216001290000402320 VIS000000035990000001             BRBBDCACNPR8000BCO BRADESCOPN      N1  1              
0120180116BBDC4       0147550C00402320000000000000100216001290000402320 VIS000000035990000001             BRBBDCACNPR8000BCO BRADESCOPN      N1  1              
0120180116BBDC4       0147560C00402320000000000000100216001290000402320 VIS000000035990000001             BRBBDCACNPR8000BCO BRADESCOPN      N1  1              
0120180116BBDC4       0147570C00402320000000000000200216001290000402320 VIS000000035990000001             BRBBDCACNPR8000BCO BRADESCOPN      N1  1              
0120180116BBDC4       0147580C00402320000000000001200216001290000402320 VIS000000035990000001             BRBBDCACNPR8000BCO BRADESCOPN      N1  1              
0120180116BBDC4       0147590C00402320000000000001300216001290000402320 VIS000000035990000001             BRBBDCACNPR8000BCO BRADESCOPN      N1  1              
0120180116BBDC4       0147590C00402443000000000002800216001290000402443 VIS000000035990000001             BRBBDCACNPR8000BCO BRADESCOPN      N1  1              
0120180116BBDC4       0147640C00402443000000000000900216001290000402443 VIS000000035990000001             BRBBDCACNPR8000BCO BRADESCOPN      N1  1              
0120180116BBDC4       0147660C00402443000000000000500216001290000402443 VIS000000035990000001             BRBBDCACNPR8000BCO BRADESCOPN      N1  1              
0120180116CSNA3       0084870V00402320000000000003700216001290000402320 VIS000000010670000001             BRCSNAACNOR6000CIA SIDERURGON          1              
0120180116CSNA3       0084880V00402320000000000000700216001290000402320 VIS000000010670000001             BRCSNAACNOR6000CIA SIDERURGON          1              
0120180116CSNA3       0084890V00402320000000000000100216001290000402320 VIS000000010670000001             BRCSNAACNOR6000CIA SIDERURGON          1              
0120180116CSNA3       0084900V00402320000000000000200216001290000402320 VIS000000010670000001             BRCSNAACNOR6000CIA SIDERURGON          1              
0120180116CSNA3       0084910V00402320000000000000300216001290000402320 VIS000000010670000001             BRCSNAACNOR6000CIA SIDERURGON          1              
0120180116CSNA3       0084910V00402443000000000005000216001290000402443 VIS000000010670000001             BRCSNAACNOR6000CIA SIDERURGON          1              
0120180116CSNA3       0121370C00402320000000000000400216001290000402320 VIS000000010610000001             BRCSNAACNOR6000CIA SIDERURGON          1              
0120180116CSNA3       0121380C00402320000000000000200216001290000402320 VIS000000010610000001             BRCSNAACNOR6000CIA SIDERURGON          1              
0120180116CSNA3       0121390C00402320000000000000200216001290000402320 VIS000000010610000001             BRCSNAACNOR6000CIA SIDERURGON          1              
0120180116CSNA3       0121400C00402320000000000002800216001290000402320 VIS000000010610000001             BRCSNAACNOR6000CIA SIDERURGON          1              
0120180116CSNA3       0121410C00402320000000000001200216001290000402320 VIS000000010610000001             BRCSNAACNOR6000CIA SIDERURGON          1              
0120180116CSNA3       0121420C00402320000000000000200216001290000402320 VIS000000010610000001             BRCSNAACNOR6000CIA SIDERURGON          1              
0120180116CSNA3       0121420C00402443000000000002800216001290000402443 VIS000000010610000001             BRCSNAACNOR6000CIA SIDERURGON          1              
0120180116CSNA3       0121430C00402443000000000000100216001290000402443 VIS000000010610000001             BRCSNAACNOR6000CIA SIDERURGON          1              
0120180116CSNA3       0121440C00402443000000000001100216001290000402443 VIS000000010610000001             BRCSNAACNOR6000CIA SIDERURGON          1              
0120180116CSNA3       0121450C00402443000000000001000216001290000402443 VIS000000010610000001             BRCSNAACNOR6000CIA SIDERURGON          1              
0120180116FESA4       0003160C00402320000000000000325216001290000402320 VIS000000025990000001             BRFESAACNPR5000CIA FERRO LIPN      N1  1              
0120180116FESA4       0003160C00404772000000000000175216018290000013456 VIS000000025990000001             BRFESAACNPR5000CIA FERRO LIPN      N1C 1              
0120180116FESA4       0003170C00402320000000000000200216001290000402320 VIS000000026000000001             BRFESAACNPR5000CIA FERRO LIPN      N1  1              
0120180116FESA4       0003180C00402320000000000000125216001290000402320 VIS000000026000000001             BRFESAACNPR5000CIA FERRO LIPN      N1  1              
0120180116FESA4       0003180C00404772000000000000075216018290000013456 VIS000000026000000001             BRFESAACNPR5000CIA FERRO LIPN      N1C 1              
0120180116FESA4       0003190C00404772000000000000100216018290000013456 VIS000000026000000001             BRFESAACNPR5000CIA FERRO LIPN      N1C 1              
0120180116FESA4       0007960C00402320000000000000200216001290000402320 VIS000000025450000001             BRFESAACNPR5000CIA FERRO LIPN      N1  1              
0120180116FESA4       0007970C00402320000000000000100216001290000402320 VIS000000025450000001             BRFESAACNPR5000CIA FERRO LIPN      N1  1              
0120180116FESA4       0008010C00402320000000000000350216001290000402320 VIS000000025450000001             BRFESAACNPR5000CIA FERRO LIPN      N1  1              
0120180116FESA4       0008010C00404772000000000000350216018290000013456 VIS000000025450000001             BRFESAACNPR5000CIA FERRO LIPN      N1C 1              
0120180116PETR4       0309230V00402443000000000000100216001290000402443 VIS000000017710000001             BRPETRACNPR6000PETROLEO BRAPN          1              
0120180116PETR4       0309240V00402443000000000002500216001290000402443 VIS000000017710000001             BRPETRACNPR6000PETROLEO BRAPN          1              
0120180116PETR4       0309250V00402443000000000000300216001290000402443 VIS000000017710000001             BRPETRACNPR6000PETROLEO BRAPN          1              
0120180116PETR4       0309260V00402443000000000000100216001290000402443 VIS000000017710000001             BRPETRACNPR6000PETROLEO BRAPN          1              
0120180116PETR4       0309270V00402443000000000000100216001290000402443 VIS000000017710000001             BRPETRACNPR6000PETROLEO BRAPN          1              
0120180116PETR4       0309280V00402443000000000000100216001290000402443 VIS000000017710000001             BRPETRACNPR6000PETROLEO BRAPN          1              
0120180116PETR4       0309290V00402443000000000000100216001290000402443 VIS000000017710000001             BRPETRACNPR6000PETROLEO BRAPN          1              
0120180116PETR4       0309300V00402443000000000000100216001290000402443 VIS000000017710000001             BRPETRACNPR6000PETROLEO BRAPN          1              
0120180116PETR4       0309310V00402443000000000000100216001290000402443 VIS000000017710000001             BRPETRACNPR6000PETROLEO BRAPN          1              
0120180116PETR4       0309320V00402443000000000000100216001290000402443 VIS000000017710000001             BRPETRACNPR6000PETROLEO BRAPN          1              
0120180116PETR4       0309330V00402443000000000002500216001290000402443 VIS000000017710000001             BRPETRACNPR6000PETROLEO BRAPN          1              
0120180116PETR4       0309340V00402443000000000000100216001290000402443 VIS000000017710000001             BRPETRACNPR6000PETROLEO BRAPN          1              
0120180116PETR4       0309350V00402443000000000000100216001290000402443 VIS000000017710000001             BRPETRACNPR6000PETROLEO BRAPN          1              
0120180116PETR4       0309360V00402443000000000000100216001290000402443 VIS000000017710000001             BRPETRACNPR6000PETROLEO BRAPN          1              
0120180116PETR4       0309370V00402443000000000000100216001290000402443 VIS000000017710000001             BRPETRACNPR6000PETROLEO BRAPN          1              
0120180116PETR4       0309380V00402443000000000000100216001290000402443 VIS000000017710000001             BRPETRACNPR6000PETROLEO BRAPN          1              
0120180116PETR4       0309390V00402443000000000000100216001290000402443 VIS000000017710000001             BRPETRACNPR6000PETROLEO BRAPN          1              
0120180116PETR4       0309400V00402443000000000000400216001290000402443 VIS000000017710000001             BRPETRACNPR6000PETROLEO BRAPN          1              
0120180116PETR4       0309410V00402443000000000000100216001290000402443 VIS000000017710000001             BRPETRACNPR6000PETROLEO BRAPN          1              
0120180116PETR4       0309420V00402443000000000000100216001290000402443 VIS000000017710000001             BRPETRACNPR6000PETROLEO BRAPN          1              
0120180116PETR4       0309430V00402443000000000000100216001290000402443 VIS000000017710000001             BRPETRACNPR6000PETROLEO BRAPN          1              
0120180116PETR4       0309440V00402443000000000000100216001290000402443 VIS000000017710000001             BRPETRACNPR6000PETROLEO BRAPN          1              
0120180116PETR4       0309450V00402443000000000000100216001290000402443 VIS000000017710000001             BRPETRACNPR6000PETROLEO BRAPN          1              
0120180116PETR4       0309460V00402443000000000000100216001290000402443 VIS000000017710000001             BRPETRACNPR6000PETROLEO BRAPN          1              
0120180116PETR4       0309470V00402443000000000000100216001290000402443 VIS000000017710000001             BRPETRACNPR6000PETROLEO BRAPN          1              
0120180116PETR4       0309480V00402443000000000000100216001290000402443 VIS000000017710000001             BRPETRACNPR6000PETROLEO BRAPN          1              
0120180116PETR4       0309490V00402443000000000000100216001290000402443 VIS000000017710000001             BRPETRACNPR6000PETROLEO BRAPN          1              
0120180116PETR4       0309500V00402443000000000000100216001290000402443 VIS000000017710000001             BRPETRACNPR6000PETROLEO BRAPN          1              
0120180116PETR4       0309510V00402443000000000000100216001290000402443 VIS000000017710000001             BRPETRACNPR6000PETROLEO BRAPN          1              
0120180116PETR4       0309520V00402443000000000000100216001290000402443 VIS000000017710000001             BRPETRACNPR6000PETROLEO BRAPN          1              
0120180116PETR4       0309540V00402443000000000000100216001290000402443 VIS000000017710000001             BRPETRACNPR6000PETROLEO BRAPN          1              
0120180116PETR4       0309550V00402443000000000000100216001290000402443 VIS000000017710000001             BRPETRACNPR6000PETROLEO BRAPN          1              
0120180116PETR4       0309560V00402443000000000000100216001290000402443 VIS000000017710000001             BRPETRACNPR6000PETROLEO BRAPN          1              
0120180116PETR4       0309580V00402443000000000000100216001290000402443 VIS000000017710000001             BRPETRACNPR6000PETROLEO BRAPN          1              
0120180116PETR4       0309590V00402443000000000000300216001290000402443 VIS000000017710000001             BRPETRACNPR6000PETROLEO BRAPN          1              
0120180116PETR4       0309600V00402443000000000000100216001290000402443 VIS000000017710000001             BRPETRACNPR6000PETROLEO BRAPN          1              
0120180116PETR4       0309610V00402443000000000000100216001290000402443 VIS000000017710000001             BRPETRACNPR6000PETROLEO BRAPN          1              
0120180116PETR4       0309620V00402443000000000000100216001290000402443 VIS000000017710000001             BRPETRACNPR6000PETROLEO BRAPN          1              
0120180116PETR4       0309630V00402443000000000000100216001290000402443 VIS000000017710000001             BRPETRACNPR6000PETROLEO BRAPN          1              
0120180116PETR4       0309640V00402443000000000000100216001290000402443 VIS000000017710000001             BRPETRACNPR6000PETROLEO BRAPN          1              
0120180116PETR4       0309650V00402443000000000000100216001290000402443 VIS000000017710000001             BRPETRACNPR6000PETROLEO BRAPN          1              
0120180116PETR4       0309660V00402443000000000000100216001290000402443 VIS000000017710000001             BRPETRACNPR6000PETROLEO BRAPN          1              
0120180116PETR4       0309670V00402443000000000000100216001290000402443 VIS000000017710000001             BRPETRACNPR6000PETROLEO BRAPN          1              
0120180116PETR4       0309680V00402443000000000000100216001290000402443 VIS000000017710000001             BRPETRACNPR6000PETROLEO BRAPN          1              
0120180116PETR4       0309690V00402443000000000000100216001290000402443 VIS000000017710000001             BRPETRACNPR6000PETROLEO BRAPN          1              
0120180116PETR4       0309700V00402320000000000000100216001290000402320 VIS000000017710000001             BRPETRACNPR6000PETROLEO BRAPN          1              
0120180116PETR4       0309710V00402320000000000000100216001290000402320 VIS000000017710000001             BRPETRACNPR6000PETROLEO BRAPN          1              
0120180116PETR4       0309720V00402320000000000000100216001290000402320 VIS000000017710000001             BRPETRACNPR6000PETROLEO BRAPN          1              
0120180116PETR4       0309730V00402320000000000000100216001290000402320 VIS000000017710000001             BRPETRACNPR6000PETROLEO BRAPN          1              
0120180116PETR4       0309740V00402320000000000000100216001290000402320 VIS000000017710000001             BRPETRACNPR6000PETROLEO BRAPN          1              
0120180116PETR4       0309750V00402320000000000000100216001290000402320 VIS000000017710000001             BRPETRACNPR6000PETROLEO BRAPN          1              
0120180116PETR4       0309770V00402320000000000000100216001290000402320 VIS000000017710000001             BRPETRACNPR6000PETROLEO BRAPN          1              
0120180116PETR4       0309780V00402320000000000000400216001290000402320 VIS000000017710000001             BRPETRACNPR6000PETROLEO BRAPN          1              
0120180116PETR4       0309790V00402320000000000000100216001290000402320 VIS000000017710000001             BRPETRACNPR6000PETROLEO BRAPN          1              
0120180116PETR4       0309800V00402320000000000000100216001290000402320 VIS000000017710000001             BRPETRACNPR6000PETROLEO BRAPN          1              
0120180116PETR4       0309810V00402320000000000000100216001290000402320 VIS000000017710000001             BRPETRACNPR6000PETROLEO BRAPN          1              
0120180116PETR4       0309820V00402320000000000000100216001290000402320 VIS000000017710000001             BRPETRACNPR6000PETROLEO BRAPN          1              
0120180116PETR4       0309830V00402320000000000000100216001290000402320 VIS000000017710000001             BRPETRACNPR6000PETROLEO BRAPN          1              
0120180116PETR4       0309840V00402320000000000000100216001290000402320 VIS000000017710000001             BRPETRACNPR6000PETROLEO BRAPN          1              
0120180116PETR4       0309850V00402320000000000000100216001290000402320 VIS000000017710000001             BRPETRACNPR6000PETROLEO BRAPN          1              
0120180116PETR4       0309860V00402320000000000000100216001290000402320 VIS000000017710000001             BRPETRACNPR6000PETROLEO BRAPN          1              
0120180116PETR4       0309870V00402320000000000000100216001290000402320 VIS000000017710000001             BRPETRACNPR6000PETROLEO BRAPN          1              
0120180116PETR4       0309890V00402320000000000000100216001290000402320 VIS000000017710000001             BRPETRACNPR6000PETROLEO BRAPN          1              
0120180116PETR4       0309900V00402320000000000000100216001290000402320 VIS000000017710000001             BRPETRACNPR6000PETROLEO BRAPN          1              
0120180116PETR4       0309910V00402320000000000000100216001290000402320 VIS000000017710000001             BRPETRACNPR6000PETROLEO BRAPN          1              
0120180116PETR4       0309930V00402320000000000000100216001290000402320 VIS000000017710000001             BRPETRACNPR6000PETROLEO BRAPN          1              
0120180116PETR4       0309940V00402320000000000000100216001290000402320 VIS000000017710000001             BRPETRACNPR6000PETROLEO BRAPN          1              
0120180116PETR4       0309950V00402320000000000000100216001290000402320 VIS000000017710000001             BRPETRACNPR6000PETROLEO BRAPN          1              
0120180116PETR4       0309960V00402320000000000000300216001290000402320 VIS000000017710000001             BRPETRACNPR6000PETROLEO BRAPN          1              
0120180116PETR4       0309970V00402320000000000000100216001290000402320 VIS000000017710000001             BRPETRACNPR6000PETROLEO BRAPN          1              
0120180116PETR4       0309980V00402320000000000000100216001290000402320 VIS000000017710000001             BRPETRACNPR6000PETROLEO BRAPN          1              
0120180116PETR4       0309990V00402320000000000000100216001290000402320 VIS000000017710000001             BRPETRACNPR6000PETROLEO BRAPN          1              
0120180116PETR4       0310000V00402320000000000000100216001290000402320 VIS000000017710000001             BRPETRACNPR6000PETROLEO BRAPN          1              
0120180116PETR4       0310010V00402320000000000000100216001290000402320 VIS000000017710000001             BRPETRACNPR6000PETROLEO BRAPN          1              
0120180116PETR4       0310020V00402320000000000000100216001290000402320 VIS000000017710000001             BRPETRACNPR6000PETROLEO BRAPN          1              
0120180116PETR4       0310030V00402320000000000000100216001290000402320 VIS000000017710000001             BRPETRACNPR6000PETROLEO BRAPN          1              
0120180116PETR4       0310040V00402320000000000000100216001290000402320 VIS000000017710000001             BRPETRACNPR6000PETROLEO BRAPN          1              
0120180116PETR4       0310050V00402320000000000000100216001290000402320 VIS000000017710000001             BRPETRACNPR6000PETROLEO BRAPN          1              
0120180116PETR4       0310060V00402320000000000000100216001290000402320 VIS000000017710000001             BRPETRACNPR6000PETROLEO BRAPN          1              
0120180116PETR4       0310070V00402320000000000000100216001290000402320 VIS000000017710000001             BRPETRACNPR6000PETROLEO BRAPN          1              
0120180116PETR4       0310080V00402320000000000000100216001290000402320 VIS000000017710000001             BRPETRACNPR6000PETROLEO BRAPN          1              
0120180116PETR4       0310090V00402320000000000000100216001290000402320 VIS000000017710000001             BRPETRACNPR6000PETROLEO BRAPN          1              
0120180116PETR4       0310100V00402320000000000000100216001290000402320 VIS000000017710000001             BRPETRACNPR6000PETROLEO BRAPN          1              
0120180116PETR4       0310110V00402320000000000000300216001290000402320 VIS000000017710000001             BRPETRACNPR6000PETROLEO BRAPN          1              
0120180116PETR4       0310120V00402320000000000000100216001290000402320 VIS000000017710000001             BRPETRACNPR6000PETROLEO BRAPN          1              
0120180116PETR4       0310130V00402320000000000000100216001290000402320 VIS000000017710000001             BRPETRACNPR6000PETROLEO BRAPN          1              
0120180116PETR4       0310140V00402320000000000000100216001290000402320 VIS000000017710000001             BRPETRACNPR6000PETROLEO BRAPN          1              
0120180116PETR4       0310150V00402320000000000000100216001290000402320 VIS000000017710000001             BRPETRACNPR6000PETROLEO BRAPN          1              
0120180116PETR4       0310160V00402320000000000000100216001290000402320 VIS000000017710000001             BRPETRACNPR6000PETROLEO BRAPN          1              
0120180116PETR4       0310170V00402320000000000000100216001290000402320 VIS000000017710000001             BRPETRACNPR6000PETROLEO BRAPN          1              
0120180116PETR4       0310190V00402320000000000000100216001290000402320 VIS000000017710000001             BRPETRACNPR6000PETROLEO BRAPN          1              
0120180116PETR4       0310200V00402320000000000000100216001290000402320 VIS000000017710000001             BRPETRACNPR6000PETROLEO BRAPN          1              
0120180116PETR4       0310210V00402320000000000000100216001290000402320 VIS000000017710000001             BRPETRACNPR6000PETROLEO BRAPN          1              
0120180116PETR4       0310220V00402320000000000000100216001290000402320 VIS000000017710000001             BRPETRACNPR6000PETROLEO BRAPN          1              
0120180116PETR4       0310230V00402320000000000000200216001290000402320 VIS000000017710000001             BRPETRACNPR6000PETROLEO BRAPN          1              
0120180116PETR4       0310250V00402320000000000000100216001290000402320 VIS000000017710000001             BRPETRACNPR6000PETROLEO BRAPN          1              
0120180116PETR4       0310260V00402320000000000000100216001290000402320 VIS000000017710000001             BRPETRACNPR6000PETROLEO BRAPN          1              
0120180116PETR4       0310270V00402320000000000000100216001290000402320 VIS000000017710000001             BRPETRACNPR6000PETROLEO BRAPN          1              
0120180116PETR4       0310280V00402320000000000000100216001290000402320 VIS000000017710000001             BRPETRACNPR6000PETROLEO BRAPN          1              
0120180116PETR4       0310290V00402320000000000000100216001290000402320 VIS000000017710000001             BRPETRACNPR6000PETROLEO BRAPN          1              
0120180116PETR4       0310300V00402320000000000000100216001290000402320 VIS000000017710000001             BRPETRACNPR6000PETROLEO BRAPN          1              
0120180116PETR4       0310310V00402320000000000000400216001290000402320 VIS000000017710000001             BRPETRACNPR6000PETROLEO BRAPN          1              
0120180116PETR4       0310320V00402320000000000000100216001290000402320 VIS000000017710000001             BRPETRACNPR6000PETROLEO BRAPN          1              
0120180116PETR4       0310330V00402320000000000000100216001290000402320 VIS000000017710000001             BRPETRACNPR6000PETROLEO BRAPN          1              
0120180116PETR4       0310340V00402320000000000000100216001290000402320 VIS000000017710000001             BRPETRACNPR6000PETROLEO BRAPN          1              
0120180116PETR4       0310350V00402320000000000000100216001290000402320 VIS000000017710000001             BRPETRACNPR6000PETROLEO BRAPN          1              
0120180116PETR4       0310360V00402320000000000000100216001290000402320 VIS000000017710000001             BRPETRACNPR6000PETROLEO BRAPN          1              
0120180116PETR4       0310370V00402320000000000000100216001290000402320 VIS000000017710000001             BRPETRACNPR6000PETROLEO BRAPN          1              
0120180116PETR4       0310380V00402320000000000000100216001290000402320 VIS000000017710000001             BRPETRACNPR6000PETROLEO BRAPN          1              
0120180116PETR4       0310400V00402320000000000000100216001290000402320 VIS000000017710000001             BRPETRACNPR6000PETROLEO BRAPN          1              
0120180116PETR4       0310410V00402320000000000000100216001290000402320 VIS000000017710000001             BRPETRACNPR6000PETROLEO BRAPN          1              
0120180116PETR4       0310420V00402320000000000000100216001290000402320 VIS000000017710000001             BRPETRACNPR6000PETROLEO BRAPN          1              
0120180116PETR4       0310430V00402320000000000002200216001290000402320 VIS000000017710000001             BRPETRACNPR6000PETROLEO BRAPN          1              
0120180116PETR4       0325210C00402320000000000004200216001290000402320 VIS000000017650000001             BRPETRACNPR6000PETROLEO BRAPN          1              
0120180116PETR4       0325210C00402443000000000005000216001290000402443 VIS000000017650000001             BRPETRACNPR6000PETROLEO BRAPN          1              
0120180116PETR4       0325220C00402320000000000000800216001290000402320 VIS000000017650000001             BRPETRACNPR6000PETROLEO BRAPN          1              
0120180116PETR4       0337710C00402443000000000000300216001290000402443 VIS000000017620000001             BRPETRACNPR6000PETROLEO BRAPN          1              
0120180116PETR4       0337720C00402443000000000000500216001290000402443 VIS000000017620000001             BRPETRACNPR6000PETROLEO BRAPN          1              
0120180116PETR4       0337730C00402443000000000000500216001290000402443 VIS000000017620000001             BRPETRACNPR6000PETROLEO BRAPN          1              
0120180116PETR4       0337740C00402320000000000001300216001290000402320 VIS000000017620000001             BRPETRACNPR6000PETROLEO BRAPN          1              
0120180116PETR4       0337740C00402443000000000003700216001290000402443 VIS000000017620000001             BRPETRACNPR6000PETROLEO BRAPN          1              
0120180116PETR4       0337750C00402320000000000003700216001290000402320 VIS000000017620000001             BRPETRACNPR6000PETROLEO BRAPN          1              
0120180116PETRB69     0020160C00402320000000000010000216000000000000000 OPC000000000270000001 PETR4       BRPETRACNPR6000PETROLEO BRAPN   19,00  1              
0120180116PETRB69     0020160C00402443000000000025000216000000000000000 OPC000000000270000001 PETR4       BRPETRACNPR6000PETROLEO BRAPN   19,00  1              
0120180116PETRB69     0020160C00404772000000000015000216000000000000000 OPC000000000270000001 PETR4       BRPETRACNPR6000PETROLEO BRAPN   19,00  1              
0120180116PETRB69     0033810C00402320000000000037500216000000000000000 OPC000000000270000001 PETR4       BRPETRACNPR6000PETROLEO BRAPN   19,00  1              
0120180116PETRB69     0033820C00402320000000000009400216000000000000000 OPC000000000270000001 PETR4       BRPETRACNPR6000PETROLEO BRAPN   19,00  1              
0120180116PETRB69     0033830C00402320000000000002500216000000000000000 OPC000000000270000001 PETR4       BRPETRACNPR6000PETROLEO BRAPN   19,00  1              
0120180116PETRB69     0033840C00402320000000000000200216000000000000000 OPC000000000270000001 PETR4       BRPETRACNPR6000PETROLEO BRAPN   19,00  1              
0120180116PETRB69     0033850C00402320000000000000400216000000000000000 OPC000000000270000001 PETR4       BRPETRACNPR6000PETROLEO BRAPN   19,00  1              
0120180116PETRB69     0069110V00402320000000000002000216000000000000000 OPC000000000250000001 PETR4       BRPETRACNPR6000PETROLEO BRAPN   19,00  1              
0120180116PETRB69     0069120V00402320000000000001000216000000000000000 OPC000000000250000001 PETR4       BRPETRACNPR6000PETROLEO BRAPN   19,00  1              
0120180116PETRB69     0069130V00402320000000000001000216000000000000000 OPC000000000250000001 PETR4       BRPETRACNPR6000PETROLEO BRAPN   19,00  1              
0120180116PETRB69     0069140V00402320000000000001000216000000000000000 OPC000000000250000001 PETR4       BRPETRACNPR6000PETROLEO BRAPN   19,00  1              
0120180116PETRB69     0069150V00402320000000000001000216000000000000000 OPC000000000250000001 PETR4       BRPETRACNPR6000PETROLEO BRAPN   19,00  1              
0120180116PETRB69     0069160V00402320000000000001000216000000000000000 OPC000000000250000001 PETR4       BRPETRACNPR6000PETROLEO BRAPN   19,00  1              
0120180116PETRB69     0069170V00402320000000000001000216000000000000000 OPC000000000250000001 PETR4       BRPETRACNPR6000PETROLEO BRAPN   19,00  1              
0120180116PETRB69     0069180V00402320000000000001000216000000000000000 OPC000000000250000001 PETR4       BRPETRACNPR6000PETROLEO BRAPN   19,00  1              
0120180116PETRB69     0069190V00402320000000000001000216000000000000000 OPC000000000250000001 PETR4       BRPETRACNPR6000PETROLEO BRAPN   19,00  1              
0120180116PETRB69     0069200V00402320000000000001000216000000000000000 OPC000000000250000001 PETR4       BRPETRACNPR6000PETROLEO BRAPN   19,00  1              
0120180116PETRB69     0069210V00402320000000000001000216000000000000000 OPC000000000250000001 PETR4       BRPETRACNPR6000PETROLEO BRAPN   19,00  1              
0120180116PETRB69     0069220V00402320000000000001000216000000000000000 OPC000000000250000001 PETR4       BRPETRACNPR6000PETROLEO BRAPN   19,00  1              
0120180116PETRB69     0069230V00402320000000000001000216000000000000000 OPC000000000250000001 PETR4       BRPETRACNPR6000PETROLEO BRAPN   19,00  1              
0120180116PETRB69     0069240V00402320000000000001000216000000000000000 OPC000000000250000001 PETR4       BRPETRACNPR6000PETROLEO BRAPN   19,00  1              
0120180116PETRB69     0069250V00402320000000000001000216000000000000000 OPC000000000250000001 PETR4       BRPETRACNPR6000PETROLEO BRAPN   19,00  1              
0120180116PETRB69     0069260V00402320000000000001000216000000000000000 OPC000000000250000001 PETR4       BRPETRACNPR6000PETROLEO BRAPN   19,00  1              
0120180116PETRB69     0069270V00402320000000000001000216000000000000000 OPC000000000250000001 PETR4       BRPETRACNPR6000PETROLEO BRAPN   19,00  1              
0120180116PETRB69     0069280V00402320000000000001000216000000000000000 OPC000000000250000001 PETR4       BRPETRACNPR6000PETROLEO BRAPN   19,00  1              
0120180116PETRB69     0069290V00402320000000000001000216000000000000000 OPC000000000250000001 PETR4       BRPETRACNPR6000PETROLEO BRAPN   19,00  1              
0120180116PETRB69     0069300V00402320000000000001000216000000000000000 OPC000000000250000001 PETR4       BRPETRACNPR6000PETROLEO BRAPN   19,00  1              
0120180116PETRB69     0069310V00402320000000000000500216000000000000000 OPC000000000250000001 PETR4       BRPETRACNPR6000PETROLEO BRAPN   19,00  1              
0120180116PETRB69     0069320V00402320000000000000500216000000000000000 OPC000000000250000001 PETR4       BRPETRACNPR6000PETROLEO BRAPN   19,00  1              
0120180116PETRB69     0069330V00402320000000000003000216000000000000000 OPC000000000250000001 PETR4       BRPETRACNPR6000PETROLEO BRAPN   19,00  1              
0120180116PETRB69     0069330V00402443000000000022500216000000000000000 OPC000000000250000001 PETR4       BRPETRACNPR6000PETROLEO BRAPN   19,00  1              
0120180116PETRB69     0069340V00402443000000000002000216000000000000000 OPC000000000250000001 PETR4       BRPETRACNPR6000PETROLEO BRAPN   19,00  1              
0120180116PETRB69     0069350V00402443000000000000500216000000000000000 OPC000000000250000001 PETR4       BRPETRACNPR6000PETROLEO BRAPN   19,00  1              
0120180116PETRB78     0000150C00402320000000000025000216000000000000000 OPC000000000270000001 PETR4       BRPETRACNPR6000PETROLEO BRAPN   18,75  1              
0120180116PETRB78     0000150C00402443000000000004300216000000000000000 OPC000000000270000001 PETR4       BRPETRACNPR6000PETROLEO BRAPN   18,75  1              
0120180116PETRB78     0000160C00402443000000000020700216000000000000000 OPC000000000270000001 PETR4       BRPETRACNPR6000PETROLEO BRAPN   18,75  1              
0120180116PETRB78     0000350V00402320000000000010000216000000000000000 OPC000000000320000001 PETR4       BRPETRACNPR6000PETROLEO BRAPN   18,75  1              
0120180116PETRB78     0000350V00402443000000000010000216000000000000000 OPC000000000320000001 PETR4       BRPETRACNPR6000PETROLEO BRAPN   18,75  1              
0120180116PETRB78     0000390V00402320000000000015000216000000000000000 OPC000000000330000001 PETR4       BRPETRACNPR6000PETROLEO BRAPN   18,75  1              
0120180116PETRB78     0000390V00402443000000000006600216000000000000000 OPC000000000330000001 PETR4       BRPETRACNPR6000PETROLEO BRAPN   18,75  1              
0120180116PETRB78     0000400V00402443000000000008400216000000000000000 OPC000000000330000001 PETR4       BRPETRACNPR6000PETROLEO BRAPN   18,75  1              
99PESC0129CBLC    012920180116000000229
