00NEGS0129SINACOR 01292018011220180112                                                                                                                                                                  
010008640VPETRA67     OPCNORPETROLEO BRAPN   17,25000000102000000000001800015    13:02 PETR4       00000000BRPETRACNPR6000000000100000000000         00000             11001017100000000              1 N
010008690VPETRA67     OPCNORPETROLEO BRAPN   17,25000000080000000000001800008    13:03 PETR4       00000000BRPETRACNPR6000000000100000000000         00000             11001017100000000              1 N
010016280VPETRA57     OPCNORPETROLEO BRAPN   17,00000000076000000000002800010    11:05 PETR4       00000000BRPETRACNPR6000000000100000000000         00000             11001017100000000              1 N
010006420VVALEA382    OPCNORVALE S.A.   ON   43,89000000050000000000001800008    11:22 VALE3       00000000BRVALEACNOR0000000000100000000000         00000             11001017100000000              1 N
010006430VVALEA382    OPCNORVALE S.A.   ON   43,89000000052000000000001800008    11:22 VALE3       00000000BRVALEACNOR0000000000100000000000         00000             11001017100000000              1 N
010006440VVALEA382    OPCNORVALE S.A.   ON   43,89000000098000000000001800120    11:22 VALE3       00000000BRVALEACNOR0000000000100000000000         00000             11001017100000000              1 N
010101630VPETR4       VISNORPETROLEO BRAPN        000000056000000000172100085    12:35             00000000BRPETRACNPR6000000000100000000000         00000             11003017100000000              1 N
010250310CPETR4       VISNORPETROLEO BRAPN        000000050000000000171900086    16:06             00000000BRPETRACNPR6000000000100000000000         00000             11003017100000000              1 N
010254130CPETR4       VISNORPETROLEO BRAPN        000000050000000000171700045    16:10             00000000BRPETRACNPR6000000000100000000000         00000             11003017100000000              1 N
010010720VPETRA67     OPCNORPETROLEO BRAPN   17,25000000300000000000001800129    13:47 PETR4       00000000BRPETRACNPR6000000000100000000000         00000             11001017100000000              1 N
010016260VPETRA57     OPCNORPETROLEO BRAPN   17,00000000074000000000002800045    11:05 PETR4       00000000BRPETRACNPR6000000000100000000000         00000             11001017100000000              1 N
010125770VPETR4       VISNORPETROLEO BRAPN        000000040000000000173000023    13:08             00000000BRPETRACNPR6000000000100000000000         00000             11003017100000000              1 N
010125790VPETR4       VISNORPETROLEO BRAPN        000000009000000000173000003    13:08             00000000BRPETRACNPR6000000000100000000000         00000             11003017100000000              1 N
010128920VPETR4       VISNORPETROLEO BRAPN        000000097000000000172900120    13:11             00000000BRPETRACNPR6000000000100000000000         00000             11003017100000000              1 N
010128930VPETR4       VISNORPETROLEO BRAPN        000000003000000000172900045    13:11             00000000BRPETRACNPR6000000000100000000000         00000             11003017100000000              1 N
010241170CPETR4       VISNORPETROLEO BRAPN        000000100000000000171900003    15:50             00000000BRPETRACNPR6000000000100000000000         00000             11003017100000000              1 N
010003990CVALEA382    OPCNORVALE S.A.   ON   43,89000000050000000000001300088    11:05 VALE3       00000000BRVALEACNOR0000000000100000000000         00000             11001017100000000              1 N
010003980CVALEA382    OPCNORVALE S.A.   ON   43,89000000150000000000001300008    11:05 VALE3       00000000BRVALEACNOR0000000000100000000000         00000             11001017100000000              1 N
010008150CPETRA47     OPCNORPETROLEO BRAPN   17,50000000080000000000000600003    13:14 PETR4       00000000BRPETRACNPR6000000000100000000000         00000             11001017100000000              1 N
010101620VPETR4       VISNORPETROLEO BRAPN        000000044000000000172100008    12:35             00000000BRPETRACNPR6000000000100000000000         00000             11003017100000000              1 N
010125760VPETR4       VISNORPETROLEO BRAPN        000000017000000000173000003    13:08             00000000BRPETRACNPR6000000000100000000000         00000             11003017100000000              1 N
010125800VPETR4       VISNORPETROLEO BRAPN        000000009000000000173000120    13:08             00000000BRPETRACNPR6000000000100000000000         00000             11003017100000000              1 N
010008710VPETRA67     OPCNORPETROLEO BRAPN   17,25000000018000000000001800386    13:03 PETR4       00000000BRPETRACNPR6000000000100000000000         00000             11001017100000000              1 N
010004000CVALEA382    OPCNORVALE S.A.   ON   43,89000000100000000000001300262    11:05 VALE3       00000000BRVALEACNOR0000000000100000000000         00000             11001017100000000              1 N
010015990VPETRA57     OPCNORPETROLEO BRAPN   17,00000000024000000000002800045    11:04 PETR4       00000000BRPETRACNPR6000000000100000000000         00000             11001017100000000              1 N
010014200VVALEA382    OPCNORVALE S.A.   ON   43,89000000148000000000001000003    14:50 VALE3       00000000BRVALEACNOR0000000000100000000000         00000             11001017100000000              1 N
010242540CPETR4       VISNORPETROLEO BRAPN        000000050000000000172000008    15:52             00000000BRPETRACNPR6000000000100000000000         00000             11003017100000000              1 N
010254120CPETR4       VISNORPETROLEO BRAPN        000000002000000000171700045    16:10             00000000BRPETRACNPR6000000000100000000000         00000             11003017100000000              1 N
010254150CPETR4       VISNORPETROLEO BRAPN        000000008000000000171700003    16:10             00000000BRPETRACNPR6000000000100000000000         00000             11003017100000000              1 N
010013170CVALEA382    OPCNORVALE S.A.   ON   43,89000000183000000000001300008    13:38 VALE3       00000000BRVALEACNOR0000000000100000000000         00000             11001017100000000              1 N
010006240VVALEA382    OPCNORVALE S.A.   ON   43,89000000052000000000001700008    11:19 VALE3       00000000BRVALEACNOR0000000000100000000000         00000             11001017100000000              1 N
010006250VVALEA382    OPCNORVALE S.A.   ON   43,89000000048000000000001700008    11:19 VALE3       00000000BRVALEACNOR0000000000100000000000         00000             11001017100000000              1 N
010254140CPETR4       VISNORPETROLEO BRAPN        000000040000000000171700023    16:10             00000000BRPETRACNPR6000000000100000000000         00000             11003017100000000              1 N
010002460CPETRA67     OPCNORPETROLEO BRAPN   17,25000000049000000000001500262    11:11 PETR4       00000000BRPETRACNPR6000000000100000000000         00000             11001017100000000              1 N
010002470CPETRA67     OPCNORPETROLEO BRAPN   17,25000000451000000000001500008    11:11 PETR4       00000000BRPETRACNPR6000000000100000000000         00000             11001017100000000              1 N
010013570CPETRA57     OPCNORPETROLEO BRAPN   17,00000000020000000000002500386    10:58 PETR4       00000000BRPETRACNPR6000000000100000000000         00000             11001017100000000              1 N
010015630VPETRA57     OPCNORPETROLEO BRAPN   17,00000000100000000000002800003    11:03 PETR4       00000000BRPETRACNPR6000000000100000000000         00000             11001017100000000              1 N
010015980VPETRA57     OPCNORPETROLEO BRAPN   17,00000000076000000000002800045    11:04 PETR4       00000000BRPETRACNPR6000000000100000000000         00000             11001017100000000              1 N
010016160VPETRA57     OPCNORPETROLEO BRAPN   17,00000000100000000000002800045    11:05 PETR4       00000000BRPETRACNPR6000000000100000000000         00000             11001017100000000              1 N
010013180CVALEA382    OPCNORVALE S.A.   ON   43,89000000117000000000001300008    13:38 VALE3       00000000BRVALEACNOR0000000000100000000000         00000             11001017100000000              1 N
010013560CPETRA57     OPCNORPETROLEO BRAPN   17,00000000414000000000002500003    10:58 PETR4       00000000BRPETRACNPR6000000000100000000000         00000             11001017100000000              1 N
010013580CPETRA57     OPCNORPETROLEO BRAPN   17,00000000066000000000002500147    10:58 PETR4       00000000BRPETRACNPR6000000000100000000000         00000             11001017100000000              1 N
010016270VPETRA57     OPCNORPETROLEO BRAPN   17,00000000050000000000002800085    11:05 PETR4       00000000BRPETRACNPR6000000000100000000000         00000             11001017100000000              1 N
010014190VVALEA382    OPCNORVALE S.A.   ON   43,89000000052000000000001000008    14:50 VALE3       00000000BRVALEACNOR0000000000100000000000         00000             11001017100000000              1 N
010125780VPETR4       VISNORPETROLEO BRAPN        000000013000000000173000120    13:08             00000000BRPETRACNPR6000000000100000000000         00000             11003017100000000              1 N
010125810VPETR4       VISNORPETROLEO BRAPN        000000012000000000173000120    13:08             00000000BRPETRACNPR6000000000100000000000         00000             11003017100000000              1 N
99NEGS0129SINACOR 012920180112000000048                                                                                                                                                                 
