00NEGS0129SINACOR 01292018011220180112                                                                                                                                                                  
010008640VPETRA67     OPCNORPETROLEO BRAPN   17,25000000102000000000001800015    13:02 PETR4       00000000BRPETRACNPR6000000000100000000000         00000             11001017100000000              1 N
010008690VPETRA67     OPCNORPETROLEO BRAPN   17,25000000040000000000001800008    13:03 PETR4       00000000BRPETRACNPR6000000000100000000000         00000             11001017100000000              1 N
010022580CPETRA67     OPCNORPETROLEO BRAPN   17,25000000001000000000000700114    16:43 PETR4       00000000BRPETRACNPR6000000000100000000000         00000             11001017100000000              1 N
010128920VPETR4       VISNORPETROLEO BRAPN        000000016750000000172900120    13:11             00000000BRPETRACNPR6000000000100000000000         00000             11003017100000000              1 N
010022560CPETRA67     OPCNORPETROLEO BRAPN   17,25000000001000000000000700114    16:41 PETR4       00000000BRPETRACNPR6000000000100000000000         00000             11001017100000000              1 N
010008150CPETRA47     OPCNORPETROLEO BRAPN   17,50000000223000000000000600003    13:14 PETR4       00000000BRPETRACNPR6000000000100000000000         00000             11001017100000000              1 N
010101620VPETR4       VISNORPETROLEO BRAPN        000000016750000000172100008    12:35             00000000BRPETRACNPR6000000000100000000000         00000             11003017100000000              1 N
010125760VPETR4       VISNORPETROLEO BRAPN        000000016750000000173000003    13:08             00000000BRPETRACNPR6000000000100000000000         00000             11003017100000000              1 N
010008140CPETRA47     OPCNORPETROLEO BRAPN   17,50000000047000000000000600090    13:14 PETR4       00000000BRPETRACNPR6000000000100000000000         00000             11001017100000000              1 N
010000790CABCB2       VISNORBCO ABC BRASDP   12,46000000004500000000048500085    13:58             00000000BRABCBD12PR6000000000100000000000         00000             11003017100000000              1 N
010291310VPETR4       VISNORPETROLEO BRAPN        000000005000000000172000045    16:43             00000000BRPETRACNPR6000000000100000000000         00000             11003017100000000              1 N
010291320VPETR4       VISNORPETROLEO BRAPN        000000003540000000172000045    16:43             00000000BRPETRACNPR6000000000100000000000         00000             11003017100000000              1 N
010000300VPETRA67     OPCNORPETROLEO BRAPN   17,25000000085000000000000800045    10:14 PETR4       00000000BRPETRACNPR6000000000100000000000         00000             11001017100000000              1 N
010022570CPETRA67     OPCNORPETROLEO BRAPN   17,25000000001000000000000700114    16:42 PETR4       00000000BRPETRACNPR6000000000100000000000         00000             11001017100000000              1 N
010002460CPETRA67     OPCNORPETROLEO BRAPN   17,25000000049000000000001500262    11:11 PETR4       00000000BRPETRACNPR6000000000100000000000         00000             11001017100000000              1 N
010002470CPETRA67     OPCNORPETROLEO BRAPN   17,25000000076000000000001500008    11:11 PETR4       00000000BRPETRACNPR6000000000100000000000         00000             11001017100000000              1 N
010022550CPETRA67     OPCNORPETROLEO BRAPN   17,25000000001000000000000700088    16:41 PETR4       00000000BRPETRACNPR6000000000100000000000         00000             11001017100000000              1 N
010022590CPETRA67     OPCNORPETROLEO BRAPN   17,25000000071000000000000700045    16:43 PETR4       00000000BRPETRACNPR6000000000100000000000         00000             11001017100000000              1 N
010000780CABCB2       VISNORBCO ABC BRASDP   12,46000000000500000000048200129    13:58             00000000BRABCBD12PR6000000000100000000000         00000             11003017100000000              1 N
010024350VPETRA67     OPCNORPETROLEO BRAPN   17,25000000029000000000001000003    17:29 PETR4       00000000BRPETRACNPR6000000000100000000000         00000             11001017100000000              1 N
010291580VPETR4       VISNORPETROLEO BRAPN        000000008210000000171900003    16:43             00000000BRPETRACNPR6000000000100000000000         00000             11003017100000000              1 N
99NEGS0129SINACOR 012920180112000000023                                                                                                                                                                 
