00PESC0129CBLC    01292018011220180112
0120180112PETR4       0167910V00392391000000000005300216000000000000000 VIS000000017370000001             BRPETRACNPR6000PETROLEO BRAPN          1              
0120180112PETR4       0167920V00392391000000000001100216000000000000000 VIS000000017370000001             BRPETRACNPR6000PETROLEO BRAPN          1              
0120180112PETR4       0167930V00392391000000000000100216000000000000000 VIS000000017370000001             BRPETRACNPR6000PETROLEO BRAPN          1              
0120180112PETR4       0167940V00392391000000000002200216000000000000000 VIS000000017370000001             BRPETRACNPR6000PETROLEO BRAPN          1              
0120180112PETR4       0167950V00392391000000000000200216000000000000000 VIS000000017370000001             BRPETRACNPR6000PETROLEO BRAPN          1              
0120180112PETR4       0167960V00392391000000000000100216000000000000000 VIS000000017370000001             BRPETRACNPR6000PETROLEO BRAPN          1              
0120180112PETR4       0167970V00392391000000000000900216000000000000000 VIS000000017370000001             BRPETRACNPR6000PETROLEO BRAPN          1              
0120180112PETR4       0167980V00392391000000000000300216000000000000000 VIS000000017370000001             BRPETRACNPR6000PETROLEO BRAPN          1              
0120180112PETR4       0167990V00392391000000000002200216000000000000000 VIS000000017370000001             BRPETRACNPR6000PETROLEO BRAPN          1              
0120180112PETR4       0168000V00392391000000000000200216000000000000000 VIS000000017370000001             BRPETRACNPR6000PETROLEO BRAPN          1              
0120180112PETR4       0168010V00392391000000000000100216000000000000000 VIS000000017370000001             BRPETRACNPR6000PETROLEO BRAPN          1              
0120180112PETR4       0168020V00392391000000000000100216000000000000000 VIS000000017370000001             BRPETRACNPR6000PETROLEO BRAPN          1              
0120180112PETR4       0168030V00392391000000000002200216000000000000000 VIS000000017370000001             BRPETRACNPR6000PETROLEO BRAPN          1              
0120180112PETR4       0168040V00392391000000000000100216000000000000000 VIS000000017370000001             BRPETRACNPR6000PETROLEO BRAPN          1              
0120180112PETR4       0168050V00392391000000000000600216000000000000000 VIS000000017370000001             BRPETRACNPR6000PETROLEO BRAPN          1              
0120180112PETR4       0168060V00392391000000000001500216000000000000000 VIS000000017370000001             BRPETRACNPR6000PETROLEO BRAPN          1              
0120180112PETR4       0168070V00392391000000000000400216000000000000000 VIS000000017370000001             BRPETRACNPR6000PETROLEO BRAPN          1              
0120180112PETR4       0168080V00392391000000000000200216000000000000000 VIS000000017370000001             BRPETRACNPR6000PETROLEO BRAPN          1              
0120180112PETR4       0168090V00392391000000000000400216000000000000000 VIS000000017370000001             BRPETRACNPR6000PETROLEO BRAPN          1              
0120180112PETR4       0168150V00392391000000000000100216000000000000000 VIS000000017370000001             BRPETRACNPR6000PETROLEO BRAPN          1              
0120180112PETR4       0168160V00392391000000000000100216000000000000000 VIS000000017370000001             BRPETRACNPR6000PETROLEO BRAPN          1              
0120180112PETR4       0168180V00392391000000000000300216000000000000000 VIS000000017370000001             BRPETRACNPR6000PETROLEO BRAPN          1              
0120180112PETR4       0168190V00392391000000000001000216000000000000000 VIS000000017370000001             BRPETRACNPR6000PETROLEO BRAPN          1              
0120180112PETR4       0168200V00392391000000000000100216000000000000000 VIS000000017370000001             BRPETRACNPR6000PETROLEO BRAPN          1              
0120180112PETR4       0168210V00392391000000000000200216000000000000000 VIS000000017370000001             BRPETRACNPR6000PETROLEO BRAPN          1              
0120180112PETR4       0223110C00392391000000000010000216000000000000000 VIS000000017270000001             BRPETRACNPR6000PETROLEO BRAPN          1              
0120180112PETR4       0225930C00392391000000000010000216000000000000000 VIS000000017280000001             BRPETRACNPR6000PETROLEO BRAPN          1              
0120180112PETRA47     0009280C00392391000000000006600216000000000000000 OPC000000000060000001 PETR4       BRPETRACNPR6000PETROLEO BRAPN   17,50  1              
0120180112PETRA47     0009290C00392391000000000043400216000000000000000 OPC000000000060000001 PETR4       BRPETRACNPR6000PETROLEO BRAPN   17,50  1              
0120180112PETRA47     0015320V00392391000000000020000216000000000000000 OPC000000000030000001 PETR4       BRPETRACNPR6000PETROLEO BRAPN   17,50  1              
0120180112PETRA47     0015370C00392391000000000020000216000000000000000 OPC000000000030000001 PETR4       BRPETRACNPR6000PETROLEO BRAPN   17,50  1              
0120180112PETRA57     0013810C00392391000000000009800216000000000000000 OPC000000000250000001 PETR4       BRPETRACNPR6000PETROLEO BRAPN   17,00  1              
0120180112PETRA57     0013820C00392391000000000010200216000000000000000 OPC000000000250000001 PETR4       BRPETRACNPR6000PETROLEO BRAPN   17,00  1              
0120180112PETRA57     0016110V00392391000000000005300216000000000000000 OPC000000000280000001 PETR4       BRPETRACNPR6000PETROLEO BRAPN   17,00  1              
0120180112PETRA57     0016120V00392391000000000000900216000000000000000 OPC000000000280000001 PETR4       BRPETRACNPR6000PETROLEO BRAPN   17,00  1              
0120180112PETRA57     0016130V00392391000000000003800216000000000000000 OPC000000000280000001 PETR4       BRPETRACNPR6000PETROLEO BRAPN   17,00  1              
0120180112PETRA57     0016300V00392391000000000002300216000000000000000 OPC000000000280000001 PETR4       BRPETRACNPR6000PETROLEO BRAPN   17,00  1              
0120180112PETRA57     0016310V00392391000000000004500216000000000000000 OPC000000000280000001 PETR4       BRPETRACNPR6000PETROLEO BRAPN   17,00  1              
0120180112PETRA57     0016320V00392391000000000003200216000000000000000 OPC000000000280000001 PETR4       BRPETRACNPR6000PETROLEO BRAPN   17,00  1              
99PESC0129CBLC    012920180112000000041
