00ESCS0129SINACOR 01292018011220180112
0120180112PETRA67     0022600C00404772000000000003700216000000000000000 OPC000000000070000001 PETR4       BRPETRACNPR6000PETROLEO BRAPN   17,25  1              
0120180112PETRA47     0008150C00404772000000000015000216000000000000000 OPC000000000060000001 PETR4       BRPETRACNPR6000PETROLEO BRAPN   17,50  1              
0120180112PETRA67     0002470C00404772000000000006300216000000000000000 OPC000000000150000001 PETR4       BRPETRACNPR6000PETROLEO BRAPN   17,25  1              
0120180112PETR4       0291570V00404772000000000000100216018290000013456 VIS000000017200000001             BRPETRACNPR6000PETROLEO BRAPN          1              
0120180112PETRA67     0024350V00404772000000000001600216000000000000000 OPC000000000100000001 PETR4       BRPETRACNPR6000PETROLEO BRAPN   17,25  1              
0120180112ABCB2       0000780C00404772000000000000050216018290000013456 VIS000000004820000001             BRABCBD12PR6000BCO ABC BRASDP   12,46  1              
0120180112PETR4       0125810V00404772000000000000825216018290000013456 VIS000000017300000001             BRPETRACNPR6000PETROLEO BRAPN          1              
0120180112PETR4       0291550V00404772000000000000321216018290000013456 VIS000000017200000001             BRPETRACNPR6000PETROLEO BRAPN          1              
0120180112PETRA67     0010720V00404772000000000008000216000000000000000 OPC000000000180000001 PETR4       BRPETRACNPR6000PETROLEO BRAPN   17,25  1              
0120180112ABCB2       0000790C00404772000000000000450216018290000013456 VIS000000004850000001             BRABCBD12PR6000BCO ABC BRASDP   12,46  1              
0120180112PETR4       0128930V00404772000000000000300216018290000013456 VIS000000017290000001             BRPETRACNPR6000PETROLEO BRAPN          1              
0120180112PETR4       0128920V00404772000000000000525216018290000013456 VIS000000017290000001             BRPETRACNPR6000PETROLEO BRAPN          1              
0120180112PETR4       0291590V00404772000000000000404216018290000013456 VIS000000017190000001             BRPETRACNPR6000PETROLEO BRAPN          1              
0120180112PETRA67     0000310V00404772000000000004800216000000000000000 OPC000000000080000001 PETR4       BRPETRACNPR6000PETROLEO BRAPN   17,25  1              
0120180112PETR4       0101630V00404772000000000000825216018290000013456 VIS000000017210000001             BRPETRACNPR6000PETROLEO BRAPN          1              
99ESCS0129SINACOR 012920180112000000017
