00NEGS0129SINACOR 01292018011620180116                                                                                                                                                                  
010000150CPETRB78     OPCNORPETROLEO BRAPN   18,75000000043000000000002700045    10:55 PETR4       00000000BRPETRACNPR6000000000100000000000         00000             11001017100000000              1 N
010085550VBBDC4       VISNORBCO BRADESCOPN      N1000000001000000000360900045    14:38             00000000BRBBDCACNPR8000000000100000000000         00000             11003017100000000              1 N
010085560VBBDC4       VISNORBCO BRADESCOPN      N1000000032000000000360900008    14:38             00000000BRBBDCACNPR8000000000100000000000         00000             11003017100000000              1 N
010147640CBBDC4       VISNORBCO BRADESCOPN      N1000000009000000000359900003    17:12             00000000BRBBDCACNPR8000000000100000000000         00000             11003017100000000              1 N
010309280VPETR4       VISNORPETROLEO BRAPN        000000001000000000177100003    17:00             00000000BRPETRACNPR6000000000100000000000         00000             11003017100000000              1 N
010309290VPETR4       VISNORPETROLEO BRAPN        000000001000000000177100045    17:00             00000000BRPETRACNPR6000000000100000000000         00000             11003017100000000              1 N
010309340VPETR4       VISNORPETROLEO BRAPN        000000001000000000177100016    17:00             00000000BRPETRACNPR6000000000100000000000         00000             11003017100000000              1 N
010309370VPETR4       VISNORPETROLEO BRAPN        000000001000000000177100016    17:00             00000000BRPETRACNPR6000000000100000000000         00000             11003017100000000              1 N
010309540VPETR4       VISNORPETROLEO BRAPN        000000001000000000177100016    17:00             00000000BRPETRACNPR6000000000100000000000         00000             11003017100000000              1 N
010309580VPETR4       VISNORPETROLEO BRAPN        000000001000000000177100045    17:00             00000000BRPETRACNPR6000000000100000000000         00000             11003017100000000              1 N
010309690VPETR4       VISNORPETROLEO BRAPN        000000001000000000177100045    17:00             00000000BRPETRACNPR6000000000100000000000         00000             11003017100000000              1 N
010121450CCSNA3       VISNORCIA SIDERURGON        000000010000000000106100045    17:22             00000000BRCSNAACNOR6000000000100000000000         00000             11003017100000000              1 N
010069350VPETRB69     OPCNORPETROLEO BRAPN   19,00000000005000000000002500308    17:03 PETR4       00000000BRPETRACNPR6000000000100000000000         00000             11001017100000000              1 N
010309260VPETR4       VISNORPETROLEO BRAPN        000000001000000000177100045    17:00             00000000BRPETRACNPR6000000000100000000000         00000             11003017100000000              1 N
010309420VPETR4       VISNORPETROLEO BRAPN        000000001000000000177100045    17:00             00000000BRPETRACNPR6000000000100000000000         00000             11003017100000000              1 N
010309460VPETR4       VISNORPETROLEO BRAPN        000000001000000000177100045    17:00             00000000BRPETRACNPR6000000000100000000000         00000             11003017100000000              1 N
010309620VPETR4       VISNORPETROLEO BRAPN        000000001000000000177100045    17:00             00000000BRPETRACNPR6000000000100000000000         00000             11003017100000000              1 N
010337710CPETR4       VISNORPETROLEO BRAPN        000000003000000000176200008    17:20             00000000BRPETRACNPR6000000000100000000000         00000             11003017100000000              1 N
010020160CPETRB69     OPCNORPETROLEO BRAPN   19,00000000250000000000002700129    11:57 PETR4       00000000BRPETRACNPR6000000000100000000000         00000             11001017100000000              1 N
010147590CBBDC4       VISNORBCO BRADESCOPN      N1000000028000000000359900008    17:12             00000000BRBBDCACNPR8000000000100000000000         00000             11003017100000000              1 N
010121430CCSNA3       VISNORCIA SIDERURGON        000000001000000000106100238    17:22             00000000BRCSNAACNOR6000000000100000000000         00000             11003017100000000              1 N
010309270VPETR4       VISNORPETROLEO BRAPN        000000001000000000177100045    17:00             00000000BRPETRACNPR6000000000100000000000         00000             11003017100000000              1 N
010309320VPETR4       VISNORPETROLEO BRAPN        000000001000000000177100045    17:00             00000000BRPETRACNPR6000000000100000000000         00000             11003017100000000              1 N
010309480VPETR4       VISNORPETROLEO BRAPN        000000001000000000177100045    17:00             00000000BRPETRACNPR6000000000100000000000         00000             11003017100000000              1 N
010309520VPETR4       VISNORPETROLEO BRAPN        000000001000000000177100045    17:00             00000000BRPETRACNPR6000000000100000000000         00000             11003017100000000              1 N
010309600VPETR4       VISNORPETROLEO BRAPN        000000001000000000177100016    17:00             00000000BRPETRACNPR6000000000100000000000         00000             11003017100000000              1 N
010309640VPETR4       VISNORPETROLEO BRAPN        000000001000000000177100045    17:00             00000000BRPETRACNPR6000000000100000000000         00000             11003017100000000              1 N
010085540VBBDC4       VISNORBCO BRADESCOPN      N1000000001000000000360900120    14:38             00000000BRBBDCACNPR8000000000100000000000         00000             11003017100000000              1 N
010121440CCSNA3       VISNORCIA SIDERURGON        000000011000000000106100120    17:22             00000000BRCSNAACNOR6000000000100000000000         00000             11003017100000000              1 N
010309250VPETR4       VISNORPETROLEO BRAPN        000000003000000000177100088    17:00             00000000BRPETRACNPR6000000000100000000000         00000             11003017100000000              1 N
010309300VPETR4       VISNORPETROLEO BRAPN        000000001000000000177100016    17:00             00000000BRPETRACNPR6000000000100000000000         00000             11003017100000000              1 N
010309440VPETR4       VISNORPETROLEO BRAPN        000000001000000000177100016    17:00             00000000BRPETRACNPR6000000000100000000000         00000             11003017100000000              1 N
010309510VPETR4       VISNORPETROLEO BRAPN        000000001000000000177100016    17:00             00000000BRPETRACNPR6000000000100000000000         00000             11003017100000000              1 N
010309560VPETR4       VISNORPETROLEO BRAPN        000000001000000000177100045    17:00             00000000BRPETRACNPR6000000000100000000000         00000             11003017100000000              1 N
010337720CPETR4       VISNORPETROLEO BRAPN        000000005000000000176200008    17:20             00000000BRPETRACNPR6000000000100000000000         00000             11003017100000000              1 N
010337740CPETR4       VISNORPETROLEO BRAPN        000000037000000000176200008    17:20             00000000BRPETRACNPR6000000000100000000000         00000             11003017100000000              1 N
010085510VBBDC4       VISNORBCO BRADESCOPN      N1000000004000000000360900120    14:38             00000000BRBBDCACNPR8000000000100000000000         00000             11003017100000000              1 N
010147660CBBDC4       VISNORBCO BRADESCOPN      N1000000005000000000359900003    17:12             00000000BRBBDCACNPR8000000000100000000000         00000             11003017100000000              1 N
010121420CCSNA3       VISNORCIA SIDERURGON        000000028000000000106100085    17:22             00000000BRCSNAACNOR6000000000100000000000         00000             11003017100000000              1 N
010309330VPETR4       VISNORPETROLEO BRAPN        000000025000000000177100120    17:00             00000000BRPETRACNPR6000000000100000000000         00000             11003017100000000              1 N
010309430VPETR4       VISNORPETROLEO BRAPN        000000001000000000177100045    17:00             00000000BRPETRACNPR6000000000100000000000         00000             11003017100000000              1 N
010309450VPETR4       VISNORPETROLEO BRAPN        000000001000000000177100016    17:00             00000000BRPETRACNPR6000000000100000000000         00000             11003017100000000              1 N
010309610VPETR4       VISNORPETROLEO BRAPN        000000001000000000177100045    17:00             00000000BRPETRACNPR6000000000100000000000         00000             11003017100000000              1 N
010309630VPETR4       VISNORPETROLEO BRAPN        000000001000000000177100016    17:00             00000000BRPETRACNPR6000000000100000000000         00000             11003017100000000              1 N
010337730CPETR4       VISNORPETROLEO BRAPN        000000005000000000176200008    17:20             00000000BRPETRACNPR6000000000100000000000         00000             11003017100000000              1 N
010000160CPETRB78     OPCNORPETROLEO BRAPN   18,75000000207000000000002700008    10:55 PETR4       00000000BRPETRACNPR6000000000100000000000         00000             11001017100000000              1 N
010085520VBBDC4       VISNORBCO BRADESCOPN      N1000000010000000000360900008    14:38             00000000BRBBDCACNPR8000000000100000000000         00000             11003017100000000              1 N
010085530VBBDC4       VISNORBCO BRADESCOPN      N1000000002000000000360900120    14:38             00000000BRBBDCACNPR8000000000100000000000         00000             11003017100000000              1 N
010309230VPETR4       VISNORPETROLEO BRAPN        000000001000000000177100016    17:00             00000000BRPETRACNPR6000000000100000000000         00000             11003017100000000              1 N
010309310VPETR4       VISNORPETROLEO BRAPN        000000001000000000177100045    17:00             00000000BRPETRACNPR6000000000100000000000         00000             11003017100000000              1 N
010309380VPETR4       VISNORPETROLEO BRAPN        000000001000000000177100045    17:00             00000000BRPETRACNPR6000000000100000000000         00000             11003017100000000              1 N
010309400VPETR4       VISNORPETROLEO BRAPN        000000004000000000177100072    17:00             00000000BRPETRACNPR6000000000100000000000         00000             11003017100000000              1 N
010309470VPETR4       VISNORPETROLEO BRAPN        000000001000000000177100045    17:00             00000000BRPETRACNPR6000000000100000000000         00000             11003017100000000              1 N
010309490VPETR4       VISNORPETROLEO BRAPN        000000001000000000177100045    17:00             00000000BRPETRACNPR6000000000100000000000         00000             11003017100000000              1 N
010309550VPETR4       VISNORPETROLEO BRAPN        000000001000000000177100045    17:00             00000000BRPETRACNPR6000000000100000000000         00000             11003017100000000              1 N
010309590VPETR4       VISNORPETROLEO BRAPN        000000003000000000177100072    17:00             00000000BRPETRACNPR6000000000100000000000         00000             11003017100000000              1 N
010309660VPETR4       VISNORPETROLEO BRAPN        000000001000000000177100016    17:00             00000000BRPETRACNPR6000000000100000000000         00000             11003017100000000              1 N
010069340VPETRB69     OPCNORPETROLEO BRAPN   19,00000000020000000000002500107    17:02 PETR4       00000000BRPETRACNPR6000000000100000000000         00000             11001017100000000              1 N
010147500CBBDC4       VISNORBCO BRADESCOPN      N1000000008000000000359800016    17:12             00000000BRBBDCACNPR8000000000100000000000         00000             11003017100000000              1 N
010309350VPETR4       VISNORPETROLEO BRAPN        000000001000000000177100045    17:00             00000000BRPETRACNPR6000000000100000000000         00000             11003017100000000              1 N
010309360VPETR4       VISNORPETROLEO BRAPN        000000001000000000177100016    17:00             00000000BRPETRACNPR6000000000100000000000         00000             11003017100000000              1 N
010309410VPETR4       VISNORPETROLEO BRAPN        000000001000000000177100016    17:00             00000000BRPETRACNPR6000000000100000000000         00000             11003017100000000              1 N
010325210CPETR4       VISNORPETROLEO BRAPN        000000050000000000176500086    17:13             00000000BRPETRACNPR6000000000100000000000         00000             11003017100000000              1 N
010000350VPETRB78     OPCNORPETROLEO BRAPN   18,75000000100000000000003200008    11:45 PETR4       00000000BRPETRACNPR6000000000100000000000         00000             11001017100000000              1 N
010000390VPETRB78     OPCNORPETROLEO BRAPN   18,75000000066000000000003300008    11:49 PETR4       00000000BRPETRACNPR6000000000100000000000         00000             11001017100000000              1 N
010000400VPETRB78     OPCNORPETROLEO BRAPN   18,75000000084000000000003300008    11:49 PETR4       00000000BRPETRACNPR6000000000100000000000         00000             11001017100000000              1 N
010069330VPETRB69     OPCNORPETROLEO BRAPN   19,00000000225000000000002500008    17:02 PETR4       00000000BRPETRACNPR6000000000100000000000         00000             11001017100000000              1 N
010084910VCSNA3       VISNORCIA SIDERURGON        000000050000000000106700386    14:50             00000000BRCSNAACNOR6000000000100000000000         00000             11003017100000000              1 N
010309240VPETR4       VISNORPETROLEO BRAPN        000000025000000000177100013    17:00             00000000BRPETRACNPR6000000000100000000000         00000             11003017100000000              1 N
010309390VPETR4       VISNORPETROLEO BRAPN        000000001000000000177100045    17:00             00000000BRPETRACNPR6000000000100000000000         00000             11003017100000000              1 N
010309500VPETR4       VISNORPETROLEO BRAPN        000000001000000000177100016    17:00             00000000BRPETRACNPR6000000000100000000000         00000             11003017100000000              1 N
010309650VPETR4       VISNORPETROLEO BRAPN        000000001000000000177100016    17:00             00000000BRPETRACNPR6000000000100000000000         00000             11003017100000000              1 N
010309670VPETR4       VISNORPETROLEO BRAPN        000000001000000000177100045    17:00             00000000BRPETRACNPR6000000000100000000000         00000             11003017100000000              1 N
010309680VPETR4       VISNORPETROLEO BRAPN        000000001000000000177100016    17:00             00000000BRPETRACNPR6000000000100000000000         00000             11003017100000000              1 N
99NEGS0129SINACOR 012920180116000000076                                                                                                                                                                 
