00NEGS0129SINACOR 01292018011220180112                                                                                                                                                                  
010101630VPETR4       VISNORPETROLEO BRAPN        000000008250000000172100085    12:35             00000000BRPETRACNPR6000000000100000000000         00000             11003017100000000              1 N
010010720VPETRA67     OPCNORPETROLEO BRAPN   17,25000000080000000000001800129    13:47 PETR4       00000000BRPETRACNPR6000000000100000000000         00000             11001017100000000              1 N
010128920VPETR4       VISNORPETROLEO BRAPN        000000005250000000172900120    13:11             00000000BRPETRACNPR6000000000100000000000         00000             11003017100000000              1 N
010128930VPETR4       VISNORPETROLEO BRAPN        000000003000000000172900045    13:11             00000000BRPETRACNPR6000000000100000000000         00000             11003017100000000              1 N
010291550VPETR4       VISNORPETROLEO BRAPN        000000003210000000172000045    16:43             00000000BRPETRACNPR6000000000100000000000         00000             11003017100000000              1 N
010000310VPETRA67     OPCNORPETROLEO BRAPN   17,25000000048000000000000800129    10:14 PETR4       00000000BRPETRACNPR6000000000100000000000         00000             11001017100000000              1 N
010008150CPETRA47     OPCNORPETROLEO BRAPN   17,50000000150000000000000600003    13:14 PETR4       00000000BRPETRACNPR6000000000100000000000         00000             11001017100000000              1 N
010000790CABCB2       VISNORBCO ABC BRASDP   12,46000000004500000000048500085    13:58             00000000BRABCBD12PR6000000000100000000000         00000             11003017100000000              1 N
010291570VPETR4       VISNORPETROLEO BRAPN        000000001000000000172000072    16:43             00000000BRPETRACNPR6000000000100000000000         00000             11003017100000000              1 N
010022600CPETRA67     OPCNORPETROLEO BRAPN   17,25000000037000000000000700045    16:43 PETR4       00000000BRPETRACNPR6000000000100000000000         00000             11001017100000000              1 N
010002470CPETRA67     OPCNORPETROLEO BRAPN   17,25000000063000000000001500008    11:11 PETR4       00000000BRPETRACNPR6000000000100000000000         00000             11001017100000000              1 N
010000780CABCB2       VISNORBCO ABC BRASDP   12,46000000000500000000048200129    13:58             00000000BRABCBD12PR6000000000100000000000         00000             11003017100000000              1 N
010291590VPETR4       VISNORPETROLEO BRAPN        000000004040000000171900120    16:43             00000000BRPETRACNPR6000000000100000000000         00000             11003017100000000              1 N
010024350VPETRA67     OPCNORPETROLEO BRAPN   17,25000000016000000000001000003    17:29 PETR4       00000000BRPETRACNPR6000000000100000000000         00000             11001017100000000              1 N
010125810VPETR4       VISNORPETROLEO BRAPN        000000008250000000173000120    13:08             00000000BRPETRACNPR6000000000100000000000         00000             11003017100000000              1 N
99NEGS0129SINACOR 012920180112000000017                                                                                                                                                                 
