00PESC0129CBLC    01292018010520180105
0120180105RADL3       0042190V00354724000000000000100216001290000354724 VIS000000089740000001             BRRADLACNOR0000RAIA DROGASION      NM  1              
0120180105RADL3       0042200V00354724000000000000100216001290000354724 VIS000000089740000001             BRRADLACNOR0000RAIA DROGASION      NM  1              
0120180105RADL3       0042210V00354724000000000000200216001290000354724 VIS000000089720000001             BRRADLACNOR0000RAIA DROGASION      NM  1              
0120180105RADL3       0042220V00354724000000000000100216001290000354724 VIS000000089720000001             BRRADLACNOR0000RAIA DROGASION      NM  1              
0120180105RADL3       0042230V00354724000000000000400216001290000354724 VIS000000089720000001             BRRADLACNOR0000RAIA DROGASION      NM  1              
0120180105RADL3       0042600V00354724000000000000100216001290000354724 VIS000000089600000001             BRRADLACNOR0000RAIA DROGASION      NM  1              
0120180105RADL3       0042610V00354724000000000000300216001290000354724 VIS000000089600000001             BRRADLACNOR0000RAIA DROGASION      NM  1              
0120180105RADL3       0042620V00354724000000000000500216001290000354724 VIS000000089600000001             BRRADLACNOR0000RAIA DROGASION      NM  1              
0120180105RADL3       0042630V00354724000000000000200216001290000354724 VIS000000089600000001             BRRADLACNOR0000RAIA DROGASION      NM  1              
0120180105RADL3       0055980V00354724000000000000100216001290000354724 VIS000000090290000001             BRRADLACNOR0000RAIA DROGASION      NM  1              
0120180105RADL3       0055990V00354724000000000000100216001290000354724 VIS000000090290000001             BRRADLACNOR0000RAIA DROGASION      NM  1              
0120180105RADL3       0056000V00354724000000000000100216001290000354724 VIS000000090280000001             BRRADLACNOR0000RAIA DROGASION      NM  1              
0120180105RADL3       0056010V00354724000000000000100216001290000354724 VIS000000090280000001             BRRADLACNOR0000RAIA DROGASION      NM  1              
0120180105RADL3       0056020V00354724000000000000100216001290000354724 VIS000000090270000001             BRRADLACNOR0000RAIA DROGASION      NM  1              
0120180105RADL3       0056220V00354724000000000000100216001290000354724 VIS000000090270000001             BRRADLACNOR0000RAIA DROGASION      NM  1              
0120180105RADL3       0056230V00354724000000000000100216001290000354724 VIS000000090270000001             BRRADLACNOR0000RAIA DROGASION      NM  1              
0120180105RADL3       0056410V00354724000000000000300216001290000354724 VIS000000090270000001             BRRADLACNOR0000RAIA DROGASION      NM  1              
0120180105RADL3       0056430V00354724000000000000400216001290000354724 VIS000000090270000001             BRRADLACNOR0000RAIA DROGASION      NM  1              
0120180105RADL3       0056440V00354724000000000000300216001290000354724 VIS000000090270000001             BRRADLACNOR0000RAIA DROGASION      NM  1              
0120180105RADL3       0056450V00354724000000000000100216001290000354724 VIS000000090270000001             BRRADLACNOR0000RAIA DROGASION      NM  1              
0120180105RADL3       0056460V00354724000000000000100216001290000354724 VIS000000090270000001             BRRADLACNOR0000RAIA DROGASION      NM  1              
0120180105RADL3       0056470V00354724000000000000100216001290000354724 VIS000000090270000001             BRRADLACNOR0000RAIA DROGASION      NM  1              
0120180105RADL3       0066750C00354724000000000000500216001290000354724 VIS000000090450000001             BRRADLACNOR0000RAIA DROGASION      NM  1              
0120180105RADL3       0066760C00354724000000000003500216001290000354724 VIS000000090450000001             BRRADLACNOR0000RAIA DROGASION      NM  1              
99PESC0129CBLC    012920180105000000026
