00ESCS0129SINACOR 01292018011720180117
0120180117PETRB49     0012390C00404772000000000001000216000000000000000 OPC000000000240000001 PETR4       BRPETRACNPR6000PETROLEO BRAPN   19,50  1              
0120180117VALEB47     0006000C00404772000000000005500216000000000000000 OPC000000000220000001 VALE3       BRVALEACNOR0000VALE S.A.   ON   47,99  1              
0120180117PETRB49     0012430C00404772000000000010000216000000000000000 OPC000000000250000001 PETR4       BRPETRACNPR6000PETROLEO BRAPN   19,50  1              
0120180117PETRB49     0012470C00404772000000000004200216000000000000000 OPC000000000250000001 PETR4       BRPETRACNPR6000PETROLEO BRAPN   19,50  1              
0120180117PETRB49     0015260V00404772000000000013300216000000000000000 OPC000000000280000001 PETR4       BRPETRACNPR6000PETROLEO BRAPN   19,50  1              
0120180117ABCB2       0000560C00404772000000000000072216018290000013456 VIS000000005010000001             BRABCBD12PR6000BCO ABC BRASDP   12,46  1              
0120180117VALEB47     0005990C00404772000000000005000216000000000000000 OPC000000000220000001 VALE3       BRVALEACNOR0000VALE S.A.   ON   47,99  1              
0120180117PETRB49     0012450C00404772000000000003000216000000000000000 OPC000000000250000001 PETR4       BRPETRACNPR6000PETROLEO BRAPN   19,50  1              
0120180117PETRB49     0015250V00404772000000000021700216000000000000000 OPC000000000280000001 PETR4       BRPETRACNPR6000PETROLEO BRAPN   19,50  1              
0120180117ABCB2       0001200C00404772000000000000728216018290000013456 VIS000000005000000001             BRABCBD12PR6000BCO ABC BRASDP   12,46  1              
0120180117BBDC4       0094210V00404772000000000000100216018290000013456 VIS000000036400000001             BRBBDCACNPR8000BCO BRADESCOPN      N1  1              
0120180117BBDC4       0094350V00404772000000000000200216018290000013456 VIS000000036410000001             BRBBDCACNPR8000BCO BRADESCOPN      N1  1              
0120180117BBDC4       0094620V00404772000000000000177216018290000013456 VIS000000036390000001             BRBBDCACNPR8000BCO BRADESCOPN      N1  1              
0120180117BBDC4       0095070V00404772000000000000031216018290000013456 VIS000000036410000001             BRBBDCACNPR8000BCO BRADESCOPN      N1  1              
0120180117BBDC4       0134360V00404772000000000000600216018290000013456 VIS000000036650000001             BRBBDCACNPR8000BCO BRADESCOPN      N1  1              
0120180117ITUB4       0142310C00404772000000000000162216018290000013456 VIS000000046600000001             BRITUBACNPR1000ITAU UNIBANCPN      N1  1              
0120180117FESA4       0001620C00404772000000000000100216018290000013456 VIS000000022800000001             BRFESAACNPR5000CIA FERRO LIPN      N1  1              
0120180117BBDC4       0134290V00404772000000000001100216018290000013456 VIS000000036650000001             BRBBDCACNPR8000BCO BRADESCOPN      N1  1              
0120180117BBDC4       0134370V00404772000000000000100216018290000013456 VIS000000036650000001             BRBBDCACNPR8000BCO BRADESCOPN      N1  1              
0120180117ITUB4       0127060C00404772000000000001778216018290000013456 VIS000000046650000001             BRITUBACNPR1000ITAU UNIBANCPN      N1  1              
0120180117ITUB4       0096420V00404772000000000000200216018290000013456 VIS000000046500000001             BRITUBACNPR1000ITAU UNIBANCPN      N1  1              
0120180117VALEB47     0004120V00404772000000000024500216000000000000000 OPC000000000230000001 VALE3       BRVALEACNOR0000VALE S.A.   ON   47,99  1              
0120180117VALEB47     0006930V00404772000000000016700216000000000000000 OPC000000000240000001 VALE3       BRVALEACNOR0000VALE S.A.   ON   47,99  1              
0120180117PETRB59     0000490V00404772000000000017500216000000000000000 OPC000000000280000001 PETR4       BRPETRACNPR6000PETROLEO BRAPN   19,25  1              
0120180117ITUB4       0201600C00404772000000000001992216018290000013456 VIS000000046800000001             BRITUBACNPR1000ITAU UNIBANCPN      N1  1              
0120180117PETRB49     0012400C00404772000000000001000216000000000000000 OPC000000000240000001 PETR4       BRPETRACNPR6000PETROLEO BRAPN   19,50  1              
0120180117VALEB47     0004130V00404772000000000004600216000000000000000 OPC000000000230000001 VALE3       BRVALEACNOR0000VALE S.A.   ON   47,99  1              
0120180117PETRB49     0012440C00404772000000000001000216000000000000000 OPC000000000250000001 PETR4       BRPETRACNPR6000PETROLEO BRAPN   19,50  1              
0120180117PETRB49     0012460C00404772000000000001000216000000000000000 OPC000000000250000001 PETR4       BRPETRACNPR6000PETROLEO BRAPN   19,50  1              
0120180117PETRB59     0000190C00404772000000000028600216000000000000000 OPC000000000260000001 PETR4       BRPETRACNPR6000PETROLEO BRAPN   19,25  1              
0120180117PETRB59     0000560V00404772000000000017500216000000000000000 OPC000000000290000001 PETR4       BRPETRACNPR6000PETROLEO BRAPN   19,25  1              
0120180117VALEB47     0000770C00404772000000000033300216000000000000000 OPC000000000210000001 VALE3       BRVALEACNOR0000VALE S.A.   ON   47,99  1              
0120180117FESA4       0017680V00404772000000000000400216018290000013456 VIS000000024150000001             BRFESAACNPR5000CIA FERRO LIPN      N1  1              
0120180117BBDC4       0094520V00404772000000000000159216018290000013456 VIS000000036400000001             BRBBDCACNPR8000BCO BRADESCOPN      N1  1              
0120180117BBDC4       0095060V00404772000000000000900216018290000013456 VIS000000036410000001             BRBBDCACNPR8000BCO BRADESCOPN      N1  1              
0120180117ITUB4       0202530C00404772000000000000853216018290000013456 VIS000000046840000001             BRITUBACNPR1000ITAU UNIBANCPN      N1  1              
0120180117BBDC4       0110380C00404772000000000000144216018290000013456 VIS000000036570000001             BRBBDCACNPR8000BCO BRADESCOPN      N1  1              
0120180117PETRB49     0012410C00404772000000000005300216000000000000000 OPC000000000240000001 PETR4       BRPETRACNPR6000PETROLEO BRAPN   19,50  1              
0120180117VALEB47     0005980C00404772000000000005000216000000000000000 OPC000000000220000001 VALE3       BRVALEACNOR0000VALE S.A.   ON   47,99  1              
0120180117PETRB69     0001100V00404772000000000002600216000000000000000 OPC000000000280000001 PETR4       BRPETRACNPR6000PETROLEO BRAPN   19,00  1              
0120180117PETRB59     0000200C00404772000000000006400216000000000000000 OPC000000000260000001 PETR4       BRPETRACNPR6000PETROLEO BRAPN   19,25  1              
0120180117BBDC4       0134310V00404772000000000000200216018290000013456 VIS000000036650000001             BRBBDCACNPR8000BCO BRADESCOPN      N1  1              
0120180117BBDC4       0134350V00404772000000000000100216018290000013456 VIS000000036650000001             BRBBDCACNPR8000BCO BRADESCOPN      N1  1              
0120180117VALEB47     0004140V00404772000000000004200216000000000000000 OPC000000000230000001 VALE3       BRVALEACNOR0000VALE S.A.   ON   47,99  1              
0120180117PETRB69     0001110V00404772000000000004900216000000000000000 OPC000000000280000001 PETR4       BRPETRACNPR6000PETROLEO BRAPN   19,00  1              
0120180117PETRB69     0006460V00404772000000000007500216000000000000000 OPC000000000320000001 PETR4       BRPETRACNPR6000PETROLEO BRAPN   19,00  1              
0120180117BBDC4       0134300V00404772000000000000100216018290000013456 VIS000000036650000001             BRBBDCACNPR8000BCO BRADESCOPN      N1  1              
0120180117BBDC4       0134320V00404772000000000000100216018290000013456 VIS000000036650000001             BRBBDCACNPR8000BCO BRADESCOPN      N1  1              
0120180117BBDC4       0134380V00404772000000000000100216018290000013456 VIS000000036650000001             BRBBDCACNPR8000BCO BRADESCOPN      N1  1              
0120180117ITUB4       0141510C00404772000000000000200216018290000013456 VIS000000046600000001             BRITUBACNPR1000ITAU UNIBANCPN      N1  1              
0120180117BBDC4       0079330C00404772000000000001656216018290000013456 VIS000000036280000001             BRBBDCACNPR8000BCO BRADESCOPN      N1  1              
0120180117ITUB4       0096430V00404772000000000000500216018290000013456 VIS000000046500000001             BRITUBACNPR1000ITAU UNIBANCPN      N1  1              
0120180117PETRB49     0012420C00404772000000000008500216000000000000000 OPC000000000250000001 PETR4       BRPETRACNPR6000PETROLEO BRAPN   19,50  1              
0120180117VALEB47     0005970C00404772000000000001200216000000000000000 OPC000000000220000001 VALE3       BRVALEACNOR0000VALE S.A.   ON   47,99  1              
0120180117FESA4       0001630C00404772000000000000300216018290000013456 VIS000000022800000001             BRFESAACNPR5000CIA FERRO LIPN      N1  1              
0120180117BBDC4       0094180V00404772000000000000200216018290000013456 VIS000000036400000001             BRBBDCACNPR8000BCO BRADESCOPN      N1  1              
0120180117BBDC4       0134330V00404772000000000000800216018290000013456 VIS000000036650000001             BRBBDCACNPR8000BCO BRADESCOPN      N1  1              
0120180117BBDC4       0134340V00404772000000000000100216018290000013456 VIS000000036650000001             BRBBDCACNPR8000BCO BRADESCOPN      N1  1              
0120180117BBDC4       0134390V00404772000000000000233216018290000013456 VIS000000036650000001             BRBBDCACNPR8000BCO BRADESCOPN      N1  1              
0120180117ITUB4       0141530C00404772000000000000100216018290000013456 VIS000000046600000001             BRITUBACNPR1000ITAU UNIBANCPN      N1  1              
0120180117ITUB4       0141870C00404772000000000000200216018290000013456 VIS000000046610000001             BRITUBACNPR1000ITAU UNIBANCPN      N1  1              
0120180117ITUB4       0142420C00404772000000000000178216018290000013456 VIS000000046590000001             BRITUBACNPR1000ITAU UNIBANCPN      N1  1              
0120180117ITUB4       0143310C00404772000000000000900216018290000013456 VIS000000046610000001             BRITUBACNPR1000ITAU UNIBANCPN      N1  1              
0120180117ITUB4       0143320C00404772000000000000037216018290000013456 VIS000000046610000001             BRITUBACNPR1000ITAU UNIBANCPN      N1  1              
0120180117ITUB4       0096410V00404772000000000002900216018290000013456 VIS000000046500000001             BRITUBACNPR1000ITAU UNIBANCPN      N1  1              
99ESCS0129SINACOR 012920180117000000067
