00ESCS0129SINACOR 01292018011620180116
0120180116ABCB2       0001860C00404772000000000000400216018290000013456 VIS000000004820000001             BRABCBD12PR6000BCO ABC BRASDP   12,46  1              
0120180116PETRB69     0020160C00404772000000000015000216000000000000000 OPC000000000270000001 PETR4       BRPETRACNPR6000PETROLEO BRAPN   19,00  1              
0120180116ABCB2       0001870C00404772000000000000100216018290000013456 VIS000000004820000001             BRABCBD12PR6000BCO ABC BRASDP   12,46  1              
0120180116FESA4       0003190C00404772000000000000100216018290000013456 VIS000000026000000001             BRFESAACNPR5000CIA FERRO LIPN      N1  1              
0120180116ABCB2       0001880C00404772000000000000200216018290000013456 VIS000000004820000001             BRABCBD12PR6000BCO ABC BRASDP   12,46  1              
0120180116FESA4       0003180C00404772000000000000075216018290000013456 VIS000000026000000001             BRFESAACNPR5000CIA FERRO LIPN      N1  1              
0120180116ABCB4       0003000C00404772000000000000700216018290000013456 VIS000000017420000001             BRABCBACNPR4000BCO ABC BRASPN      N2  1              
0120180116FESA4       0003160C00404772000000000000175216018290000013456 VIS000000025990000001             BRFESAACNPR5000CIA FERRO LIPN      N1  1              
0120180116FESA4       0008010C00404772000000000000350216018290000013456 VIS000000025450000001             BRFESAACNPR5000CIA FERRO LIPN      N1  1              
99ESCS0129SINACOR 012920180116000000011
