00PESC0129CBLC    01292018010520180105
0120180105ABCB2       0000220C00404772000000000000200216018290000013456 VIS000000004010000001             BRABCBD12PR6000BCO ABC BRASDP   12,46C 1              
0120180105ABCB2       0000230C00404772000000000000200216018290000013456 VIS000000004010000001             BRABCBD12PR6000BCO ABC BRASDP   12,46C 1              
0120180105CSNA3       0007690C00402320000000000002500216001290000402320 VIS000000009200000001             BRCSNAACNOR6000CIA SIDERURGON          1              
0120180105CSNA3       0007690C00404772000000000002500216018290000013456 VIS000000009200000001             BRCSNAACNOR6000CIA SIDERURGON        C 1              
0120180105CSNA3       0009720C00402320000000000002500216001290000402320 VIS000000009120000001             BRCSNAACNOR6000CIA SIDERURGON          1              
0120180105CSNA3       0009720C00404772000000000002500216018290000013456 VIS000000009120000001             BRCSNAACNOR6000CIA SIDERURGON        C 1              
0120180105CSNA3       0068800V00402320000000000000100216001290000402320 VIS000000009310000001             BRCSNAACNOR6000CIA SIDERURGON          1              
0120180105CSNA3       0068810V00402320000000000004700216001290000402320 VIS000000009310000001             BRCSNAACNOR6000CIA SIDERURGON          1              
0120180105CSNA3       0068820V00402320000000000000200216001290000402320 VIS000000009310000001             BRCSNAACNOR6000CIA SIDERURGON          1              
0120180105CSNA3       0068830V00404772000000000000200216018290000013456 VIS000000009310000001             BRCSNAACNOR6000CIA SIDERURGON        C 1              
0120180105CSNA3       0068840V00404772000000000000300216018290000013456 VIS000000009310000001             BRCSNAACNOR6000CIA SIDERURGON        C 1              
0120180105CSNA3       0068860V00404772000000000000100216018290000013456 VIS000000009310000001             BRCSNAACNOR6000CIA SIDERURGON        C 1              
0120180105CSNA3       0068870V00404772000000000000300216018290000013456 VIS000000009310000001             BRCSNAACNOR6000CIA SIDERURGON        C 1              
0120180105CSNA3       0068880V00404772000000000000100216018290000013456 VIS000000009310000001             BRCSNAACNOR6000CIA SIDERURGON        C 1              
0120180105CSNA3       0068890V00404772000000000000100216018290000013456 VIS000000009310000001             BRCSNAACNOR6000CIA SIDERURGON        C 1              
0120180105CSNA3       0068900V00404772000000000000800216018290000013456 VIS000000009310000001             BRCSNAACNOR6000CIA SIDERURGON        C 1              
0120180105CSNA3       0068920V00404772000000000000100216018290000013456 VIS000000009310000001             BRCSNAACNOR6000CIA SIDERURGON        C 1              
0120180105CSNA3       0068930V00404772000000000001500216018290000013456 VIS000000009310000001             BRCSNAACNOR6000CIA SIDERURGON        C 1              
0120180105CSNA3       0068950V00404772000000000000100216018290000013456 VIS000000009310000001             BRCSNAACNOR6000CIA SIDERURGON        C 1              
0120180105CSNA3       0068960V00404772000000000000100216018290000013456 VIS000000009310000001             BRCSNAACNOR6000CIA SIDERURGON        C 1              
0120180105CSNA3       0068990V00404772000000000001300216018290000013456 VIS000000009310000001             BRCSNAACNOR6000CIA SIDERURGON        C 1              
0120180105ITUB4       0003120C00402320000000000002500216001290000402320 VIS000000044900000001             BRITUBACNPR1000ITAU UNIBANCPN  ED  N1  1              
0120180105ITUB4       0003120C00404772000000000002500216018290000013456 VIS000000044900000001             BRITUBACNPR1000ITAU UNIBANCPN  ED  N1C 1              
0120180105ITUB4       0010320C00402320000000000001000216001290000402320 VIS000000045000000001             BRITUBACNPR1000ITAU UNIBANCPN  ED  N1  1              
0120180105ITUB4       0010330C00402320000000000000100216001290000402320 VIS000000045000000001             BRITUBACNPR1000ITAU UNIBANCPN  ED  N1  1              
0120180105ITUB4       0010340C00402320000000000000400216001290000402320 VIS000000045000000001             BRITUBACNPR1000ITAU UNIBANCPN  ED  N1  1              
0120180105ITUB4       0010350C00402320000000000000400216001290000402320 VIS000000045000000001             BRITUBACNPR1000ITAU UNIBANCPN  ED  N1  1              
0120180105ITUB4       0010360C00402320000000000000600216001290000402320 VIS000000045000000001             BRITUBACNPR1000ITAU UNIBANCPN  ED  N1  1              
0120180105ITUB4       0010360C00404772000000000001400216018290000013456 VIS000000045000000001             BRITUBACNPR1000ITAU UNIBANCPN  ED  N1C 1              
0120180105ITUB4       0010520C00404772000000000001100216018290000013456 VIS000000045000000001             BRITUBACNPR1000ITAU UNIBANCPN  ED  N1C 1              
0120180105ITUB4       0149200V00404772000000000000100216018290000013456 VIS000000045170000001             BRITUBACNPR1000ITAU UNIBANCPN  ED  N1C 1              
0120180105ITUB4       0149240V00402320000000000000100216001290000402320 VIS000000045170000001             BRITUBACNPR1000ITAU UNIBANCPN  ED  N1  1              
0120180105ITUB4       0149260V00404772000000000000100216018290000013456 VIS000000045160000001             BRITUBACNPR1000ITAU UNIBANCPN  ED  N1C 1              
0120180105ITUB4       0149270V00404772000000000001500216018290000013456 VIS000000045160000001             BRITUBACNPR1000ITAU UNIBANCPN  ED  N1C 1              
0120180105ITUB4       0149290V00404772000000000000100216018290000013456 VIS000000045160000001             BRITUBACNPR1000ITAU UNIBANCPN  ED  N1C 1              
0120180105ITUB4       0149340V00404772000000000000100216018290000013456 VIS000000045160000001             BRITUBACNPR1000ITAU UNIBANCPN  ED  N1C 1              
0120180105ITUB4       0149350V00404772000000000000400216018290000013456 VIS000000045160000001             BRITUBACNPR1000ITAU UNIBANCPN  ED  N1C 1              
0120180105ITUB4       0149370V00402320000000000003000216001290000402320 VIS000000045160000001             BRITUBACNPR1000ITAU UNIBANCPN  ED  N1  1              
0120180105ITUB4       0149370V00404772000000000002700216018290000013456 VIS000000045160000001             BRITUBACNPR1000ITAU UNIBANCPN  ED  N1C 1              
0120180105ITUB4       0149380V00402320000000000001900216001290000402320 VIS000000045160000001             BRITUBACNPR1000ITAU UNIBANCPN  ED  N1  1              
0120180105ITUB4       0197680C00402320000000000005000216001290000402320 VIS000000045230000001             BRITUBACNPR1000ITAU UNIBANCPN  ED  N1  1              
0120180105ITUB4       0197680C00404772000000000005000216018290000013456 VIS000000045230000001             BRITUBACNPR1000ITAU UNIBANCPN  ED  N1C 1              
0120180105PETRA7      0003190V00402320000000000000400216000000000000000 OPC000000000270000001 PETR4       BRPETRACNPR6000PETROLEO BRAPN   16,75  1              
0120180105PETRA7      0003190V00404772000000000015000216000000000000000 OPC000000000270000001 PETR4       BRPETRACNPR6000PETROLEO BRAPN   16,75  1              
0120180105PETRA7      0003200V00402320000000000014600216000000000000000 OPC000000000270000001 PETR4       BRPETRACNPR6000PETROLEO BRAPN   16,75  1              
0120180105PETRA7      0006270C00402320000000000015000216000000000000000 OPC000000000290000001 PETR4       BRPETRACNPR6000PETROLEO BRAPN   16,75  1              
0120180105PETRA7      0006270C00404772000000000015000216000000000000000 OPC000000000290000001 PETR4       BRPETRACNPR6000PETROLEO BRAPN   16,75  1              
99PESC0129CBLC    012920180105000000049
